{
  "_format": "hh-sol-artifact-1",
  "contractName": "QuadraticAuction",
  "sourceName": "contracts/auction/QuadraticAuction.sol",
  "abi": [
    {
      "anonymous": false,
      "inputs": [
        {
          "indexed": true,
          "internalType": "uint256",
          "name": "auctionId",
          "type": "uint256"
        },
        {
          "indexed": false,
          "internalType": "address",
          "name": "toAddress",
          "type": "address"
        }
      ],
      "name": "AbortiveAuctionEvent",
      "type": "event"
    },
    {
      "anonymous": false,
      "inputs": [
        {
          "indexed": true,
          "internalType": "address",
          "name": "sender",
          "type": "address"
        },
        {
          "indexed": false,
          "internalType": "address",
          "name": "beforeVal",
          "type": "address"
        },
        {
          "indexed": false,
          "internalType": "address",
          "name": "afterVal",
          "type": "address"
        }
      ],
      "name": "ChangeUniswapV3OracleEvent",
      "type": "event"
    },
    {
      "anonymous": false,
      "inputs": [
        {
          "indexed": true,
          "internalType": "uint256",
          "name": "bid",
          "type": "uint256"
        },
        {
          "indexed": true,
          "internalType": "uint256",
          "name": "tokenId",
          "type": "uint256"
        },
        {
          "indexed": true,
          "internalType": "uint256",
          "name": "auctionId",
          "type": "uint256"
        },
        {
          "indexed": false,
          "internalType": "uint256",
          "name": "auctionAmount",
          "type": "uint256"
        },
        {
          "indexed": false,
          "internalType": "address",
          "name": "userAddr",
          "type": "address"
        }
      ],
      "name": "DoAuctionEvent",
      "type": "event"
    },
    {
      "anonymous": false,
      "inputs": [
        {
          "indexed": true,
          "internalType": "uint256",
          "name": "bid",
          "type": "uint256"
        },
        {
          "indexed": true,
          "internalType": "uint256",
          "name": "tokenId",
          "type": "uint256"
        },
        {
          "indexed": true,
          "internalType": "uint256",
          "name": "auctionId",
          "type": "uint256"
        },
        {
          "indexed": false,
          "internalType": "address",
          "name": "userAddr",
          "type": "address"
        },
        {
          "indexed": false,
          "internalType": "uint256",
          "name": "bidArid",
          "type": "uint256"
        },
        {
          "indexed": false,
          "internalType": "uint256",
          "name": "bidAmount",
          "type": "uint256"
        },
        {
          "indexed": false,
          "internalType": "uint256",
          "name": "totalBidAmount",
          "type": "uint256"
        }
      ],
      "name": "DoHarvestAuctionEvent",
      "type": "event"
    },
    {
      "anonymous": false,
      "inputs": [
        {
          "indexed": true,
          "internalType": "address",
          "name": "sender",
          "type": "address"
        },
        {
          "indexed": false,
          "internalType": "address",
          "name": "token",
          "type": "address"
        },
        {
          "indexed": false,
          "internalType": "uint256",
          "name": "amount",
          "type": "uint256"
        }
      ],
      "name": "FunderClaimEvent",
      "type": "event"
    },
    {
      "anonymous": false,
      "inputs": [
        {
          "indexed": true,
          "internalType": "address",
          "name": "previousOwner",
          "type": "address"
        },
        {
          "indexed": true,
          "internalType": "address",
          "name": "newOwner",
          "type": "address"
        }
      ],
      "name": "GovernanceTransferred",
      "type": "event"
    },
    {
      "anonymous": false,
      "inputs": [
        {
          "indexed": false,
          "internalType": "uint8",
          "name": "version",
          "type": "uint8"
        }
      ],
      "name": "Initialized",
      "type": "event"
    },
    {
      "anonymous": false,
      "inputs": [
        {
          "indexed": false,
          "internalType": "address",
          "name": "account",
          "type": "address"
        }
      ],
      "name": "Paused",
      "type": "event"
    },
    {
      "anonymous": false,
      "inputs": [
        {
          "indexed": true,
          "internalType": "bytes32",
          "name": "role",
          "type": "bytes32"
        },
        {
          "indexed": true,
          "internalType": "address",
          "name": "account",
          "type": "address"
        },
        {
          "indexed": true,
          "internalType": "address",
          "name": "sender",
          "type": "address"
        }
      ],
      "name": "RoleGranted",
      "type": "event"
    },
    {
      "anonymous": false,
      "inputs": [
        {
          "indexed": true,
          "internalType": "bytes32",
          "name": "role",
          "type": "bytes32"
        },
        {
          "indexed": true,
          "internalType": "address",
          "name": "account",
          "type": "address"
        },
        {
          "indexed": true,
          "internalType": "address",
          "name": "sender",
          "type": "address"
        }
      ],
      "name": "RoleRevoked",
      "type": "event"
    },
    {
      "anonymous": false,
      "inputs": [
        {
          "indexed": false,
          "internalType": "address",
          "name": "sender",
          "type": "address"
        },
        {
          "indexed": false,
          "internalType": "uint256",
          "name": "reductionRatio",
          "type": "uint256"
        },
        {
          "indexed": false,
          "internalType": "uint256",
          "name": "reductionTime",
          "type": "uint256"
        },
        {
          "indexed": false,
          "internalType": "uint256",
          "name": "riskFactor",
          "type": "uint256"
        },
        {
          "indexed": false,
          "internalType": "uint256",
          "name": "onePriceRatio",
          "type": "uint256"
        }
      ],
      "name": "SetActionConfigEvent",
      "type": "event"
    },
    {
      "anonymous": false,
      "inputs": [
        {
          "indexed": true,
          "internalType": "address",
          "name": "sender",
          "type": "address"
        },
        {
          "indexed": false,
          "internalType": "address",
          "name": "beforeVal",
          "type": "address"
        },
        {
          "indexed": false,
          "internalType": "address",
          "name": "afterVal",
          "type": "address"
        }
      ],
      "name": "SetFunderEvent",
      "type": "event"
    },
    {
      "anonymous": false,
      "inputs": [
        {
          "indexed": false,
          "internalType": "address",
          "name": "sender",
          "type": "address"
        },
        {
          "indexed": false,
          "internalType": "address",
          "name": "quadraticLiquidation",
          "type": "address"
        }
      ],
      "name": "SetQuadraticLiquidationEvent",
      "type": "event"
    },
    {
      "anonymous": false,
      "inputs": [
        {
          "indexed": true,
          "internalType": "address",
          "name": "sender",
          "type": "address"
        },
        {
          "indexed": false,
          "internalType": "address",
          "name": "beforeVal",
          "type": "address"
        },
        {
          "indexed": false,
          "internalType": "address",
          "name": "afterVal",
          "type": "address"
        }
      ],
      "name": "SetStreamingProcessorEvent",
      "type": "event"
    },
    {
      "anonymous": false,
      "inputs": [
        {
          "indexed": true,
          "internalType": "uint256",
          "name": "bid",
          "type": "uint256"
        },
        {
          "indexed": true,
          "internalType": "uint256",
          "name": "tokenId",
          "type": "uint256"
        },
        {
          "indexed": false,
          "internalType": "address",
          "name": "erc721Addr",
          "type": "address"
        },
        {
          "indexed": false,
          "internalType": "address",
          "name": "auctionToken",
          "type": "address"
        },
        {
          "indexed": false,
          "internalType": "uint256",
          "name": "startAuctionAmount",
          "type": "uint256"
        },
        {
          "indexed": false,
          "internalType": "uint256",
          "name": "startAuctioInterests",
          "type": "uint256"
        }
      ],
      "name": "ToAuctionEvent",
      "type": "event"
    },
    {
      "anonymous": false,
      "inputs": [
        {
          "indexed": false,
          "internalType": "address",
          "name": "account",
          "type": "address"
        }
      ],
      "name": "Unpaused",
      "type": "event"
    },
    {
      "inputs": [],
      "name": "PAUSER_ROLE",
      "outputs": [
        {
          "internalType": "bytes32",
          "name": "",
          "type": "bytes32"
        }
      ],
      "stateMutability": "view",
      "type": "function"
    },
    {
      "inputs": [],
      "name": "_governance",
      "outputs": [
        {
          "internalType": "address",
          "name": "",
          "type": "address"
        }
      ],
      "stateMutability": "view",
      "type": "function"
    },
    {
      "inputs": [
        {
          "internalType": "uint256",
          "name": "auctionId",
          "type": "uint256"
        }
      ],
      "name": "abortiveAuction",
      "outputs": [],
      "stateMutability": "nonpayable",
      "type": "function"
    },
    {
      "inputs": [
        {
          "internalType": "uint256",
          "name": "",
          "type": "uint256"
        }
      ],
      "name": "auctionInfos",
      "outputs": [
        {
          "internalType": "address",
          "name": "erc721Addr",
          "type": "address"
        },
        {
          "internalType": "uint256",
          "name": "tokenId",
          "type": "uint256"
        },
        {
          "internalType": "uint256",
          "name": "bid",
          "type": "uint256"
        },
        {
          "internalType": "uint256",
          "name": "auctionStartTime",
          "type": "uint256"
        },
        {
          "internalType": "address",
          "name": "auctionToken",
          "type": "address"
        },
        {
          "internalType": "address",
          "name": "auctionUser",
          "type": "address"
        },
        {
          "internalType": "uint256",
          "name": "startAuctionValue",
          "type": "uint256"
        },
        {
          "internalType": "uint256",
          "name": "startAuctionInterests",
          "type": "uint256"
        },
        {
          "internalType": "uint256",
          "name": "saledAmount",
          "type": "uint256"
        },
        {
          "internalType": "uint256",
          "name": "latestBidPrice",
          "type": "uint256"
        },
        {
          "internalType": "uint256",
          "name": "state",
          "type": "uint256"
        },
        {
          "internalType": "uint256",
          "name": "totalBidAmount",
          "type": "uint256"
        }
      ],
      "stateMutability": "view",
      "type": "function"
    },
    {
      "inputs": [
        {
          "internalType": "uint256",
          "name": "",
          "type": "uint256"
        },
        {
          "internalType": "uint256",
          "name": "",
          "type": "uint256"
        }
      ],
      "name": "auctionRecords",
      "outputs": [
        {
          "internalType": "address",
          "name": "auctionUser",
          "type": "address"
        },
        {
          "internalType": "uint256",
          "name": "auctionAmount",
          "type": "uint256"
        },
        {
          "internalType": "uint256",
          "name": "blockTime",
          "type": "uint256"
        },
        {
          "internalType": "bool",
          "name": "returnPay",
          "type": "bool"
        },
        {
          "internalType": "uint256",
          "name": "mulReduce",
          "type": "uint256"
        }
      ],
      "stateMutability": "view",
      "type": "function"
    },
    {
      "inputs": [],
      "name": "borrowCompound",
      "outputs": [
        {
          "internalType": "contract IQuadraticBorrowCompound",
          "name": "",
          "type": "address"
        }
      ],
      "stateMutability": "view",
      "type": "function"
    },
    {
      "inputs": [
        {
          "internalType": "address",
          "name": "_uniswapV3Oracle",
          "type": "address"
        }
      ],
      "name": "changeUniswapV3Oracle",
      "outputs": [],
      "stateMutability": "nonpayable",
      "type": "function"
    },
    {
      "inputs": [
        {
          "internalType": "uint256",
          "name": "auctionId",
          "type": "uint256"
        },
        {
          "internalType": "uint256",
          "name": "amount",
          "type": "uint256"
        }
      ],
      "name": "doAuction",
      "outputs": [],
      "stateMutability": "nonpayable",
      "type": "function"
    },
    {
      "inputs": [
        {
          "internalType": "uint256",
          "name": "auctionId",
          "type": "uint256"
        }
      ],
      "name": "doHarvestAuction",
      "outputs": [],
      "stateMutability": "nonpayable",
      "type": "function"
    },
    {
      "inputs": [
        {
          "internalType": "contract IQuadraticBorrowCompound",
          "name": "_borrowCompound",
          "type": "address"
        },
        {
          "internalType": "contract IUniswapV3Oracle",
          "name": "_uniswapV3Oracle",
          "type": "address"
        },
        {
          "internalType": "uint256",
          "name": "_reductionTime",
          "type": "uint256"
        },
        {
          "internalType": "uint256",
          "name": "_reductionRatio",
          "type": "uint256"
        },
        {
          "internalType": "uint256",
          "name": "_onePriceRatio",
          "type": "uint256"
        },
        {
          "internalType": "uint256",
          "name": "_riskFactor",
          "type": "uint256"
        },
        {
          "internalType": "address",
          "name": "_streamingProcessor",
          "type": "address"
        }
      ],
      "name": "doInitialize",
      "outputs": [],
      "stateMutability": "nonpayable",
      "type": "function"
    },
    {
      "inputs": [],
      "name": "funder",
      "outputs": [
        {
          "internalType": "address",
          "name": "",
          "type": "address"
        }
      ],
      "stateMutability": "view",
      "type": "function"
    },
    {
      "inputs": [
        {
          "internalType": "address",
          "name": "_token",
          "type": "address"
        },
        {
          "internalType": "uint256",
          "name": "_amount",
          "type": "uint256"
        }
      ],
      "name": "funderClaim",
      "outputs": [],
      "stateMutability": "nonpayable",
      "type": "function"
    },
    {
      "inputs": [
        {
          "internalType": "address",
          "name": "",
          "type": "address"
        }
      ],
      "name": "funderPoolInterest",
      "outputs": [
        {
          "internalType": "uint256",
          "name": "",
          "type": "uint256"
        }
      ],
      "stateMutability": "view",
      "type": "function"
    },
    {
      "inputs": [
        {
          "internalType": "uint256",
          "name": "auctionId",
          "type": "uint256"
        }
      ],
      "name": "getAuctionRecordLength",
      "outputs": [
        {
          "internalType": "uint256",
          "name": "length",
          "type": "uint256"
        }
      ],
      "stateMutability": "view",
      "type": "function"
    },
    {
      "inputs": [],
      "name": "getAuctioningIds",
      "outputs": [
        {
          "internalType": "uint256[]",
          "name": "",
          "type": "uint256[]"
        }
      ],
      "stateMutability": "view",
      "type": "function"
    },
    {
      "inputs": [],
      "name": "getBidAuctioningIds",
      "outputs": [
        {
          "internalType": "uint256[]",
          "name": "",
          "type": "uint256[]"
        }
      ],
      "stateMutability": "view",
      "type": "function"
    },
    {
      "inputs": [
        {
          "internalType": "uint256",
          "name": "auctionId",
          "type": "uint256"
        }
      ],
      "name": "getCurrSaleInfo",
      "outputs": [
        {
          "internalType": "uint256",
          "name": "amount",
          "type": "uint256"
        },
        {
          "internalType": "uint256",
          "name": "onePrice",
          "type": "uint256"
        },
        {
          "internalType": "uint256",
          "name": "remainTime",
          "type": "uint256"
        },
        {
          "internalType": "uint256",
          "name": "mulReduce",
          "type": "uint256"
        },
        {
          "internalType": "bool",
          "name": "bidFlag",
          "type": "bool"
        }
      ],
      "stateMutability": "view",
      "type": "function"
    },
    {
      "inputs": [
        {
          "internalType": "uint256",
          "name": "auctionId",
          "type": "uint256"
        }
      ],
      "name": "getCurrSaleInfoV2",
      "outputs": [
        {
          "internalType": "uint256",
          "name": "amount",
          "type": "uint256"
        },
        {
          "internalType": "uint256",
          "name": "onePrice",
          "type": "uint256"
        },
        {
          "internalType": "uint256",
          "name": "remainTime",
          "type": "uint256"
        },
        {
          "internalType": "uint256",
          "name": "mulReduce",
          "type": "uint256"
        },
        {
          "internalType": "bool",
          "name": "bidFlag",
          "type": "bool"
        },
        {
          "internalType": "bool",
          "name": "harvestFlag",
          "type": "bool"
        },
        {
          "internalType": "address",
          "name": "harvestAddress",
          "type": "address"
        }
      ],
      "stateMutability": "view",
      "type": "function"
    },
    {
      "inputs": [
        {
          "internalType": "uint256",
          "name": "auctionId",
          "type": "uint256"
        }
      ],
      "name": "getHarvestAuction",
      "outputs": [
        {
          "internalType": "uint256",
          "name": "maxBidArid",
          "type": "uint256"
        },
        {
          "internalType": "uint256",
          "name": "maxBidAmount",
          "type": "uint256"
        },
        {
          "internalType": "uint256",
          "name": "totalBidAmount",
          "type": "uint256"
        }
      ],
      "stateMutability": "view",
      "type": "function"
    },
    {
      "inputs": [
        {
          "internalType": "uint256",
          "name": "auctionId",
          "type": "uint256"
        }
      ],
      "name": "getHarvestAuctionV2",
      "outputs": [
        {
          "internalType": "uint256",
          "name": "maxBidArid",
          "type": "uint256"
        },
        {
          "internalType": "uint256",
          "name": "maxBidAmount",
          "type": "uint256"
        },
        {
          "internalType": "uint256",
          "name": "totalBidAmount",
          "type": "uint256"
        },
        {
          "internalType": "bool",
          "name": "harvestFlag",
          "type": "bool"
        },
        {
          "internalType": "address",
          "name": "harvestAddress",
          "type": "address"
        }
      ],
      "stateMutability": "view",
      "type": "function"
    },
    {
      "inputs": [],
      "name": "getHolderAuctionIds",
      "outputs": [
        {
          "internalType": "uint256[]",
          "name": "",
          "type": "uint256[]"
        }
      ],
      "stateMutability": "view",
      "type": "function"
    },
    {
      "inputs": [
        {
          "internalType": "address",
          "name": "user",
          "type": "address"
        }
      ],
      "name": "getUserBidAuctioningIds",
      "outputs": [
        {
          "internalType": "uint256[]",
          "name": "",
          "type": "uint256[]"
        }
      ],
      "stateMutability": "view",
      "type": "function"
    },
    {
      "inputs": [
        {
          "internalType": "address",
          "name": "user",
          "type": "address"
        }
      ],
      "name": "getUserBidAuctioningInfos",
      "outputs": [
        {
          "components": [
            {
              "internalType": "uint256",
              "name": "auctionId",
              "type": "uint256"
            },
            {
              "internalType": "address",
              "name": "harvestAddress",
              "type": "address"
            },
            {
              "internalType": "bool",
              "name": "harvestFlag",
              "type": "bool"
            }
          ],
          "internalType": "struct QuadraticAuction.BidAuctionInfo[]",
          "name": "",
          "type": "tuple[]"
        }
      ],
      "stateMutability": "view",
      "type": "function"
    },
    {
      "inputs": [
        {
          "internalType": "bytes32",
          "name": "role",
          "type": "bytes32"
        },
        {
          "internalType": "address",
          "name": "account",
          "type": "address"
        }
      ],
      "name": "grantRole",
      "outputs": [],
      "stateMutability": "nonpayable",
      "type": "function"
    },
    {
      "inputs": [
        {
          "internalType": "bytes32",
          "name": "role",
          "type": "bytes32"
        },
        {
          "internalType": "address",
          "name": "account",
          "type": "address"
        }
      ],
      "name": "hasRole",
      "outputs": [
        {
          "internalType": "bool",
          "name": "",
          "type": "bool"
        }
      ],
      "stateMutability": "view",
      "type": "function"
    },
    {
      "inputs": [],
      "name": "onePriceRatio",
      "outputs": [
        {
          "internalType": "uint256",
          "name": "",
          "type": "uint256"
        }
      ],
      "stateMutability": "view",
      "type": "function"
    },
    {
      "inputs": [],
      "name": "pause",
      "outputs": [],
      "stateMutability": "nonpayable",
      "type": "function"
    },
    {
      "inputs": [],
      "name": "paused",
      "outputs": [
        {
          "internalType": "bool",
          "name": "",
          "type": "bool"
        }
      ],
      "stateMutability": "view",
      "type": "function"
    },
    {
      "inputs": [],
      "name": "quadraticLiquidation",
      "outputs": [
        {
          "internalType": "contract IQuadraticLiquidation",
          "name": "",
          "type": "address"
        }
      ],
      "stateMutability": "view",
      "type": "function"
    },
    {
      "inputs": [],
      "name": "reductionRatio",
      "outputs": [
        {
          "internalType": "uint256",
          "name": "",
          "type": "uint256"
        }
      ],
      "stateMutability": "view",
      "type": "function"
    },
    {
      "inputs": [],
      "name": "reductionTime",
      "outputs": [
        {
          "internalType": "uint256",
          "name": "",
          "type": "uint256"
        }
      ],
      "stateMutability": "view",
      "type": "function"
    },
    {
      "inputs": [
        {
          "internalType": "bytes32",
          "name": "role",
          "type": "bytes32"
        },
        {
          "internalType": "address",
          "name": "account",
          "type": "address"
        }
      ],
      "name": "revokeRole",
      "outputs": [],
      "stateMutability": "nonpayable",
      "type": "function"
    },
    {
      "inputs": [],
      "name": "riskFactor",
      "outputs": [
        {
          "internalType": "uint256",
          "name": "",
          "type": "uint256"
        }
      ],
      "stateMutability": "view",
      "type": "function"
    },
    {
      "inputs": [
        {
          "internalType": "uint256",
          "name": "_reductionRatio",
          "type": "uint256"
        },
        {
          "internalType": "uint256",
          "name": "_reductionTime",
          "type": "uint256"
        },
        {
          "internalType": "uint256",
          "name": "_riskFactor",
          "type": "uint256"
        },
        {
          "internalType": "uint256",
          "name": "_onePriceRatio",
          "type": "uint256"
        }
      ],
      "name": "setActionConfig",
      "outputs": [],
      "stateMutability": "nonpayable",
      "type": "function"
    },
    {
      "inputs": [
        {
          "internalType": "address",
          "name": "_funder",
          "type": "address"
        }
      ],
      "name": "setFunder",
      "outputs": [],
      "stateMutability": "nonpayable",
      "type": "function"
    },
    {
      "inputs": [
        {
          "internalType": "address",
          "name": "governance",
          "type": "address"
        }
      ],
      "name": "setGovernance",
      "outputs": [],
      "stateMutability": "nonpayable",
      "type": "function"
    },
    {
      "inputs": [
        {
          "internalType": "address",
          "name": "_quadraticLiquidation",
          "type": "address"
        }
      ],
      "name": "setQuadraticLiquidation",
      "outputs": [],
      "stateMutability": "nonpayable",
      "type": "function"
    },
    {
      "inputs": [
        {
          "internalType": "address",
          "name": "_streamingProcessor",
          "type": "address"
        }
      ],
      "name": "setStreamingProcessor",
      "outputs": [],
      "stateMutability": "nonpayable",
      "type": "function"
    },
    {
      "inputs": [],
      "name": "streamingProcessor",
      "outputs": [
        {
          "internalType": "address",
          "name": "",
          "type": "address"
        }
      ],
      "stateMutability": "view",
      "type": "function"
    },
    {
      "inputs": [
        {
          "internalType": "address",
          "name": "erc721Addr",
          "type": "address"
        },
        {
          "internalType": "uint256",
          "name": "tokenId",
          "type": "uint256"
        },
        {
          "internalType": "uint256",
          "name": "bid",
          "type": "uint256"
        },
        {
          "internalType": "address",
          "name": "auctionToken",
          "type": "address"
        },
        {
          "internalType": "uint256",
          "name": "startAuctionValue",
          "type": "uint256"
        },
        {
          "internalType": "uint256",
          "name": "startAuctionInterests",
          "type": "uint256"
        }
      ],
      "name": "toAuction",
      "outputs": [],
      "stateMutability": "nonpayable",
      "type": "function"
    },
    {
      "inputs": [],
      "name": "uniswapV3Oracle",
      "outputs": [
        {
          "internalType": "contract IUniswapV3Oracle",
          "name": "",
          "type": "address"
        }
      ],
      "stateMutability": "view",
      "type": "function"
    },
    {
      "inputs": [],
      "name": "unpause",
      "outputs": [],
      "stateMutability": "nonpayable",
      "type": "function"
    }
  ],
  "bytecode": "0x60806040526138406005556103b66006556103cf6007556103b660085534801561002857600080fd5b506000805460ff60a01b1932166001600160a81b031990911617905560018055613be2806100576000396000f3fe608060405234801561001057600080fd5b506004361061025e5760003560e01c80637bf86e5811610146578063ac24765f116100c3578063d547741f11610087578063d547741f146106e9578063defa58ac146106fc578063e1e588621461070f578063e63ab1e914610718578063e774c8591461073f578063f880df6b1461075257600080fd5b8063ac24765f1461063b578063b0b1a9801461065b578063c34754521461066e578063cb88073414610681578063d0e07fcf1461069457600080fd5b80639a44c7e21161010a5780639a44c7e214610595578063a87ca99f146105b5578063aa402b44146105f2578063aa891e4e146105fa578063ab033ea91461062857600080fd5b80637bf86e58146105415780637ebd4b99146105545780638456cb591461056757806391d148541461056f57806393e5b1881461058257600080fd5b80633f4ba83a116101df57806360e26150116101a357806360e26150146103c357806361dc3d911461040a578063642738601461041d57806367bf7627146104305780636a5a3ed81461044357806372abff291461052e57600080fd5b80633f4ba83a1461033c578063438f251514610344578063599839151461038a57806359e088c6146103925780635c975abb146103a557600080fd5b806325cda85d1161022657806325cda85d146102e75780632ad3095a146102fa5780632b5f325d146103035780632f2ff15d1461031657806339707c531461032957600080fd5b8063041ae8801461026357806304c46c13146102935780630acc8cd1146102aa5780631c2f3e3d146102bf5780631d336d69146102d2575b600080fd5b601354610276906001600160a01b031681565b6040516001600160a01b0390911681526020015b60405180910390f35b61029c60075481565b60405190815260200161028a565b6102bd6102b8366004613596565b61075b565b005b600054610276906001600160a01b031681565b6102da6107f2565b60405161028a91906135b3565b6102bd6102f5366004613596565b61088e565b61029c60065481565b601854610276906001600160a01b031681565b6102bd6103243660046135eb565b610913565b6102bd61033736600461361b565b61094b565b6102bd610ce6565b61035761035236600461363d565b610d1a565b60408051958652602086019490945292840191909152151560608301526001600160a01b0316608082015260a00161028a565b6102da610d3d565b6102bd6103a0366004613656565b610dd3565b600054600160a01b900460ff165b604051901515815260200161028a565b6103d66103d136600461361b565b610f74565b604080516001600160a01b03909616865260208601949094529284019190915215156060830152608082015260a00161028a565b61029c61041836600461363d565b610fcf565b601654610276906001600160a01b031681565b6102bd61043e36600461363d565b611071565b6104bf61045136600461363d565b600460208190526000918252604090912080546001820154600283015460038401549484015460058501546006860154600787015460088801546009890154600a8a0154600b909a01546001600160a01b03998a169b989a979996871697959096169593949293919290918c565b604080516001600160a01b039d8e168152602081019c909c528b019990995260608a019790975294891660808901529790921660a087015260c086015260e08501526101008401949094526101208301939093526101408201929092526101608101919091526101800161028a565b6102bd61053c3660046136c8565b611098565b6102bd61054f366004613596565b611312565b6102bd610562366004613724565b611398565b6102bd611502565b6103b361057d3660046135eb565b611581565b6102bd610590366004613596565b6115ae565b6105a86105a3366004613596565b611634565b60405161028a9190613756565b6105c86105c336600461363d565b61177e565b6040805195865260208601949094529284019190915260608301521515608082015260a00161028a565b6102da6117a2565b61060d61060836600461363d565b611838565b6040805193845260208401929092529082015260600161028a565b6102bd610636366004613596565b611854565b61029c610649366004613596565b60176020526000908152604090205481565b6102bd61066936600461363d565b61192f565b6102da61067c366004613596565b611c62565b601554610276906001600160a01b031681565b6106a76106a236600461363d565b611f00565b60408051978852602088019690965294860193909352606085019190915215156080840152151560a08301526001600160a01b031660c082015260e00161028a565b6102bd6106f73660046135eb565b611f2b565b601454610276906001600160a01b031681565b61029c60055481565b61029c7f65d7a28e3265b37a6474929f336521b332c1681b933f6cb9f3376673440d862a81565b6102bd61074d3660046137ba565b611f5f565b61029c60085481565b6000546001600160a01b0316331461078e5760405162461bcd60e51b8152600401610785906137e6565b60405180910390fd5b601380546001600160a01b038381166001600160a01b0319831681179093556040805191909216808252602082019390935233917f7bdd8beff7d8411e2b81e553a7f28dd1d15b287f3a02a33f26ac4e4d7a5f866091015b60405180910390a25050565b60606000610800600c6120aa565b67ffffffffffffffff8111156108185761081861380e565b604051908082528060200260200182016040528015610841578160200160208202803683370190505b50905060005b610851600c6120aa565b81101561088857610863600c826120b4565b82828151811061087557610875613824565b6020908102919091010152600101610847565b50919050565b6000546001600160a01b031633146108b85760405162461bcd60e51b8152600401610785906137e6565b601580546001600160a01b0319166001600160a01b0383169081179091556040805133815260208101929092527fad793b20ae74e3cd792b194d757c87105444046bb189939bfb5a81bdf29bfb3c910160405180910390a150565b6000546001600160a01b0316331461093d5760405162461bcd60e51b8152600401610785906137e6565b61094782826120c7565b5050565b610953612130565b61095b612189565b610966600a836121d6565b6109825760405162461bcd60e51b81526004016107859061383a565b600080600080610991866121ee565b5050509350935093509350600082116109d95760405162461bcd60e51b815260206004820152600a60248201526927bb32b9103a34b6b29760b11b6044820152606401610785565b6000868152600460205260409020600a81015415806109fc575080600a01546001145b610a485760405162461bcd60e51b815260206004820152601960248201527f546869732061756374696f6e207374617465206572726f722e000000000000006044820152606401610785565b80600901548611610ab25760405162461bcd60e51b815260206004820152602e60248201527f4d7573742062652067726561746572207468616e20746865206578697374696e60448201526d339036b0bc34b6bab6903134b21760911b6064820152608401610785565b848611610b125760405162461bcd60e51b815260206004820152602860248201527f4d7573742062652067726561746572207468616e20746865207374617274696e6044820152673390383934b1b29760c11b6064820152608401610785565b6004818101546000898152601260209081526040808320815160a0810183523381528084018d81524293820193845260608201868152608083018b8152845460018082018755868a52979098209351600590980290930180546001600160a01b0319166001600160a01b0398891617815591518287015593516002820155925160038401805460ff1916911515919091179055519190950155600985018a9055600a850155600b84015491169190610bca908961243e565b600b840155610bda600e8a6121d6565b610beb57610be9600e8a61244a565b505b610c006001600160a01b03831633308b612456565b805460011015610c7e5780546000908290610c1d90600290613887565b81548110610c2d57610c2d613824565b60009182526020909120600590910201600381015490915060ff16610c7c5760038101805460ff19166001908117909155815490820154610c7c916001600160a01b03868116929116906124c7565b505b858810610c9057610c908960016124fc565b60018301546002840154604080518b81523360208201528c9392917f8e692c4758bb040db838062e6506b267aab6d7a00e36f17b8a8d93060a83c8a4910160405180910390a45050505050505061094760018055565b6000546001600160a01b03163314610d105760405162461bcd60e51b8152600401610785906137e6565b610d18612a2b565b565b6000806000806000610d2b86612a80565b939a9299509097509550909350915050565b60606000610d4b600e6120aa565b67ffffffffffffffff811115610d6357610d6361380e565b604051908082528060200260200182016040528015610d8c578160200160208202803683370190505b50905060005b610d9c600e6120aa565b81101561088857610dae600e826120b4565b828281518110610dc057610dc0613824565b6020908102919091010152600101610d92565b600354610100900460ff1615808015610df35750600354600160ff909116105b80610e0d5750303b158015610e0d575060035460ff166001145b610e705760405162461bcd60e51b815260206004820152602e60248201527f496e697469616c697a61626c653a20636f6e747261637420697320616c72656160448201526d191e481a5b9a5d1a585b1a5e995960921b6064820152608401610785565b6003805460ff191660011790558015610e93576003805461ff0019166101001790555b600080546001600160a01b03191633908117909155610ed3907f65d7a28e3265b37a6474929f336521b332c1681b933f6cb9f3376673440d862a906120c7565b601480546001600160a01b03808b166001600160a01b031992831617909255600588905560078590556006879055601680548a8416908316179055600886905560188054928516929091169190911790558015610f6a576003805461ff0019169055604051600181527f7f26b83ff96e1f2b6a682f133852f6798a09c465da95921460cefb38474024989060200160405180910390a15b5050505050505050565b60126020528160005260406000208181548110610f9057600080fd5b6000918252602090912060059091020180546001820154600283015460038401546004909401546001600160a01b0390931695509093509160ff169085565b600081815260126020908152604080832080548251818502810185019093528083528493849084015b828210156110645760008481526020908190206040805160a0810182526005860290920180546001600160a01b0316835260018082015484860152600282015492840192909252600381015460ff16151560608401526004015460808301529083529092019101610ff8565b5050915195945050505050565b611079612130565b611081612189565b61108c8160006124fc565b61109560018055565b50565b6014546001600160a01b031633146110f25760405162461bcd60e51b815260206004820152601860248201527f6e6f7420626f72726f7720766973746f7220616c6c6f772e00000000000000006044820152606401610785565b600060098054905090506009819080600181540180825580915050600190039060005260206000200160009091909190915055604051806101800160405280886001600160a01b03168152602001878152602001868152602001428152602001856001600160a01b0316815260200160006001600160a01b0316815260200184815260200183815260200160008152602001600081526020016000815260200160008152506004600083815260200190815260200160002060008201518160000160006101000a8154816001600160a01b0302191690836001600160a01b0316021790555060208201518160010155604082015181600201556060820151816003015560808201518160040160006101000a8154816001600160a01b0302191690836001600160a01b0316021790555060a08201518160050160006101000a8154816001600160a01b0302191690836001600160a01b0316021790555060c0820151816006015560e082015181600701556101008201518160080155610120820151816009015561014082015181600a015561016082015181600b01559050506112a681600a61244a90919063ffffffff16565b506112b2600c8261244a565b50604080516001600160a01b03808a1682528616602082015290810184905260608101839052869086907f472471c4fd3f238f16b01104ca9bd638496679256ef51a3d54301dfcf39d719f9060800160405180910390a350505050505050565b6000546001600160a01b0316331461133c5760405162461bcd60e51b8152600401610785906137e6565b601880546001600160a01b038381166001600160a01b0319831681179093556040805191909216808252602082019390935233917f655b7b455c484a5cd7f2a4f206f7bbc4817ecf5e8e2bd28f325415099085269b91016107e6565b6000546001600160a01b031633146113c25760405162461bcd60e51b8152600401610785906137e6565b6103e884106114095760405162461bcd60e51b815260206004820152601360248201527236b0bc103932b23ab1ba34b7b72930ba34b79760691b6044820152606401610785565b6103e8811061144f5760405162461bcd60e51b815260206004820152601260248201527136b0bc1037b732a83934b1b2a930ba34b79760711b6044820152606401610785565b6103e882106114925760405162461bcd60e51b815260206004820152600f60248201526e36b0bc103934b9b5a330b1ba37b91760891b6044820152606401610785565b60068490556007829055600881905582156114ad5760058390555b604080513381526020810186905290810184905260608101839052608081018290527f6d6d006b85993cd2a4570c9a72be2e0c284766ad1f1b7ad246b59b3fceccfe169060a00160405180910390a150505050565b7f65d7a28e3265b37a6474929f336521b332c1681b933f6cb9f3376673440d862a61152d8133611581565b6115795760405162461bcd60e51b815260206004820152601860248201527f6163636f756e74206973206d697373696e6720726f6c652e00000000000000006044820152606401610785565b611095612c65565b60008281526002602090815260408083206001600160a01b038516845290915290205460ff165b92915050565b6000546001600160a01b031633146115d85760405162461bcd60e51b8152600401610785906137e6565b601680546001600160a01b038381166001600160a01b0319831681179093556040805191909216808252602082019390935233917f55f88e1a470467a8151fa2efb5c4a38d5ead3df1c5a84112b8d2b428ac28e75291016107e6565b6060600061164183611c62565b90506000815167ffffffffffffffff81111561165f5761165f61380e565b6040519080825280602002602001820160405280156116aa57816020015b604080516060810182526000808252602080830182905292820152825260001990920191018161167d5790505b50905060005b82518110156117765760008382815181106116cd576116cd613824565b602002602001015190506000806116e383612a80565b94509450505050828585815181106116fd576116fd613824565b602002602001015160000181815250508085858151811061172057611720613824565b6020026020010151602001906001600160a01b031690816001600160a01b0316815250508185858151811061175757611757613824565b60209081029190910101519015156040909101525050506001016116b0565b509392505050565b600080600080600061178f866121ee565b50949b939a509198509650945092505050565b606060006117b0600a6120aa565b67ffffffffffffffff8111156117c8576117c861380e565b6040519080825280602002602001820160405280156117f1578160200160208202803683370190505b50905060005b611801600a6120aa565b81101561088857611813600a826120b4565b82828151811061182557611825613824565b60209081029190910101526001016117f7565b600080600061184684612a80565b509297919650945092505050565b6000546001600160a01b0316331461187e5760405162461bcd60e51b8152600401610785906137e6565b6001600160a01b0381166118d45760405162461bcd60e51b815260206004820152601f60248201527f6e657720676f7665726e616e636520746865207a65726f2061646472657373006044820152606401610785565b600080546040516001600160a01b03808516939216917f5f56bee8cffbe9a78652a74a60705edede02af10b0bbb888ca44b79a0d42ce8091a3600080546001600160a01b0319166001600160a01b0392909216919091179055565b611937612130565b61193f612189565b61194a600a826121d6565b6119665760405162461bcd60e51b81526004016107859061383a565b600080611972836121ee565b505094505050509150816000146119b65760405162461bcd60e51b815260206004820152600860248201526724b7103a34b6b29760c11b6044820152606401610785565b80156119f35760405162461bcd60e51b815260206004820152600c60248201526b30b63932b0b23c903134b21760a11b6044820152606401610785565b60008381526004602052604090206009600a80830191909155611a169085612ca8565b50611a22600e85612ca8565b506015546000906001600160a01b0316611b1b576018546001600160a01b0316611a9d5760405162461bcd60e51b815260206004820152602660248201527f73747265616d696e6750726f636573736f722061646472657373206e6f74206360448201526537b73334b39760d11b6064820152608401610785565b50601854815460018301546040516323b872dd60e01b81523060048201526001600160a01b039384166024820181905260448201929092529092909116906323b872dd90606401600060405180830381600087803b158015611afe57600080fd5b505af1158015611b12573d6000803e3d6000fd5b50505050611c17565b506015548154600183015460405163095ea7b360e01b81526001600160a01b0393841660048201819052602482019290925290929091169063095ea7b390604401600060405180830381600087803b158015611b7657600080fd5b505af1158015611b8a573d6000803e3d6000fd5b5050601554600285015485546001870154600480890154604051634e7951fd60e11b8152918201949094526001600160a01b039283166024820152604481019190915291811660648301529091169250639cf2a3fa9150608401600060405180830381600087803b158015611bfe57600080fd5b505af1158015611c12573d6000803e3d6000fd5b505050505b6040516001600160a01b038216815285907f9e8d1a7fa767a57dd6f9ac362f52ffdee77d596a922c45ecab7d6b644cc80ae29060200160405180910390a25050505061109560018055565b60606000611c70600e6120aa565b67ffffffffffffffff811115611c8857611c8861380e565b604051908082528060200260200182016040528015611cb1578160200160208202803683370190505b5090506000600019815b611cc5600e6120aa565b811015611e32576000611cd9600e836120b4565b9050600060126000838152602001908152602001600020805480602002602001604051908101604052809291908181526020016000905b82821015611d7c5760008481526020908190206040805160a0810182526005860290920180546001600160a01b0316835260018082015484860152600282015492840192909252600381015460ff16151560608401526004015460808301529083529092019101611d10565b5050505090506000805b8251811015611e0157896001600160a01b0316838281518110611dab57611dab613824565b6020026020010151600001516001600160a01b031603611df95783888681518110611dd857611dd8613824565b6020908102919091010152611dee87600161389a565b965060019150611e01565b600101611d86565b5080611e275784878581518110611e1a57611e1a613824565b6020026020010181815250505b505050600101611cbb565b5060008267ffffffffffffffff811115611e4e57611e4e61380e565b604051908082528060200260200182016040528015611e77578160200160208202803683370190505b5090506000805b8551811015611ef45783868281518110611e9a57611e9a613824565b602002602001015114611eec57858181518110611eb957611eb9613824565b6020026020010151838381518110611ed357611ed3613824565b6020908102919091010152611ee982600161389a565b91505b600101611e7e565b50909695505050505050565b6000806000806000806000611f14886121ee565b959e949d50929b5090995097509550909350915050565b6000546001600160a01b03163314611f555760405162461bcd60e51b8152600401610785906137e6565b6109478282612cb4565b6013546001600160a01b03163314611fb95760405162461bcd60e51b815260206004820152601860248201527f6e6f742066756e64657220766973746f7220616c6c6f772e00000000000000006044820152606401610785565b6001600160a01b038216600090815260176020526040902054818110156120125760405162461bcd60e51b815260206004820152600d60248201526c2bb937b7339030b6b7bab73a1760991b6044820152606401610785565b6001600160a01b0383166000908152601760205260409020546120359083612d1b565b6001600160a01b03808516600081815260176020526040902092909255601354612061929116846124c7565b604080516001600160a01b03851681526020810184905233917f88fd3316c9095ab540fae8d4fb866de4ccab13f341b36e0867279463658c6734910160405180910390a2505050565b60006115a8825490565b60006120c08383612d27565b9392505050565b6120d18282611581565b6109475760008281526002602090815260408083206001600160a01b0385168085529252808320805460ff1916600117905551339285917f2f8788117e7eff1d82e926ec794901d17c78024a50270940304540a733656f0d9190a45050565b6002600154036121825760405162461bcd60e51b815260206004820152601f60248201527f5265656e7472616e637947756172643a207265656e7472616e742063616c6c006044820152606401610785565b6002600155565b600054600160a01b900460ff1615610d185760405162461bcd60e51b815260206004820152601060248201526f14185d5cd8589b194e881c185d5cd95960821b6044820152606401610785565b600081815260018301602052604081205415156120c0565b6000808080808080612201600a896121d6565b61221d5760405162461bcd60e51b81526004016107859061383a565b600088815260046020818152604080842081516101808101835281546001600160a01b03908116825260018084015495830195909552600283015493820193909352600382015460608201529381015482166080850152600581015490911660a0840152600681015460c08401819052600782015460e0850181905260088301546101008601526009830154610120860152600a8301546101408601819052600b909301546101608601529190921496509192916122db919061243e565b905060006122f6836060015142612d1b90919063ffffffff16565b90508561235e5760055461230b908290612d51565b9650612318838389612d5d565b995089156123595761234b61234261233b89600554612d8990919063ffffffff16565b8390612d1b565b60055490612d1b565b97506123568a612d95565b98505b612430565b60006123698c612db1565b80519091506001600160a01b03166123bb5760405162461bcd60e51b815260206004820152601560248201527420bab1ba34b7b7103932b1b7b9321032b93937b91760591b6044820152606401610785565b80602001519a508060800151975060006005548960016123db919061389a565b6123e591906138ad565b85606001516123f4919061389a565b90504281111561242857604082015161240d9082613887565b995061242161241c858b612ec5565b612d95565b9a5061242d565b815195505b50505b505050919395979092949650565b60006120c0828461389a565b60006120c08383612f0c565b6040516001600160a01b03808516602483015283166044820152606481018290526124c19085906323b872dd60e01b906084015b60408051601f198184030181529190526020810180516001600160e01b03166001600160e01b031990931692909217909152612f5b565b50505050565b6040516001600160a01b0383166024820152604481018290526124f790849063a9059cbb60e01b9060640161248a565b505050565b612507600a836121d6565b6125235760405162461bcd60e51b81526004016107859061383a565b6000828152600460205260409020600a81015460011461257c5760405162461bcd60e51b815260206004820152601460248201527322b93937b91030bab1ba34b7b71039ba30ba329760611b6044820152606401610785565b600083815260126020908152604080832080548251818502810185019093528083529192909190849084015b828210156126145760008481526020908190206040805160a0810182526005860290920180546001600160a01b0316835260018082015484860152600282015492840192909252600381015460ff161515606084015260040154608083015290835290920191016125a8565b50505050905060008060008061262988612a80565b509350935093509350808061263b5750865b61267f5760405162461bcd60e51b81526020600482015260156024820152742737ba103430b93b32b939ba1034b7103a34b6b29760591b6044820152606401610785565b600085858151811061269357612693613824565b602002602001015190506000865111156129ca5780516001600160a01b0316331461270c5760405162461bcd60e51b8152602060048201526024808201527f546869732061756374696f6e20646f6573206e6f742062656c6f6e6720746f206044820152633cb7ba9760e11b6064820152608401610785565b60608101511561275e5760405162461bcd60e51b815260206004820152601f60248201527f546869732061756374696f6e20686173206265656e20726566756e6465642e006044820152606401610785565b60048701546005880180546001600160a01b03191633179055602082015160088901556002600a808a01919091556001600160a01b03909116906127a2908b612ca8565b506127ae600e8b612ca8565b506127ba60108b61244a565b506014546002890154604051633e9f152d60e11b815260048101919091526000916001600160a01b031690637d3e2a5a9060240161018060405180830381865afa15801561280c573d6000803e3d6000fd5b505050506040513d601f19601f82011682018060405250810190612830919061390c565b905060006128508261014001518360a0015161243e90919063ffffffff16565b905080846020015111156128b95760208401516000906128709083612d1b565b60048c01546001600160a01b031660009081526017602052604090205490915061289a908261243e565b60048c01546001600160a01b0316600090815260176020526040902055505b6014546128d4906001600160a01b0385811691166000613030565b6014546128ee906001600160a01b03858116911683613030565b60145460028b0154604051637254392560e01b81526001600160a01b03909216916372543925916129259160040190815260200190565b600060405180830381600087803b15801561293f57600080fd5b505af1158015612953573d6000803e3d6000fd5b50508b5460018d01546040516323b872dd60e01b815230600482015233602482015260448101919091526001600160a01b0390911692506323b872dd9150606401600060405180830381600087803b1580156129ae57600080fd5b505af11580156129c2573d6000803e3d6000fd5b505050505050505b600187015460028801546040805133815260208101899052908101879052606081018690528b9291907f6dc7c6ceb56285b1f69eec06994036d187577f0a553ffe82b772c8f8d67e026c9060800160405180910390a4505050505050505050565b612a33613145565b6000805460ff60a01b191690557f5db9ee0a495bf2e6ff9c91a7834c1ba4fdd244a5e8aa4e537bd38aeae4b073aa335b6040516001600160a01b03909116815260200160405180910390a1565b600081815260046020818152604080842081516101808101835281546001600160a01b03908116825260018084015495830195909552600283015493820193909352600382015460608201529381015482166080850152600581015490911660a0840152600681015460c0840152600781015460e084015260088101546101008401526009810154610120840152600a8101546101408401819052600b90910154610160840181905284939092849283929103612c5b57600087815260126020908152604080832080548251818502810185019093528083529192909190849084015b82821015612bcf5760008481526020908190206040805160a0810182526005860290920180546001600160a01b0316835260018082015484860152600282015492840192909252600381015460ff16151560608401526004015460808301529083529092019101612b63565b505050509050600081511115612c595760018151612bed9190613887565b96506000818881518110612c0357612c03613824565b6020026020010151905080602001519650600060055482608001516001612c2a919061389a565b612c3491906138ad565b8460600151612c43919061389a565b905042811015612c565781516001965094505b50505b505b5091939590929450565b612c6d612189565b6000805460ff60a01b1916600160a01b1790557f62e78cea01bee320cd4e420270b5ea74000d11b0c9f74754ebdbfc544b05a258612a633390565b60006120c08383613195565b612cbe8282611581565b156109475760008281526002602090815260408083206001600160a01b0385168085529252808320805460ff1916905551339285917ff6391f5c32d9c69d2a47ea670b442974b53935d1edc7fd64eb21e047a839171b9190a45050565b60006120c08284613887565b6000826000018281548110612d3e57612d3e613824565b9060005260206000200154905092915050565b60006120c082846139b2565b6000612d698383612ec5565b905080156120c057612d7b8482613288565b6120c0575060009392505050565b60006120c082846138ad565b6008546000906115a890612dab846103e8612d89565b90612d51565b612dee6040518060a0016040528060006001600160a01b031681526020016000815260200160008152602001600015158152602001600081525090565b600082815260126020908152604080832080548251818502810185019093528083529192909190849084015b82821015612e865760008481526020908190206040805160a0810182526005860290920180546001600160a01b0316835260018082015484860152600282015492840192909252600381015460ff16151560608401526004015460808301529083529092019101612e1a565b505050509050600081511115610888578060018251612ea59190613887565b81518110612eb557612eb5613824565b6020026020010151915050919050565b60006103e8612ed48382613ab8565b83600654612ee29190613ab8565b612eee866103e86138ad565b612ef891906138ad565b612f0291906139b2565b6120c091906139b2565b6000818152600183016020526040812054612f53575081546001818101845560008481526020808220909301849055845484825282860190935260409020919091556115a8565b5060006115a8565b6000612fb0826040518060400160405280602081526020017f5361666545524332303a206c6f772d6c6576656c2063616c6c206661696c6564815250856001600160a01b03166133f19092919063ffffffff16565b9050805160001480612fd1575080806020019051810190612fd19190613ac4565b6124f75760405162461bcd60e51b815260206004820152602a60248201527f5361666545524332303a204552433230206f7065726174696f6e20646964206e6044820152691bdd081cdd58d8d9595960b21b6064820152608401610785565b8015806130aa5750604051636eb1769f60e11b81523060048201526001600160a01b03838116602483015284169063dd62ed3e90604401602060405180830381865afa158015613084573d6000803e3d6000fd5b505050506040513d601f19601f820116820180604052508101906130a89190613ae6565b155b6131155760405162461bcd60e51b815260206004820152603660248201527f5361666545524332303a20617070726f76652066726f6d206e6f6e2d7a65726f60448201527520746f206e6f6e2d7a65726f20616c6c6f77616e636560501b6064820152608401610785565b6040516001600160a01b0383166024820152604481018290526124f790849063095ea7b360e01b9060640161248a565b600054600160a01b900460ff16610d185760405162461bcd60e51b815260206004820152601460248201527314185d5cd8589b194e881b9bdd081c185d5cd95960621b6044820152606401610785565b6000818152600183016020526040812054801561327e5760006131b9600183613887565b85549091506000906131cd90600190613887565b90508181146132325760008660000182815481106131ed576131ed613824565b906000526020600020015490508087600001848154811061321057613210613824565b6000918252602080832090910192909255918252600188019052604090208390555b855486908061324357613243613aff565b6001900381819060005260206000200160009055905585600101600086815260200190815260200160002060009055600193505050506115a8565b60009150506115a8565b601654602083015160808401516040516304bd838960e41b815260048101929092526001600160a01b0390811660248301526000928392911690634bd83890906044016040805180830381865afa1580156132e7573d6000803e3d6000fd5b505050506040513d601f19601f8201168201806040525081019061330b9190613b15565b506014546040808701519051633e9f152d60e11b81529293506000926001600160a01b0390921691637d3e2a5a916133499160040190815260200190565b61018060405180830381865afa158015613367573d6000803e3d6000fd5b505050506040513d601f19601f8201168201806040525081019061338b919061390c565b905060006133b76103e86133b18461014001518560a0015161243e90919063ffffffff16565b90612d89565b6007549091506133c78287612d51565b1080156133de57506007546133dc8285612d51565b105b156133e857600193505b50505092915050565b60606134008484600085613408565b949350505050565b6060824710156134695760405162461bcd60e51b815260206004820152602660248201527f416464726573733a20696e73756666696369656e742062616c616e636520666f6044820152651c8818d85b1b60d21b6064820152608401610785565b600080866001600160a01b031685876040516134859190613b5d565b60006040518083038185875af1925050503d80600081146134c2576040519150601f19603f3d011682016040523d82523d6000602084013e6134c7565b606091505b50915091506134d8878383876134e3565b979650505050505050565b6060831561355257825160000361354b576001600160a01b0385163b61354b5760405162461bcd60e51b815260206004820152601d60248201527f416464726573733a2063616c6c20746f206e6f6e2d636f6e74726163740000006044820152606401610785565b5081613400565b61340083838151156135675781518083602001fd5b8060405162461bcd60e51b81526004016107859190613b79565b6001600160a01b038116811461109557600080fd5b6000602082840312156135a857600080fd5b81356120c081613581565b6020808252825182820181905260009190848201906040850190845b81811015611ef4578351835292840192918401916001016135cf565b600080604083850312156135fe57600080fd5b82359150602083013561361081613581565b809150509250929050565b6000806040838503121561362e57600080fd5b50508035926020909101359150565b60006020828403121561364f57600080fd5b5035919050565b600080600080600080600060e0888a03121561367157600080fd5b873561367c81613581565b9650602088013561368c81613581565b955060408801359450606088013593506080880135925060a0880135915060c08801356136b881613581565b8091505092959891949750929550565b60008060008060008060c087890312156136e157600080fd5b86356136ec81613581565b95506020870135945060408701359350606087013561370a81613581565b9598949750929560808101359460a0909101359350915050565b6000806000806080858703121561373a57600080fd5b5050823594602084013594506040840135936060013592509050565b602080825282518282018190526000919060409081850190868401855b828110156137ad57815180518552868101516001600160a01b03168786015285015115158585015260609093019290850190600101613773565b5091979650505050505050565b600080604083850312156137cd57600080fd5b82356137d881613581565b946020939093013593505050565b6020808252600e908201526d6e6f7420676f7665726e616e636560901b604082015260600190565b634e487b7160e01b600052604160045260246000fd5b634e487b7160e01b600052603260045260246000fd5b60208082526017908201527f546869732061756374696f6e206e6f742065786973742e000000000000000000604082015260600190565b634e487b7160e01b600052601160045260246000fd5b818103818111156115a8576115a8613871565b808201808211156115a8576115a8613871565b80820281158282048414176115a8576115a8613871565b604051610180810167ffffffffffffffff811182821017156138f657634e487b7160e01b600052604160045260246000fd5b60405290565b805161390781613581565b919050565b6000610180828403121561391f57600080fd5b6139276138c4565b613930836138fc565b81526020830151602082015260408301516040820152606083015160608201526080830151608082015260a083015160a082015260c083015160c082015260e083015160e08201526101008084015181830152506101208084015181830152506101408084015181830152506101608084015181830152508091505092915050565b6000826139cf57634e487b7160e01b600052601260045260246000fd5b500490565b600181815b80851115613a0f5781600019048211156139f5576139f5613871565b80851615613a0257918102915b93841c93908002906139d9565b509250929050565b600082613a26575060016115a8565b81613a33575060006115a8565b8160018114613a495760028114613a5357613a6f565b60019150506115a8565b60ff841115613a6457613a64613871565b50506001821b6115a8565b5060208310610133831016604e8410600b8410161715613a92575081810a6115a8565b613a9c83836139d4565b8060001904821115613ab057613ab0613871565b029392505050565b60006120c08383613a17565b600060208284031215613ad657600080fd5b815180151581146120c057600080fd5b600060208284031215613af857600080fd5b5051919050565b634e487b7160e01b600052603160045260246000fd5b60008060408385031215613b2857600080fd5b505080516020909101519092909150565b60005b83811015613b54578181015183820152602001613b3c565b50506000910152565b60008251613b6f818460208701613b39565b9190910192915050565b6020815260008251806020840152613b98816040850160208701613b39565b601f01601f1916919091016040019291505056fea26469706673582212202a5f01c3e5cee314cc7767014bbf5219130520c93a00add4e3fad5781e7ffeab64736f6c63430008180033",
  "linkReferences": {},
  "deployedLinkReferences": {}
}