{
  "_format": "hh-sol-artifact-1",
  "contractName": "QuadraticAuction",
  "sourceName": "contracts/auction/QuadraticAuction.sol",
  "abi": [
    {
      "anonymous": false,
      "inputs": [
        {
          "indexed": true,
          "internalType": "uint256",
          "name": "auctionId",
          "type": "uint256"
        },
        {
          "indexed": false,
          "internalType": "address",
          "name": "toAddress",
          "type": "address"
        }
      ],
      "name": "AbortiveAuctionEvent",
      "type": "event"
    },
    {
      "anonymous": false,
      "inputs": [
        {
          "indexed": true,
          "internalType": "address",
          "name": "sender",
          "type": "address"
        },
        {
          "indexed": false,
          "internalType": "address",
          "name": "beforeVal",
          "type": "address"
        },
        {
          "indexed": false,
          "internalType": "address",
          "name": "afterVal",
          "type": "address"
        }
      ],
      "name": "ChangeUniswapV3OracleEvent",
      "type": "event"
    },
    {
      "anonymous": false,
      "inputs": [
        {
          "indexed": true,
          "internalType": "uint256",
          "name": "bid",
          "type": "uint256"
        },
        {
          "indexed": true,
          "internalType": "uint256",
          "name": "tokenId",
          "type": "uint256"
        },
        {
          "indexed": true,
          "internalType": "uint256",
          "name": "auctionId",
          "type": "uint256"
        },
        {
          "indexed": false,
          "internalType": "uint256",
          "name": "auctionAmount",
          "type": "uint256"
        },
        {
          "indexed": false,
          "internalType": "address",
          "name": "userAddr",
          "type": "address"
        }
      ],
      "name": "DoAuctionEvent",
      "type": "event"
    },
    {
      "anonymous": false,
      "inputs": [
        {
          "indexed": true,
          "internalType": "uint256",
          "name": "bid",
          "type": "uint256"
        },
        {
          "indexed": true,
          "internalType": "uint256",
          "name": "tokenId",
          "type": "uint256"
        },
        {
          "indexed": true,
          "internalType": "uint256",
          "name": "auctionId",
          "type": "uint256"
        },
        {
          "indexed": false,
          "internalType": "address",
          "name": "userAddr",
          "type": "address"
        },
        {
          "indexed": false,
          "internalType": "uint256",
          "name": "bidArid",
          "type": "uint256"
        },
        {
          "indexed": false,
          "internalType": "uint256",
          "name": "bidAmount",
          "type": "uint256"
        },
        {
          "indexed": false,
          "internalType": "uint256",
          "name": "totalBidAmount",
          "type": "uint256"
        }
      ],
      "name": "DoHarvestAuctionEvent",
      "type": "event"
    },
    {
      "anonymous": false,
      "inputs": [
        {
          "indexed": true,
          "internalType": "address",
          "name": "sender",
          "type": "address"
        },
        {
          "indexed": false,
          "internalType": "address",
          "name": "token",
          "type": "address"
        },
        {
          "indexed": false,
          "internalType": "uint256",
          "name": "amount",
          "type": "uint256"
        }
      ],
      "name": "FunderClaimEvent",
      "type": "event"
    },
    {
      "anonymous": false,
      "inputs": [
        {
          "indexed": true,
          "internalType": "address",
          "name": "previousOwner",
          "type": "address"
        },
        {
          "indexed": true,
          "internalType": "address",
          "name": "newOwner",
          "type": "address"
        }
      ],
      "name": "GovernanceTransferred",
      "type": "event"
    },
    {
      "anonymous": false,
      "inputs": [
        {
          "indexed": false,
          "internalType": "uint8",
          "name": "version",
          "type": "uint8"
        }
      ],
      "name": "Initialized",
      "type": "event"
    },
    {
      "anonymous": false,
      "inputs": [
        {
          "indexed": false,
          "internalType": "address",
          "name": "account",
          "type": "address"
        }
      ],
      "name": "Paused",
      "type": "event"
    },
    {
      "anonymous": false,
      "inputs": [
        {
          "indexed": true,
          "internalType": "bytes32",
          "name": "role",
          "type": "bytes32"
        },
        {
          "indexed": true,
          "internalType": "address",
          "name": "account",
          "type": "address"
        },
        {
          "indexed": true,
          "internalType": "address",
          "name": "sender",
          "type": "address"
        }
      ],
      "name": "RoleGranted",
      "type": "event"
    },
    {
      "anonymous": false,
      "inputs": [
        {
          "indexed": true,
          "internalType": "bytes32",
          "name": "role",
          "type": "bytes32"
        },
        {
          "indexed": true,
          "internalType": "address",
          "name": "account",
          "type": "address"
        },
        {
          "indexed": true,
          "internalType": "address",
          "name": "sender",
          "type": "address"
        }
      ],
      "name": "RoleRevoked",
      "type": "event"
    },
    {
      "anonymous": false,
      "inputs": [
        {
          "indexed": false,
          "internalType": "address",
          "name": "sender",
          "type": "address"
        },
        {
          "indexed": false,
          "internalType": "uint256",
          "name": "reductionRatio",
          "type": "uint256"
        },
        {
          "indexed": false,
          "internalType": "uint256",
          "name": "reductionTime",
          "type": "uint256"
        },
        {
          "indexed": false,
          "internalType": "uint256",
          "name": "riskFactor",
          "type": "uint256"
        },
        {
          "indexed": false,
          "internalType": "uint256",
          "name": "onePriceRatio",
          "type": "uint256"
        }
      ],
      "name": "SetActionConfigEvent",
      "type": "event"
    },
    {
      "anonymous": false,
      "inputs": [
        {
          "indexed": true,
          "internalType": "address",
          "name": "sender",
          "type": "address"
        },
        {
          "indexed": false,
          "internalType": "address",
          "name": "beforeVal",
          "type": "address"
        },
        {
          "indexed": false,
          "internalType": "address",
          "name": "afterVal",
          "type": "address"
        }
      ],
      "name": "SetFunderEvent",
      "type": "event"
    },
    {
      "anonymous": false,
      "inputs": [
        {
          "indexed": false,
          "internalType": "address",
          "name": "sender",
          "type": "address"
        },
        {
          "indexed": false,
          "internalType": "address",
          "name": "quadraticLiquidation",
          "type": "address"
        }
      ],
      "name": "SetQuadraticLiquidationEvent",
      "type": "event"
    },
    {
      "anonymous": false,
      "inputs": [
        {
          "indexed": true,
          "internalType": "address",
          "name": "sender",
          "type": "address"
        },
        {
          "indexed": false,
          "internalType": "address",
          "name": "beforeVal",
          "type": "address"
        },
        {
          "indexed": false,
          "internalType": "address",
          "name": "afterVal",
          "type": "address"
        }
      ],
      "name": "SetStreamingProcessorEvent",
      "type": "event"
    },
    {
      "anonymous": false,
      "inputs": [
        {
          "indexed": true,
          "internalType": "uint256",
          "name": "bid",
          "type": "uint256"
        },
        {
          "indexed": true,
          "internalType": "uint256",
          "name": "tokenId",
          "type": "uint256"
        },
        {
          "indexed": false,
          "internalType": "address",
          "name": "erc721Addr",
          "type": "address"
        },
        {
          "indexed": false,
          "internalType": "address",
          "name": "auctionToken",
          "type": "address"
        },
        {
          "indexed": false,
          "internalType": "uint256",
          "name": "startAuctionAmount",
          "type": "uint256"
        },
        {
          "indexed": false,
          "internalType": "uint256",
          "name": "startAuctioInterests",
          "type": "uint256"
        }
      ],
      "name": "ToAuctionEvent",
      "type": "event"
    },
    {
      "anonymous": false,
      "inputs": [
        {
          "indexed": false,
          "internalType": "address",
          "name": "account",
          "type": "address"
        }
      ],
      "name": "Unpaused",
      "type": "event"
    },
    {
      "inputs": [],
      "name": "PAUSER_ROLE",
      "outputs": [
        {
          "internalType": "bytes32",
          "name": "",
          "type": "bytes32"
        }
      ],
      "stateMutability": "view",
      "type": "function"
    },
    {
      "inputs": [],
      "name": "_governance",
      "outputs": [
        {
          "internalType": "address",
          "name": "",
          "type": "address"
        }
      ],
      "stateMutability": "view",
      "type": "function"
    },
    {
      "inputs": [
        {
          "internalType": "uint256",
          "name": "auctionId",
          "type": "uint256"
        }
      ],
      "name": "abortiveAuction",
      "outputs": [],
      "stateMutability": "nonpayable",
      "type": "function"
    },
    {
      "inputs": [
        {
          "internalType": "uint256",
          "name": "",
          "type": "uint256"
        }
      ],
      "name": "auctionInfos",
      "outputs": [
        {
          "internalType": "address",
          "name": "erc721Addr",
          "type": "address"
        },
        {
          "internalType": "uint256",
          "name": "tokenId",
          "type": "uint256"
        },
        {
          "internalType": "uint256",
          "name": "bid",
          "type": "uint256"
        },
        {
          "internalType": "uint256",
          "name": "auctionStartTime",
          "type": "uint256"
        },
        {
          "internalType": "address",
          "name": "auctionToken",
          "type": "address"
        },
        {
          "internalType": "address",
          "name": "auctionUser",
          "type": "address"
        },
        {
          "internalType": "uint256",
          "name": "startAuctionValue",
          "type": "uint256"
        },
        {
          "internalType": "uint256",
          "name": "startAuctionInterests",
          "type": "uint256"
        },
        {
          "internalType": "uint256",
          "name": "saledAmount",
          "type": "uint256"
        },
        {
          "internalType": "uint256",
          "name": "latestBidPrice",
          "type": "uint256"
        },
        {
          "internalType": "uint256",
          "name": "state",
          "type": "uint256"
        },
        {
          "internalType": "uint256",
          "name": "totalBidAmount",
          "type": "uint256"
        }
      ],
      "stateMutability": "view",
      "type": "function"
    },
    {
      "inputs": [
        {
          "internalType": "uint256",
          "name": "",
          "type": "uint256"
        },
        {
          "internalType": "uint256",
          "name": "",
          "type": "uint256"
        }
      ],
      "name": "auctionRecords",
      "outputs": [
        {
          "internalType": "address",
          "name": "auctionUser",
          "type": "address"
        },
        {
          "internalType": "uint256",
          "name": "auctionAmount",
          "type": "uint256"
        },
        {
          "internalType": "uint256",
          "name": "blockTime",
          "type": "uint256"
        },
        {
          "internalType": "bool",
          "name": "returnPay",
          "type": "bool"
        },
        {
          "internalType": "uint256",
          "name": "mulReduce",
          "type": "uint256"
        }
      ],
      "stateMutability": "view",
      "type": "function"
    },
    {
      "inputs": [],
      "name": "borrowCompound",
      "outputs": [
        {
          "internalType": "contract IQuadraticBorrowCompound",
          "name": "",
          "type": "address"
        }
      ],
      "stateMutability": "view",
      "type": "function"
    },
    {
      "inputs": [
        {
          "internalType": "address",
          "name": "_uniswapV3Oracle",
          "type": "address"
        }
      ],
      "name": "changeUniswapV3Oracle",
      "outputs": [],
      "stateMutability": "nonpayable",
      "type": "function"
    },
    {
      "inputs": [
        {
          "internalType": "uint256",
          "name": "auctionId",
          "type": "uint256"
        },
        {
          "internalType": "uint256",
          "name": "amount",
          "type": "uint256"
        }
      ],
      "name": "doAuction",
      "outputs": [],
      "stateMutability": "nonpayable",
      "type": "function"
    },
    {
      "inputs": [
        {
          "internalType": "uint256",
          "name": "auctionId",
          "type": "uint256"
        }
      ],
      "name": "doHarvestAuction",
      "outputs": [],
      "stateMutability": "nonpayable",
      "type": "function"
    },
    {
      "inputs": [
        {
          "internalType": "contract IQuadraticBorrowCompound",
          "name": "_borrowCompound",
          "type": "address"
        },
        {
          "internalType": "contract IUniswapV3Oracle",
          "name": "_uniswapV3Oracle",
          "type": "address"
        },
        {
          "internalType": "uint256",
          "name": "_reductionTime",
          "type": "uint256"
        },
        {
          "internalType": "uint256",
          "name": "_reductionRatio",
          "type": "uint256"
        },
        {
          "internalType": "uint256",
          "name": "_onePriceRatio",
          "type": "uint256"
        },
        {
          "internalType": "uint256",
          "name": "_riskFactor",
          "type": "uint256"
        },
        {
          "internalType": "address",
          "name": "_streamingProcessor",
          "type": "address"
        }
      ],
      "name": "doInitialize",
      "outputs": [],
      "stateMutability": "nonpayable",
      "type": "function"
    },
    {
      "inputs": [],
      "name": "funder",
      "outputs": [
        {
          "internalType": "address",
          "name": "",
          "type": "address"
        }
      ],
      "stateMutability": "view",
      "type": "function"
    },
    {
      "inputs": [
        {
          "internalType": "address",
          "name": "_token",
          "type": "address"
        },
        {
          "internalType": "uint256",
          "name": "_amount",
          "type": "uint256"
        }
      ],
      "name": "funderClaim",
      "outputs": [],
      "stateMutability": "nonpayable",
      "type": "function"
    },
    {
      "inputs": [
        {
          "internalType": "address",
          "name": "",
          "type": "address"
        }
      ],
      "name": "funderPoolInterest",
      "outputs": [
        {
          "internalType": "uint256",
          "name": "",
          "type": "uint256"
        }
      ],
      "stateMutability": "view",
      "type": "function"
    },
    {
      "inputs": [
        {
          "internalType": "uint256",
          "name": "auctionId",
          "type": "uint256"
        }
      ],
      "name": "getAuctionRecordLength",
      "outputs": [
        {
          "internalType": "uint256",
          "name": "length",
          "type": "uint256"
        }
      ],
      "stateMutability": "view",
      "type": "function"
    },
    {
      "inputs": [],
      "name": "getAuctioningIds",
      "outputs": [
        {
          "internalType": "uint256[]",
          "name": "",
          "type": "uint256[]"
        }
      ],
      "stateMutability": "view",
      "type": "function"
    },
    {
      "inputs": [],
      "name": "getBidAuctioningIds",
      "outputs": [
        {
          "internalType": "uint256[]",
          "name": "",
          "type": "uint256[]"
        }
      ],
      "stateMutability": "view",
      "type": "function"
    },
    {
      "inputs": [
        {
          "internalType": "uint256",
          "name": "auctionId",
          "type": "uint256"
        }
      ],
      "name": "getCurrSaleInfo",
      "outputs": [
        {
          "internalType": "uint256",
          "name": "amount",
          "type": "uint256"
        },
        {
          "internalType": "uint256",
          "name": "onePrice",
          "type": "uint256"
        },
        {
          "internalType": "uint256",
          "name": "remainTime",
          "type": "uint256"
        },
        {
          "internalType": "uint256",
          "name": "mulReduce",
          "type": "uint256"
        },
        {
          "internalType": "bool",
          "name": "bidFlag",
          "type": "bool"
        }
      ],
      "stateMutability": "view",
      "type": "function"
    },
    {
      "inputs": [
        {
          "internalType": "uint256",
          "name": "auctionId",
          "type": "uint256"
        }
      ],
      "name": "getCurrSaleInfoV2",
      "outputs": [
        {
          "internalType": "uint256",
          "name": "amount",
          "type": "uint256"
        },
        {
          "internalType": "uint256",
          "name": "onePrice",
          "type": "uint256"
        },
        {
          "internalType": "uint256",
          "name": "remainTime",
          "type": "uint256"
        },
        {
          "internalType": "uint256",
          "name": "mulReduce",
          "type": "uint256"
        },
        {
          "internalType": "bool",
          "name": "bidFlag",
          "type": "bool"
        },
        {
          "internalType": "bool",
          "name": "harvestFlag",
          "type": "bool"
        },
        {
          "internalType": "address",
          "name": "harvestAddress",
          "type": "address"
        }
      ],
      "stateMutability": "view",
      "type": "function"
    },
    {
      "inputs": [
        {
          "internalType": "uint256",
          "name": "auctionId",
          "type": "uint256"
        }
      ],
      "name": "getHarvestAuction",
      "outputs": [
        {
          "internalType": "uint256",
          "name": "maxBidArid",
          "type": "uint256"
        },
        {
          "internalType": "uint256",
          "name": "maxBidAmount",
          "type": "uint256"
        },
        {
          "internalType": "uint256",
          "name": "totalBidAmount",
          "type": "uint256"
        }
      ],
      "stateMutability": "view",
      "type": "function"
    },
    {
      "inputs": [
        {
          "internalType": "uint256",
          "name": "auctionId",
          "type": "uint256"
        }
      ],
      "name": "getHarvestAuctionV2",
      "outputs": [
        {
          "internalType": "uint256",
          "name": "maxBidArid",
          "type": "uint256"
        },
        {
          "internalType": "uint256",
          "name": "maxBidAmount",
          "type": "uint256"
        },
        {
          "internalType": "uint256",
          "name": "totalBidAmount",
          "type": "uint256"
        },
        {
          "internalType": "bool",
          "name": "harvestFlag",
          "type": "bool"
        },
        {
          "internalType": "address",
          "name": "harvestAddress",
          "type": "address"
        }
      ],
      "stateMutability": "view",
      "type": "function"
    },
    {
      "inputs": [],
      "name": "getHolderAuctionIds",
      "outputs": [
        {
          "internalType": "uint256[]",
          "name": "",
          "type": "uint256[]"
        }
      ],
      "stateMutability": "view",
      "type": "function"
    },
    {
      "inputs": [
        {
          "internalType": "address",
          "name": "user",
          "type": "address"
        }
      ],
      "name": "getUserBidAuctioningIds",
      "outputs": [
        {
          "internalType": "uint256[]",
          "name": "",
          "type": "uint256[]"
        }
      ],
      "stateMutability": "view",
      "type": "function"
    },
    {
      "inputs": [
        {
          "internalType": "address",
          "name": "user",
          "type": "address"
        }
      ],
      "name": "getUserBidAuctioningInfos",
      "outputs": [
        {
          "components": [
            {
              "internalType": "uint256",
              "name": "auctionId",
              "type": "uint256"
            },
            {
              "internalType": "address",
              "name": "harvestAddress",
              "type": "address"
            },
            {
              "internalType": "bool",
              "name": "harvestFlag",
              "type": "bool"
            }
          ],
          "internalType": "struct QuadraticAuction.BidAuctionInfo[]",
          "name": "",
          "type": "tuple[]"
        }
      ],
      "stateMutability": "view",
      "type": "function"
    },
    {
      "inputs": [
        {
          "internalType": "bytes32",
          "name": "role",
          "type": "bytes32"
        },
        {
          "internalType": "address",
          "name": "account",
          "type": "address"
        }
      ],
      "name": "grantRole",
      "outputs": [],
      "stateMutability": "nonpayable",
      "type": "function"
    },
    {
      "inputs": [
        {
          "internalType": "bytes32",
          "name": "role",
          "type": "bytes32"
        },
        {
          "internalType": "address",
          "name": "account",
          "type": "address"
        }
      ],
      "name": "hasRole",
      "outputs": [
        {
          "internalType": "bool",
          "name": "",
          "type": "bool"
        }
      ],
      "stateMutability": "view",
      "type": "function"
    },
    {
      "inputs": [],
      "name": "onePriceRatio",
      "outputs": [
        {
          "internalType": "uint256",
          "name": "",
          "type": "uint256"
        }
      ],
      "stateMutability": "view",
      "type": "function"
    },
    {
      "inputs": [],
      "name": "pause",
      "outputs": [],
      "stateMutability": "nonpayable",
      "type": "function"
    },
    {
      "inputs": [],
      "name": "paused",
      "outputs": [
        {
          "internalType": "bool",
          "name": "",
          "type": "bool"
        }
      ],
      "stateMutability": "view",
      "type": "function"
    },
    {
      "inputs": [],
      "name": "quadraticLiquidation",
      "outputs": [
        {
          "internalType": "contract IQuadraticLiquidation",
          "name": "",
          "type": "address"
        }
      ],
      "stateMutability": "view",
      "type": "function"
    },
    {
      "inputs": [],
      "name": "reductionRatio",
      "outputs": [
        {
          "internalType": "uint256",
          "name": "",
          "type": "uint256"
        }
      ],
      "stateMutability": "view",
      "type": "function"
    },
    {
      "inputs": [],
      "name": "reductionTime",
      "outputs": [
        {
          "internalType": "uint256",
          "name": "",
          "type": "uint256"
        }
      ],
      "stateMutability": "view",
      "type": "function"
    },
    {
      "inputs": [
        {
          "internalType": "bytes32",
          "name": "role",
          "type": "bytes32"
        },
        {
          "internalType": "address",
          "name": "account",
          "type": "address"
        }
      ],
      "name": "revokeRole",
      "outputs": [],
      "stateMutability": "nonpayable",
      "type": "function"
    },
    {
      "inputs": [],
      "name": "riskFactor",
      "outputs": [
        {
          "internalType": "uint256",
          "name": "",
          "type": "uint256"
        }
      ],
      "stateMutability": "view",
      "type": "function"
    },
    {
      "inputs": [
        {
          "internalType": "uint256",
          "name": "_reductionRatio",
          "type": "uint256"
        },
        {
          "internalType": "uint256",
          "name": "_reductionTime",
          "type": "uint256"
        },
        {
          "internalType": "uint256",
          "name": "_riskFactor",
          "type": "uint256"
        },
        {
          "internalType": "uint256",
          "name": "_onePriceRatio",
          "type": "uint256"
        }
      ],
      "name": "setActionConfig",
      "outputs": [],
      "stateMutability": "nonpayable",
      "type": "function"
    },
    {
      "inputs": [
        {
          "internalType": "address",
          "name": "_funder",
          "type": "address"
        }
      ],
      "name": "setFunder",
      "outputs": [],
      "stateMutability": "nonpayable",
      "type": "function"
    },
    {
      "inputs": [
        {
          "internalType": "address",
          "name": "governance",
          "type": "address"
        }
      ],
      "name": "setGovernance",
      "outputs": [],
      "stateMutability": "nonpayable",
      "type": "function"
    },
    {
      "inputs": [
        {
          "internalType": "address",
          "name": "_quadraticLiquidation",
          "type": "address"
        }
      ],
      "name": "setQuadraticLiquidation",
      "outputs": [],
      "stateMutability": "nonpayable",
      "type": "function"
    },
    {
      "inputs": [
        {
          "internalType": "address",
          "name": "_streamingProcessor",
          "type": "address"
        }
      ],
      "name": "setStreamingProcessor",
      "outputs": [],
      "stateMutability": "nonpayable",
      "type": "function"
    },
    {
      "inputs": [],
      "name": "streamingProcessor",
      "outputs": [
        {
          "internalType": "address",
          "name": "",
          "type": "address"
        }
      ],
      "stateMutability": "view",
      "type": "function"
    },
    {
      "inputs": [
        {
          "internalType": "address",
          "name": "erc721Addr",
          "type": "address"
        },
        {
          "internalType": "uint256",
          "name": "tokenId",
          "type": "uint256"
        },
        {
          "internalType": "uint256",
          "name": "bid",
          "type": "uint256"
        },
        {
          "internalType": "address",
          "name": "auctionToken",
          "type": "address"
        },
        {
          "internalType": "uint256",
          "name": "startAuctionValue",
          "type": "uint256"
        },
        {
          "internalType": "uint256",
          "name": "startAuctionInterests",
          "type": "uint256"
        }
      ],
      "name": "toAuction",
      "outputs": [],
      "stateMutability": "nonpayable",
      "type": "function"
    },
    {
      "inputs": [],
      "name": "uniswapV3Oracle",
      "outputs": [
        {
          "internalType": "contract IUniswapV3Oracle",
          "name": "",
          "type": "address"
        }
      ],
      "stateMutability": "view",
      "type": "function"
    },
    {
      "inputs": [],
      "name": "unpause",
      "outputs": [],
      "stateMutability": "nonpayable",
      "type": "function"
    }
  ],
  "bytecode": "0x60806040526138406005556103b66006556103cf6007556103b660085534801561002857600080fd5b506000805460ff60a01b196001600160a01b0319909116321716905560018055613e01806100576000396000f3fe608060405234801561001057600080fd5b506004361061025e5760003560e01c80637bf86e5811610146578063ac24765f116100c3578063d547741f11610087578063d547741f146106ee578063defa58ac14610701578063e1e5886214610714578063e63ab1e91461071d578063e774c85914610744578063f880df6b146107575761025e565b8063ac24765f14610640578063b0b1a98014610660578063c347545214610673578063cb88073414610686578063d0e07fcf146106995761025e565b80639a44c7e21161010a5780639a44c7e21461059a578063a87ca99f146105ba578063aa402b44146105f7578063aa891e4e146105ff578063ab033ea91461062d5761025e565b80637bf86e58146105465780637ebd4b99146105595780638456cb591461056c57806391d148541461057457806393e5b188146105875761025e565b80633f4ba83a116101df57806360e26150116101a357806360e26150146103c857806361dc3d911461040f578063642738601461042257806367bf7627146104355780636a5a3ed81461044857806372abff29146105335761025e565b80633f4ba83a1461033c578063438f251514610344578063599839151461038a57806359e088c6146103925780635c975abb146103a55761025e565b806325cda85d1161022657806325cda85d146102e75780632ad3095a146102fa5780632b5f325d146103035780632f2ff15d1461031657806339707c53146103295761025e565b8063041ae8801461026357806304c46c13146102935780630acc8cd1146102aa5780631c2f3e3d146102bf5780631d336d69146102d2575b600080fd5b601354610276906001600160a01b031681565b6040516001600160a01b0390911681526020015b60405180910390f35b61029c60075481565b60405190815260200161028a565b6102bd6102b836600461379e565b610760565b005b600054610276906001600160a01b031681565b6102da6107f7565b60405161028a9190613ace565b6102bd6102f536600461379e565b6108b9565b61029c60065481565b601854610276906001600160a01b031681565b6102bd610324366004613860565b61093e565b6102bd6103373660046139d9565b610976565b6102bd610d1f565b6103576103523660046139a9565b610d53565b60408051958652602086019490945292840191909152151560608301526001600160a01b0316608082015260a00161028a565b6102da610d76565b6102bd6103a036600461388f565b610e32565b6103b8600054600160a01b900460ff1690565b604051901515815260200161028a565b6103db6103d63660046139d9565b610fd3565b604080516001600160a01b03909616865260208601949094529284019190915215156060830152608082015260a00161028a565b61029c61041d3660046139a9565b61102e565b601654610276906001600160a01b031681565b6102bd6104433660046139a9565b6110d0565b6104c46104563660046139a9565b600460208190526000918252604090912080546001820154600283015460038401549484015460058501546006860154600787015460088801546009890154600a8a0154600b909a01546001600160a01b03998a169b989a979996871697959096169593949293919290918c565b604080516001600160a01b039d8e168152602081019c909c528b019990995260608a019790975294891660808901529790921660a087015260c086015260e08501526101008401949094526101208301939093526101408201929092526101608101919091526101800161028a565b6102bd6105413660046137e5565b6110f7565b6102bd61055436600461379e565b611371565b6102bd610567366004613a1d565b6113f7565b6102bd611561565b6103b8610582366004613860565b6115e0565b6102bd61059536600461379e565b61160d565b6105ad6105a836600461379e565b611693565b60405161028a9190613a6a565b6105cd6105c83660046139a9565b611832565b6040805195865260208601949094529284019190915260608301521515608082015260a00161028a565b6102da611856565b61061261060d3660046139a9565b611912565b6040805193845260208401929092529082015260600161028a565b6102bd61063b36600461379e565b61192e565b61029c61064e36600461379e565b60176020526000908152604090205481565b6102bd61066e3660046139a9565b611a09565b6102da61068136600461379e565b611d3c565b601554610276906001600160a01b031681565b6106ac6106a73660046139a9565b612068565b60408051978852602088019690965294860193909352606085019190915215156080840152151560a08301526001600160a01b031660c082015260e00161028a565b6102bd6106fc366004613860565b612093565b601454610276906001600160a01b031681565b61029c60055481565b61029c7f65d7a28e3265b37a6474929f336521b332c1681b933f6cb9f3376673440d862a81565b6102bd6107523660046137ba565b6120c7565b61029c60085481565b6000546001600160a01b031633146107935760405162461bcd60e51b815260040161078a90613b70565b60405180910390fd5b601380546001600160a01b038381166001600160a01b0319831681179093556040805191909216808252602082019390935233917f7bdd8beff7d8411e2b81e553a7f28dd1d15b287f3a02a33f26ac4e4d7a5f866091015b60405180910390a25050565b60606000610805600c612212565b67ffffffffffffffff81111561082b57634e487b7160e01b600052604160045260246000fd5b604051908082528060200260200182016040528015610854578160200160208202803683370190505b50905060005b610864600c612212565b8110156108b357610876600c8261221c565b82828151811061089657634e487b7160e01b600052603260045260246000fd5b6020908102919091010152806108ab81613d85565b91505061085a565b50905090565b6000546001600160a01b031633146108e35760405162461bcd60e51b815260040161078a90613b70565b601580546001600160a01b0319166001600160a01b0383169081179091556040805133815260208101929092527fad793b20ae74e3cd792b194d757c87105444046bb189939bfb5a81bdf29bfb3c910160405180910390a150565b6000546001600160a01b031633146109685760405162461bcd60e51b815260040161078a90613b70565b610972828261222f565b5050565b61097e612298565b6109866122f2565b610991600a83612345565b6109ad5760405162461bcd60e51b815260040161078a90613b39565b6000806000806109bc8661235d565b505050935093509350935060008211610a045760405162461bcd60e51b815260206004820152600a60248201526927bb32b9103a34b6b29760b11b604482015260640161078a565b6000868152600460205260409020600a8101541580610a27575080600a01546001145b610a735760405162461bcd60e51b815260206004820152601960248201527f546869732061756374696f6e207374617465206572726f722e00000000000000604482015260640161078a565b80600901548611610add5760405162461bcd60e51b815260206004820152602e60248201527f4d7573742062652067726561746572207468616e20746865206578697374696e60448201526d339036b0bc34b6bab6903134b21760911b606482015260840161078a565b848611610b3d5760405162461bcd60e51b815260206004820152602860248201527f4d7573742062652067726561746572207468616e20746865207374617274696e6044820152673390383934b1b29760c11b606482015260840161078a565b6004818101546000898152601260209081526040808320815160a0810183523381528084018d81524293820193845260608201868152608083018b8152845460018082018755868a52979098209351600590980290930180546001600160a01b0319166001600160a01b0398891617815591518287015593516002820155925160038401805460ff1916911515919091179055519190950155600985018a9055600a850155600b84015491169190610bf590896125ad565b600b840155610c05600e8a612345565b610c1657610c14600e8a6125b9565b505b610c2b6001600160a01b03831633308b6125c5565b805460011015610cb75780546000908290610c4890600290613d42565b81548110610c6657634e487b7160e01b600052603260045260246000fd5b60009182526020909120600590910201600381015490915060ff16610cb55760038101805460ff19166001908117909155815490820154610cb5916001600160a01b0386811692911690612636565b505b858810610cc957610cc989600161266b565b60018301546002840154604080518b81523360208201528c9392917f8e692c4758bb040db838062e6506b267aab6d7a00e36f17b8a8d93060a83c8a4910160405180910390a45050505050505061097260018055565b6000546001600160a01b03163314610d495760405162461bcd60e51b815260040161078a90613b70565b610d51612bb7565b565b6000806000806000610d6486612c0c565b939a9299509097509550909350915050565b60606000610d84600e612212565b67ffffffffffffffff811115610daa57634e487b7160e01b600052604160045260246000fd5b604051908082528060200260200182016040528015610dd3578160200160208202803683370190505b50905060005b610de3600e612212565b8110156108b357610df5600e8261221c565b828281518110610e1557634e487b7160e01b600052603260045260246000fd5b602090810291909101015280610e2a81613d85565b915050610dd9565b600354610100900460ff1615808015610e525750600354600160ff909116105b80610e6c5750303b158015610e6c575060035460ff166001145b610ecf5760405162461bcd60e51b815260206004820152602e60248201527f496e697469616c697a61626c653a20636f6e747261637420697320616c72656160448201526d191e481a5b9a5d1a585b1a5e995960921b606482015260840161078a565b6003805460ff191660011790558015610ef2576003805461ff0019166101001790555b600080546001600160a01b03191633908117909155610f32907f65d7a28e3265b37a6474929f336521b332c1681b933f6cb9f3376673440d862a9061222f565b601480546001600160a01b03808b166001600160a01b031992831617909255600588905560078590556006879055601680548a8416908316179055600886905560188054928516929091169190911790558015610fc9576003805461ff0019169055604051600181527f7f26b83ff96e1f2b6a682f133852f6798a09c465da95921460cefb38474024989060200160405180910390a15b5050505050505050565b60126020528160005260406000208181548110610fef57600080fd5b6000918252602090912060059091020180546001820154600283015460038401546004909401546001600160a01b0390931695509093509160ff169085565b600081815260126020908152604080832080548251818502810185019093528083528493849084015b828210156110c35760008481526020908190206040805160a0810182526005860290920180546001600160a01b0316835260018082015484860152600282015492840192909252600381015460ff16151560608401526004015460808301529083529092019101611057565b5050915195945050505050565b6110d8612298565b6110e06122f2565b6110eb81600061266b565b6110f460018055565b50565b6014546001600160a01b031633146111515760405162461bcd60e51b815260206004820152601860248201527f6e6f7420626f72726f7720766973746f7220616c6c6f772e0000000000000000604482015260640161078a565b600060098054905090506009819080600181540180825580915050600190039060005260206000200160009091909190915055604051806101800160405280886001600160a01b03168152602001878152602001868152602001428152602001856001600160a01b0316815260200160006001600160a01b0316815260200184815260200183815260200160008152602001600081526020016000815260200160008152506004600083815260200190815260200160002060008201518160000160006101000a8154816001600160a01b0302191690836001600160a01b0316021790555060208201518160010155604082015181600201556060820151816003015560808201518160040160006101000a8154816001600160a01b0302191690836001600160a01b0316021790555060a08201518160050160006101000a8154816001600160a01b0302191690836001600160a01b0316021790555060c0820151816006015560e082015181600701556101008201518160080155610120820151816009015561014082015181600a015561016082015181600b015590505061130581600a6125b990919063ffffffff16565b50611311600c826125b9565b50604080516001600160a01b03808a1682528616602082015290810184905260608101839052869086907f472471c4fd3f238f16b01104ca9bd638496679256ef51a3d54301dfcf39d719f9060800160405180910390a350505050505050565b6000546001600160a01b0316331461139b5760405162461bcd60e51b815260040161078a90613b70565b601880546001600160a01b038381166001600160a01b0319831681179093556040805191909216808252602082019390935233917f655b7b455c484a5cd7f2a4f206f7bbc4817ecf5e8e2bd28f325415099085269b91016107eb565b6000546001600160a01b031633146114215760405162461bcd60e51b815260040161078a90613b70565b6103e884106114685760405162461bcd60e51b815260206004820152601360248201527236b0bc103932b23ab1ba34b7b72930ba34b79760691b604482015260640161078a565b6103e881106114ae5760405162461bcd60e51b815260206004820152601260248201527136b0bc1037b732a83934b1b2a930ba34b79760711b604482015260640161078a565b6103e882106114f15760405162461bcd60e51b815260206004820152600f60248201526e36b0bc103934b9b5a330b1ba37b91760891b604482015260640161078a565b600684905560078290556008819055821561150c5760058390555b604080513381526020810186905290810184905260608101839052608081018290527f6d6d006b85993cd2a4570c9a72be2e0c284766ad1f1b7ad246b59b3fceccfe169060a00160405180910390a150505050565b7f65d7a28e3265b37a6474929f336521b332c1681b933f6cb9f3376673440d862a61158c81336115e0565b6115d85760405162461bcd60e51b815260206004820152601860248201527f6163636f756e74206973206d697373696e6720726f6c652e0000000000000000604482015260640161078a565b6110f4612e00565b60008281526002602090815260408083206001600160a01b038516845290915290205460ff165b92915050565b6000546001600160a01b031633146116375760405162461bcd60e51b815260040161078a90613b70565b601680546001600160a01b038381166001600160a01b0319831681179093556040805191909216808252602082019390935233917f55f88e1a470467a8151fa2efb5c4a38d5ead3df1c5a84112b8d2b428ac28e75291016107eb565b606060006116a083611d3c565b90506000815167ffffffffffffffff8111156116cc57634e487b7160e01b600052604160045260246000fd5b60405190808252806020026020018201604052801561171757816020015b60408051606081018252600080825260208083018290529282015282526000199092019101816116ea5790505b50905060005b825181101561182857600083828151811061174857634e487b7160e01b600052603260045260246000fd5b6020026020010151905060008061175e83612c0c565b945094505050508285858151811061178657634e487b7160e01b600052603260045260246000fd5b60200260200101516000018181525050808585815181106117b757634e487b7160e01b600052603260045260246000fd5b6020026020010151602001906001600160a01b031690816001600160a01b031681525050818585815181106117fc57634e487b7160e01b600052603260045260246000fd5b60200260200101516040019015159081151581525050505050808061182090613d85565b91505061171d565b509150505b919050565b60008060008060006118438661235d565b50949b939a509198509650945092505050565b60606000611864600a612212565b67ffffffffffffffff81111561188a57634e487b7160e01b600052604160045260246000fd5b6040519080825280602002602001820160405280156118b3578160200160208202803683370190505b50905060005b6118c3600a612212565b8110156108b3576118d5600a8261221c565b8282815181106118f557634e487b7160e01b600052603260045260246000fd5b60209081029190910101528061190a81613d85565b9150506118b9565b600080600061192084612c0c565b509297919650945092505050565b6000546001600160a01b031633146119585760405162461bcd60e51b815260040161078a90613b70565b6001600160a01b0381166119ae5760405162461bcd60e51b815260206004820152601f60248201527f6e657720676f7665726e616e636520746865207a65726f206164647265737300604482015260640161078a565b600080546040516001600160a01b03808516939216917f5f56bee8cffbe9a78652a74a60705edede02af10b0bbb888ca44b79a0d42ce8091a3600080546001600160a01b0319166001600160a01b0392909216919091179055565b611a11612298565b611a196122f2565b611a24600a82612345565b611a405760405162461bcd60e51b815260040161078a90613b39565b600080611a4c8361235d565b50509450505050915081600014611a905760405162461bcd60e51b815260206004820152600860248201526724b7103a34b6b29760c11b604482015260640161078a565b8015611acd5760405162461bcd60e51b815260206004820152600c60248201526b30b63932b0b23c903134b21760a11b604482015260640161078a565b60008381526004602052604090206009600a80830191909155611af09085612e43565b50611afc600e85612e43565b506015546000906001600160a01b0316611bf5576018546001600160a01b0316611b775760405162461bcd60e51b815260206004820152602660248201527f73747265616d696e6750726f636573736f722061646472657373206e6f74206360448201526537b73334b39760d11b606482015260840161078a565b50601854815460018301546040516323b872dd60e01b81523060048201526001600160a01b039384166024820181905260448201929092529092909116906323b872dd90606401600060405180830381600087803b158015611bd857600080fd5b505af1158015611bec573d6000803e3d6000fd5b50505050611cf1565b506015548154600183015460405163095ea7b360e01b81526001600160a01b0393841660048201819052602482019290925290929091169063095ea7b390604401600060405180830381600087803b158015611c5057600080fd5b505af1158015611c64573d6000803e3d6000fd5b5050601554600285015485546001870154600480890154604051634e7951fd60e11b8152918201949094526001600160a01b039283166024820152604481019190915291811660648301529091169250639cf2a3fa9150608401600060405180830381600087803b158015611cd857600080fd5b505af1158015611cec573d6000803e3d6000fd5b505050505b6040516001600160a01b038216815285907f9e8d1a7fa767a57dd6f9ac362f52ffdee77d596a922c45ecab7d6b644cc80ae29060200160405180910390a2505050506110f460018055565b60606000611d4a600e612212565b67ffffffffffffffff811115611d7057634e487b7160e01b600052604160045260246000fd5b604051908082528060200260200182016040528015611d99578160200160208202803683370190505b5090506000600019815b611dad600e612212565b811015611f58576000611dc1600e8361221c565b9050600060126000838152602001908152602001600020805480602002602001604051908101604052809291908181526020016000905b82821015611e645760008481526020908190206040805160a0810182526005860290920180546001600160a01b0316835260018082015484860152600282015492840192909252600381015460ff16151560608401526004015460808301529083529092019101611df8565b5050505090506000805b8251811015611f0e57896001600160a01b0316838281518110611ea157634e487b7160e01b600052603260045260246000fd5b6020026020010151600001516001600160a01b03161415611efe5783888681518110611edd57634e487b7160e01b600052603260045260246000fd5b6020908102919091010152611ef3876001613bd7565b965060019150611f0e565b611f0781613d85565b9050611e6e565b5080611f425784878581518110611f3557634e487b7160e01b600052603260045260246000fd5b6020026020010181815250505b5050508080611f5090613d85565b915050611da3565b5060008267ffffffffffffffff811115611f8257634e487b7160e01b600052604160045260246000fd5b604051908082528060200260200182016040528015611fab578160200160208202803683370190505b5090506000805b855181101561205c5783868281518110611fdc57634e487b7160e01b600052603260045260246000fd5b60200260200101511461204a5785818151811061200957634e487b7160e01b600052603260045260246000fd5b602002602001015183838151811061203157634e487b7160e01b600052603260045260246000fd5b6020908102919091010152612047826001613bd7565b91505b8061205481613d85565b915050611fb2565b50909695505050505050565b600080600080600080600061207c8861235d565b959e949d50929b5090995097509550909350915050565b6000546001600160a01b031633146120bd5760405162461bcd60e51b815260040161078a90613b70565b6109728282612e4f565b6013546001600160a01b031633146121215760405162461bcd60e51b815260206004820152601860248201527f6e6f742066756e64657220766973746f7220616c6c6f772e0000000000000000604482015260640161078a565b6001600160a01b0382166000908152601760205260409020548181101561217a5760405162461bcd60e51b815260206004820152600d60248201526c2bb937b7339030b6b7bab73a1760991b604482015260640161078a565b6001600160a01b03831660009081526017602052604090205461219d9083612eb6565b6001600160a01b038085166000818152601760205260409020929092556013546121c992911684612636565b604080516001600160a01b03851681526020810184905233917f88fd3316c9095ab540fae8d4fb866de4ccab13f341b36e0867279463658c6734910160405180910390a2505050565b6000611607825490565b60006122288383612ec2565b9392505050565b61223982826115e0565b6109725760008281526002602090815260408083206001600160a01b0385168085529252808320805460ff1916600117905551339285917f2f8788117e7eff1d82e926ec794901d17c78024a50270940304540a733656f0d9190a45050565b600260015414156122eb5760405162461bcd60e51b815260206004820152601f60248201527f5265656e7472616e637947756172643a207265656e7472616e742063616c6c00604482015260640161078a565b6002600155565b612305600054600160a01b900460ff1690565b15610d515760405162461bcd60e51b815260206004820152601060248201526f14185d5cd8589b194e881c185d5cd95960821b604482015260640161078a565b60008181526001830160205260408120541515612228565b6000808080808080612370600a89612345565b61238c5760405162461bcd60e51b815260040161078a90613b39565b600088815260046020818152604080842081516101808101835281546001600160a01b03908116825260018084015495830195909552600283015493820193909352600382015460608201529381015482166080850152600581015490911660a0840152600681015460c08401819052600782015460e0850181905260088301546101008601526009830154610120860152600a8301546101408601819052600b9093015461016086015291909214965091929161244a91906125ad565b90506000612465836060015142612eb690919063ffffffff16565b9050856124cd5760055461247a908290612efa565b9650612487838389612f06565b995089156124c8576124ba6124b16124aa89600554612f3290919063ffffffff16565b8390612eb6565b60055490612eb6565b97506124c58a612f3e565b98505b61259f565b60006124d88c612f5a565b80519091506001600160a01b031661252a5760405162461bcd60e51b815260206004820152601560248201527420bab1ba34b7b7103932b1b7b9321032b93937b91760591b604482015260640161078a565b80602001519a5080608001519750600060055489600161254a9190613bd7565b6125549190613d23565b85606001516125639190613bd7565b90504281111561259757604082015161257c9082613d42565b995061259061258b858b61307d565b612f3e565b9a5061259c565b815195505b50505b505050919395979092949650565b60006122288284613bd7565b600061222883836130c4565b6040516001600160a01b03808516602483015283166044820152606481018290526126309085906323b872dd60e01b906084015b60408051601f198184030181529190526020810180516001600160e01b03166001600160e01b031990931692909217909152613113565b50505050565b6040516001600160a01b03831660248201526044810182905261266690849063a9059cbb60e01b906064016125f9565b505050565b612676600a83612345565b6126925760405162461bcd60e51b815260040161078a90613b39565b6000828152600460205260409020600a8101546001146126eb5760405162461bcd60e51b815260206004820152601460248201527322b93937b91030bab1ba34b7b71039ba30ba329760611b604482015260640161078a565b600083815260126020908152604080832080548251818502810185019093528083529192909190849084015b828210156127835760008481526020908190206040805160a0810182526005860290920180546001600160a01b0316835260018082015484860152600282015492840192909252600381015460ff16151560608401526004015460808301529083529092019101612717565b50505050905060008060008061279888612c0c565b50935093509350935080806127aa5750865b6127ee5760405162461bcd60e51b81526020600482015260156024820152742737ba103430b93b32b939ba1034b7103a34b6b29760591b604482015260640161078a565b600085858151811061281057634e487b7160e01b600052603260045260246000fd5b60200260200101519050600086511115612b565780516001600160a01b031633146128895760405162461bcd60e51b8152602060048201526024808201527f546869732061756374696f6e20646f6573206e6f742062656c6f6e6720746f206044820152633cb7ba9760e11b606482015260840161078a565b6060810151156128db5760405162461bcd60e51b815260206004820152601f60248201527f546869732061756374696f6e20686173206265656e20726566756e6465642e00604482015260640161078a565b60048701546005880180546001600160a01b03191633179055602082015160088901556002600a808a01919091556001600160a01b039091169061291f908b612e43565b5061292b600e8b612e43565b5061293760108b6125b9565b506014546002890154604051633e9f152d60e11b815260048101919091526000916001600160a01b031690637d3e2a5a906024016101806040518083038186803b15801561298457600080fd5b505afa158015612998573d6000803e3d6000fd5b505050506040513d601f19601f820116820180604052508101906129bc9190613900565b905060006129dc8261014001518360a001516125ad90919063ffffffff16565b90508084602001511115612a455760208401516000906129fc9083612eb6565b60048c01546001600160a01b0316600090815260176020526040902054909150612a2690826125ad565b60048c01546001600160a01b0316600090815260176020526040902055505b601454612a60906001600160a01b03858116911660006131e8565b601454612a7a906001600160a01b038581169116836131e8565b60145460028b0154604051637254392560e01b81526001600160a01b0390921691637254392591612ab19160040190815260200190565b600060405180830381600087803b158015612acb57600080fd5b505af1158015612adf573d6000803e3d6000fd5b50508b5460018d01546040516323b872dd60e01b815230600482015233602482015260448101919091526001600160a01b0390911692506323b872dd9150606401600060405180830381600087803b158015612b3a57600080fd5b505af1158015612b4e573d6000803e3d6000fd5b505050505050505b600187015460028801546040805133815260208101899052908101879052606081018690528b9291907f6dc7c6ceb56285b1f69eec06994036d187577f0a553ffe82b772c8f8d67e026c9060800160405180910390a4505050505050505050565b612bbf61330c565b6000805460ff60a01b191690557f5db9ee0a495bf2e6ff9c91a7834c1ba4fdd244a5e8aa4e537bd38aeae4b073aa335b6040516001600160a01b03909116815260200160405180910390a1565b600081815260046020818152604080842081516101808101835281546001600160a01b03908116825260018084015495830195909552600283015493820193909352600382015460608201529381015482166080850152600581015490911660a0840152600681015460c0840152600781015460e084015260088101546101008401526009810154610120840152600a8101546101408401819052600b9091015461016084018190528493909284928392911415612df657600087815260126020908152604080832080548251818502810185019093528083529192909190849084015b82821015612d5c5760008481526020908190206040805160a0810182526005860290920180546001600160a01b0316835260018082015484860152600282015492840192909252600381015460ff16151560608401526004015460808301529083529092019101612cf0565b505050509050600081511115612df45760018151612d7a9190613d42565b96506000818881518110612d9e57634e487b7160e01b600052603260045260246000fd5b6020026020010151905080602001519650600060055482608001516001612dc59190613bd7565b612dcf9190613d23565b8460600151612dde9190613bd7565b905042811015612df15781516001965094505b50505b505b5091939590929450565b612e086122f2565b6000805460ff60a01b1916600160a01b1790557f62e78cea01bee320cd4e420270b5ea74000d11b0c9f74754ebdbfc544b05a258612bef3390565b60006122288383613362565b612e5982826115e0565b156109725760008281526002602090815260408083206001600160a01b0385168085529252808320805460ff1916905551339285917ff6391f5c32d9c69d2a47ea670b442974b53935d1edc7fd64eb21e047a839171b9190a45050565b60006122288284613d42565b6000826000018281548110612ee757634e487b7160e01b600052603260045260246000fd5b9060005260206000200154905092915050565b60006122288284613bef565b6000612f12838361307d565b9050801561222857612f24848261347f565b612228575060009392505050565b60006122288284613d23565b60085460009061160790612f54846103e8612f32565b90612efa565b612f976040518060a0016040528060006001600160a01b031681526020016000815260200160008152602001600015158152602001600081525090565b600082815260126020908152604080832080548251818502810185019093528083529192909190849084015b8282101561302f5760008481526020908190206040805160a0810182526005860290920180546001600160a01b0316835260018082015484860152600282015492840192909252600381015460ff16151560608401526004015460808301529083529092019101612fc3565b50505050905060008151111561307757806001825161304e9190613d42565b8151811061306c57634e487b7160e01b600052603260045260246000fd5b602002602001015191505b50919050565b60006103e861308c8382613c55565b8360065461309a9190613c55565b6130a6866103e8613d23565b6130b09190613d23565b6130ba9190613bef565b6122289190613bef565b600081815260018301602052604081205461310b57508154600181810184556000848152602080822090930184905584548482528286019093526040902091909155611607565b506000611607565b6000613168826040518060400160405280602081526020017f5361666545524332303a206c6f772d6c6576656c2063616c6c206661696c6564815250856001600160a01b03166136069092919063ffffffff16565b90508051600014806131895750808060200190518101906131899190613840565b6126665760405162461bcd60e51b815260206004820152602a60248201527f5361666545524332303a204552433230206f7065726174696f6e20646964206e6044820152691bdd081cdd58d8d9595960b21b606482015260840161078a565b8015806132715750604051636eb1769f60e11b81523060048201526001600160a01b03838116602483015284169063dd62ed3e9060440160206040518083038186803b15801561323757600080fd5b505afa15801561324b573d6000803e3d6000fd5b505050506040513d601f19601f8201168201806040525081019061326f91906139c1565b155b6132dc5760405162461bcd60e51b815260206004820152603660248201527f5361666545524332303a20617070726f76652066726f6d206e6f6e2d7a65726f60448201527520746f206e6f6e2d7a65726f20616c6c6f77616e636560501b606482015260840161078a565b6040516001600160a01b03831660248201526044810182905261266690849063095ea7b360e01b906064016125f9565b61331f600054600160a01b900460ff1690565b610d515760405162461bcd60e51b815260206004820152601460248201527314185d5cd8589b194e881b9bdd081c185d5cd95960621b604482015260640161078a565b60008181526001830160205260408120548015613475576000613386600183613d42565b855490915060009061339a90600190613d42565b905081811461341b5760008660000182815481106133c857634e487b7160e01b600052603260045260246000fd5b90600052602060002001549050808760000184815481106133f957634e487b7160e01b600052603260045260246000fd5b6000918252602080832090910192909255918252600188019052604090208390555b855486908061343a57634e487b7160e01b600052603160045260246000fd5b600190038181906000526020600020016000905590558560010160008681526020019081526020016000206000905560019350505050611607565b6000915050611607565b601654602083015160808401516040516304bd838960e41b815260048101929092526001600160a01b0390811660248301526000928392911690634bd8389090604401604080518083038186803b1580156134d957600080fd5b505afa1580156134ed573d6000803e3d6000fd5b505050506040513d601f19601f8201168201806040525081019061351191906139fa565b506014546040808701519051633e9f152d60e11b81529293506000926001600160a01b0390921691637d3e2a5a9161354f9160040190815260200190565b6101806040518083038186803b15801561356857600080fd5b505afa15801561357c573d6000803e3d6000fd5b505050506040513d601f19601f820116820180604052508101906135a09190613900565b905060006135cc6103e86135c68461014001518560a001516125ad90919063ffffffff16565b90612f32565b6007549091506135dc8287612efa565b1080156135f357506007546135f18285612efa565b105b156135fd57600193505b50505092915050565b6060613615848460008561361d565b949350505050565b60608247101561367e5760405162461bcd60e51b815260206004820152602660248201527f416464726573733a20696e73756666696369656e742062616c616e636520666f6044820152651c8818d85b1b60d21b606482015260840161078a565b600080866001600160a01b0316858760405161369a9190613a4e565b60006040518083038185875af1925050503d80600081146136d7576040519150601f19603f3d011682016040523d82523d6000602084013e6136dc565b606091505b50915091506136ed878383876136f8565b979650505050505050565b6060831561376457825161375d576001600160a01b0385163b61375d5760405162461bcd60e51b815260206004820152601d60248201527f416464726573733a2063616c6c20746f206e6f6e2d636f6e7472616374000000604482015260640161078a565b5081613615565b61361583838151156137795781518083602001fd5b8060405162461bcd60e51b815260040161078a9190613b06565b805161182d81613db6565b6000602082840312156137af578081fd5b813561222881613db6565b600080604083850312156137cc578081fd5b82356137d781613db6565b946020939093013593505050565b60008060008060008060c087890312156137fd578182fd5b863561380881613db6565b95506020870135945060408701359350606087013561382681613db6565b9598949750929560808101359460a0909101359350915050565b600060208284031215613851578081fd5b81518015158114612228578182fd5b60008060408385031215613872578182fd5b82359150602083013561388481613db6565b809150509250929050565b600080600080600080600060e0888a0312156138a9578081fd5b87356138b481613db6565b965060208801356138c481613db6565b955060408801359450606088013593506080880135925060a0880135915060c08801356138f081613db6565b8091505092959891949750929550565b6000610180808385031215613913578182fd5b61391c81613b98565b905061392783613793565b81526020830151602082015260408301516040820152606083015160608201526080830151608082015260a083015160a082015260c083015160c082015260e083015160e08201526101008084015181830152506101208084015181830152506101408084015181830152506101608084015181830152508091505092915050565b6000602082840312156139ba578081fd5b5035919050565b6000602082840312156139d2578081fd5b5051919050565b600080604083850312156139eb578182fd5b50508035926020909101359150565b60008060408385031215613a0c578182fd5b505080516020909101519092909150565b60008060008060808587031215613a32578182fd5b5050823594602084013594506040840135936060013592509050565b60008251613a60818460208701613d59565b9190910192915050565b602080825282518282018190526000919060409081850190868401855b82811015613ac157815180518552868101516001600160a01b03168786015285015115158585015260609093019290850190600101613a87565b5091979650505050505050565b6020808252825182820181905260009190848201906040850190845b8181101561205c57835183529284019291840191600101613aea565b6000602082528251806020840152613b25816040850160208701613d59565b601f01601f19169190910160400192915050565b60208082526017908201527f546869732061756374696f6e206e6f742065786973742e000000000000000000604082015260600190565b6020808252600e908201526d6e6f7420676f7665726e616e636560901b604082015260600190565b604051601f8201601f1916810167ffffffffffffffff81118282101715613bcf57634e487b7160e01b600052604160045260246000fd5b604052919050565b60008219821115613bea57613bea613da0565b500190565b600082613c0a57634e487b7160e01b81526012600452602481fd5b500490565b80825b6001808611613c215750613c4c565b818704821115613c3357613c33613da0565b80861615613c4057918102915b9490941c938002613c12565b94509492505050565b60006122286000198484600082613c6e57506001612228565b81613c7b57506000612228565b8160018114613c915760028114613c9b57613cc8565b6001915050612228565b60ff841115613cac57613cac613da0565b6001841b915084821115613cc257613cc2613da0565b50612228565b5060208310610133831016604e8410600b8410161715613cfb575081810a83811115613cf657613cf6613da0565b612228565b613d088484846001613c0f565b808604821115613d1a57613d1a613da0565b02949350505050565b6000816000190483118215151615613d3d57613d3d613da0565b500290565b600082821015613d5457613d54613da0565b500390565b60005b83811015613d74578181015183820152602001613d5c565b838111156126305750506000910152565b6000600019821415613d9957613d99613da0565b5060010190565b634e487b7160e01b600052601160045260246000fd5b6001600160a01b03811681146110f457600080fdfea2646970667358221220382b724d76771589210ad2c8881eff5b2cd0140edab14aa5751368bcba1126a664736f6c63430008020033",
  "linkReferences": {},
  "deployedLinkReferences": {}
}