{"contracts/uniswap/UniswapV3ChainLinkUsdOracle.sol":{"UniswapV3ChainLinkUsdOracle":{"abi":[{"anonymous":false,"inputs":[{"indexed":true,"internalType":"address","name":"previousOwner","type":"address"},{"indexed":true,"internalType":"address","name":"newOwner","type":"address"}],"name":"GovernanceTransferred","type":"event"},{"anonymous":false,"inputs":[{"indexed":true,"internalType":"address","name":"sender","type":"address"},{"indexed":false,"internalType":"address[]","name":"_tokens","type":"address[]"},{"indexed":false,"internalType":"address[]","name":"_feedAddr","type":"address[]"}],"name":"SetTokenRefFeedEvent","type":"event"},{"inputs":[{"internalType":"address","name":"_nonfungiblePositionManager","type":"address"}],"name":"doInitialize","outputs":[],"stateMutability":"nonpayable","type":"function"},{"inputs":[{"internalType":"address","name":"_token","type":"address"}],"name":"getLatestPrice","outputs":[{"internalType":"int256","name":"_answer","type":"int256"},{"internalType":"int256","name":"_decimals","type":"int256"}],"stateMutability":"view","type":"function"},{"inputs":[{"internalType":"uint256","name":"_tokenId","type":"uint256"}],"name":"getNFTAmounts","outputs":[{"internalType":"address","name":"_token0","type":"address"},{"internalType":"address","name":"_token1","type":"address"},{"internalType":"uint24","name":"_fee","type":"uint24"},{"internalType":"uint256","name":"_amount0","type":"uint256"},{"internalType":"uint256","name":"_amount1","type":"uint256"}],"stateMutability":"view","type":"function"},{"inputs":[{"internalType":"uint256","name":"_tokenId","type":"uint256"},{"internalType":"address","name":"_quoteToken","type":"address"}],"name":"getTWAPQuoteNft","outputs":[{"internalType":"uint256","name":"_quoteAmount","type":"uint256"},{"internalType":"uint256","name":"_gasEstimate","type":"uint256"}],"stateMutability":"view","type":"function"},{"inputs":[{"internalType":"address","name":"_token","type":"address"},{"internalType":"address","name":"_quoteToken","type":"address"}],"name":"getTokenQuotePrice","outputs":[{"internalType":"uint256","name":"_quotePrice","type":"uint256"},{"internalType":"uint256","name":"_gasEstimate","type":"uint256"}],"stateMutability":"view","type":"function"},{"inputs":[],"name":"governance","outputs":[{"internalType":"address","name":"","type":"address"}],"stateMutability":"view","type":"function"},{"inputs":[],"name":"nonfungiblePositionManager","outputs":[{"internalType":"contract INonfungiblePositionManager","name":"","type":"address"}],"stateMutability":"view","type":"function"},{"inputs":[{"internalType":"address","name":"_governance","type":"address"}],"name":"setGovernance","outputs":[],"stateMutability":"nonpayable","type":"function"},{"inputs":[{"internalType":"address[]","name":"_tokens","type":"address[]"},{"internalType":"address[]","name":"_feedAddr","type":"address[]"}],"name":"setTokenRefFeed","outputs":[],"stateMutability":"nonpayable","type":"function"},{"inputs":[{"internalType":"address","name":"","type":"address"}],"name":"tokenRefFeed","outputs":[{"internalType":"address","name":"priceFeed","type":"address"},{"internalType":"int256","name":"decimals","type":"int256"}],"stateMutability":"view","type":"function"},{"inputs":[],"name":"uniswapV3Factory","outputs":[{"internalType":"contract IUniswapV3Factory","name":"","type":"address"}],"stateMutability":"view","type":"function"},{"inputs":[],"name":"usdDefaultDecimals","outputs":[{"internalType":"int256","name":"","type":"int256"}],"stateMutability":"view","type":"function"}],"devdoc":{"kind":"dev","methods":{},"version":1},"evm":{"bytecode":{"linkReferences":{},"object":"608060405234801561001057600080fd5b50611a94806100206000396000f3fe608060405234801561001057600080fd5b50600436106100b45760003560e01c8063605f354411610071578063605f35441461013b57806398298c151461015f578063ab033ea914610174578063b44a272214610187578063da8e4d191461018f578063de10ac9d146101b0576100b4565b806316345f18146100b9578063361983e4146100e35780633e48e995146100f85780634bd838901461010b5780635aa6e6751461011e5780635b54918214610133575b600080fd5b6100cc6100c73660046114af565b6101c3565b6040516100da9291906118a9565b60405180910390f35b6100eb61028d565b6040516100da91906118a0565b6100cc6101063660046114e7565b610292565b6100cc61011936600461162f565b61039e565b61012661049e565b6040516100da91906117e3565b6101266104b3565b61014e610149366004611617565b6104c2565b6040516100da95949392919061181f565b61017261016d3660046114af565b6104e5565b005b6101726101823660046114af565b610651565b610126610718565b6101a261019d3660046114af565b610727565b6040516100da929190611855565b6101726101be36600461151f565b61074c565b6001600160a01b03808216600090815260036020526040812080546001909101549192168061020d5760405162461bcd60e51b8152600401610204906118b7565b60405180910390fd5b806001600160a01b031663feaf968c6040518163ffffffff1660e01b815260040160a06040518083038186803b15801561024657600080fd5b505afa15801561025a573d6000803e3d6000fd5b505050506040513d601f19601f8201168201806040525081019061027e9190611653565b50919794965093945050505050565b600881565b60008060005a905060006102a5866101c3565b50905060006102b3866101c3565b5090506102ce816102c8846305f5e10061097a565b906109dc565b94506000866001600160a01b031663313ce5676040518163ffffffff1660e01b815260040160206040518083038186803b15801561030b57600080fd5b505afa15801561031f573d6000803e3d6000fd5b505050506040513d601f19601f8201168201806040525081019061034391906116a2565b905060088160ff16131561036c576103658660071960ff841601600a0a61097a565b955061038e565b8060ff166008131561038e5761038b8660ff8316600803600a0a6109dc565b95505b835a039450505050509250929050565b60008060005a905060006103b1856101c3565b5090506000806103c2888885610a43565b90925090506103d182846109dc565b95506000876001600160a01b031663313ce5676040518163ffffffff1660e01b815260040160206040518083038186803b15801561040e57600080fd5b505afa158015610422573d6000803e3d6000fd5b505050506040513d601f19601f8201168201806040525081019061044691906116a2565b9050818160ff16111561046d576104668760ff8316849003600a0a61097a565b965061048d565b8060ff1682111561048d5761048a8760ff83168403600a0a6109dc565b96505b845a03955050505050509250929050565b6000546201000090046001600160a01b031681565b6002546001600160a01b031681565b60008060008060006104d386610bdb565b939a9299509097509550909350915050565b600054610100900460ff166105005760005460ff1615610508565b610508610e03565b6105435760405162461bcd60e51b815260040180806020018281038252602e815260200180611a10602e913960400191505060405180910390fd5b600054610100900460ff1615801561056e576000805460ff1961ff0019909116610100171660011790555b6000805462010000600160b01b031916336201000002179055600180546001600160a01b0319166001600160a01b0384811691909117918290556040805163c45a015560e01b81529051929091169163c45a015591600480820192602092909190829003018186803b1580156105e357600080fd5b505afa1580156105f7573d6000803e3d6000fd5b505050506040513d601f19601f8201168201806040525081019061061b91906114cb565b600280546001600160a01b0319166001600160a01b0392909216919091179055801561064d576000805461ff00191690555b5050565b6000546201000090046001600160a01b031633146106815760405162461bcd60e51b815260040161020490611998565b6000546201000090046001600160a01b03166106af5760405162461bcd60e51b81526004016102049061192a565b600080546040516001600160a01b03808516936201000090930416917f5f56bee8cffbe9a78652a74a60705edede02af10b0bbb888ca44b79a0d42ce8091a3600080546001600160a01b03909216620100000262010000600160b01b0319909216919091179055565b6001546001600160a01b031681565b600360205260009081526040902080546001909101546001600160a01b039091169082565b6000546201000090046001600160a01b0316331461077c5760405162461bcd60e51b815260040161020490611998565b826107995760405162461bcd60e51b8152600401610204906118e0565b8281146107b85760405162461bcd60e51b8152600401610204906119c0565b60005b8381101561092c5760008383838181106107d157fe5b90506020020160208101906107e691906114af565b90506000816001600160a01b031663313ce5676040518163ffffffff1660e01b815260040160206040518083038186803b15801561082357600080fd5b505afa158015610837573d6000803e3d6000fd5b505050506040513d601f19601f8201168201806040525081019061085b91906116a2565b60ff169050600881146108805760405162461bcd60e51b815260040161020490611961565b604051806040016040528086868681811061089757fe5b90506020020160208101906108ac91906114af565b6001600160a01b03168152602001829052600360008989878181106108cd57fe5b90506020020160208101906108e291906114af565b6001600160a01b0390811682526020808301939093526040909101600020835181546001600160a01b03191692169190911781559101516001918201559290920191506107bb9050565b50336001600160a01b03167fc20c0086516e4bd82ca05c254f38c08d435b1e548e2ee9338ce0ac49a6b7e5218585858560405161096c949392919061186e565b60405180910390a250505050565b600082610989575060006109d6565b8282028284828161099657fe5b04146109d35760405162461bcd60e51b8152600401808060200182810382526021815260200180611a3e6021913960400191505060405180910390fd5b90505b92915050565b6000808211610a32576040805162461bcd60e51b815260206004820152601a60248201527f536166654d6174683a206469766973696f6e206279207a65726f000000000000604482015290519081900360640190fd5b818381610a3b57fe5b049392505050565b600080600080600080610a5589610bdb565b9450945050935093506000610a6c8886858c610e14565b90506000610a7c8986858d610e14565b90506000866001600160a01b031663313ce5676040518163ffffffff1660e01b815260040160206040518083038186803b158015610ab957600080fd5b505afa158015610acd573d6000803e3d6000fd5b505050506040513d601f19601f82011682018060405250810190610af191906116a2565b90506000866001600160a01b031663313ce5676040518163ffffffff1660e01b815260040160206040518083038186803b158015610b2e57600080fd5b505afa158015610b42573d6000803e3d6000fd5b505050506040513d601f19601f82011682018060405250810190610b6691906116a2565b90508160ff1698508160ff168160ff161115610b9c5760ff8082169950610b9590859084840316600a0a61097a565b9350610bbf565b8060ff168260ff161115610bbf57610bbc8360ff83850316600a0a61097a565b92505b610bc98484610e57565b99505050505050505050935093915050565b60015460405163133f757160e31b815260009182918291829182918291829182916001600160a01b03909116906399fbab8890610c1c908c906004016118a0565b6101806040518083038186803b158015610c3557600080fd5b505afa158015610c49573d6000803e3d6000fd5b505050506040513d601f19601f82011682018060405250810190610c6d91906116bc565b909192939495969798999a50909192939495969798995090919250909150905050809650819750829850839b50849c50859d505050505050506000600260009054906101000a90046001600160a01b03166001600160a01b0316631698ee828a8a8a6040518463ffffffff1660e01b8152600401610ced939291906117f7565b60206040518083038186803b158015610d0557600080fd5b505afa158015610d19573d6000803e3d6000fd5b505050506040513d601f19601f82011682018060405250810190610d3d91906114cb565b90506000816001600160a01b0316633850c7bd6040518163ffffffff1660e01b815260040160e06040518083038186803b158015610d7a57600080fd5b505afa158015610d8e573d6000803e3d6000fd5b505050506040513d601f19601f82011682018060405250810190610db29190611588565b50505050509150506000610dc582610eb1565b90506000610dd287610eb1565b90506000610ddf87610eb1565b9050610ded838383896111e3565b9d9f9c9e509a9c9a9b9950505050505050505050565b6000610e0e3061127f565b15905090565b60008215610e4f57816001600160a01b0316846001600160a01b031614610e4257610e3e846101c3565b5094505b610e4c858461097a565b90505b949350505050565b6000828201838110156109d3576040805162461bcd60e51b815260206004820152601b60248201527f536166654d6174683a206164646974696f6e206f766572666c6f770000000000604482015290519081900360640190fd5b60008060008360020b12610ec8578260020b610ed0565b8260020b6000035b9050620d89e8811115610f0e576040805162461bcd60e51b81526020600482015260016024820152601560fa1b604482015290519081900360640190fd5b600060018216610f2257600160801b610f34565b6ffffcb933bd6fad37aa2d162d1a5940015b70ffffffffffffffffffffffffffffffffff1690506002821615610f68576ffff97272373d413259a46990580e213a0260801c5b6004821615610f87576ffff2e50f5f656932ef12357cf3c7fdcc0260801c5b6008821615610fa6576fffe5caca7e10e4e61c3624eaa0941cd00260801c5b6010821615610fc5576fffcb9843d60f6159c9db58835c9266440260801c5b6020821615610fe4576fff973b41fa98c081472e6896dfb254c00260801c5b6040821615611003576fff2ea16466c96a3843ec78b326b528610260801c5b6080821615611022576ffe5dee046a99a2a811c461f1969c30530260801c5b610100821615611042576ffcbe86c7900a88aedcffc83b479aa3a40260801c5b610200821615611062576ff987a7253ac413176f2b074cf7815e540260801c5b610400821615611082576ff3392b0822b70005940c7a398e4b70f30260801c5b6108008216156110a2576fe7159475a2c29b7443b29c7fa6e889d90260801c5b6110008216156110c2576fd097f3bdfd2022b8845ad8f792aa58250260801c5b6120008216156110e2576fa9f746462d870fdf8a65dc1f90e061e50260801c5b614000821615611102576f70d869a156d2a1b890bb3df62baf32f70260801c5b618000821615611122576f31be135f97d08fd981231505542fcfa60260801c5b62010000821615611143576f09aa508b5b7a84e1c677de54f3e99bc90260801c5b62020000821615611163576e5d6af8dedb81196699c329225ee6040260801c5b62040000821615611182576d2216e584f5fa1ea926041bedfe980260801c5b6208000082161561119f576b048a170391f7dc42444e8fa20260801c5b60008460020b13156111ba5780600019816111b657fe5b0490505b6401000000008106156111ce5760016111d1565b60005b60ff16602082901c0192505050919050565b600080836001600160a01b0316856001600160a01b03161115611204579293925b846001600160a01b0316866001600160a01b03161161122f57611228858585611289565b9150611276565b836001600160a01b0316866001600160a01b0316101561126857611254868585611289565b91506112618587856112f4565b9050611276565b6112738585856112f4565b90505b94509492505050565b803b15155b919050565b6000826001600160a01b0316846001600160a01b031611156112a9579192915b836001600160a01b03166112e2606060ff16846001600160801b0316901b8686036001600160a01b0316866001600160a01b0316611333565b816112e957fe5b0490505b9392505050565b6000826001600160a01b0316846001600160a01b03161115611314579192915b610e4f826001600160801b03168585036001600160a01b0316600160601b5b6000808060001985870986860292508281109083900303905080611369576000841161135e57600080fd5b5082900490506112ed565b80841161137557600080fd5b6000848688096000868103871696879004966002600389028118808a02820302808a02820302808a02820302808a02820302808a02820302808a02909103029181900381900460010186841190950394909402919094039290920491909117919091029150509392505050565b8051611284816119f7565b60008083601f8401126113fe578182fd5b50813567ffffffffffffffff811115611415578182fd5b602083019150836020808302850101111561142f57600080fd5b9250929050565b8051600281900b811461128457600080fd5b80516001600160801b038116811461128457600080fd5b805161ffff8116811461128457600080fd5b805162ffffff8116811461128457600080fd5b805169ffffffffffffffffffff8116811461128457600080fd5b805160ff8116811461128457600080fd5b6000602082840312156114c0578081fd5b81356109d3816119f7565b6000602082840312156114dc578081fd5b81516109d3816119f7565b600080604083850312156114f9578081fd5b8235611504816119f7565b91506020830135611514816119f7565b809150509250929050565b60008060008060408587031215611534578182fd5b843567ffffffffffffffff8082111561154b578384fd5b611557888389016113ed565b9096509450602087013591508082111561156f578384fd5b5061157c878288016113ed565b95989497509550505050565b600080600080600080600060e0888a0312156115a2578283fd5b87516115ad816119f7565b96506115bb60208901611436565b95506115c96040890161145f565b94506115d76060890161145f565b93506115e56080890161145f565b92506115f360a0890161149e565b915060c08801518015158114611607578182fd5b8091505092959891949750929550565b600060208284031215611628578081fd5b5035919050565b60008060408385031215611641578182fd5b823591506020830135611514816119f7565b600080600080600060a0868803121561166a578081fd5b61167386611484565b945060208601519350604086015192506060860151915061169660808701611484565b90509295509295909350565b6000602082840312156116b3578081fd5b6112ed8261149e565b6000806000806000806000806000806000806101808d8f0312156116de578586fd5b8c516bffffffffffffffffffffffff811681146116f9578687fd5b9b5061170760208e016113e2565b9a5061171560408e016113e2565b995061172360608e016113e2565b985061173160808e01611471565b975061173f60a08e01611436565b965061174d60c08e01611436565b955061175b60e08e01611448565b94506101008d015193506101208d0151925061177a6101408e01611448565b91506117896101608e01611448565b90509295989b509295989b509295989b565b60008284526020808501945082825b858110156117d85781356117bd816119f7565b6001600160a01b0316875295820195908201906001016117aa565b509495945050505050565b6001600160a01b0391909116815260200190565b6001600160a01b03938416815291909216602082015262ffffff909116604082015260600190565b6001600160a01b03958616815293909416602084015262ffffff9190911660408301526060820152608081019190915260a00190565b6001600160a01b03929092168252602082015260400190565b60006040825261188260408301868861179b565b828103602084015261189581858761179b565b979650505050505050565b90815260200190565b918252602082015260400190565b6020808252600f908201526e2737ba1031b7b73334b3bab932b21760891b604082015260600190565b6020808252602a908201527f506172616d657465722073697a6573206d7573742062652067726561746572206040820152693a3430b7103d32b9379760b11b606082015260800190565b6020808252601f908201527f6e657720676f7665726e616e636520746865207a65726f206164647265737300604082015260600190565b6020808252601b908201527f546869732074797065206973206e6f7420737570706f727465642e0000000000604082015260600190565b6020808252600e908201526d6e6f7420676f7665726e616e636560901b604082015260600190565b6020808252601e908201527f506172616d657465722073697a657320617265206e6f7420657175616c2e0000604082015260600190565b6001600160a01b0381168114611a0c57600080fd5b5056fe496e697469616c697a61626c653a20636f6e747261637420697320616c726561647920696e697469616c697a6564536166654d6174683a206d756c7469706c69636174696f6e206f766572666c6f77a2646970667358221220d926d496d96640f5654ff7fe6d102339bca81922e01906b44eb80136328bd55864736f6c63430007050033","opcodes":"PUSH1 0x80 PUSH1 0x40 MSTORE CALLVALUE DUP1 ISZERO PUSH2 0x10 JUMPI PUSH1 0x0 DUP1 REVERT JUMPDEST POP PUSH2 0x1A94 DUP1 PUSH2 0x20 PUSH1 0x0 CODECOPY PUSH1 0x0 RETURN INVALID PUSH1 0x80 PUSH1 0x40 MSTORE CALLVALUE DUP1 ISZERO PUSH2 0x10 JUMPI PUSH1 0x0 DUP1 REVERT JUMPDEST POP PUSH1 0x4 CALLDATASIZE LT PUSH2 0xB4 JUMPI PUSH1 0x0 CALLDATALOAD PUSH1 0xE0 SHR DUP1 PUSH4 0x605F3544 GT PUSH2 0x71 JUMPI DUP1 PUSH4 0x605F3544 EQ PUSH2 0x13B JUMPI DUP1 PUSH4 0x98298C15 EQ PUSH2 0x15F JUMPI DUP1 PUSH4 0xAB033EA9 EQ PUSH2 0x174 JUMPI DUP1 PUSH4 0xB44A2722 EQ PUSH2 0x187 JUMPI DUP1 PUSH4 0xDA8E4D19 EQ PUSH2 0x18F JUMPI DUP1 PUSH4 0xDE10AC9D EQ PUSH2 0x1B0 JUMPI PUSH2 0xB4 JUMP JUMPDEST DUP1 PUSH4 0x16345F18 EQ PUSH2 0xB9 JUMPI DUP1 PUSH4 0x361983E4 EQ PUSH2 0xE3 JUMPI DUP1 PUSH4 0x3E48E995 EQ PUSH2 0xF8 JUMPI DUP1 PUSH4 0x4BD83890 EQ PUSH2 0x10B JUMPI DUP1 PUSH4 0x5AA6E675 EQ PUSH2 0x11E JUMPI DUP1 PUSH4 0x5B549182 EQ PUSH2 0x133 JUMPI JUMPDEST PUSH1 0x0 DUP1 REVERT JUMPDEST PUSH2 0xCC PUSH2 0xC7 CALLDATASIZE PUSH1 0x4 PUSH2 0x14AF JUMP JUMPDEST PUSH2 0x1C3 JUMP JUMPDEST PUSH1 0x40 MLOAD PUSH2 0xDA SWAP3 SWAP2 SWAP1 PUSH2 0x18A9 JUMP JUMPDEST PUSH1 0x40 MLOAD DUP1 SWAP2 SUB SWAP1 RETURN JUMPDEST PUSH2 0xEB PUSH2 0x28D JUMP JUMPDEST PUSH1 0x40 MLOAD PUSH2 0xDA SWAP2 SWAP1 PUSH2 0x18A0 JUMP JUMPDEST PUSH2 0xCC PUSH2 0x106 CALLDATASIZE PUSH1 0x4 PUSH2 0x14E7 JUMP JUMPDEST PUSH2 0x292 JUMP JUMPDEST PUSH2 0xCC PUSH2 0x119 CALLDATASIZE PUSH1 0x4 PUSH2 0x162F JUMP JUMPDEST PUSH2 0x39E JUMP JUMPDEST PUSH2 0x126 PUSH2 0x49E JUMP JUMPDEST PUSH1 0x40 MLOAD PUSH2 0xDA SWAP2 SWAP1 PUSH2 0x17E3 JUMP JUMPDEST PUSH2 0x126 PUSH2 0x4B3 JUMP JUMPDEST PUSH2 0x14E PUSH2 0x149 CALLDATASIZE PUSH1 0x4 PUSH2 0x1617 JUMP JUMPDEST PUSH2 0x4C2 JUMP JUMPDEST PUSH1 0x40 MLOAD PUSH2 0xDA SWAP6 SWAP5 SWAP4 SWAP3 SWAP2 SWAP1 PUSH2 0x181F JUMP JUMPDEST PUSH2 0x172 PUSH2 0x16D CALLDATASIZE PUSH1 0x4 PUSH2 0x14AF JUMP JUMPDEST PUSH2 0x4E5 JUMP JUMPDEST STOP JUMPDEST PUSH2 0x172 PUSH2 0x182 CALLDATASIZE PUSH1 0x4 PUSH2 0x14AF JUMP JUMPDEST PUSH2 0x651 JUMP JUMPDEST PUSH2 0x126 PUSH2 0x718 JUMP JUMPDEST PUSH2 0x1A2 PUSH2 0x19D CALLDATASIZE PUSH1 0x4 PUSH2 0x14AF JUMP JUMPDEST PUSH2 0x727 JUMP JUMPDEST PUSH1 0x40 MLOAD PUSH2 0xDA SWAP3 SWAP2 SWAP1 PUSH2 0x1855 JUMP JUMPDEST PUSH2 0x172 PUSH2 0x1BE CALLDATASIZE PUSH1 0x4 PUSH2 0x151F JUMP JUMPDEST PUSH2 0x74C JUMP JUMPDEST PUSH1 0x1 PUSH1 0x1 PUSH1 0xA0 SHL SUB DUP1 DUP3 AND PUSH1 0x0 SWAP1 DUP2 MSTORE PUSH1 0x3 PUSH1 0x20 MSTORE PUSH1 0x40 DUP2 KECCAK256 DUP1 SLOAD PUSH1 0x1 SWAP1 SWAP2 ADD SLOAD SWAP2 SWAP3 AND DUP1 PUSH2 0x20D JUMPI PUSH1 0x40 MLOAD PUSH3 0x461BCD PUSH1 0xE5 SHL DUP2 MSTORE PUSH1 0x4 ADD PUSH2 0x204 SWAP1 PUSH2 0x18B7 JUMP JUMPDEST PUSH1 0x40 MLOAD DUP1 SWAP2 SUB SWAP1 REVERT JUMPDEST DUP1 PUSH1 0x1 PUSH1 0x1 PUSH1 0xA0 SHL SUB AND PUSH4 0xFEAF968C PUSH1 0x40 MLOAD DUP2 PUSH4 0xFFFFFFFF AND PUSH1 0xE0 SHL DUP2 MSTORE PUSH1 0x4 ADD PUSH1 0xA0 PUSH1 0x40 MLOAD DUP1 DUP4 SUB DUP2 DUP7 DUP1 EXTCODESIZE ISZERO DUP1 ISZERO PUSH2 0x246 JUMPI PUSH1 0x0 DUP1 REVERT JUMPDEST POP GAS STATICCALL ISZERO DUP1 ISZERO PUSH2 0x25A JUMPI RETURNDATASIZE PUSH1 0x0 DUP1 RETURNDATACOPY RETURNDATASIZE PUSH1 0x0 REVERT JUMPDEST POP POP POP POP PUSH1 0x40 MLOAD RETURNDATASIZE PUSH1 0x1F NOT PUSH1 0x1F DUP3 ADD AND DUP3 ADD DUP1 PUSH1 0x40 MSTORE POP DUP2 ADD SWAP1 PUSH2 0x27E SWAP2 SWAP1 PUSH2 0x1653 JUMP JUMPDEST POP SWAP2 SWAP8 SWAP5 SWAP7 POP SWAP4 SWAP5 POP POP POP POP POP JUMP JUMPDEST PUSH1 0x8 DUP2 JUMP JUMPDEST PUSH1 0x0 DUP1 PUSH1 0x0 GAS SWAP1 POP PUSH1 0x0 PUSH2 0x2A5 DUP7 PUSH2 0x1C3 JUMP JUMPDEST POP SWAP1 POP PUSH1 0x0 PUSH2 0x2B3 DUP7 PUSH2 0x1C3 JUMP JUMPDEST POP SWAP1 POP PUSH2 0x2CE DUP2 PUSH2 0x2C8 DUP5 PUSH4 0x5F5E100 PUSH2 0x97A JUMP JUMPDEST SWAP1 PUSH2 0x9DC JUMP JUMPDEST SWAP5 POP PUSH1 0x0 DUP7 PUSH1 0x1 PUSH1 0x1 PUSH1 0xA0 SHL SUB AND PUSH4 0x313CE567 PUSH1 0x40 MLOAD DUP2 PUSH4 0xFFFFFFFF AND PUSH1 0xE0 SHL DUP2 MSTORE PUSH1 0x4 ADD PUSH1 0x20 PUSH1 0x40 MLOAD DUP1 DUP4 SUB DUP2 DUP7 DUP1 EXTCODESIZE ISZERO DUP1 ISZERO PUSH2 0x30B JUMPI PUSH1 0x0 DUP1 REVERT JUMPDEST POP GAS STATICCALL ISZERO DUP1 ISZERO PUSH2 0x31F JUMPI RETURNDATASIZE PUSH1 0x0 DUP1 RETURNDATACOPY RETURNDATASIZE PUSH1 0x0 REVERT JUMPDEST POP POP POP POP PUSH1 0x40 MLOAD RETURNDATASIZE PUSH1 0x1F NOT PUSH1 0x1F DUP3 ADD AND DUP3 ADD DUP1 PUSH1 0x40 MSTORE POP DUP2 ADD SWAP1 PUSH2 0x343 SWAP2 SWAP1 PUSH2 0x16A2 JUMP JUMPDEST SWAP1 POP PUSH1 0x8 DUP2 PUSH1 0xFF AND SGT ISZERO PUSH2 0x36C JUMPI PUSH2 0x365 DUP7 PUSH1 0x7 NOT PUSH1 0xFF DUP5 AND ADD PUSH1 0xA EXP PUSH2 0x97A JUMP JUMPDEST SWAP6 POP PUSH2 0x38E JUMP JUMPDEST DUP1 PUSH1 0xFF AND PUSH1 0x8 SGT ISZERO PUSH2 0x38E JUMPI PUSH2 0x38B DUP7 PUSH1 0xFF DUP4 AND PUSH1 0x8 SUB PUSH1 0xA EXP PUSH2 0x9DC JUMP JUMPDEST SWAP6 POP JUMPDEST DUP4 GAS SUB SWAP5 POP POP POP POP POP SWAP3 POP SWAP3 SWAP1 POP JUMP JUMPDEST PUSH1 0x0 DUP1 PUSH1 0x0 GAS SWAP1 POP PUSH1 0x0 PUSH2 0x3B1 DUP6 PUSH2 0x1C3 JUMP JUMPDEST POP SWAP1 POP PUSH1 0x0 DUP1 PUSH2 0x3C2 DUP9 DUP9 DUP6 PUSH2 0xA43 JUMP JUMPDEST SWAP1 SWAP3 POP SWAP1 POP PUSH2 0x3D1 DUP3 DUP5 PUSH2 0x9DC JUMP JUMPDEST SWAP6 POP PUSH1 0x0 DUP8 PUSH1 0x1 PUSH1 0x1 PUSH1 0xA0 SHL SUB AND PUSH4 0x313CE567 PUSH1 0x40 MLOAD DUP2 PUSH4 0xFFFFFFFF AND PUSH1 0xE0 SHL DUP2 MSTORE PUSH1 0x4 ADD PUSH1 0x20 PUSH1 0x40 MLOAD DUP1 DUP4 SUB DUP2 DUP7 DUP1 EXTCODESIZE ISZERO DUP1 ISZERO PUSH2 0x40E JUMPI PUSH1 0x0 DUP1 REVERT JUMPDEST POP GAS STATICCALL ISZERO DUP1 ISZERO PUSH2 0x422 JUMPI RETURNDATASIZE PUSH1 0x0 DUP1 RETURNDATACOPY RETURNDATASIZE PUSH1 0x0 REVERT JUMPDEST POP POP POP POP PUSH1 0x40 MLOAD RETURNDATASIZE PUSH1 0x1F NOT PUSH1 0x1F DUP3 ADD AND DUP3 ADD DUP1 PUSH1 0x40 MSTORE POP DUP2 ADD SWAP1 PUSH2 0x446 SWAP2 SWAP1 PUSH2 0x16A2 JUMP JUMPDEST SWAP1 POP DUP2 DUP2 PUSH1 0xFF AND GT ISZERO PUSH2 0x46D JUMPI PUSH2 0x466 DUP8 PUSH1 0xFF DUP4 AND DUP5 SWAP1 SUB PUSH1 0xA EXP PUSH2 0x97A JUMP JUMPDEST SWAP7 POP PUSH2 0x48D JUMP JUMPDEST DUP1 PUSH1 0xFF AND DUP3 GT ISZERO PUSH2 0x48D JUMPI PUSH2 0x48A DUP8 PUSH1 0xFF DUP4 AND DUP5 SUB PUSH1 0xA EXP PUSH2 0x9DC JUMP JUMPDEST SWAP7 POP JUMPDEST DUP5 GAS SUB SWAP6 POP POP POP POP POP POP SWAP3 POP SWAP3 SWAP1 POP JUMP JUMPDEST PUSH1 0x0 SLOAD PUSH3 0x10000 SWAP1 DIV PUSH1 0x1 PUSH1 0x1 PUSH1 0xA0 SHL SUB AND DUP2 JUMP JUMPDEST PUSH1 0x2 SLOAD PUSH1 0x1 PUSH1 0x1 PUSH1 0xA0 SHL SUB AND DUP2 JUMP JUMPDEST PUSH1 0x0 DUP1 PUSH1 0x0 DUP1 PUSH1 0x0 PUSH2 0x4D3 DUP7 PUSH2 0xBDB JUMP JUMPDEST SWAP4 SWAP11 SWAP3 SWAP10 POP SWAP1 SWAP8 POP SWAP6 POP SWAP1 SWAP4 POP SWAP2 POP POP JUMP JUMPDEST PUSH1 0x0 SLOAD PUSH2 0x100 SWAP1 DIV PUSH1 0xFF AND PUSH2 0x500 JUMPI PUSH1 0x0 SLOAD PUSH1 0xFF AND ISZERO PUSH2 0x508 JUMP JUMPDEST PUSH2 0x508 PUSH2 0xE03 JUMP JUMPDEST PUSH2 0x543 JUMPI PUSH1 0x40 MLOAD PUSH3 0x461BCD PUSH1 0xE5 SHL DUP2 MSTORE PUSH1 0x4 ADD DUP1 DUP1 PUSH1 0x20 ADD DUP3 DUP2 SUB DUP3 MSTORE PUSH1 0x2E DUP2 MSTORE PUSH1 0x20 ADD DUP1 PUSH2 0x1A10 PUSH1 0x2E SWAP2 CODECOPY PUSH1 0x40 ADD SWAP2 POP POP PUSH1 0x40 MLOAD DUP1 SWAP2 SUB SWAP1 REVERT JUMPDEST PUSH1 0x0 SLOAD PUSH2 0x100 SWAP1 DIV PUSH1 0xFF AND ISZERO DUP1 ISZERO PUSH2 0x56E JUMPI PUSH1 0x0 DUP1 SLOAD PUSH1 0xFF NOT PUSH2 0xFF00 NOT SWAP1 SWAP2 AND PUSH2 0x100 OR AND PUSH1 0x1 OR SWAP1 SSTORE JUMPDEST PUSH1 0x0 DUP1 SLOAD PUSH3 0x10000 PUSH1 0x1 PUSH1 0xB0 SHL SUB NOT AND CALLER PUSH3 0x10000 MUL OR SWAP1 SSTORE PUSH1 0x1 DUP1 SLOAD PUSH1 0x1 PUSH1 0x1 PUSH1 0xA0 SHL SUB NOT AND PUSH1 0x1 PUSH1 0x1 PUSH1 0xA0 SHL SUB DUP5 DUP2 AND SWAP2 SWAP1 SWAP2 OR SWAP2 DUP3 SWAP1 SSTORE PUSH1 0x40 DUP1 MLOAD PUSH4 0xC45A0155 PUSH1 0xE0 SHL DUP2 MSTORE SWAP1 MLOAD SWAP3 SWAP1 SWAP2 AND SWAP2 PUSH4 0xC45A0155 SWAP2 PUSH1 0x4 DUP1 DUP3 ADD SWAP3 PUSH1 0x20 SWAP3 SWAP1 SWAP2 SWAP1 DUP3 SWAP1 SUB ADD DUP2 DUP7 DUP1 EXTCODESIZE ISZERO DUP1 ISZERO PUSH2 0x5E3 JUMPI PUSH1 0x0 DUP1 REVERT JUMPDEST POP GAS STATICCALL ISZERO DUP1 ISZERO PUSH2 0x5F7 JUMPI RETURNDATASIZE PUSH1 0x0 DUP1 RETURNDATACOPY RETURNDATASIZE PUSH1 0x0 REVERT JUMPDEST POP POP POP POP PUSH1 0x40 MLOAD RETURNDATASIZE PUSH1 0x1F NOT PUSH1 0x1F DUP3 ADD AND DUP3 ADD DUP1 PUSH1 0x40 MSTORE POP DUP2 ADD SWAP1 PUSH2 0x61B SWAP2 SWAP1 PUSH2 0x14CB JUMP JUMPDEST PUSH1 0x2 DUP1 SLOAD PUSH1 0x1 PUSH1 0x1 PUSH1 0xA0 SHL SUB NOT AND PUSH1 0x1 PUSH1 0x1 PUSH1 0xA0 SHL SUB SWAP3 SWAP1 SWAP3 AND SWAP2 SWAP1 SWAP2 OR SWAP1 SSTORE DUP1 ISZERO PUSH2 0x64D JUMPI PUSH1 0x0 DUP1 SLOAD PUSH2 0xFF00 NOT AND SWAP1 SSTORE JUMPDEST POP POP JUMP JUMPDEST PUSH1 0x0 SLOAD PUSH3 0x10000 SWAP1 DIV PUSH1 0x1 PUSH1 0x1 PUSH1 0xA0 SHL SUB AND CALLER EQ PUSH2 0x681 JUMPI PUSH1 0x40 MLOAD PUSH3 0x461BCD PUSH1 0xE5 SHL DUP2 MSTORE PUSH1 0x4 ADD PUSH2 0x204 SWAP1 PUSH2 0x1998 JUMP JUMPDEST PUSH1 0x0 SLOAD PUSH3 0x10000 SWAP1 DIV PUSH1 0x1 PUSH1 0x1 PUSH1 0xA0 SHL SUB AND PUSH2 0x6AF JUMPI PUSH1 0x40 MLOAD PUSH3 0x461BCD PUSH1 0xE5 SHL DUP2 MSTORE PUSH1 0x4 ADD PUSH2 0x204 SWAP1 PUSH2 0x192A JUMP JUMPDEST PUSH1 0x0 DUP1 SLOAD PUSH1 0x40 MLOAD PUSH1 0x1 PUSH1 0x1 PUSH1 0xA0 SHL SUB DUP1 DUP6 AND SWAP4 PUSH3 0x10000 SWAP1 SWAP4 DIV AND SWAP2 PUSH32 0x5F56BEE8CFFBE9A78652A74A60705EDEDE02AF10B0BBB888CA44B79A0D42CE80 SWAP2 LOG3 PUSH1 0x0 DUP1 SLOAD PUSH1 0x1 PUSH1 0x1 PUSH1 0xA0 SHL SUB SWAP1 SWAP3 AND PUSH3 0x10000 MUL PUSH3 0x10000 PUSH1 0x1 PUSH1 0xB0 SHL SUB NOT SWAP1 SWAP3 AND SWAP2 SWAP1 SWAP2 OR SWAP1 SSTORE JUMP JUMPDEST PUSH1 0x1 SLOAD PUSH1 0x1 PUSH1 0x1 PUSH1 0xA0 SHL SUB AND DUP2 JUMP JUMPDEST PUSH1 0x3 PUSH1 0x20 MSTORE PUSH1 0x0 SWAP1 DUP2 MSTORE PUSH1 0x40 SWAP1 KECCAK256 DUP1 SLOAD PUSH1 0x1 SWAP1 SWAP2 ADD SLOAD PUSH1 0x1 PUSH1 0x1 PUSH1 0xA0 SHL SUB SWAP1 SWAP2 AND SWAP1 DUP3 JUMP JUMPDEST PUSH1 0x0 SLOAD PUSH3 0x10000 SWAP1 DIV PUSH1 0x1 PUSH1 0x1 PUSH1 0xA0 SHL SUB AND CALLER EQ PUSH2 0x77C JUMPI PUSH1 0x40 MLOAD PUSH3 0x461BCD PUSH1 0xE5 SHL DUP2 MSTORE PUSH1 0x4 ADD PUSH2 0x204 SWAP1 PUSH2 0x1998 JUMP JUMPDEST DUP3 PUSH2 0x799 JUMPI PUSH1 0x40 MLOAD PUSH3 0x461BCD PUSH1 0xE5 SHL DUP2 MSTORE PUSH1 0x4 ADD PUSH2 0x204 SWAP1 PUSH2 0x18E0 JUMP JUMPDEST DUP3 DUP2 EQ PUSH2 0x7B8 JUMPI PUSH1 0x40 MLOAD PUSH3 0x461BCD PUSH1 0xE5 SHL DUP2 MSTORE PUSH1 0x4 ADD PUSH2 0x204 SWAP1 PUSH2 0x19C0 JUMP JUMPDEST PUSH1 0x0 JUMPDEST DUP4 DUP2 LT ISZERO PUSH2 0x92C JUMPI PUSH1 0x0 DUP4 DUP4 DUP4 DUP2 DUP2 LT PUSH2 0x7D1 JUMPI INVALID JUMPDEST SWAP1 POP PUSH1 0x20 MUL ADD PUSH1 0x20 DUP2 ADD SWAP1 PUSH2 0x7E6 SWAP2 SWAP1 PUSH2 0x14AF JUMP JUMPDEST SWAP1 POP PUSH1 0x0 DUP2 PUSH1 0x1 PUSH1 0x1 PUSH1 0xA0 SHL SUB AND PUSH4 0x313CE567 PUSH1 0x40 MLOAD DUP2 PUSH4 0xFFFFFFFF AND PUSH1 0xE0 SHL DUP2 MSTORE PUSH1 0x4 ADD PUSH1 0x20 PUSH1 0x40 MLOAD DUP1 DUP4 SUB DUP2 DUP7 DUP1 EXTCODESIZE ISZERO DUP1 ISZERO PUSH2 0x823 JUMPI PUSH1 0x0 DUP1 REVERT JUMPDEST POP GAS STATICCALL ISZERO DUP1 ISZERO PUSH2 0x837 JUMPI RETURNDATASIZE PUSH1 0x0 DUP1 RETURNDATACOPY RETURNDATASIZE PUSH1 0x0 REVERT JUMPDEST POP POP POP POP PUSH1 0x40 MLOAD RETURNDATASIZE PUSH1 0x1F NOT PUSH1 0x1F DUP3 ADD AND DUP3 ADD DUP1 PUSH1 0x40 MSTORE POP DUP2 ADD SWAP1 PUSH2 0x85B SWAP2 SWAP1 PUSH2 0x16A2 JUMP JUMPDEST PUSH1 0xFF AND SWAP1 POP PUSH1 0x8 DUP2 EQ PUSH2 0x880 JUMPI PUSH1 0x40 MLOAD PUSH3 0x461BCD PUSH1 0xE5 SHL DUP2 MSTORE PUSH1 0x4 ADD PUSH2 0x204 SWAP1 PUSH2 0x1961 JUMP JUMPDEST PUSH1 0x40 MLOAD DUP1 PUSH1 0x40 ADD PUSH1 0x40 MSTORE DUP1 DUP7 DUP7 DUP7 DUP2 DUP2 LT PUSH2 0x897 JUMPI INVALID JUMPDEST SWAP1 POP PUSH1 0x20 MUL ADD PUSH1 0x20 DUP2 ADD SWAP1 PUSH2 0x8AC SWAP2 SWAP1 PUSH2 0x14AF JUMP JUMPDEST PUSH1 0x1 PUSH1 0x1 PUSH1 0xA0 SHL SUB AND DUP2 MSTORE PUSH1 0x20 ADD DUP3 SWAP1 MSTORE PUSH1 0x3 PUSH1 0x0 DUP10 DUP10 DUP8 DUP2 DUP2 LT PUSH2 0x8CD JUMPI INVALID JUMPDEST SWAP1 POP PUSH1 0x20 MUL ADD PUSH1 0x20 DUP2 ADD SWAP1 PUSH2 0x8E2 SWAP2 SWAP1 PUSH2 0x14AF JUMP JUMPDEST PUSH1 0x1 PUSH1 0x1 PUSH1 0xA0 SHL SUB SWAP1 DUP2 AND DUP3 MSTORE PUSH1 0x20 DUP1 DUP4 ADD SWAP4 SWAP1 SWAP4 MSTORE PUSH1 0x40 SWAP1 SWAP2 ADD PUSH1 0x0 KECCAK256 DUP4 MLOAD DUP2 SLOAD PUSH1 0x1 PUSH1 0x1 PUSH1 0xA0 SHL SUB NOT AND SWAP3 AND SWAP2 SWAP1 SWAP2 OR DUP2 SSTORE SWAP2 ADD MLOAD PUSH1 0x1 SWAP2 DUP3 ADD SSTORE SWAP3 SWAP1 SWAP3 ADD SWAP2 POP PUSH2 0x7BB SWAP1 POP JUMP JUMPDEST POP CALLER PUSH1 0x1 PUSH1 0x1 PUSH1 0xA0 SHL SUB AND PUSH32 0xC20C0086516E4BD82CA05C254F38C08D435B1E548E2EE9338CE0AC49A6B7E521 DUP6 DUP6 DUP6 DUP6 PUSH1 0x40 MLOAD PUSH2 0x96C SWAP5 SWAP4 SWAP3 SWAP2 SWAP1 PUSH2 0x186E JUMP JUMPDEST PUSH1 0x40 MLOAD DUP1 SWAP2 SUB SWAP1 LOG2 POP POP POP POP JUMP JUMPDEST PUSH1 0x0 DUP3 PUSH2 0x989 JUMPI POP PUSH1 0x0 PUSH2 0x9D6 JUMP JUMPDEST DUP3 DUP3 MUL DUP3 DUP5 DUP3 DUP2 PUSH2 0x996 JUMPI INVALID JUMPDEST DIV EQ PUSH2 0x9D3 JUMPI PUSH1 0x40 MLOAD PUSH3 0x461BCD PUSH1 0xE5 SHL DUP2 MSTORE PUSH1 0x4 ADD DUP1 DUP1 PUSH1 0x20 ADD DUP3 DUP2 SUB DUP3 MSTORE PUSH1 0x21 DUP2 MSTORE PUSH1 0x20 ADD DUP1 PUSH2 0x1A3E PUSH1 0x21 SWAP2 CODECOPY PUSH1 0x40 ADD SWAP2 POP POP PUSH1 0x40 MLOAD DUP1 SWAP2 SUB SWAP1 REVERT JUMPDEST SWAP1 POP JUMPDEST SWAP3 SWAP2 POP POP JUMP JUMPDEST PUSH1 0x0 DUP1 DUP3 GT PUSH2 0xA32 JUMPI PUSH1 0x40 DUP1 MLOAD PUSH3 0x461BCD PUSH1 0xE5 SHL DUP2 MSTORE PUSH1 0x20 PUSH1 0x4 DUP3 ADD MSTORE PUSH1 0x1A PUSH1 0x24 DUP3 ADD MSTORE PUSH32 0x536166654D6174683A206469766973696F6E206279207A65726F000000000000 PUSH1 0x44 DUP3 ADD MSTORE SWAP1 MLOAD SWAP1 DUP2 SWAP1 SUB PUSH1 0x64 ADD SWAP1 REVERT JUMPDEST DUP2 DUP4 DUP2 PUSH2 0xA3B JUMPI INVALID JUMPDEST DIV SWAP4 SWAP3 POP POP POP JUMP JUMPDEST PUSH1 0x0 DUP1 PUSH1 0x0 DUP1 PUSH1 0x0 DUP1 PUSH2 0xA55 DUP10 PUSH2 0xBDB JUMP JUMPDEST SWAP5 POP SWAP5 POP POP SWAP4 POP SWAP4 POP PUSH1 0x0 PUSH2 0xA6C DUP9 DUP7 DUP6 DUP13 PUSH2 0xE14 JUMP JUMPDEST SWAP1 POP PUSH1 0x0 PUSH2 0xA7C DUP10 DUP7 DUP6 DUP14 PUSH2 0xE14 JUMP JUMPDEST SWAP1 POP PUSH1 0x0 DUP7 PUSH1 0x1 PUSH1 0x1 PUSH1 0xA0 SHL SUB AND PUSH4 0x313CE567 PUSH1 0x40 MLOAD DUP2 PUSH4 0xFFFFFFFF AND PUSH1 0xE0 SHL DUP2 MSTORE PUSH1 0x4 ADD PUSH1 0x20 PUSH1 0x40 MLOAD DUP1 DUP4 SUB DUP2 DUP7 DUP1 EXTCODESIZE ISZERO DUP1 ISZERO PUSH2 0xAB9 JUMPI PUSH1 0x0 DUP1 REVERT JUMPDEST POP GAS STATICCALL ISZERO DUP1 ISZERO PUSH2 0xACD JUMPI RETURNDATASIZE PUSH1 0x0 DUP1 RETURNDATACOPY RETURNDATASIZE PUSH1 0x0 REVERT JUMPDEST POP POP POP POP PUSH1 0x40 MLOAD RETURNDATASIZE PUSH1 0x1F NOT PUSH1 0x1F DUP3 ADD AND DUP3 ADD DUP1 PUSH1 0x40 MSTORE POP DUP2 ADD SWAP1 PUSH2 0xAF1 SWAP2 SWAP1 PUSH2 0x16A2 JUMP JUMPDEST SWAP1 POP PUSH1 0x0 DUP7 PUSH1 0x1 PUSH1 0x1 PUSH1 0xA0 SHL SUB AND PUSH4 0x313CE567 PUSH1 0x40 MLOAD DUP2 PUSH4 0xFFFFFFFF AND PUSH1 0xE0 SHL DUP2 MSTORE PUSH1 0x4 ADD PUSH1 0x20 PUSH1 0x40 MLOAD DUP1 DUP4 SUB DUP2 DUP7 DUP1 EXTCODESIZE ISZERO DUP1 ISZERO PUSH2 0xB2E JUMPI PUSH1 0x0 DUP1 REVERT JUMPDEST POP GAS STATICCALL ISZERO DUP1 ISZERO PUSH2 0xB42 JUMPI RETURNDATASIZE PUSH1 0x0 DUP1 RETURNDATACOPY RETURNDATASIZE PUSH1 0x0 REVERT JUMPDEST POP POP POP POP PUSH1 0x40 MLOAD RETURNDATASIZE PUSH1 0x1F NOT PUSH1 0x1F DUP3 ADD AND DUP3 ADD DUP1 PUSH1 0x40 MSTORE POP DUP2 ADD SWAP1 PUSH2 0xB66 SWAP2 SWAP1 PUSH2 0x16A2 JUMP JUMPDEST SWAP1 POP DUP2 PUSH1 0xFF AND SWAP9 POP DUP2 PUSH1 0xFF AND DUP2 PUSH1 0xFF AND GT ISZERO PUSH2 0xB9C JUMPI PUSH1 0xFF DUP1 DUP3 AND SWAP10 POP PUSH2 0xB95 SWAP1 DUP6 SWAP1 DUP5 DUP5 SUB AND PUSH1 0xA EXP PUSH2 0x97A JUMP JUMPDEST SWAP4 POP PUSH2 0xBBF JUMP JUMPDEST DUP1 PUSH1 0xFF AND DUP3 PUSH1 0xFF AND GT ISZERO PUSH2 0xBBF JUMPI PUSH2 0xBBC DUP4 PUSH1 0xFF DUP4 DUP6 SUB AND PUSH1 0xA EXP PUSH2 0x97A JUMP JUMPDEST SWAP3 POP JUMPDEST PUSH2 0xBC9 DUP5 DUP5 PUSH2 0xE57 JUMP JUMPDEST SWAP10 POP POP POP POP POP POP POP POP POP SWAP4 POP SWAP4 SWAP2 POP POP JUMP JUMPDEST PUSH1 0x1 SLOAD PUSH1 0x40 MLOAD PUSH4 0x133F7571 PUSH1 0xE3 SHL DUP2 MSTORE PUSH1 0x0 SWAP2 DUP3 SWAP2 DUP3 SWAP2 DUP3 SWAP2 DUP3 SWAP2 DUP3 SWAP2 DUP3 SWAP2 DUP3 SWAP2 PUSH1 0x1 PUSH1 0x1 PUSH1 0xA0 SHL SUB SWAP1 SWAP2 AND SWAP1 PUSH4 0x99FBAB88 SWAP1 PUSH2 0xC1C SWAP1 DUP13 SWAP1 PUSH1 0x4 ADD PUSH2 0x18A0 JUMP JUMPDEST PUSH2 0x180 PUSH1 0x40 MLOAD DUP1 DUP4 SUB DUP2 DUP7 DUP1 EXTCODESIZE ISZERO DUP1 ISZERO PUSH2 0xC35 JUMPI PUSH1 0x0 DUP1 REVERT JUMPDEST POP GAS STATICCALL ISZERO DUP1 ISZERO PUSH2 0xC49 JUMPI RETURNDATASIZE PUSH1 0x0 DUP1 RETURNDATACOPY RETURNDATASIZE PUSH1 0x0 REVERT JUMPDEST POP POP POP POP PUSH1 0x40 MLOAD RETURNDATASIZE PUSH1 0x1F NOT PUSH1 0x1F DUP3 ADD AND DUP3 ADD DUP1 PUSH1 0x40 MSTORE POP DUP2 ADD SWAP1 PUSH2 0xC6D SWAP2 SWAP1 PUSH2 0x16BC JUMP JUMPDEST SWAP1 SWAP2 SWAP3 SWAP4 SWAP5 SWAP6 SWAP7 SWAP8 SWAP9 SWAP10 SWAP11 POP SWAP1 SWAP2 SWAP3 SWAP4 SWAP5 SWAP6 SWAP7 SWAP8 SWAP9 SWAP10 POP SWAP1 SWAP2 SWAP3 POP SWAP1 SWAP2 POP SWAP1 POP POP DUP1 SWAP7 POP DUP2 SWAP8 POP DUP3 SWAP9 POP DUP4 SWAP12 POP DUP5 SWAP13 POP DUP6 SWAP14 POP POP POP POP POP POP POP PUSH1 0x0 PUSH1 0x2 PUSH1 0x0 SWAP1 SLOAD SWAP1 PUSH2 0x100 EXP SWAP1 DIV PUSH1 0x1 PUSH1 0x1 PUSH1 0xA0 SHL SUB AND PUSH1 0x1 PUSH1 0x1 PUSH1 0xA0 SHL SUB AND PUSH4 0x1698EE82 DUP11 DUP11 DUP11 PUSH1 0x40 MLOAD DUP5 PUSH4 0xFFFFFFFF AND PUSH1 0xE0 SHL DUP2 MSTORE PUSH1 0x4 ADD PUSH2 0xCED SWAP4 SWAP3 SWAP2 SWAP1 PUSH2 0x17F7 JUMP JUMPDEST PUSH1 0x20 PUSH1 0x40 MLOAD DUP1 DUP4 SUB DUP2 DUP7 DUP1 EXTCODESIZE ISZERO DUP1 ISZERO PUSH2 0xD05 JUMPI PUSH1 0x0 DUP1 REVERT JUMPDEST POP GAS STATICCALL ISZERO DUP1 ISZERO PUSH2 0xD19 JUMPI RETURNDATASIZE PUSH1 0x0 DUP1 RETURNDATACOPY RETURNDATASIZE PUSH1 0x0 REVERT JUMPDEST POP POP POP POP PUSH1 0x40 MLOAD RETURNDATASIZE PUSH1 0x1F NOT PUSH1 0x1F DUP3 ADD AND DUP3 ADD DUP1 PUSH1 0x40 MSTORE POP DUP2 ADD SWAP1 PUSH2 0xD3D SWAP2 SWAP1 PUSH2 0x14CB JUMP JUMPDEST SWAP1 POP PUSH1 0x0 DUP2 PUSH1 0x1 PUSH1 0x1 PUSH1 0xA0 SHL SUB AND PUSH4 0x3850C7BD PUSH1 0x40 MLOAD DUP2 PUSH4 0xFFFFFFFF AND PUSH1 0xE0 SHL DUP2 MSTORE PUSH1 0x4 ADD PUSH1 0xE0 PUSH1 0x40 MLOAD DUP1 DUP4 SUB DUP2 DUP7 DUP1 EXTCODESIZE ISZERO DUP1 ISZERO PUSH2 0xD7A JUMPI PUSH1 0x0 DUP1 REVERT JUMPDEST POP GAS STATICCALL ISZERO DUP1 ISZERO PUSH2 0xD8E JUMPI RETURNDATASIZE PUSH1 0x0 DUP1 RETURNDATACOPY RETURNDATASIZE PUSH1 0x0 REVERT JUMPDEST POP POP POP POP PUSH1 0x40 MLOAD RETURNDATASIZE PUSH1 0x1F NOT PUSH1 0x1F DUP3 ADD AND DUP3 ADD DUP1 PUSH1 0x40 MSTORE POP DUP2 ADD SWAP1 PUSH2 0xDB2 SWAP2 SWAP1 PUSH2 0x1588 JUMP JUMPDEST POP POP POP POP POP SWAP2 POP POP PUSH1 0x0 PUSH2 0xDC5 DUP3 PUSH2 0xEB1 JUMP JUMPDEST SWAP1 POP PUSH1 0x0 PUSH2 0xDD2 DUP8 PUSH2 0xEB1 JUMP JUMPDEST SWAP1 POP PUSH1 0x0 PUSH2 0xDDF DUP8 PUSH2 0xEB1 JUMP JUMPDEST SWAP1 POP PUSH2 0xDED DUP4 DUP4 DUP4 DUP10 PUSH2 0x11E3 JUMP JUMPDEST SWAP14 SWAP16 SWAP13 SWAP15 POP SWAP11 SWAP13 SWAP11 SWAP12 SWAP10 POP POP POP POP POP POP POP POP POP POP JUMP JUMPDEST PUSH1 0x0 PUSH2 0xE0E ADDRESS PUSH2 0x127F JUMP JUMPDEST ISZERO SWAP1 POP SWAP1 JUMP JUMPDEST PUSH1 0x0 DUP3 ISZERO PUSH2 0xE4F JUMPI DUP2 PUSH1 0x1 PUSH1 0x1 PUSH1 0xA0 SHL SUB AND DUP5 PUSH1 0x1 PUSH1 0x1 PUSH1 0xA0 SHL SUB AND EQ PUSH2 0xE42 JUMPI PUSH2 0xE3E DUP5 PUSH2 0x1C3 JUMP JUMPDEST POP SWAP5 POP JUMPDEST PUSH2 0xE4C DUP6 DUP5 PUSH2 0x97A JUMP JUMPDEST SWAP1 POP JUMPDEST SWAP5 SWAP4 POP POP POP POP JUMP JUMPDEST PUSH1 0x0 DUP3 DUP3 ADD DUP4 DUP2 LT ISZERO PUSH2 0x9D3 JUMPI PUSH1 0x40 DUP1 MLOAD PUSH3 0x461BCD PUSH1 0xE5 SHL DUP2 MSTORE PUSH1 0x20 PUSH1 0x4 DUP3 ADD MSTORE PUSH1 0x1B PUSH1 0x24 DUP3 ADD MSTORE PUSH32 0x536166654D6174683A206164646974696F6E206F766572666C6F770000000000 PUSH1 0x44 DUP3 ADD MSTORE SWAP1 MLOAD SWAP1 DUP2 SWAP1 SUB PUSH1 0x64 ADD SWAP1 REVERT JUMPDEST PUSH1 0x0 DUP1 PUSH1 0x0 DUP4 PUSH1 0x2 SIGNEXTEND SLT PUSH2 0xEC8 JUMPI DUP3 PUSH1 0x2 SIGNEXTEND PUSH2 0xED0 JUMP JUMPDEST DUP3 PUSH1 0x2 SIGNEXTEND PUSH1 0x0 SUB JUMPDEST SWAP1 POP PUSH3 0xD89E8 DUP2 GT ISZERO PUSH2 0xF0E JUMPI PUSH1 0x40 DUP1 MLOAD PUSH3 0x461BCD PUSH1 0xE5 SHL DUP2 MSTORE PUSH1 0x20 PUSH1 0x4 DUP3 ADD MSTORE PUSH1 0x1 PUSH1 0x24 DUP3 ADD MSTORE PUSH1 0x15 PUSH1 0xFA SHL PUSH1 0x44 DUP3 ADD MSTORE SWAP1 MLOAD SWAP1 DUP2 SWAP1 SUB PUSH1 0x64 ADD SWAP1 REVERT JUMPDEST PUSH1 0x0 PUSH1 0x1 DUP3 AND PUSH2 0xF22 JUMPI PUSH1 0x1 PUSH1 0x80 SHL PUSH2 0xF34 JUMP JUMPDEST PUSH16 0xFFFCB933BD6FAD37AA2D162D1A594001 JUMPDEST PUSH17 0xFFFFFFFFFFFFFFFFFFFFFFFFFFFFFFFFFF AND SWAP1 POP PUSH1 0x2 DUP3 AND ISZERO PUSH2 0xF68 JUMPI PUSH16 0xFFF97272373D413259A46990580E213A MUL PUSH1 0x80 SHR JUMPDEST PUSH1 0x4 DUP3 AND ISZERO PUSH2 0xF87 JUMPI PUSH16 0xFFF2E50F5F656932EF12357CF3C7FDCC MUL PUSH1 0x80 SHR JUMPDEST PUSH1 0x8 DUP3 AND ISZERO PUSH2 0xFA6 JUMPI PUSH16 0xFFE5CACA7E10E4E61C3624EAA0941CD0 MUL PUSH1 0x80 SHR JUMPDEST PUSH1 0x10 DUP3 AND ISZERO PUSH2 0xFC5 JUMPI PUSH16 0xFFCB9843D60F6159C9DB58835C926644 MUL PUSH1 0x80 SHR JUMPDEST PUSH1 0x20 DUP3 AND ISZERO PUSH2 0xFE4 JUMPI PUSH16 0xFF973B41FA98C081472E6896DFB254C0 MUL PUSH1 0x80 SHR JUMPDEST PUSH1 0x40 DUP3 AND ISZERO PUSH2 0x1003 JUMPI PUSH16 0xFF2EA16466C96A3843EC78B326B52861 MUL PUSH1 0x80 SHR JUMPDEST PUSH1 0x80 DUP3 AND ISZERO PUSH2 0x1022 JUMPI PUSH16 0xFE5DEE046A99A2A811C461F1969C3053 MUL PUSH1 0x80 SHR JUMPDEST PUSH2 0x100 DUP3 AND ISZERO PUSH2 0x1042 JUMPI PUSH16 0xFCBE86C7900A88AEDCFFC83B479AA3A4 MUL PUSH1 0x80 SHR JUMPDEST PUSH2 0x200 DUP3 AND ISZERO PUSH2 0x1062 JUMPI PUSH16 0xF987A7253AC413176F2B074CF7815E54 MUL PUSH1 0x80 SHR JUMPDEST PUSH2 0x400 DUP3 AND ISZERO PUSH2 0x1082 JUMPI PUSH16 0xF3392B0822B70005940C7A398E4B70F3 MUL PUSH1 0x80 SHR JUMPDEST PUSH2 0x800 DUP3 AND ISZERO PUSH2 0x10A2 JUMPI PUSH16 0xE7159475A2C29B7443B29C7FA6E889D9 MUL PUSH1 0x80 SHR JUMPDEST PUSH2 0x1000 DUP3 AND ISZERO PUSH2 0x10C2 JUMPI PUSH16 0xD097F3BDFD2022B8845AD8F792AA5825 MUL PUSH1 0x80 SHR JUMPDEST PUSH2 0x2000 DUP3 AND ISZERO PUSH2 0x10E2 JUMPI PUSH16 0xA9F746462D870FDF8A65DC1F90E061E5 MUL PUSH1 0x80 SHR JUMPDEST PUSH2 0x4000 DUP3 AND ISZERO PUSH2 0x1102 JUMPI PUSH16 0x70D869A156D2A1B890BB3DF62BAF32F7 MUL PUSH1 0x80 SHR JUMPDEST PUSH2 0x8000 DUP3 AND ISZERO PUSH2 0x1122 JUMPI PUSH16 0x31BE135F97D08FD981231505542FCFA6 MUL PUSH1 0x80 SHR JUMPDEST PUSH3 0x10000 DUP3 AND ISZERO PUSH2 0x1143 JUMPI PUSH16 0x9AA508B5B7A84E1C677DE54F3E99BC9 MUL PUSH1 0x80 SHR JUMPDEST PUSH3 0x20000 DUP3 AND ISZERO PUSH2 0x1163 JUMPI PUSH15 0x5D6AF8DEDB81196699C329225EE604 MUL PUSH1 0x80 SHR JUMPDEST PUSH3 0x40000 DUP3 AND ISZERO PUSH2 0x1182 JUMPI PUSH14 0x2216E584F5FA1EA926041BEDFE98 MUL PUSH1 0x80 SHR JUMPDEST PUSH3 0x80000 DUP3 AND ISZERO PUSH2 0x119F JUMPI PUSH12 0x48A170391F7DC42444E8FA2 MUL PUSH1 0x80 SHR JUMPDEST PUSH1 0x0 DUP5 PUSH1 0x2 SIGNEXTEND SGT ISZERO PUSH2 0x11BA JUMPI DUP1 PUSH1 0x0 NOT DUP2 PUSH2 0x11B6 JUMPI INVALID JUMPDEST DIV SWAP1 POP JUMPDEST PUSH5 0x100000000 DUP2 MOD ISZERO PUSH2 0x11CE JUMPI PUSH1 0x1 PUSH2 0x11D1 JUMP JUMPDEST PUSH1 0x0 JUMPDEST PUSH1 0xFF AND PUSH1 0x20 DUP3 SWAP1 SHR ADD SWAP3 POP POP POP SWAP2 SWAP1 POP JUMP JUMPDEST PUSH1 0x0 DUP1 DUP4 PUSH1 0x1 PUSH1 0x1 PUSH1 0xA0 SHL SUB AND DUP6 PUSH1 0x1 PUSH1 0x1 PUSH1 0xA0 SHL SUB AND GT ISZERO PUSH2 0x1204 JUMPI SWAP3 SWAP4 SWAP3 JUMPDEST DUP5 PUSH1 0x1 PUSH1 0x1 PUSH1 0xA0 SHL SUB AND DUP7 PUSH1 0x1 PUSH1 0x1 PUSH1 0xA0 SHL SUB AND GT PUSH2 0x122F JUMPI PUSH2 0x1228 DUP6 DUP6 DUP6 PUSH2 0x1289 JUMP JUMPDEST SWAP2 POP PUSH2 0x1276 JUMP JUMPDEST DUP4 PUSH1 0x1 PUSH1 0x1 PUSH1 0xA0 SHL SUB AND DUP7 PUSH1 0x1 PUSH1 0x1 PUSH1 0xA0 SHL SUB AND LT ISZERO PUSH2 0x1268 JUMPI PUSH2 0x1254 DUP7 DUP6 DUP6 PUSH2 0x1289 JUMP JUMPDEST SWAP2 POP PUSH2 0x1261 DUP6 DUP8 DUP6 PUSH2 0x12F4 JUMP JUMPDEST SWAP1 POP PUSH2 0x1276 JUMP JUMPDEST PUSH2 0x1273 DUP6 DUP6 DUP6 PUSH2 0x12F4 JUMP JUMPDEST SWAP1 POP JUMPDEST SWAP5 POP SWAP5 SWAP3 POP POP POP JUMP JUMPDEST DUP1 EXTCODESIZE ISZERO ISZERO JUMPDEST SWAP2 SWAP1 POP JUMP JUMPDEST PUSH1 0x0 DUP3 PUSH1 0x1 PUSH1 0x1 PUSH1 0xA0 SHL SUB AND DUP5 PUSH1 0x1 PUSH1 0x1 PUSH1 0xA0 SHL SUB AND GT ISZERO PUSH2 0x12A9 JUMPI SWAP2 SWAP3 SWAP2 JUMPDEST DUP4 PUSH1 0x1 PUSH1 0x1 PUSH1 0xA0 SHL SUB AND PUSH2 0x12E2 PUSH1 0x60 PUSH1 0xFF AND DUP5 PUSH1 0x1 PUSH1 0x1 PUSH1 0x80 SHL SUB AND SWAP1 SHL DUP7 DUP7 SUB PUSH1 0x1 PUSH1 0x1 PUSH1 0xA0 SHL SUB AND DUP7 PUSH1 0x1 PUSH1 0x1 PUSH1 0xA0 SHL SUB AND PUSH2 0x1333 JUMP JUMPDEST DUP2 PUSH2 0x12E9 JUMPI INVALID JUMPDEST DIV SWAP1 POP JUMPDEST SWAP4 SWAP3 POP POP POP JUMP JUMPDEST PUSH1 0x0 DUP3 PUSH1 0x1 PUSH1 0x1 PUSH1 0xA0 SHL SUB AND DUP5 PUSH1 0x1 PUSH1 0x1 PUSH1 0xA0 SHL SUB AND GT ISZERO PUSH2 0x1314 JUMPI SWAP2 SWAP3 SWAP2 JUMPDEST PUSH2 0xE4F DUP3 PUSH1 0x1 PUSH1 0x1 PUSH1 0x80 SHL SUB AND DUP6 DUP6 SUB PUSH1 0x1 PUSH1 0x1 PUSH1 0xA0 SHL SUB AND PUSH1 0x1 PUSH1 0x60 SHL JUMPDEST PUSH1 0x0 DUP1 DUP1 PUSH1 0x0 NOT DUP6 DUP8 MULMOD DUP7 DUP7 MUL SWAP3 POP DUP3 DUP2 LT SWAP1 DUP4 SWAP1 SUB SUB SWAP1 POP DUP1 PUSH2 0x1369 JUMPI PUSH1 0x0 DUP5 GT PUSH2 0x135E JUMPI PUSH1 0x0 DUP1 REVERT JUMPDEST POP DUP3 SWAP1 DIV SWAP1 POP PUSH2 0x12ED JUMP JUMPDEST DUP1 DUP5 GT PUSH2 0x1375 JUMPI PUSH1 0x0 DUP1 REVERT JUMPDEST PUSH1 0x0 DUP5 DUP7 DUP9 MULMOD PUSH1 0x0 DUP7 DUP2 SUB DUP8 AND SWAP7 DUP8 SWAP1 DIV SWAP7 PUSH1 0x2 PUSH1 0x3 DUP10 MUL DUP2 XOR DUP1 DUP11 MUL DUP3 SUB MUL DUP1 DUP11 MUL DUP3 SUB MUL DUP1 DUP11 MUL DUP3 SUB MUL DUP1 DUP11 MUL DUP3 SUB MUL DUP1 DUP11 MUL DUP3 SUB MUL DUP1 DUP11 MUL SWAP1 SWAP2 SUB MUL SWAP2 DUP2 SWAP1 SUB DUP2 SWAP1 DIV PUSH1 0x1 ADD DUP7 DUP5 GT SWAP1 SWAP6 SUB SWAP5 SWAP1 SWAP5 MUL SWAP2 SWAP1 SWAP5 SUB SWAP3 SWAP1 SWAP3 DIV SWAP2 SWAP1 SWAP2 OR SWAP2 SWAP1 SWAP2 MUL SWAP2 POP POP SWAP4 SWAP3 POP POP POP JUMP JUMPDEST DUP1 MLOAD PUSH2 0x1284 DUP2 PUSH2 0x19F7 JUMP JUMPDEST PUSH1 0x0 DUP1 DUP4 PUSH1 0x1F DUP5 ADD SLT PUSH2 0x13FE JUMPI DUP2 DUP3 REVERT JUMPDEST POP DUP2 CALLDATALOAD PUSH8 0xFFFFFFFFFFFFFFFF DUP2 GT ISZERO PUSH2 0x1415 JUMPI DUP2 DUP3 REVERT JUMPDEST PUSH1 0x20 DUP4 ADD SWAP2 POP DUP4 PUSH1 0x20 DUP1 DUP4 MUL DUP6 ADD ADD GT ISZERO PUSH2 0x142F JUMPI PUSH1 0x0 DUP1 REVERT JUMPDEST SWAP3 POP SWAP3 SWAP1 POP JUMP JUMPDEST DUP1 MLOAD PUSH1 0x2 DUP2 SWAP1 SIGNEXTEND DUP2 EQ PUSH2 0x1284 JUMPI PUSH1 0x0 DUP1 REVERT JUMPDEST DUP1 MLOAD PUSH1 0x1 PUSH1 0x1 PUSH1 0x80 SHL SUB DUP2 AND DUP2 EQ PUSH2 0x1284 JUMPI PUSH1 0x0 DUP1 REVERT JUMPDEST DUP1 MLOAD PUSH2 0xFFFF DUP2 AND DUP2 EQ PUSH2 0x1284 JUMPI PUSH1 0x0 DUP1 REVERT JUMPDEST DUP1 MLOAD PUSH3 0xFFFFFF DUP2 AND DUP2 EQ PUSH2 0x1284 JUMPI PUSH1 0x0 DUP1 REVERT JUMPDEST DUP1 MLOAD PUSH10 0xFFFFFFFFFFFFFFFFFFFF DUP2 AND DUP2 EQ PUSH2 0x1284 JUMPI PUSH1 0x0 DUP1 REVERT JUMPDEST DUP1 MLOAD PUSH1 0xFF DUP2 AND DUP2 EQ PUSH2 0x1284 JUMPI PUSH1 0x0 DUP1 REVERT JUMPDEST PUSH1 0x0 PUSH1 0x20 DUP3 DUP5 SUB SLT ISZERO PUSH2 0x14C0 JUMPI DUP1 DUP2 REVERT JUMPDEST DUP2 CALLDATALOAD PUSH2 0x9D3 DUP2 PUSH2 0x19F7 JUMP JUMPDEST PUSH1 0x0 PUSH1 0x20 DUP3 DUP5 SUB SLT ISZERO PUSH2 0x14DC JUMPI DUP1 DUP2 REVERT JUMPDEST DUP2 MLOAD PUSH2 0x9D3 DUP2 PUSH2 0x19F7 JUMP JUMPDEST PUSH1 0x0 DUP1 PUSH1 0x40 DUP4 DUP6 SUB SLT ISZERO PUSH2 0x14F9 JUMPI DUP1 DUP2 REVERT JUMPDEST DUP3 CALLDATALOAD PUSH2 0x1504 DUP2 PUSH2 0x19F7 JUMP JUMPDEST SWAP2 POP PUSH1 0x20 DUP4 ADD CALLDATALOAD PUSH2 0x1514 DUP2 PUSH2 0x19F7 JUMP JUMPDEST DUP1 SWAP2 POP POP SWAP3 POP SWAP3 SWAP1 POP JUMP JUMPDEST PUSH1 0x0 DUP1 PUSH1 0x0 DUP1 PUSH1 0x40 DUP6 DUP8 SUB SLT ISZERO PUSH2 0x1534 JUMPI DUP2 DUP3 REVERT JUMPDEST DUP5 CALLDATALOAD PUSH8 0xFFFFFFFFFFFFFFFF DUP1 DUP3 GT ISZERO PUSH2 0x154B JUMPI DUP4 DUP5 REVERT JUMPDEST PUSH2 0x1557 DUP9 DUP4 DUP10 ADD PUSH2 0x13ED JUMP JUMPDEST SWAP1 SWAP7 POP SWAP5 POP PUSH1 0x20 DUP8 ADD CALLDATALOAD SWAP2 POP DUP1 DUP3 GT ISZERO PUSH2 0x156F JUMPI DUP4 DUP5 REVERT JUMPDEST POP PUSH2 0x157C DUP8 DUP3 DUP9 ADD PUSH2 0x13ED JUMP JUMPDEST SWAP6 SWAP9 SWAP5 SWAP8 POP SWAP6 POP POP POP POP JUMP JUMPDEST PUSH1 0x0 DUP1 PUSH1 0x0 DUP1 PUSH1 0x0 DUP1 PUSH1 0x0 PUSH1 0xE0 DUP9 DUP11 SUB SLT ISZERO PUSH2 0x15A2 JUMPI DUP3 DUP4 REVERT JUMPDEST DUP8 MLOAD PUSH2 0x15AD DUP2 PUSH2 0x19F7 JUMP JUMPDEST SWAP7 POP PUSH2 0x15BB PUSH1 0x20 DUP10 ADD PUSH2 0x1436 JUMP JUMPDEST SWAP6 POP PUSH2 0x15C9 PUSH1 0x40 DUP10 ADD PUSH2 0x145F JUMP JUMPDEST SWAP5 POP PUSH2 0x15D7 PUSH1 0x60 DUP10 ADD PUSH2 0x145F JUMP JUMPDEST SWAP4 POP PUSH2 0x15E5 PUSH1 0x80 DUP10 ADD PUSH2 0x145F JUMP JUMPDEST SWAP3 POP PUSH2 0x15F3 PUSH1 0xA0 DUP10 ADD PUSH2 0x149E JUMP JUMPDEST SWAP2 POP PUSH1 0xC0 DUP9 ADD MLOAD DUP1 ISZERO ISZERO DUP2 EQ PUSH2 0x1607 JUMPI DUP2 DUP3 REVERT JUMPDEST DUP1 SWAP2 POP POP SWAP3 SWAP6 SWAP9 SWAP2 SWAP5 SWAP8 POP SWAP3 SWAP6 POP JUMP JUMPDEST PUSH1 0x0 PUSH1 0x20 DUP3 DUP5 SUB SLT ISZERO PUSH2 0x1628 JUMPI DUP1 DUP2 REVERT JUMPDEST POP CALLDATALOAD SWAP2 SWAP1 POP JUMP JUMPDEST PUSH1 0x0 DUP1 PUSH1 0x40 DUP4 DUP6 SUB SLT ISZERO PUSH2 0x1641 JUMPI DUP2 DUP3 REVERT JUMPDEST DUP3 CALLDATALOAD SWAP2 POP PUSH1 0x20 DUP4 ADD CALLDATALOAD PUSH2 0x1514 DUP2 PUSH2 0x19F7 JUMP JUMPDEST PUSH1 0x0 DUP1 PUSH1 0x0 DUP1 PUSH1 0x0 PUSH1 0xA0 DUP7 DUP9 SUB SLT ISZERO PUSH2 0x166A JUMPI DUP1 DUP2 REVERT JUMPDEST PUSH2 0x1673 DUP7 PUSH2 0x1484 JUMP JUMPDEST SWAP5 POP PUSH1 0x20 DUP7 ADD MLOAD SWAP4 POP PUSH1 0x40 DUP7 ADD MLOAD SWAP3 POP PUSH1 0x60 DUP7 ADD MLOAD SWAP2 POP PUSH2 0x1696 PUSH1 0x80 DUP8 ADD PUSH2 0x1484 JUMP JUMPDEST SWAP1 POP SWAP3 SWAP6 POP SWAP3 SWAP6 SWAP1 SWAP4 POP JUMP JUMPDEST PUSH1 0x0 PUSH1 0x20 DUP3 DUP5 SUB SLT ISZERO PUSH2 0x16B3 JUMPI DUP1 DUP2 REVERT JUMPDEST PUSH2 0x12ED DUP3 PUSH2 0x149E JUMP JUMPDEST PUSH1 0x0 DUP1 PUSH1 0x0 DUP1 PUSH1 0x0 DUP1 PUSH1 0x0 DUP1 PUSH1 0x0 DUP1 PUSH1 0x0 DUP1 PUSH2 0x180 DUP14 DUP16 SUB SLT ISZERO PUSH2 0x16DE JUMPI DUP6 DUP7 REVERT JUMPDEST DUP13 MLOAD PUSH12 0xFFFFFFFFFFFFFFFFFFFFFFFF DUP2 AND DUP2 EQ PUSH2 0x16F9 JUMPI DUP7 DUP8 REVERT JUMPDEST SWAP12 POP PUSH2 0x1707 PUSH1 0x20 DUP15 ADD PUSH2 0x13E2 JUMP JUMPDEST SWAP11 POP PUSH2 0x1715 PUSH1 0x40 DUP15 ADD PUSH2 0x13E2 JUMP JUMPDEST SWAP10 POP PUSH2 0x1723 PUSH1 0x60 DUP15 ADD PUSH2 0x13E2 JUMP JUMPDEST SWAP9 POP PUSH2 0x1731 PUSH1 0x80 DUP15 ADD PUSH2 0x1471 JUMP JUMPDEST SWAP8 POP PUSH2 0x173F PUSH1 0xA0 DUP15 ADD PUSH2 0x1436 JUMP JUMPDEST SWAP7 POP PUSH2 0x174D PUSH1 0xC0 DUP15 ADD PUSH2 0x1436 JUMP JUMPDEST SWAP6 POP PUSH2 0x175B PUSH1 0xE0 DUP15 ADD PUSH2 0x1448 JUMP JUMPDEST SWAP5 POP PUSH2 0x100 DUP14 ADD MLOAD SWAP4 POP PUSH2 0x120 DUP14 ADD MLOAD SWAP3 POP PUSH2 0x177A PUSH2 0x140 DUP15 ADD PUSH2 0x1448 JUMP JUMPDEST SWAP2 POP PUSH2 0x1789 PUSH2 0x160 DUP15 ADD PUSH2 0x1448 JUMP JUMPDEST SWAP1 POP SWAP3 SWAP6 SWAP9 SWAP12 POP SWAP3 SWAP6 SWAP9 SWAP12 POP SWAP3 SWAP6 SWAP9 SWAP12 JUMP JUMPDEST PUSH1 0x0 DUP3 DUP5 MSTORE PUSH1 0x20 DUP1 DUP6 ADD SWAP5 POP DUP3 DUP3 JUMPDEST DUP6 DUP2 LT ISZERO PUSH2 0x17D8 JUMPI DUP2 CALLDATALOAD PUSH2 0x17BD DUP2 PUSH2 0x19F7 JUMP JUMPDEST PUSH1 0x1 PUSH1 0x1 PUSH1 0xA0 SHL SUB AND DUP8 MSTORE SWAP6 DUP3 ADD SWAP6 SWAP1 DUP3 ADD SWAP1 PUSH1 0x1 ADD PUSH2 0x17AA JUMP JUMPDEST POP SWAP5 SWAP6 SWAP5 POP POP POP POP POP JUMP JUMPDEST PUSH1 0x1 PUSH1 0x1 PUSH1 0xA0 SHL SUB SWAP2 SWAP1 SWAP2 AND DUP2 MSTORE PUSH1 0x20 ADD SWAP1 JUMP JUMPDEST PUSH1 0x1 PUSH1 0x1 PUSH1 0xA0 SHL SUB SWAP4 DUP5 AND DUP2 MSTORE SWAP2 SWAP1 SWAP3 AND PUSH1 0x20 DUP3 ADD MSTORE PUSH3 0xFFFFFF SWAP1 SWAP2 AND PUSH1 0x40 DUP3 ADD MSTORE PUSH1 0x60 ADD SWAP1 JUMP JUMPDEST PUSH1 0x1 PUSH1 0x1 PUSH1 0xA0 SHL SUB SWAP6 DUP7 AND DUP2 MSTORE SWAP4 SWAP1 SWAP5 AND PUSH1 0x20 DUP5 ADD MSTORE PUSH3 0xFFFFFF SWAP2 SWAP1 SWAP2 AND PUSH1 0x40 DUP4 ADD MSTORE PUSH1 0x60 DUP3 ADD MSTORE PUSH1 0x80 DUP2 ADD SWAP2 SWAP1 SWAP2 MSTORE PUSH1 0xA0 ADD SWAP1 JUMP JUMPDEST PUSH1 0x1 PUSH1 0x1 PUSH1 0xA0 SHL SUB SWAP3 SWAP1 SWAP3 AND DUP3 MSTORE PUSH1 0x20 DUP3 ADD MSTORE PUSH1 0x40 ADD SWAP1 JUMP JUMPDEST PUSH1 0x0 PUSH1 0x40 DUP3 MSTORE PUSH2 0x1882 PUSH1 0x40 DUP4 ADD DUP7 DUP9 PUSH2 0x179B JUMP JUMPDEST DUP3 DUP2 SUB PUSH1 0x20 DUP5 ADD MSTORE PUSH2 0x1895 DUP2 DUP6 DUP8 PUSH2 0x179B JUMP JUMPDEST SWAP8 SWAP7 POP POP POP POP POP POP POP JUMP JUMPDEST SWAP1 DUP2 MSTORE PUSH1 0x20 ADD SWAP1 JUMP JUMPDEST SWAP2 DUP3 MSTORE PUSH1 0x20 DUP3 ADD MSTORE PUSH1 0x40 ADD SWAP1 JUMP JUMPDEST PUSH1 0x20 DUP1 DUP3 MSTORE PUSH1 0xF SWAP1 DUP3 ADD MSTORE PUSH15 0x2737BA1031B7B73334B3BAB932B217 PUSH1 0x89 SHL PUSH1 0x40 DUP3 ADD MSTORE PUSH1 0x60 ADD SWAP1 JUMP JUMPDEST PUSH1 0x20 DUP1 DUP3 MSTORE PUSH1 0x2A SWAP1 DUP3 ADD MSTORE PUSH32 0x506172616D657465722073697A6573206D757374206265206772656174657220 PUSH1 0x40 DUP3 ADD MSTORE PUSH10 0x3A3430B7103D32B93797 PUSH1 0xB1 SHL PUSH1 0x60 DUP3 ADD MSTORE PUSH1 0x80 ADD SWAP1 JUMP JUMPDEST PUSH1 0x20 DUP1 DUP3 MSTORE PUSH1 0x1F SWAP1 DUP3 ADD MSTORE PUSH32 0x6E657720676F7665726E616E636520746865207A65726F206164647265737300 PUSH1 0x40 DUP3 ADD MSTORE PUSH1 0x60 ADD SWAP1 JUMP JUMPDEST PUSH1 0x20 DUP1 DUP3 MSTORE PUSH1 0x1B SWAP1 DUP3 ADD MSTORE PUSH32 0x546869732074797065206973206E6F7420737570706F727465642E0000000000 PUSH1 0x40 DUP3 ADD MSTORE PUSH1 0x60 ADD SWAP1 JUMP JUMPDEST PUSH1 0x20 DUP1 DUP3 MSTORE PUSH1 0xE SWAP1 DUP3 ADD MSTORE PUSH14 0x6E6F7420676F7665726E616E6365 PUSH1 0x90 SHL PUSH1 0x40 DUP3 ADD MSTORE PUSH1 0x60 ADD SWAP1 JUMP JUMPDEST PUSH1 0x20 DUP1 DUP3 MSTORE PUSH1 0x1E SWAP1 DUP3 ADD MSTORE PUSH32 0x506172616D657465722073697A657320617265206E6F7420657175616C2E0000 PUSH1 0x40 DUP3 ADD MSTORE PUSH1 0x60 ADD SWAP1 JUMP JUMPDEST PUSH1 0x1 PUSH1 0x1 PUSH1 0xA0 SHL SUB DUP2 AND DUP2 EQ PUSH2 0x1A0C JUMPI PUSH1 0x0 DUP1 REVERT JUMPDEST POP JUMP INVALID 0x49 PUSH15 0x697469616C697A61626C653A20636F PUSH15 0x747261637420697320616C72656164 PUSH26 0x20696E697469616C697A6564536166654D6174683A206D756C74 PUSH10 0x706C69636174696F6E20 PUSH16 0x766572666C6F77A26469706673582212 KECCAK256 0xD9 0x26 0xD4 SWAP7 0xD9 PUSH7 0x40F5654FF7FE6D LT 0x23 CODECOPY 0xBC 0xA8 NOT 0x22 0xE0 NOT MOD 0xB4 0x4E 0xB8 ADD CALLDATASIZE ORIGIN DUP12 0xD5 PC PUSH5 0x736F6C6343 STOP SMOD SDIV STOP CALLER "},"gasEstimates":{"creation":{"codeDepositCost":"1360800","executionCost":"1417","totalCost":"1362217"},"external":{"doInitialize(address)":"infinite","getLatestPrice(address)":"infinite","getNFTAmounts(uint256)":"infinite","getTWAPQuoteNft(uint256,address)":"infinite","getTokenQuotePrice(address,address)":"infinite","governance()":"1170","nonfungiblePositionManager()":"1136","setGovernance(address)":"25286","setTokenRefFeed(address[],address[])":"infinite","tokenRefFeed(address)":"2222","uniswapV3Factory()":"1181","usdDefaultDecimals()":"251"},"internal":{"_calDefaultUsdDecimalsValue(int256,address,uint256,address)":"infinite","_calNftUsdValue(uint256,address,int256)":"infinite","_getNFTAmounts(uint256)":"infinite"}},"methodIdentifiers":{"doInitialize(address)":"98298c15","getLatestPrice(address)":"16345f18","getNFTAmounts(uint256)":"605f3544","getTWAPQuoteNft(uint256,address)":"4bd83890","getTokenQuotePrice(address,address)":"3e48e995","governance()":"5aa6e675","nonfungiblePositionManager()":"b44a2722","setGovernance(address)":"ab033ea9","setTokenRefFeed(address[],address[])":"de10ac9d","tokenRefFeed(address)":"da8e4d19","uniswapV3Factory()":"5b549182","usdDefaultDecimals()":"361983e4"}},"storageLayout":{"storage":[{"astId":3512,"contract":"contracts/uniswap/UniswapV3ChainLinkUsdOracle.sol:UniswapV3ChainLinkUsdOracle","label":"_initialized","offset":0,"slot":"0","type":"t_bool"},{"astId":3515,"contract":"contracts/uniswap/UniswapV3ChainLinkUsdOracle.sol:UniswapV3ChainLinkUsdOracle","label":"_initializing","offset":1,"slot":"0","type":"t_bool"},{"astId":2516,"contract":"contracts/uniswap/UniswapV3ChainLinkUsdOracle.sol:UniswapV3ChainLinkUsdOracle","label":"governance","offset":2,"slot":"0","type":"t_address"},{"astId":2518,"contract":"contracts/uniswap/UniswapV3ChainLinkUsdOracle.sol:UniswapV3ChainLinkUsdOracle","label":"nonfungiblePositionManager","offset":0,"slot":"1","type":"t_contract(INonfungiblePositionManager)3505"},{"astId":2520,"contract":"contracts/uniswap/UniswapV3ChainLinkUsdOracle.sol:UniswapV3ChainLinkUsdOracle","label":"uniswapV3Factory","offset":0,"slot":"2","type":"t_contract(IUniswapV3Factory)128"},{"astId":2527,"contract":"contracts/uniswap/UniswapV3ChainLinkUsdOracle.sol:UniswapV3ChainLinkUsdOracle","label":"tokenRefFeed","offset":0,"slot":"3","type":"t_mapping(t_address,t_struct(ChainLinkFeedStruct)2498_storage)"}],"types":{"t_address":{"encoding":"inplace","label":"address","numberOfBytes":"20"},"t_bool":{"encoding":"inplace","label":"bool","numberOfBytes":"1"},"t_contract(INonfungiblePositionManager)3505":{"encoding":"inplace","label":"contract INonfungiblePositionManager","numberOfBytes":"20"},"t_contract(IUniswapV3Factory)128":{"encoding":"inplace","label":"contract IUniswapV3Factory","numberOfBytes":"20"},"t_int256":{"encoding":"inplace","label":"int256","numberOfBytes":"32"},"t_mapping(t_address,t_struct(ChainLinkFeedStruct)2498_storage)":{"encoding":"mapping","key":"t_address","label":"mapping(address => struct UniswapV3ChainLinkUsdOracle.ChainLinkFeedStruct)","numberOfBytes":"32","value":"t_struct(ChainLinkFeedStruct)2498_storage"},"t_struct(ChainLinkFeedStruct)2498_storage":{"encoding":"inplace","label":"struct UniswapV3ChainLinkUsdOracle.ChainLinkFeedStruct","members":[{"astId":2495,"contract":"contracts/uniswap/UniswapV3ChainLinkUsdOracle.sol:UniswapV3ChainLinkUsdOracle","label":"priceFeed","offset":0,"slot":"0","type":"t_address"},{"astId":2497,"contract":"contracts/uniswap/UniswapV3ChainLinkUsdOracle.sol:UniswapV3ChainLinkUsdOracle","label":"decimals","offset":0,"slot":"1","type":"t_int256"}],"numberOfBytes":"64"}}},"userdoc":{"kind":"user","methods":{"getLatestPrice(address)":{"notice":"Returns the latest price"}},"version":1}}}}