{
  "_format": "hh-sol-artifact-1",
  "contractName": "Governance",
  "sourceName": "contracts/governance/Governance.sol",
  "abi": [
    {
      "inputs": [],
      "stateMutability": "nonpayable",
      "type": "constructor"
    },
    {
      "anonymous": false,
      "inputs": [
        {
          "indexed": true,
          "internalType": "address",
          "name": "previousOwner",
          "type": "address"
        },
        {
          "indexed": true,
          "internalType": "address",
          "name": "newOwner",
          "type": "address"
        }
      ],
      "name": "GovernanceTransferred",
      "type": "event"
    },
    {
      "inputs": [],
      "name": "_governance",
      "outputs": [
        {
          "internalType": "address",
          "name": "",
          "type": "address"
        }
      ],
      "stateMutability": "view",
      "type": "function"
    },
    {
      "inputs": [
        {
          "internalType": "address",
          "name": "governance",
          "type": "address"
        }
      ],
      "name": "setGovernance",
      "outputs": [],
      "stateMutability": "nonpayable",
      "type": "function"
    }
  ],
  "bytecode": "0x608060405234801561001057600080fd5b50600080546001600160a01b031916321790556101e6806100326000396000f3fe608060405234801561001057600080fd5b50600436106100365760003560e01c80631c2f3e3d1461003b578063ab033ea91461006a575b600080fd5b60005461004e906001600160a01b031681565b6040516001600160a01b03909116815260200160405180910390f35b61007d610078366004610180565b61007f565b005b6000546001600160a01b031633146100cf5760405162461bcd60e51b815260206004820152600e60248201526d6e6f7420676f7665726e616e636560901b60448201526064015b60405180910390fd5b6001600160a01b0381166101255760405162461bcd60e51b815260206004820152601f60248201527f6e657720676f7665726e616e636520746865207a65726f20616464726573730060448201526064016100c6565b600080546040516001600160a01b03808516939216917f5f56bee8cffbe9a78652a74a60705edede02af10b0bbb888ca44b79a0d42ce8091a3600080546001600160a01b0319166001600160a01b0392909216919091179055565b60006020828403121561019257600080fd5b81356001600160a01b03811681146101a957600080fd5b939250505056fea26469706673582212206a57773ce44b90c7ef10d5963f628cd6e8af0a632c3c43d0a98984303caf2bea64736f6c63430008180033",
  "linkReferences": {},
  "deployedLinkReferences": {}
}