{
  "_format": "hh-sol-artifact-1",
  "contractName": "QuadraticFinanceToken",
  "sourceName": "contracts/lendborrow/QuadraticFinanceToken.sol",
  "abi": [
    {
      "inputs": [
        {
          "internalType": "string",
          "name": "_name",
          "type": "string"
        },
        {
          "internalType": "string",
          "name": "_symbol",
          "type": "string"
        },
        {
          "internalType": "uint8",
          "name": "_decimalsTmp",
          "type": "uint8"
        }
      ],
      "stateMutability": "nonpayable",
      "type": "constructor"
    },
    {
      "anonymous": false,
      "inputs": [
        {
          "indexed": true,
          "internalType": "address",
          "name": "owner",
          "type": "address"
        },
        {
          "indexed": true,
          "internalType": "address",
          "name": "spender",
          "type": "address"
        },
        {
          "indexed": false,
          "internalType": "uint256",
          "name": "value",
          "type": "uint256"
        }
      ],
      "name": "Approval",
      "type": "event"
    },
    {
      "anonymous": false,
      "inputs": [
        {
          "indexed": true,
          "internalType": "address",
          "name": "previousOwner",
          "type": "address"
        },
        {
          "indexed": true,
          "internalType": "address",
          "name": "newOwner",
          "type": "address"
        }
      ],
      "name": "OwnershipTransferred",
      "type": "event"
    },
    {
      "anonymous": false,
      "inputs": [
        {
          "indexed": true,
          "internalType": "address",
          "name": "from",
          "type": "address"
        },
        {
          "indexed": true,
          "internalType": "address",
          "name": "to",
          "type": "address"
        },
        {
          "indexed": false,
          "internalType": "uint256",
          "name": "value",
          "type": "uint256"
        }
      ],
      "name": "Transfer",
      "type": "event"
    },
    {
      "inputs": [
        {
          "internalType": "address",
          "name": "owner",
          "type": "address"
        },
        {
          "internalType": "address",
          "name": "spender",
          "type": "address"
        }
      ],
      "name": "allowance",
      "outputs": [
        {
          "internalType": "uint256",
          "name": "",
          "type": "uint256"
        }
      ],
      "stateMutability": "view",
      "type": "function"
    },
    {
      "inputs": [
        {
          "internalType": "address",
          "name": "spender",
          "type": "address"
        },
        {
          "internalType": "uint256",
          "name": "amount",
          "type": "uint256"
        }
      ],
      "name": "approve",
      "outputs": [
        {
          "internalType": "bool",
          "name": "",
          "type": "bool"
        }
      ],
      "stateMutability": "nonpayable",
      "type": "function"
    },
    {
      "inputs": [
        {
          "internalType": "address",
          "name": "account",
          "type": "address"
        }
      ],
      "name": "balanceOf",
      "outputs": [
        {
          "internalType": "uint256",
          "name": "",
          "type": "uint256"
        }
      ],
      "stateMutability": "view",
      "type": "function"
    },
    {
      "inputs": [
        {
          "internalType": "address",
          "name": "_to",
          "type": "address"
        },
        {
          "internalType": "uint256",
          "name": "_amount",
          "type": "uint256"
        }
      ],
      "name": "burn",
      "outputs": [],
      "stateMutability": "nonpayable",
      "type": "function"
    },
    {
      "inputs": [],
      "name": "decimals",
      "outputs": [
        {
          "internalType": "uint8",
          "name": "",
          "type": "uint8"
        }
      ],
      "stateMutability": "view",
      "type": "function"
    },
    {
      "inputs": [
        {
          "internalType": "address",
          "name": "spender",
          "type": "address"
        },
        {
          "internalType": "uint256",
          "name": "subtractedValue",
          "type": "uint256"
        }
      ],
      "name": "decreaseAllowance",
      "outputs": [
        {
          "internalType": "bool",
          "name": "",
          "type": "bool"
        }
      ],
      "stateMutability": "nonpayable",
      "type": "function"
    },
    {
      "inputs": [
        {
          "internalType": "address",
          "name": "spender",
          "type": "address"
        },
        {
          "internalType": "uint256",
          "name": "addedValue",
          "type": "uint256"
        }
      ],
      "name": "increaseAllowance",
      "outputs": [
        {
          "internalType": "bool",
          "name": "",
          "type": "bool"
        }
      ],
      "stateMutability": "nonpayable",
      "type": "function"
    },
    {
      "inputs": [
        {
          "internalType": "address",
          "name": "_to",
          "type": "address"
        },
        {
          "internalType": "uint256",
          "name": "_amount",
          "type": "uint256"
        }
      ],
      "name": "mint",
      "outputs": [],
      "stateMutability": "nonpayable",
      "type": "function"
    },
    {
      "inputs": [],
      "name": "name",
      "outputs": [
        {
          "internalType": "string",
          "name": "",
          "type": "string"
        }
      ],
      "stateMutability": "view",
      "type": "function"
    },
    {
      "inputs": [],
      "name": "owner",
      "outputs": [
        {
          "internalType": "address",
          "name": "",
          "type": "address"
        }
      ],
      "stateMutability": "view",
      "type": "function"
    },
    {
      "inputs": [],
      "name": "renounceOwnership",
      "outputs": [],
      "stateMutability": "nonpayable",
      "type": "function"
    },
    {
      "inputs": [],
      "name": "symbol",
      "outputs": [
        {
          "internalType": "string",
          "name": "",
          "type": "string"
        }
      ],
      "stateMutability": "view",
      "type": "function"
    },
    {
      "inputs": [],
      "name": "totalSupply",
      "outputs": [
        {
          "internalType": "uint256",
          "name": "",
          "type": "uint256"
        }
      ],
      "stateMutability": "view",
      "type": "function"
    },
    {
      "inputs": [
        {
          "internalType": "address",
          "name": "recipient",
          "type": "address"
        },
        {
          "internalType": "uint256",
          "name": "amount",
          "type": "uint256"
        }
      ],
      "name": "transfer",
      "outputs": [
        {
          "internalType": "bool",
          "name": "",
          "type": "bool"
        }
      ],
      "stateMutability": "nonpayable",
      "type": "function"
    },
    {
      "inputs": [
        {
          "internalType": "address",
          "name": "sender",
          "type": "address"
        },
        {
          "internalType": "address",
          "name": "recipient",
          "type": "address"
        },
        {
          "internalType": "uint256",
          "name": "amount",
          "type": "uint256"
        }
      ],
      "name": "transferFrom",
      "outputs": [
        {
          "internalType": "bool",
          "name": "",
          "type": "bool"
        }
      ],
      "stateMutability": "nonpayable",
      "type": "function"
    },
    {
      "inputs": [
        {
          "internalType": "address",
          "name": "newOwner",
          "type": "address"
        }
      ],
      "name": "transferOwnership",
      "outputs": [],
      "stateMutability": "nonpayable",
      "type": "function"
    }
  ],
  "bytecode": "0x60806040526005805460ff60a01b1916600960a11b1790553480156200002457600080fd5b50604051620010e4380380620010e4833981016040819052620000479162000269565b8251839083906200006090600390602085019062000110565b5080516200007690600490602084019062000110565b505050620000936200008d620000ba60201b60201c565b620000be565b6005805460ff909216600160a01b0260ff60a01b19909216919091179055506200033d9050565b3390565b600580546001600160a01b038381166001600160a01b0319831681179093556040519116919082907f8be0079c531659141344cd1fd0a4f28419497f9722a3daafe3b4186f6b6457e090600090a35050565b8280546200011e90620002ea565b90600052602060002090601f0160209004810192826200014257600085556200018d565b82601f106200015d57805160ff19168380011785556200018d565b828001600101855582156200018d579182015b828111156200018d57825182559160200191906001019062000170565b506200019b9291506200019f565b5090565b5b808211156200019b5760008155600101620001a0565b600082601f830112620001c7578081fd5b81516001600160401b0380821115620001e457620001e462000327565b604051601f8301601f19908116603f011681019082821181831017156200020f576200020f62000327565b816040528381526020925086838588010111156200022b578485fd5b8491505b838210156200024e57858201830151818301840152908201906200022f565b838211156200025f57848385830101525b9695505050505050565b6000806000606084860312156200027e578283fd5b83516001600160401b038082111562000295578485fd5b620002a387838801620001b6565b94506020860151915080821115620002b9578384fd5b50620002c886828701620001b6565b925050604084015160ff81168114620002df578182fd5b809150509250925092565b600281046001821680620002ff57607f821691505b602082108114156200032157634e487b7160e01b600052602260045260246000fd5b50919050565b634e487b7160e01b600052604160045260246000fd5b610d97806200034d6000396000f3fe608060405234801561001057600080fd5b50600436106101005760003560e01c8063715018a611610097578063a457c2d711610066578063a457c2d714610209578063a9059cbb1461021c578063dd62ed3e1461022f578063f2fde38b1461024257610100565b8063715018a6146101cb5780638da5cb5b146101d357806395d89b41146101ee5780639dc29fac146101f657610100565b8063313ce567116100d3578063313ce5671461016b578063395093511461019057806340c10f19146101a357806370a08231146101b857610100565b806306fdde0314610105578063095ea7b31461012357806318160ddd1461014657806323b872dd14610158575b600080fd5b61010d610255565b60405161011a9190610caf565b60405180910390f35b610136610131366004610c86565b6102e7565b604051901515815260200161011a565b6002545b60405190815260200161011a565b610136610166366004610c4b565b6102ff565b61017e600554600160a01b900460ff1690565b60405160ff909116815260200161011a565b61013661019e366004610c86565b610398565b6101b66101b1366004610c86565b6103ba565b005b61014a6101c6366004610bff565b6103d0565b6101b66103ef565b6005546040516001600160a01b03909116815260200161011a565b61010d610403565b6101b6610204366004610c86565b610412565b610136610217366004610c86565b610424565b61013661022a366004610c86565b6104af565b61014a61023d366004610c19565b610544565b6101b6610250366004610bff565b61056f565b60606003805461026490610d26565b80601f016020809104026020016040519081016040528092919081815260200182805461029090610d26565b80156102dd5780601f106102b2576101008083540402835291602001916102dd565b820191906000526020600020905b8154815290600101906020018083116102c057829003601f168201915b5050505050905090565b6000336102f58185856105e8565b5060019392505050565b60006103136005546001600160a01b031690565b6040516314f8648960e31b81523060048201526001600160a01b038681166024830152858116604483015260648201859052919091169063a7c3244890608401600060405180830381600087803b15801561036d57600080fd5b505af1158015610381573d6000803e3d6000fd5b5050505061039084848461070d565b949350505050565b6000336102f58185856103ab8383610544565b6103b59190610d02565b6105e8565b6103c2610726565b6103cc8282610780565b5050565b6001600160a01b0381166000908152602081905260409020545b919050565b6103f7610726565b6104016000610840565b565b60606004805461026490610d26565b61041a610726565b6103cc8282610892565b600033816104328286610544565b9050838110156104975760405162461bcd60e51b815260206004820152602560248201527f45524332303a2064656372656173656420616c6c6f77616e63652062656c6f77604482015264207a65726f60d81b60648201526084015b60405180910390fd5b6104a482868684036105e8565b506001949350505050565b60006104c36005546001600160a01b031690565b6040516314f8648960e31b81523060048201523360248201526001600160a01b03858116604483015260648201859052919091169063a7c3244890608401600060405180830381600087803b15801561051b57600080fd5b505af115801561052f573d6000803e3d6000fd5b5050505061053d83836109bc565b9392505050565b6001600160a01b03918216600090815260016020908152604080832093909416825291909152205490565b610577610726565b6001600160a01b0381166105dc5760405162461bcd60e51b815260206004820152602660248201527f4f776e61626c653a206e6577206f776e657220697320746865207a65726f206160448201526564647265737360d01b606482015260840161048e565b6105e581610840565b50565b6001600160a01b03831661064a5760405162461bcd60e51b8152602060048201526024808201527f45524332303a20617070726f76652066726f6d20746865207a65726f206164646044820152637265737360e01b606482015260840161048e565b6001600160a01b0382166106ab5760405162461bcd60e51b815260206004820152602260248201527f45524332303a20617070726f766520746f20746865207a65726f206164647265604482015261737360f01b606482015260840161048e565b6001600160a01b0383811660008181526001602090815260408083209487168084529482529182902085905590518481527f8c5be1e5ebec7d5bd14f71427d1e84f3dd0314c0f7b2291e5b200ac8c7c3b92591015b60405180910390a3505050565b60003361071b8582856109ca565b6104a4858585610a44565b6005546001600160a01b031633146104015760405162461bcd60e51b815260206004820181905260248201527f4f776e61626c653a2063616c6c6572206973206e6f7420746865206f776e6572604482015260640161048e565b6001600160a01b0382166107d65760405162461bcd60e51b815260206004820152601f60248201527f45524332303a206d696e7420746f20746865207a65726f206164647265737300604482015260640161048e565b80600260008282546107e89190610d02565b90915550506001600160a01b038216600081815260208181526040808320805486019055518481527fddf252ad1be2c89b69c2b068fc378daa952ba7f163c4a11628f55a4df523b3ef910160405180910390a36103cc565b600580546001600160a01b038381166001600160a01b0319831681179093556040519116919082907f8be0079c531659141344cd1fd0a4f28419497f9722a3daafe3b4186f6b6457e090600090a35050565b6001600160a01b0382166108f25760405162461bcd60e51b815260206004820152602160248201527f45524332303a206275726e2066726f6d20746865207a65726f206164647265736044820152607360f81b606482015260840161048e565b6001600160a01b038216600090815260208190526040902054818110156109665760405162461bcd60e51b815260206004820152602260248201527f45524332303a206275726e20616d6f756e7420657863656564732062616c616e604482015261636560f01b606482015260840161048e565b6001600160a01b0383166000818152602081815260408083208686039055600280548790039055518581529192917fddf252ad1be2c89b69c2b068fc378daa952ba7f163c4a11628f55a4df523b3ef9101610700565b6000336102f5818585610a44565b60006109d68484610544565b90506000198114610a3e5781811015610a315760405162461bcd60e51b815260206004820152601d60248201527f45524332303a20696e73756666696369656e7420616c6c6f77616e6365000000604482015260640161048e565b610a3e84848484036105e8565b50505050565b6001600160a01b038316610aa85760405162461bcd60e51b815260206004820152602560248201527f45524332303a207472616e736665722066726f6d20746865207a65726f206164604482015264647265737360d81b606482015260840161048e565b6001600160a01b038216610b0a5760405162461bcd60e51b815260206004820152602360248201527f45524332303a207472616e7366657220746f20746865207a65726f206164647260448201526265737360e81b606482015260840161048e565b6001600160a01b03831660009081526020819052604090205481811015610b825760405162461bcd60e51b815260206004820152602660248201527f45524332303a207472616e7366657220616d6f756e7420657863656564732062604482015265616c616e636560d01b606482015260840161048e565b6001600160a01b03848116600081815260208181526040808320878703905593871680835291849020805487019055925185815290927fddf252ad1be2c89b69c2b068fc378daa952ba7f163c4a11628f55a4df523b3ef910160405180910390a3610a3e565b80356001600160a01b03811681146103ea57600080fd5b600060208284031215610c10578081fd5b61053d82610be8565b60008060408385031215610c2b578081fd5b610c3483610be8565b9150610c4260208401610be8565b90509250929050565b600080600060608486031215610c5f578081fd5b610c6884610be8565b9250610c7660208501610be8565b9150604084013590509250925092565b60008060408385031215610c98578182fd5b610ca183610be8565b946020939093013593505050565b6000602080835283518082850152825b81811015610cdb57858101830151858201604001528201610cbf565b81811115610cec5783604083870101525b50601f01601f1916929092016040019392505050565b60008219821115610d2157634e487b7160e01b81526011600452602481fd5b500190565b600281046001821680610d3a57607f821691505b60208210811415610d5b57634e487b7160e01b600052602260045260246000fd5b5091905056fea26469706673582212206b67dbb440ba82ac92da67d93d84d0f9b8b1179797791e9cff1441864392d85164736f6c63430008020033",
  "linkReferences": {},
  "deployedLinkReferences": {}
}