{
  "_format": "hh-sol-artifact-1",
  "contractName": "QuadraticLendCompound",
  "sourceName": "contracts/lendborrow/QuadraticLendCompound.sol",
  "abi": [
    {
      "anonymous": false,
      "inputs": [
        {
          "indexed": true,
          "internalType": "address",
          "name": "user",
          "type": "address"
        },
        {
          "indexed": false,
          "internalType": "address",
          "name": "token",
          "type": "address"
        },
        {
          "indexed": false,
          "internalType": "uint256",
          "name": "allocpoint",
          "type": "uint256"
        },
        {
          "indexed": false,
          "internalType": "bool",
          "name": "withUpdate",
          "type": "bool"
        }
      ],
      "name": "AddPoolEvent",
      "type": "event"
    },
    {
      "anonymous": false,
      "inputs": [
        {
          "indexed": true,
          "internalType": "address",
          "name": "sender",
          "type": "address"
        },
        {
          "indexed": false,
          "internalType": "address",
          "name": "recipient",
          "type": "address"
        },
        {
          "indexed": false,
          "internalType": "address",
          "name": "spToken",
          "type": "address"
        },
        {
          "indexed": false,
          "internalType": "uint256",
          "name": "amount",
          "type": "uint256"
        },
        {
          "indexed": false,
          "internalType": "uint256",
          "name": "interests",
          "type": "uint256"
        },
        {
          "indexed": false,
          "internalType": "uint256",
          "name": "platFormInterests",
          "type": "uint256"
        }
      ],
      "name": "DoAfterLpTransferEvent",
      "type": "event"
    },
    {
      "anonymous": false,
      "inputs": [
        {
          "indexed": true,
          "internalType": "address",
          "name": "sender",
          "type": "address"
        },
        {
          "indexed": false,
          "internalType": "uint256",
          "name": "pid",
          "type": "uint256"
        },
        {
          "indexed": false,
          "internalType": "uint256",
          "name": "amount",
          "type": "uint256"
        }
      ],
      "name": "FunderClaimEvent",
      "type": "event"
    },
    {
      "anonymous": false,
      "inputs": [
        {
          "indexed": true,
          "internalType": "address",
          "name": "previousOwner",
          "type": "address"
        },
        {
          "indexed": true,
          "internalType": "address",
          "name": "newOwner",
          "type": "address"
        }
      ],
      "name": "GovernanceTransferred",
      "type": "event"
    },
    {
      "anonymous": false,
      "inputs": [
        {
          "indexed": false,
          "internalType": "uint8",
          "name": "version",
          "type": "uint8"
        }
      ],
      "name": "Initialized",
      "type": "event"
    },
    {
      "anonymous": false,
      "inputs": [
        {
          "indexed": true,
          "internalType": "address",
          "name": "sender",
          "type": "address"
        },
        {
          "indexed": false,
          "internalType": "address",
          "name": "toUser",
          "type": "address"
        },
        {
          "indexed": false,
          "internalType": "uint256",
          "name": "pid",
          "type": "uint256"
        },
        {
          "indexed": false,
          "internalType": "uint256",
          "name": "amount",
          "type": "uint256"
        }
      ],
      "name": "LoanTransferTokenEvent",
      "type": "event"
    },
    {
      "anonymous": false,
      "inputs": [
        {
          "indexed": true,
          "internalType": "address",
          "name": "sender",
          "type": "address"
        },
        {
          "indexed": false,
          "internalType": "uint256",
          "name": "pid",
          "type": "uint256"
        },
        {
          "indexed": false,
          "internalType": "bool",
          "name": "flag",
          "type": "bool"
        }
      ],
      "name": "PausePoolEvent",
      "type": "event"
    },
    {
      "anonymous": false,
      "inputs": [
        {
          "indexed": false,
          "internalType": "address",
          "name": "account",
          "type": "address"
        }
      ],
      "name": "Paused",
      "type": "event"
    },
    {
      "anonymous": false,
      "inputs": [
        {
          "indexed": true,
          "internalType": "address",
          "name": "sender",
          "type": "address"
        },
        {
          "indexed": false,
          "internalType": "uint256",
          "name": "pid",
          "type": "uint256"
        },
        {
          "indexed": false,
          "internalType": "uint256",
          "name": "amount",
          "type": "uint256"
        }
      ],
      "name": "RepayTransferTokenEvent",
      "type": "event"
    },
    {
      "anonymous": false,
      "inputs": [
        {
          "indexed": true,
          "internalType": "bytes32",
          "name": "role",
          "type": "bytes32"
        },
        {
          "indexed": true,
          "internalType": "address",
          "name": "account",
          "type": "address"
        },
        {
          "indexed": true,
          "internalType": "address",
          "name": "sender",
          "type": "address"
        }
      ],
      "name": "RoleGranted",
      "type": "event"
    },
    {
      "anonymous": false,
      "inputs": [
        {
          "indexed": true,
          "internalType": "bytes32",
          "name": "role",
          "type": "bytes32"
        },
        {
          "indexed": true,
          "internalType": "address",
          "name": "account",
          "type": "address"
        },
        {
          "indexed": true,
          "internalType": "address",
          "name": "sender",
          "type": "address"
        }
      ],
      "name": "RoleRevoked",
      "type": "event"
    },
    {
      "anonymous": false,
      "inputs": [
        {
          "indexed": true,
          "internalType": "address",
          "name": "sender",
          "type": "address"
        },
        {
          "indexed": false,
          "internalType": "address",
          "name": "contractAddr",
          "type": "address"
        },
        {
          "indexed": false,
          "internalType": "bool",
          "name": "flag",
          "type": "bool"
        }
      ],
      "name": "SetAuthContractAccessEvent",
      "type": "event"
    },
    {
      "anonymous": false,
      "inputs": [
        {
          "indexed": true,
          "internalType": "address",
          "name": "sender",
          "type": "address"
        },
        {
          "indexed": false,
          "internalType": "address",
          "name": "beforeVal",
          "type": "address"
        },
        {
          "indexed": false,
          "internalType": "address",
          "name": "afterVal",
          "type": "address"
        }
      ],
      "name": "SetFunderEvent",
      "type": "event"
    },
    {
      "anonymous": false,
      "inputs": [
        {
          "indexed": true,
          "internalType": "address",
          "name": "sender",
          "type": "address"
        },
        {
          "indexed": false,
          "internalType": "uint256",
          "name": "beforeValue",
          "type": "uint256"
        },
        {
          "indexed": false,
          "internalType": "uint256",
          "name": "afterValue",
          "type": "uint256"
        }
      ],
      "name": "SetInterestPlatformRateEvent",
      "type": "event"
    },
    {
      "anonymous": false,
      "inputs": [
        {
          "indexed": true,
          "internalType": "address",
          "name": "sender",
          "type": "address"
        },
        {
          "indexed": false,
          "internalType": "uint256",
          "name": "beforeRate",
          "type": "uint256"
        },
        {
          "indexed": false,
          "internalType": "uint256",
          "name": "afterRate",
          "type": "uint256"
        }
      ],
      "name": "SetMaxBorrowRateEvent",
      "type": "event"
    },
    {
      "anonymous": false,
      "inputs": [
        {
          "indexed": true,
          "internalType": "address",
          "name": "sender",
          "type": "address"
        },
        {
          "indexed": false,
          "internalType": "uint256",
          "name": "pid",
          "type": "uint256"
        },
        {
          "indexed": false,
          "internalType": "uint256",
          "name": "amount",
          "type": "uint256"
        }
      ],
      "name": "SettlementRepayTransferTokenEvent",
      "type": "event"
    },
    {
      "anonymous": false,
      "inputs": [
        {
          "indexed": true,
          "internalType": "address",
          "name": "sender",
          "type": "address"
        },
        {
          "indexed": false,
          "internalType": "uint256",
          "name": "pid",
          "type": "uint256"
        },
        {
          "indexed": false,
          "internalType": "uint256",
          "name": "amount",
          "type": "uint256"
        }
      ],
      "name": "TransferToAuctionUpBorrowEvent",
      "type": "event"
    },
    {
      "anonymous": false,
      "inputs": [
        {
          "indexed": false,
          "internalType": "address",
          "name": "account",
          "type": "address"
        }
      ],
      "name": "Unpaused",
      "type": "event"
    },
    {
      "anonymous": false,
      "inputs": [
        {
          "indexed": true,
          "internalType": "address",
          "name": "user",
          "type": "address"
        },
        {
          "indexed": false,
          "internalType": "uint256",
          "name": "pid",
          "type": "uint256"
        },
        {
          "indexed": false,
          "internalType": "uint256",
          "name": "amount",
          "type": "uint256"
        }
      ],
      "name": "UserLend",
      "type": "event"
    },
    {
      "anonymous": false,
      "inputs": [
        {
          "indexed": true,
          "internalType": "address",
          "name": "user",
          "type": "address"
        },
        {
          "indexed": false,
          "internalType": "uint256",
          "name": "pid",
          "type": "uint256"
        },
        {
          "indexed": false,
          "internalType": "uint256",
          "name": "amount",
          "type": "uint256"
        },
        {
          "indexed": false,
          "internalType": "uint256",
          "name": "interests",
          "type": "uint256"
        },
        {
          "indexed": false,
          "internalType": "uint256",
          "name": "platFormInterests",
          "type": "uint256"
        }
      ],
      "name": "UserRedeem",
      "type": "event"
    },
    {
      "inputs": [],
      "name": "PAUSER_ROLE",
      "outputs": [
        {
          "internalType": "bytes32",
          "name": "",
          "type": "bytes32"
        }
      ],
      "stateMutability": "view",
      "type": "function"
    },
    {
      "inputs": [],
      "name": "_governance",
      "outputs": [
        {
          "internalType": "address",
          "name": "",
          "type": "address"
        }
      ],
      "stateMutability": "view",
      "type": "function"
    },
    {
      "inputs": [
        {
          "internalType": "contract ERC20",
          "name": "_token",
          "type": "address"
        },
        {
          "internalType": "bool",
          "name": "_withUpdate",
          "type": "bool"
        }
      ],
      "name": "addPool",
      "outputs": [],
      "stateMutability": "nonpayable",
      "type": "function"
    },
    {
      "inputs": [
        {
          "internalType": "address",
          "name": "",
          "type": "address"
        }
      ],
      "name": "authContractAccessMap",
      "outputs": [
        {
          "internalType": "bool",
          "name": "",
          "type": "bool"
        }
      ],
      "stateMutability": "view",
      "type": "function"
    },
    {
      "inputs": [],
      "name": "borrowCompound",
      "outputs": [
        {
          "internalType": "contract IQuadraticBorrowCompound",
          "name": "",
          "type": "address"
        }
      ],
      "stateMutability": "view",
      "type": "function"
    },
    {
      "inputs": [
        {
          "internalType": "address",
          "name": "_token",
          "type": "address"
        }
      ],
      "name": "checkPoolPause",
      "outputs": [],
      "stateMutability": "view",
      "type": "function"
    },
    {
      "inputs": [
        {
          "internalType": "address",
          "name": "spToken",
          "type": "address"
        },
        {
          "internalType": "address",
          "name": "sender",
          "type": "address"
        },
        {
          "internalType": "address",
          "name": "recipient",
          "type": "address"
        },
        {
          "internalType": "uint256",
          "name": "amount",
          "type": "uint256"
        }
      ],
      "name": "doAfterLpTransfer",
      "outputs": [],
      "stateMutability": "nonpayable",
      "type": "function"
    },
    {
      "inputs": [
        {
          "internalType": "contract IQuadraticBorrowCompound",
          "name": "_borrowCompound",
          "type": "address"
        },
        {
          "internalType": "uint256",
          "name": "_maxBorrowRate",
          "type": "uint256"
        },
        {
          "internalType": "uint256",
          "name": "_interestPlatformRate",
          "type": "uint256"
        }
      ],
      "name": "doInitialize",
      "outputs": [],
      "stateMutability": "nonpayable",
      "type": "function"
    },
    {
      "inputs": [],
      "name": "funder",
      "outputs": [
        {
          "internalType": "address",
          "name": "",
          "type": "address"
        }
      ],
      "stateMutability": "view",
      "type": "function"
    },
    {
      "inputs": [
        {
          "internalType": "uint256",
          "name": "_pid",
          "type": "uint256"
        },
        {
          "internalType": "uint256",
          "name": "_amount",
          "type": "uint256"
        }
      ],
      "name": "funderClaim",
      "outputs": [],
      "stateMutability": "nonpayable",
      "type": "function"
    },
    {
      "inputs": [
        {
          "internalType": "uint256",
          "name": "",
          "type": "uint256"
        }
      ],
      "name": "funderPoolInterest",
      "outputs": [
        {
          "internalType": "uint256",
          "name": "",
          "type": "uint256"
        }
      ],
      "stateMutability": "view",
      "type": "function"
    },
    {
      "inputs": [
        {
          "internalType": "address",
          "name": "owner",
          "type": "address"
        }
      ],
      "name": "getLendPoolIdsOfOwner",
      "outputs": [
        {
          "internalType": "uint256[]",
          "name": "",
          "type": "uint256[]"
        }
      ],
      "stateMutability": "view",
      "type": "function"
    },
    {
      "inputs": [],
      "name": "getPoolLength",
      "outputs": [
        {
          "internalType": "uint256",
          "name": "poolLength",
          "type": "uint256"
        }
      ],
      "stateMutability": "view",
      "type": "function"
    },
    {
      "inputs": [
        {
          "internalType": "bytes32",
          "name": "role",
          "type": "bytes32"
        },
        {
          "internalType": "address",
          "name": "account",
          "type": "address"
        }
      ],
      "name": "grantRole",
      "outputs": [],
      "stateMutability": "nonpayable",
      "type": "function"
    },
    {
      "inputs": [
        {
          "internalType": "bytes32",
          "name": "role",
          "type": "bytes32"
        },
        {
          "internalType": "address",
          "name": "account",
          "type": "address"
        }
      ],
      "name": "hasRole",
      "outputs": [
        {
          "internalType": "bool",
          "name": "",
          "type": "bool"
        }
      ],
      "stateMutability": "view",
      "type": "function"
    },
    {
      "inputs": [],
      "name": "interestPlatformRate",
      "outputs": [
        {
          "internalType": "uint256",
          "name": "",
          "type": "uint256"
        }
      ],
      "stateMutability": "view",
      "type": "function"
    },
    {
      "inputs": [
        {
          "internalType": "uint256",
          "name": "",
          "type": "uint256"
        }
      ],
      "name": "lendPoolInfo",
      "outputs": [
        {
          "internalType": "address",
          "name": "token",
          "type": "address"
        },
        {
          "internalType": "address",
          "name": "spToken",
          "type": "address"
        },
        {
          "internalType": "uint256",
          "name": "curSupply",
          "type": "uint256"
        },
        {
          "internalType": "uint256",
          "name": "curBorrow",
          "type": "uint256"
        },
        {
          "internalType": "uint256",
          "name": "totalRecvInterests",
          "type": "uint256"
        }
      ],
      "stateMutability": "view",
      "type": "function"
    },
    {
      "inputs": [
        {
          "internalType": "address",
          "name": "",
          "type": "address"
        },
        {
          "internalType": "uint256",
          "name": "",
          "type": "uint256"
        }
      ],
      "name": "lendUserInfos",
      "outputs": [
        {
          "internalType": "uint256",
          "name": "lastLendInterestShare",
          "type": "uint256"
        },
        {
          "internalType": "uint256",
          "name": "unRecvInterests",
          "type": "uint256"
        },
        {
          "internalType": "uint256",
          "name": "currTotalLend",
          "type": "uint256"
        },
        {
          "internalType": "uint256",
          "name": "userDli",
          "type": "uint256"
        }
      ],
      "stateMutability": "view",
      "type": "function"
    },
    {
      "inputs": [
        {
          "internalType": "uint256",
          "name": "pid",
          "type": "uint256"
        },
        {
          "internalType": "address",
          "name": "toUser",
          "type": "address"
        },
        {
          "internalType": "uint256",
          "name": "amount",
          "type": "uint256"
        }
      ],
      "name": "loanTransferToken",
      "outputs": [],
      "stateMutability": "nonpayable",
      "type": "function"
    },
    {
      "inputs": [],
      "name": "maxBorrowRate",
      "outputs": [
        {
          "internalType": "uint256",
          "name": "",
          "type": "uint256"
        }
      ],
      "stateMutability": "view",
      "type": "function"
    },
    {
      "inputs": [],
      "name": "pause",
      "outputs": [],
      "stateMutability": "nonpayable",
      "type": "function"
    },
    {
      "inputs": [
        {
          "internalType": "uint256",
          "name": "_pid",
          "type": "uint256"
        }
      ],
      "name": "pausePool",
      "outputs": [],
      "stateMutability": "nonpayable",
      "type": "function"
    },
    {
      "inputs": [],
      "name": "paused",
      "outputs": [
        {
          "internalType": "bool",
          "name": "",
          "type": "bool"
        }
      ],
      "stateMutability": "view",
      "type": "function"
    },
    {
      "inputs": [
        {
          "internalType": "uint256",
          "name": "_pid",
          "type": "uint256"
        },
        {
          "internalType": "address",
          "name": "_user",
          "type": "address"
        }
      ],
      "name": "pendingRedeemInterests",
      "outputs": [
        {
          "internalType": "uint256",
          "name": "_lendInterests",
          "type": "uint256"
        },
        {
          "internalType": "uint256",
          "name": "_platFormInterests",
          "type": "uint256"
        }
      ],
      "stateMutability": "view",
      "type": "function"
    },
    {
      "inputs": [
        {
          "internalType": "uint256",
          "name": "pid",
          "type": "uint256"
        },
        {
          "internalType": "uint256",
          "name": "amount",
          "type": "uint256"
        }
      ],
      "name": "repayTransferToken",
      "outputs": [],
      "stateMutability": "nonpayable",
      "type": "function"
    },
    {
      "inputs": [
        {
          "internalType": "bytes32",
          "name": "role",
          "type": "bytes32"
        },
        {
          "internalType": "address",
          "name": "account",
          "type": "address"
        }
      ],
      "name": "revokeRole",
      "outputs": [],
      "stateMutability": "nonpayable",
      "type": "function"
    },
    {
      "inputs": [
        {
          "internalType": "address",
          "name": "_contractAddr",
          "type": "address"
        },
        {
          "internalType": "bool",
          "name": "_flag",
          "type": "bool"
        }
      ],
      "name": "setAuthContractAccess",
      "outputs": [],
      "stateMutability": "nonpayable",
      "type": "function"
    },
    {
      "inputs": [
        {
          "internalType": "address",
          "name": "_funder",
          "type": "address"
        }
      ],
      "name": "setFunder",
      "outputs": [],
      "stateMutability": "nonpayable",
      "type": "function"
    },
    {
      "inputs": [
        {
          "internalType": "address",
          "name": "governance",
          "type": "address"
        }
      ],
      "name": "setGovernance",
      "outputs": [],
      "stateMutability": "nonpayable",
      "type": "function"
    },
    {
      "inputs": [
        {
          "internalType": "uint256",
          "name": "_interestPlatformRate",
          "type": "uint256"
        }
      ],
      "name": "setInterestPlatformRate",
      "outputs": [],
      "stateMutability": "nonpayable",
      "type": "function"
    },
    {
      "inputs": [
        {
          "internalType": "uint256",
          "name": "_maxBorrowRate",
          "type": "uint256"
        }
      ],
      "name": "setMaxBorrowRate",
      "outputs": [],
      "stateMutability": "nonpayable",
      "type": "function"
    },
    {
      "inputs": [
        {
          "internalType": "uint256",
          "name": "pid",
          "type": "uint256"
        },
        {
          "internalType": "uint256",
          "name": "amount",
          "type": "uint256"
        }
      ],
      "name": "settlementRepayTransferToken",
      "outputs": [],
      "stateMutability": "nonpayable",
      "type": "function"
    },
    {
      "inputs": [
        {
          "internalType": "address",
          "name": "",
          "type": "address"
        }
      ],
      "name": "spTokenOfPid",
      "outputs": [
        {
          "internalType": "uint256",
          "name": "",
          "type": "uint256"
        }
      ],
      "stateMutability": "view",
      "type": "function"
    },
    {
      "inputs": [
        {
          "internalType": "address",
          "name": "",
          "type": "address"
        }
      ],
      "name": "tokenOfPid",
      "outputs": [
        {
          "internalType": "uint256",
          "name": "",
          "type": "uint256"
        }
      ],
      "stateMutability": "view",
      "type": "function"
    },
    {
      "inputs": [
        {
          "internalType": "uint256",
          "name": "pid",
          "type": "uint256"
        },
        {
          "internalType": "uint256",
          "name": "amount",
          "type": "uint256"
        }
      ],
      "name": "transferToAuctionUpBorrow",
      "outputs": [],
      "stateMutability": "nonpayable",
      "type": "function"
    },
    {
      "inputs": [],
      "name": "unpause",
      "outputs": [],
      "stateMutability": "nonpayable",
      "type": "function"
    },
    {
      "inputs": [
        {
          "internalType": "uint256",
          "name": "_pid",
          "type": "uint256"
        }
      ],
      "name": "unpausePool",
      "outputs": [],
      "stateMutability": "nonpayable",
      "type": "function"
    },
    {
      "inputs": [
        {
          "internalType": "uint256",
          "name": "_pid",
          "type": "uint256"
        },
        {
          "internalType": "uint256",
          "name": "_amount",
          "type": "uint256"
        }
      ],
      "name": "userLend",
      "outputs": [],
      "stateMutability": "nonpayable",
      "type": "function"
    },
    {
      "inputs": [
        {
          "internalType": "uint256",
          "name": "_pid",
          "type": "uint256"
        },
        {
          "internalType": "uint256",
          "name": "_amount",
          "type": "uint256"
        }
      ],
      "name": "userRedeem",
      "outputs": [
        {
          "internalType": "uint256",
          "name": "",
          "type": "uint256"
        }
      ],
      "stateMutability": "nonpayable",
      "type": "function"
    }
  ],
  "bytecode": "0x608060405234801561001057600080fd5b506000805460ff60a01b196001600160a01b0319909116321716905560018055614a368061003f6000396000f3fe60806040523480156200001157600080fd5b5060043610620002745760003560e01c806364d8b80f1162000159578063b0bb003111620000c9578063d43bacc11162000087578063d43bacc11462000648578063d547741f146200066b578063defa58ac1462000682578063e63ab1e91462000696578063ec510b3b14620006ad5762000274565b8063b0bb003114620005d7578063b13ae80414620005ee578063b3944d521462000605578063ccdcc858146200060e578063cd1fa12f14620006315762000274565b80639cf0b43011620001175780639cf0b4301462000558578063a7c32448146200057b578063a8bf70621462000592578063ab033ea914620005a9578063ae8eaa0c14620005c05762000274565b806364d8b80f14620004e35780637f25b67114620004fa5780638456cb59146200052057806389a52cfc146200052a57806391d1485414620005415762000274565b80632c706e6211620001f557806351f1a51f11620001b357806351f1a51f146200047357806357c25c66146200048a5780635c975abb14620004a15780635e8ead7714620004b55780635ea1748614620004cc5762000274565b80632c706e6214620003a05780632f2ff15d14620004045780633401ab44146200041b5780633f4ba83a14620004525780634c0f9124146200045c5762000274565b806315ffbd19116200024357806315ffbd1914620003275780631c2f3e3d146200033e5780631fe7cacf146200035257806320a1e88a14620003695780632a58d4ca14620003735762000274565b8063041ae8801462000279578063075f686614620002aa5780630acc8cd114620002f55780630fa42b5a146200030e575b600080fd5b600c546200028d906001600160a01b031681565b6040516001600160a01b0390911681526020015b60405180910390f35b620002c1620002bb36600462003504565b620006c4565b604080516001600160a01b039687168152959094166020860152928401919091526060830152608082015260a001620002a1565b6200030c62000306366004620032fc565b62000712565b005b62000318600d5481565b604051908152602001620002a1565b6200030c6200033836600462003570565b620007ac565b6000546200028d906001600160a01b031681565b6200030c6200036336600462003504565b62000a42565b62000318600e5481565b6200038a62000384366004620033fc565b62000ad4565b60408051928352602083019190915201620002a1565b620003e3620003b1366004620033af565b600460209081526000928352604080842090915290825290208054600182015460028301546003909301549192909184565b604080519485526020850193909352918301526060820152608001620002a1565b6200030c62000415366004620033fc565b62000c27565b620004416200042c366004620032fc565b60096020526000908152604090205460ff1681565b6040519015158152602001620002a1565b6200030c62000c60565b6200030c6200046d36600462003423565b62000c99565b6200030c6200048436600462003570565b62000e4a565b6200030c6200049b36600462003504565b6200101d565b62000441600054600160a01b900460ff1690565b6200030c620004c636600462003504565b6200108b565b6200030c620004dd36600462003570565b620011d7565b6200030c620004f436600462003372565b620012a0565b620005116200050b366004620032fc565b62001385565b604051620002a1919062003683565b6200030c6200149a565b6200030c6200053b366004620032fc565b6200150c565b6200044162000552366004620033fc565b62001587565b620003186200056936600462003504565b600f6020526000908152604090205481565b6200030c6200058c3660046200331b565b620015b4565b6200030c620005a336600462003536565b62001a41565b6200030c620005ba366004620032fc565b62001c38565b62000318620005d136600462003570565b62001d18565b6200030c620005e836600462003372565b6200208d565b6200030c620005ff36600462003504565b6200248c565b600b5462000318565b620003186200061f366004620032fc565b60066020526000908152604090205481565b6200030c6200064236600462003570565b620025a0565b6200031862000659366004620032fc565b60056020526000908152604090205481565b6200030c6200067c366004620033fc565b62002682565b600a546200028d906001600160a01b031681565b62000318600080516020620049e183398151915281565b6200030c620006be36600462003570565b620026bb565b600b8181548110620006d557600080fd5b6000918252602090912060059091020180546001820154600283015460038401546004909401546001600160a01b03938416955091909216929085565b6000546001600160a01b03163314620007485760405162461bcd60e51b81526004016200073f90620037be565b60405180910390fd5b600c80546001600160a01b038381166001600160a01b0319831681179093556040805191909216808252602082019390935233917f7bdd8beff7d8411e2b81e553a7f28dd1d15b287f3a02a33f26ac4e4d7a5f866091015b60405180910390a25050565b620007b662002809565b620007c062002865565b60008111620008085760405162461bcd60e51b81526020600482015260136024820152721b195b99081a5b9d985b1a5908185b5bdd5b9d606a1b60448201526064016200073f565b6000600b83815481106200082c57634e487b7160e01b600052603260045260246000fd5b60009182526020909120600590910201805490915062000855906001600160a01b03166200150c565b336000908152600460208181526040808420878552909152808320600a5491516308c7421360e41b815292830187905292916001600160a01b0390911690638c7421309060240160206040518083038186803b158015620008b557600080fd5b505afa158015620008ca573d6000803e3d6000fd5b505050506040513d601f19601f82011682018060405250810190620008f091906200351d565b9050600062000900863362000ad4565b5060018481018290558385558501546040516340c10f1960e01b8152336004820152602481018890529192506001600160a01b0316906340c10f1990604401600060405180830381600087803b1580156200095a57600080fd5b505af11580156200096f573d6000803e3d6000fd5b505050600285015462000984915086620028bb565b60028501556200099486620028d0565b6002830154620009a59086620028bb565b60028401556003830154620009bb9086620028bb565b6003840155336000908152600760205260409020620009db908762002933565b508354620009f5906001600160a01b031633308862002941565b604080518781526020810187905233917f5f1a8c54bcfd25f08c1e3a4eebe99c06a533c5e1275136d0d9eb1b517c44e2a9910160405180910390a25050505062000a3e60018055565b5050565b6000546001600160a01b0316331462000a6f5760405162461bcd60e51b81526004016200073f90620037be565b612710811062000a935760405162461bcd60e51b81526004016200073f906200377a565b600e805490829055604080518281526020810184905233917f948e8b1938d4e599e9ca63988998041e722ffd1f32cca33174001002d80a51c49101620007a0565b6001600160a01b0381811660009081526004602081815260408084208785528252808420815160808101835281548152600182015493810193909352600281015483830152600301546060830152600a5490516308c7421360e41b8152928301879052929384939192849290911690638c7421309060240160206040518083038186803b15801562000b6557600080fd5b505afa15801562000b7a573d6000803e3d6000fd5b505050506040513d601f19601f8201168201806040525081019062000ba091906200351d565b905062000bdc64e8d4a5100062000bd562000bc9856000015185620029ae90919063ffffffff16565b606086015190620029bc565b90620029ca565b935062000bfc61271062000bd5600e5487620029bc90919063ffffffff16565b602083015190935062000c1c9062000c158686620029ae565b90620028bb565b935050509250929050565b6000546001600160a01b0316331462000c545760405162461bcd60e51b81526004016200073f90620037be565b62000a3e8282620029d8565b6000546001600160a01b0316331462000c8d5760405162461bcd60e51b81526004016200073f90620037be565b62000c9762002a44565b565b600354610100900460ff161580801562000cba5750600354600160ff909116105b8062000cd65750303b15801562000cd6575060035460ff166001145b62000d3b5760405162461bcd60e51b815260206004820152602e60248201527f496e697469616c697a61626c653a20636f6e747261637420697320616c72656160448201526d191e481a5b9a5d1a585b1a5e995960921b60648201526084016200073f565b6003805460ff19166001179055801562000d5f576003805461ff0019166101001790555b612710831062000d835760405162461bcd60e51b81526004016200073f906200377a565b612710821062000da75760405162461bcd60e51b81526004016200073f906200377a565b600080546001600160a01b0319163390811790915562000dd890600080516020620049e183398151915290620029d8565b600a80546001600160a01b0319166001600160a01b038616179055600d839055600e829055801562000e44576003805461ff0019169055604051600181527f7f26b83ff96e1f2b6a682f133852f6798a09c465da95921460cefb38474024989060200160405180910390a15b50505050565b600c546001600160a01b0316331462000ea65760405162461bcd60e51b815260206004820152601860248201527f6e6f742066756e64657220766973746f7220616c6c6f772e000000000000000060448201526064016200073f565b62000eec600b838154811062000ecc57634e487b7160e01b600052603260045260246000fd5b60009182526020909120600590910201546001600160a01b03166200150c565b6000828152600f60205260409020548181101562000f3d5760405162461bcd60e51b815260206004820152600d60248201526c2bb937b7339030b6b7bab73a1760991b60448201526064016200073f565b6000838152600f602052604090205462000f589083620029ae565b6000848152600f60205260409081902091909155600a54600c549151630971806560e21b8152600481018690526001600160a01b039283166024820152604481018590529116906325c6019490606401600060405180830381600087803b15801562000fc357600080fd5b505af115801562000fd8573d6000803e3d6000fd5b505060408051868152602081018690523393507feb52865751bf5832b7c0bc5d822e259533c31650eff77ad238b0f5152f77fd2c9250015b60405180910390a2505050565b6000546001600160a01b031633146200104a5760405162461bcd60e51b81526004016200073f90620037be565b600d805490829055604080518281526020810184905233917fe0e514d2a747e2bb1e687d69d5da3cb84142ad1732f225910f286ee0499dd4b69101620007a0565b600080516020620049e1833981519152620010a7813362001587565b620010f05760405162461bcd60e51b815260206004820152601860248201527730b1b1b7bab73a1034b99036b4b9b9b4b733903937b6329760411b60448201526064016200073f565b6000600b83815481106200111457634e487b7160e01b600052603260045260246000fd5b60009182526020918290206040805160a081018252600590930290910180546001600160a01b039081168085526001830154909116948401949094526002810154918301919091526003810154606083015260040154608082015291506200119e907fe1518dcd454e34128041da7650fde1a12551e3e90f879a74ba9c344c4671632290620029d8565b604080518481526001602082015233917f8825f3b37c71ed68326b85768a26f08960100ff9ce5a70fea0d194f4d3be9d42910162001010565b600a546001600160a01b03163314620012045760405162461bcd60e51b81526004016200073f906200371b565b6000600b83815481106200122857634e487b7160e01b600052603260045260246000fd5b60009182526020909120600590910201805490915062001251906001600160a01b03166200150c565b6003810154620012629083620029ae565b6003820155604080518481526020810184905233917f389144a1f21d201a5e5b2baa60c49d2dcfd383572f3da187b87896a11ea04bb2910162001010565b6000546001600160a01b03163314620012cd5760405162461bcd60e51b81526004016200073f90620037be565b6001600160a01b0382163b620013265760405162461bcd60e51b815260206004820181905260248201527f61646472657373206973206e6f7420636f6e747261637420616464726573732e60448201526064016200073f565b6001600160a01b038216600081815260096020908152604091829020805460ff191685151590811790915582519384529083015233917fab556e6fb1c2da9757ce4b669164694513e9145ce709d877b1fa1af586a15b419101620007a0565b6001600160a01b038116600090815260076020526040812060609190620013ac9062002a9b565b67ffffffffffffffff811115620013d357634e487b7160e01b600052604160045260246000fd5b604051908082528060200260200182016040528015620013fd578160200160208202803683370190505b50905060005b6001600160a01b0384166000908152600760205260409020620014269062002a9b565b81101562001493576001600160a01b038416600090815260076020526040902062001452908262002aa6565b8282815181106200147357634e487b7160e01b600052603260045260246000fd5b6020908102919091010152806200148a816200388d565b91505062001403565b5092915050565b600080516020620049e1833981519152620014b6813362001587565b620014ff5760405162461bcd60e51b815260206004820152601860248201527730b1b1b7bab73a1034b99036b4b9b9b4b733903937b6329760411b60448201526064016200073f565b6200150962002ab4565b50565b620015387fe1518dcd454e34128041da7650fde1a12551e3e90f879a74ba9c344c467163228262001587565b15620015095760405162461bcd60e51b815260206004820152601d60248201527f5468697320706f6f6c20686173206265656e2073757370656e6465642e00000060448201526064016200073f565b60008281526002602090815260408083206001600160a01b038516845290915290205460ff165b92915050565b3360009081526008602052604090205460ff16620016155760405162461bcd60e51b815260206004820152601960248201527f6e6f74207370546f6b656e20766973746f7220616c6c6f772e0000000000000060448201526064016200073f565b6001600160a01b038416600090815260066020526040902054816200164e5760405162461bcd60e51b81526004016200073f9062003752565b6000600b82815481106200167257634e487b7160e01b600052603260045260246000fd5b6000918252602090912060059091020180549091506200169b906001600160a01b03166200150c565b6001600160a01b038516600090815260046020908152604080832085845290915290206003810154841115620016e55760405162461bcd60e51b81526004016200073f9062003752565b620016f083620028d0565b600a546040516308c7421360e41b8152600481018590526000916001600160a01b031690638c7421309060240160206040518083038186803b1580156200173657600080fd5b505afa1580156200174b573d6000803e3d6000fd5b505050506040513d601f19601f820116820180604052508101906200177191906200351d565b905060008062001782868a62000ad4565b90925090506000620017958383620028bb565b600060018701558486556004870154909150620017b39082620028bb565b60048701556002850154620017c99089620029ae565b60028601556003850154620017df9089620029ae565b6003860181905562001811576001600160a01b038a1660009081526007602052604090206200180f908862002afa565b505b6001600160a01b03891660009081526004602090815260408083208a8452909152902062001840888b62000ad4565b50600182015584815560028101546200185a908a620028bb565b6002820155600381015462001870908a620028bb565b60038201556001600160a01b038a16600090815260076020526040902062001899908962002933565b508315620019d5576001600160a01b038b163b6200192757600a54604051630971806560e21b8152600481018a90526001600160a01b038d8116602483015260448201879052909116906325c60194906064015b600060405180830381600087803b1580156200190857600080fd5b505af11580156200191d573d6000803e3d6000fd5b50505050620019a3565b6001600160a01b038a163b6200197857600a54604051630971806560e21b8152600481018a90526001600160a01b038c8116602483015260448201879052909116906325c6019490606401620018ed565b6000888152600f6020526040902054620019939085620028bb565b6000898152600f60205260409020555b8215620019d5576000888152600f6020526040902054620019c59084620028bb565b6000898152600f60205260409020555b604080516001600160a01b038c811682528e811660208301529181018b90526060810186905260808101859052908c16907fe1b0d32c87f69981815ebeec8587f988fca8d38ba96a1f95fa464a689d77c10b9060a00160405180910390a2505050505050505050505050565b600a546001600160a01b0316331462001a6e5760405162461bcd60e51b81526004016200073f906200371b565b6000600b848154811062001a9257634e487b7160e01b600052603260045260246000fd5b60009182526020909120600590910201805490915062001abb906001600160a01b03166200150c565b818160020154101562001b115760405162461bcd60e51b815260206004820152601860248201527f6e6f7420656e6f75676820616d6f756e7420626f72726f77000000000000000060448201526064016200073f565b600281015462001b229083620029ae565b6002820155600381015462001b389083620028bb565b60038201819055600d546002830154909162001b6c9162001b5991620028bb565b600384015462000bd590612710620029bc565b1062001bce5760405162461bcd60e51b815260206004820152602a60248201527f457863656564696e6720746865206d6178696d756d20746f74616c206c656e6460448201526934b733903930ba34b79760b11b60648201526084016200073f565b805462001be6906001600160a01b0316848462002b08565b604080516001600160a01b03851681526020810186905290810183905233907f09f90e6054a882887b38593d9ca349d2f233a40a420e104ef83db1076acacce09060600160405180910390a250505050565b6000546001600160a01b0316331462001c655760405162461bcd60e51b81526004016200073f90620037be565b6001600160a01b03811662001cbd5760405162461bcd60e51b815260206004820152601f60248201527f6e657720676f7665726e616e636520746865207a65726f20616464726573730060448201526064016200073f565b600080546040516001600160a01b03808516939216917f5f56bee8cffbe9a78652a74a60705edede02af10b0bbb888ca44b79a0d42ce8091a3600080546001600160a01b0319166001600160a01b0392909216919091179055565b600062001d2462002809565b62001d2e62002865565b6000600b848154811062001d5257634e487b7160e01b600052603260045260246000fd5b60009182526020909120600590910201805490915062001d7b906001600160a01b03166200150c565b3360009081526004602090815260408083208784529091529020600381015484111562001dbc5760405162461bcd60e51b81526004016200073f9062003752565b600a546040516308c7421360e41b8152600481018790526000916001600160a01b031690638c7421309060240160206040518083038186803b15801562001e0257600080fd5b505afa15801562001e17573d6000803e3d6000fd5b505050506040513d601f19601f8201168201806040525081019062001e3d91906200351d565b905060008062001e4e883362000ad4565b9092509050600062001e618383620028bb565b60006001870155848655600287015490915062001e7f9089620029ae565b6002870155600486015462001e959082620028bb565b600487015562001ea589620028d0565b871562001ed957600285015462001ebd9089620029ae565b6002860155600385015462001ed39089620029ae565b60038601555b600385015462001f005733600090815260076020526040902062001efe908a62002afa565b505b871562001f88576001860154604051632770a7eb60e21b8152336004820152602481018a90526001600160a01b0390911690639dc29fac90604401600060405180830381600087803b15801562001f5657600080fd5b505af115801562001f6b573d6000803e3d6000fd5b5050875462001f8892506001600160a01b03169050338a62002b08565b82156200203157600a54604051630971806560e21b8152600481018b9052336024820152604481018590526001600160a01b03909116906325c6019490606401600060405180830381600087803b15801562001fe357600080fd5b505af115801562001ff8573d6000803e3d6000fd5b50505050600082111562002031576000898152600f6020526040902054620020219083620028bb565b60008a8152600f60205260409020555b604080518a8152602081018a90529081018490526060810183905233907f216746704783cfb7f7363147c27e30b399b7740feee81db98166c1138b4265b29060800160405180910390a25090945050505050620015ae60018055565b6000546001600160a01b03163314620020ba5760405162461bcd60e51b81526004016200073f90620037be565b6001600160a01b03821660009081526005602052604090205415620021155760405162461bcd60e51b815260206004820152601060248201526f2a37b5b2b71034b99032bc34b9ba399760811b60448201526064016200073f565b6000620022626040518060400160405280601581526020017429bab838363c96a83937bb34b232b9102a37b5b2b760591b815250620021e7856001600160a01b03166395d89b416040518163ffffffff1660e01b815260040160006040518083038186803b1580156200218757600080fd5b505afa1580156200219c573d6000803e3d6000fd5b505050506040513d6000823e601f3d908101601f19168201604052620021c691908101906200345a565b60408051808201909152600381526253502d60e81b60208201529062002b3f565b856001600160a01b031663313ce5676040518163ffffffff1660e01b815260040160206040518083038186803b1580156200222157600080fd5b505afa15801562002236573d6000803e3d6000fd5b505050506040513d601f19601f820116820180604052508101906200225c919062003592565b62002cea565b6040805160a0810182526001600160a01b0380871682528084166020830190815260009383018481526060840185815260808501868152600b80546001818101835598829052965160059097027f0175b7a638427703f0dbe7bb9bbf987a2551717b34e79f33b5b1008d1fa01db9810180549888166001600160a01b0319998a1617905594517f0175b7a638427703f0dbe7bb9bbf987a2551717b34e79f33b5b1008d1fa01dba860180549190971697169690961790945590517f0175b7a638427703f0dbe7bb9bbf987a2551717b34e79f33b5b1008d1fa01dbb830155517f0175b7a638427703f0dbe7bb9bbf987a2551717b34e79f33b5b1008d1fa01dbc82015590517f0175b7a638427703f0dbe7bb9bbf987a2551717b34e79f33b5b1008d1fa01dbd90910155549192506200239b9162003844565b6001600160a01b0384811660008181526005602090815260408083208690558685168084526006835281842096909655600890915290819020805460ff19166001179055600a5490516306f21ab360e01b8152600481019290925260248201939093529116906306f21ab390604401600060405180830381600087803b1580156200242557600080fd5b505af11580156200243a573d6000803e3d6000fd5b5050604080516001600160a01b038716815260006020820152851515918101919091523392507f521c6b9d3195ce28fe3364e394e094b316853517a4163ca50efeb1bfe5af67f9915060600162001010565b6000546001600160a01b03163314620024b95760405162461bcd60e51b81526004016200073f90620037be565b6000600b8281548110620024dd57634e487b7160e01b600052603260045260246000fd5b60009182526020918290206040805160a081018252600590930290910180546001600160a01b0390811680855260018301549091169484019490945260028101549183019190915260038101546060830152600401546080820152915062002567907fe1518dcd454e34128041da7650fde1a12551e3e90f879a74ba9c344c467163229062002dfc565b604080518381526000602082015233917f8825f3b37c71ed68326b85768a26f08960100ff9ce5a70fea0d194f4d3be9d429101620007a0565b600a546001600160a01b03163314620025cd5760405162461bcd60e51b81526004016200073f906200371b565b6000600b8381548110620025f157634e487b7160e01b600052603260045260246000fd5b6000918252602090912060059091020180549091506200261a906001600160a01b03166200150c565b60028101546200262b9083620028bb565b6002820155805462002649906001600160a01b031633308562002941565b604080518481526020810184905233917f320eaf5ab3be2fad400866790df898ac58ac6687f0f3fbaf034647c3ceaff7f6910162001010565b6000546001600160a01b03163314620026af5760405162461bcd60e51b81526004016200073f90620037be565b62000a3e828262002dfc565b600a546001600160a01b03163314620026e85760405162461bcd60e51b81526004016200073f906200371b565b6000600b83815481106200270c57634e487b7160e01b600052603260045260246000fd5b60009182526020909120600590910201805490915062002735906001600160a01b03166200150c565b81816003015410156200278b5760405162461bcd60e51b815260206004820152601d60248201527f63757272656e7420626f72726f7720616d6f756e74206572726f722e2000000060448201526064016200073f565b60028101546200279c9083620028bb565b60028201556003810154620027b29083620029ae565b60038201558054620027d0906001600160a01b031633308562002941565b604080518481526020810184905233917fa187fd747daf1335504270b3baeb1a4ff675edd8533df517d4be58e7acf29650910162001010565b600260015414156200285e5760405162461bcd60e51b815260206004820152601f60248201527f5265656e7472616e637947756172643a207265656e7472616e742063616c6c0060448201526064016200073f565b6002600155565b62002879600054600160a01b900460ff1690565b1562000c975760405162461bcd60e51b815260206004820152601060248201526f14185d5cd8589b194e881c185d5cd95960821b60448201526064016200073f565b6000620028c98284620037e6565b9392505050565b600a5460405163c6ce580560e01b8152600481018390526001600160a01b039091169063c6ce580590602401600060405180830381600087803b1580156200291757600080fd5b505af11580156200292c573d6000803e3d6000fd5b5050505050565b6000620028c9838362002e66565b6040516001600160a01b038085166024830152831660448201526064810182905262000e449085906323b872dd60e01b906084015b60408051601f198184030181529190526020810180516001600160e01b03166001600160e01b03199093169290921790915262002eb8565b6000620028c9828462003844565b6000620028c9828462003822565b6000620028c9828462003801565b620029e4828262001587565b62000a3e5760008281526002602090815260408083206001600160a01b0385168085529252808320805460ff1916600117905551339285917f2f8788117e7eff1d82e926ec794901d17c78024a50270940304540a733656f0d9190a45050565b62002a4e62002f94565b6000805460ff60a01b191690557f5db9ee0a495bf2e6ff9c91a7834c1ba4fdd244a5e8aa4e537bd38aeae4b073aa335b6040516001600160a01b03909116815260200160405180910390a1565b6000620015ae825490565b6000620028c9838362002fed565b62002abe62002865565b6000805460ff60a01b1916600160a01b1790557f62e78cea01bee320cd4e420270b5ea74000d11b0c9f74754ebdbfc544b05a25862002a7e3390565b6000620028c9838362003026565b6040516001600160a01b03831660248201526044810182905262002b3a90849063a9059cbb60e01b9060640162002976565b505050565b805182516060918491849160009162002b599190620037e6565b67ffffffffffffffff81111562002b8057634e487b7160e01b600052604160045260246000fd5b6040519080825280601f01601f19166020018201604052801562002bab576020820181803683370190505b5083518351919250906000805b83811462002c485786818151811062002be157634e487b7160e01b600052603260045260246000fd5b01602001516001600160f81b031916858362002bfd816200388d565b94508151811062002c1e57634e487b7160e01b600052603260045260246000fd5b60200101906001600160f81b031916908160001a90535062002c40816200388d565b905062002bb8565b5060005b82811462002cdc5785818151811062002c7557634e487b7160e01b600052603260045260246000fd5b01602001516001600160f81b031916858362002c91816200388d565b94508151811062002cb257634e487b7160e01b600052603260045260246000fd5b60200101906001600160f81b031916908160001a90535062002cd4816200388d565b905062002c4c565b509298975050505050505050565b6000806040518060200162002cff90620032ee565b601f1982820381018352601f90910116604081905262002d2890879087908790602001620036de565b60408051601f198184030181529082905262002d48929160200162003601565b604051602081830303815290604052905060008585854260405160200162002d74949392919062003634565b6040516020818303038152906040528051906020012090506000818351846020016000f590506001600160a01b03811662002df25760405162461bcd60e51b815260206004820152601f60248201527f437265617465323a204661696c6564206f6e2063726561746520746f6b656e0060448201526064016200073f565b9695505050505050565b62002e08828262001587565b1562000a3e5760008281526002602090815260408083206001600160a01b0385168085529252808320805460ff1916905551339285917ff6391f5c32d9c69d2a47ea670b442974b53935d1edc7fd64eb21e047a839171b9190a45050565b600081815260018301602052604081205462002eaf57508154600181810184556000848152602080822090930184905584548482528286019093526040902091909155620015ae565b506000620015ae565b600062002f0f826040518060400160405280602081526020017f5361666545524332303a206c6f772d6c6576656c2063616c6c206661696c6564815250856001600160a01b03166200314e9092919063ffffffff16565b905080516000148062002f3357508080602001905181019062002f339190620033dd565b62002b3a5760405162461bcd60e51b815260206004820152602a60248201527f5361666545524332303a204552433230206f7065726174696f6e20646964206e6044820152691bdd081cdd58d8d9595960b21b60648201526084016200073f565b62002fa8600054600160a01b900460ff1690565b62000c975760405162461bcd60e51b815260206004820152601460248201527314185d5cd8589b194e881b9bdd081c185d5cd95960621b60448201526064016200073f565b60008260000182815481106200301357634e487b7160e01b600052603260045260246000fd5b9060005260206000200154905092915050565b60008181526001830160205260408120548015620031435760006200304d60018362003844565b8554909150600090620030639060019062003844565b9050818114620030e75760008660000182815481106200309357634e487b7160e01b600052603260045260246000fd5b9060005260206000200154905080876000018481548110620030c557634e487b7160e01b600052603260045260246000fd5b6000918252602080832090910192909255918252600188019052604090208390555b85548690806200310757634e487b7160e01b600052603160045260246000fd5b600190038181906000526020600020016000905590558560010160008681526020019081526020016000206000905560019350505050620015ae565b6000915050620015ae565b60606200315f848460008562003167565b949350505050565b606082471015620031ca5760405162461bcd60e51b815260206004820152602660248201527f416464726573733a20696e73756666696369656e742062616c616e636520666f6044820152651c8818d85b1b60d21b60648201526084016200073f565b600080866001600160a01b03168587604051620031e89190620035e3565b60006040518083038185875af1925050503d806000811462003227576040519150601f19603f3d011682016040523d82523d6000602084013e6200322c565b606091505b50915091506200323f878383876200324a565b979650505050505050565b60608315620032bb578251620032b3576001600160a01b0385163b620032b35760405162461bcd60e51b815260206004820152601d60248201527f416464726573733a2063616c6c20746f206e6f6e2d636f6e747261637400000060448201526064016200073f565b50816200315f565b6200315f8383815115620032d25781518083602001fd5b8060405162461bcd60e51b81526004016200073f9190620036c9565b6110e480620038fd83390190565b6000602082840312156200330e578081fd5b8135620028c981620038d7565b6000806000806080858703121562003331578283fd5b84356200333e81620038d7565b935060208501356200335081620038d7565b925060408501356200336281620038d7565b9396929550929360600135925050565b6000806040838503121562003385578182fd5b82356200339281620038d7565b91506020830135620033a481620038ed565b809150509250929050565b60008060408385031215620033c2578182fd5b8235620033cf81620038d7565b946020939093013593505050565b600060208284031215620033ef578081fd5b8151620028c981620038ed565b600080604083850312156200340f578182fd5b823591506020830135620033a481620038d7565b60008060006060848603121562003438578283fd5b83356200344581620038d7565b95602085013595506040909401359392505050565b6000602082840312156200346c578081fd5b815167ffffffffffffffff8082111562003484578283fd5b818401915084601f83011262003498578283fd5b815181811115620034ad57620034ad620038c1565b604051601f8201601f19908116603f01168101908382118183101715620034d857620034d8620038c1565b81604052828152876020848701011115620034f1578586fd5b6200323f8360208301602088016200385e565b60006020828403121562003516578081fd5b5035919050565b6000602082840312156200352f578081fd5b5051919050565b6000806000606084860312156200354b578283fd5b8335925060208401356200355f81620038d7565b929592945050506040919091013590565b6000806040838503121562003583578182fd5b50508035926020909101359150565b600060208284031215620035a4578081fd5b815160ff81168114620028c9578182fd5b60008151808452620035cf8160208601602086016200385e565b601f01601f19169290920160200192915050565b60008251620035f78184602087016200385e565b9190910192915050565b60008351620036158184602088016200385e565b8351908301906200362b8183602088016200385e565b01949350505050565b6000855162003648818460208a016200385e565b8551908301906200365e818360208a016200385e565b60f89590951b6001600160f81b03191694019384525050600182015260210192915050565b6020808252825182820181905260009190848201906040850190845b81811015620036bd578351835292840192918401916001016200369f565b50909695505050505050565b600060208252620028c96020830184620035b5565b600060608252620036f36060830186620035b5565b8281036020840152620037078186620035b5565b91505060ff83166040830152949350505050565b60208082526018908201527f6e6f7420626f72726f7720766973746f7220616c6c6f772e0000000000000000604082015260600190565b6020808252600e908201526d1a5b9d985b1a5908185b5bdd5b9d60921b604082015260600190565b60208082526024908201527f546865206d6178696d756d20726174696f20686173206265656e2065786365656040820152633232b21760e11b606082015260800190565b6020808252600e908201526d6e6f7420676f7665726e616e636560901b604082015260600190565b60008219821115620037fc57620037fc620038ab565b500190565b6000826200381d57634e487b7160e01b81526012600452602481fd5b500490565b60008160001904831182151516156200383f576200383f620038ab565b500290565b600082821015620038595762003859620038ab565b500390565b60005b838110156200387b57818101518382015260200162003861565b8381111562000e445750506000910152565b6000600019821415620038a457620038a4620038ab565b5060010190565b634e487b7160e01b600052601160045260246000fd5b634e487b7160e01b600052604160045260246000fd5b6001600160a01b03811681146200150957600080fd5b80151581146200150957600080fdfe60806040526005805460ff60a01b1916600960a11b1790553480156200002457600080fd5b50604051620010e4380380620010e4833981016040819052620000479162000269565b8251839083906200006090600390602085019062000110565b5080516200007690600490602084019062000110565b505050620000936200008d620000ba60201b60201c565b620000be565b6005805460ff909216600160a01b0260ff60a01b19909216919091179055506200033d9050565b3390565b600580546001600160a01b038381166001600160a01b0319831681179093556040519116919082907f8be0079c531659141344cd1fd0a4f28419497f9722a3daafe3b4186f6b6457e090600090a35050565b8280546200011e90620002ea565b90600052602060002090601f0160209004810192826200014257600085556200018d565b82601f106200015d57805160ff19168380011785556200018d565b828001600101855582156200018d579182015b828111156200018d57825182559160200191906001019062000170565b506200019b9291506200019f565b5090565b5b808211156200019b5760008155600101620001a0565b600082601f830112620001c7578081fd5b81516001600160401b0380821115620001e457620001e462000327565b604051601f8301601f19908116603f011681019082821181831017156200020f576200020f62000327565b816040528381526020925086838588010111156200022b578485fd5b8491505b838210156200024e57858201830151818301840152908201906200022f565b838211156200025f57848385830101525b9695505050505050565b6000806000606084860312156200027e578283fd5b83516001600160401b038082111562000295578485fd5b620002a387838801620001b6565b94506020860151915080821115620002b9578384fd5b50620002c886828701620001b6565b925050604084015160ff81168114620002df578182fd5b809150509250925092565b600281046001821680620002ff57607f821691505b602082108114156200032157634e487b7160e01b600052602260045260246000fd5b50919050565b634e487b7160e01b600052604160045260246000fd5b610d97806200034d6000396000f3fe608060405234801561001057600080fd5b50600436106101005760003560e01c8063715018a611610097578063a457c2d711610066578063a457c2d714610209578063a9059cbb1461021c578063dd62ed3e1461022f578063f2fde38b1461024257610100565b8063715018a6146101cb5780638da5cb5b146101d357806395d89b41146101ee5780639dc29fac146101f657610100565b8063313ce567116100d3578063313ce5671461016b578063395093511461019057806340c10f19146101a357806370a08231146101b857610100565b806306fdde0314610105578063095ea7b31461012357806318160ddd1461014657806323b872dd14610158575b600080fd5b61010d610255565b60405161011a9190610caf565b60405180910390f35b610136610131366004610c86565b6102e7565b604051901515815260200161011a565b6002545b60405190815260200161011a565b610136610166366004610c4b565b6102ff565b61017e600554600160a01b900460ff1690565b60405160ff909116815260200161011a565b61013661019e366004610c86565b610398565b6101b66101b1366004610c86565b6103ba565b005b61014a6101c6366004610bff565b6103d0565b6101b66103ef565b6005546040516001600160a01b03909116815260200161011a565b61010d610403565b6101b6610204366004610c86565b610412565b610136610217366004610c86565b610424565b61013661022a366004610c86565b6104af565b61014a61023d366004610c19565b610544565b6101b6610250366004610bff565b61056f565b60606003805461026490610d26565b80601f016020809104026020016040519081016040528092919081815260200182805461029090610d26565b80156102dd5780601f106102b2576101008083540402835291602001916102dd565b820191906000526020600020905b8154815290600101906020018083116102c057829003601f168201915b5050505050905090565b6000336102f58185856105e8565b5060019392505050565b60006103136005546001600160a01b031690565b6040516314f8648960e31b81523060048201526001600160a01b038681166024830152858116604483015260648201859052919091169063a7c3244890608401600060405180830381600087803b15801561036d57600080fd5b505af1158015610381573d6000803e3d6000fd5b5050505061039084848461070d565b949350505050565b6000336102f58185856103ab8383610544565b6103b59190610d02565b6105e8565b6103c2610726565b6103cc8282610780565b5050565b6001600160a01b0381166000908152602081905260409020545b919050565b6103f7610726565b6104016000610840565b565b60606004805461026490610d26565b61041a610726565b6103cc8282610892565b600033816104328286610544565b9050838110156104975760405162461bcd60e51b815260206004820152602560248201527f45524332303a2064656372656173656420616c6c6f77616e63652062656c6f77604482015264207a65726f60d81b60648201526084015b60405180910390fd5b6104a482868684036105e8565b506001949350505050565b60006104c36005546001600160a01b031690565b6040516314f8648960e31b81523060048201523360248201526001600160a01b03858116604483015260648201859052919091169063a7c3244890608401600060405180830381600087803b15801561051b57600080fd5b505af115801561052f573d6000803e3d6000fd5b5050505061053d83836109bc565b9392505050565b6001600160a01b03918216600090815260016020908152604080832093909416825291909152205490565b610577610726565b6001600160a01b0381166105dc5760405162461bcd60e51b815260206004820152602660248201527f4f776e61626c653a206e6577206f776e657220697320746865207a65726f206160448201526564647265737360d01b606482015260840161048e565b6105e581610840565b50565b6001600160a01b03831661064a5760405162461bcd60e51b8152602060048201526024808201527f45524332303a20617070726f76652066726f6d20746865207a65726f206164646044820152637265737360e01b606482015260840161048e565b6001600160a01b0382166106ab5760405162461bcd60e51b815260206004820152602260248201527f45524332303a20617070726f766520746f20746865207a65726f206164647265604482015261737360f01b606482015260840161048e565b6001600160a01b0383811660008181526001602090815260408083209487168084529482529182902085905590518481527f8c5be1e5ebec7d5bd14f71427d1e84f3dd0314c0f7b2291e5b200ac8c7c3b92591015b60405180910390a3505050565b60003361071b8582856109ca565b6104a4858585610a44565b6005546001600160a01b031633146104015760405162461bcd60e51b815260206004820181905260248201527f4f776e61626c653a2063616c6c6572206973206e6f7420746865206f776e6572604482015260640161048e565b6001600160a01b0382166107d65760405162461bcd60e51b815260206004820152601f60248201527f45524332303a206d696e7420746f20746865207a65726f206164647265737300604482015260640161048e565b80600260008282546107e89190610d02565b90915550506001600160a01b038216600081815260208181526040808320805486019055518481527fddf252ad1be2c89b69c2b068fc378daa952ba7f163c4a11628f55a4df523b3ef910160405180910390a36103cc565b600580546001600160a01b038381166001600160a01b0319831681179093556040519116919082907f8be0079c531659141344cd1fd0a4f28419497f9722a3daafe3b4186f6b6457e090600090a35050565b6001600160a01b0382166108f25760405162461bcd60e51b815260206004820152602160248201527f45524332303a206275726e2066726f6d20746865207a65726f206164647265736044820152607360f81b606482015260840161048e565b6001600160a01b038216600090815260208190526040902054818110156109665760405162461bcd60e51b815260206004820152602260248201527f45524332303a206275726e20616d6f756e7420657863656564732062616c616e604482015261636560f01b606482015260840161048e565b6001600160a01b0383166000818152602081815260408083208686039055600280548790039055518581529192917fddf252ad1be2c89b69c2b068fc378daa952ba7f163c4a11628f55a4df523b3ef9101610700565b6000336102f5818585610a44565b60006109d68484610544565b90506000198114610a3e5781811015610a315760405162461bcd60e51b815260206004820152601d60248201527f45524332303a20696e73756666696369656e7420616c6c6f77616e6365000000604482015260640161048e565b610a3e84848484036105e8565b50505050565b6001600160a01b038316610aa85760405162461bcd60e51b815260206004820152602560248201527f45524332303a207472616e736665722066726f6d20746865207a65726f206164604482015264647265737360d81b606482015260840161048e565b6001600160a01b038216610b0a5760405162461bcd60e51b815260206004820152602360248201527f45524332303a207472616e7366657220746f20746865207a65726f206164647260448201526265737360e81b606482015260840161048e565b6001600160a01b03831660009081526020819052604090205481811015610b825760405162461bcd60e51b815260206004820152602660248201527f45524332303a207472616e7366657220616d6f756e7420657863656564732062604482015265616c616e636560d01b606482015260840161048e565b6001600160a01b03848116600081815260208181526040808320878703905593871680835291849020805487019055925185815290927fddf252ad1be2c89b69c2b068fc378daa952ba7f163c4a11628f55a4df523b3ef910160405180910390a3610a3e565b80356001600160a01b03811681146103ea57600080fd5b600060208284031215610c10578081fd5b61053d82610be8565b60008060408385031215610c2b578081fd5b610c3483610be8565b9150610c4260208401610be8565b90509250929050565b600080600060608486031215610c5f578081fd5b610c6884610be8565b9250610c7660208501610be8565b9150604084013590509250925092565b60008060408385031215610c98578182fd5b610ca183610be8565b946020939093013593505050565b6000602080835283518082850152825b81811015610cdb57858101830151858201604001528201610cbf565b81811115610cec5783604083870101525b50601f01601f1916929092016040019392505050565b60008219821115610d2157634e487b7160e01b81526011600452602481fd5b500190565b600281046001821680610d3a57607f821691505b60208210811415610d5b57634e487b7160e01b600052602260045260246000fd5b5091905056fea26469706673582212200bde55648828f758e47d45aae5be369919838f92e17064f7131948dc1808f37b64736f6c6343000802003365d7a28e3265b37a6474929f336521b332c1681b933f6cb9f3376673440d862aa26469706673582212202a196598a05376fb3a4a9ac680b870699f59cfd273ea44d6f42b973e74dc3c4864736f6c63430008020033",
  "linkReferences": {},
  "deployedLinkReferences": {}
}