{
  "_format": "hh-sol-artifact-1",
  "contractName": "QuadraticLendCompound",
  "sourceName": "contracts/lendborrow/QuadraticLendCompound.sol",
  "abi": [
    {
      "anonymous": false,
      "inputs": [
        {
          "indexed": true,
          "internalType": "address",
          "name": "user",
          "type": "address"
        },
        {
          "indexed": false,
          "internalType": "address",
          "name": "token",
          "type": "address"
        },
        {
          "indexed": false,
          "internalType": "uint256",
          "name": "allocpoint",
          "type": "uint256"
        },
        {
          "indexed": false,
          "internalType": "bool",
          "name": "withUpdate",
          "type": "bool"
        }
      ],
      "name": "AddPoolEvent",
      "type": "event"
    },
    {
      "anonymous": false,
      "inputs": [
        {
          "indexed": true,
          "internalType": "address",
          "name": "sender",
          "type": "address"
        },
        {
          "indexed": false,
          "internalType": "address",
          "name": "recipient",
          "type": "address"
        },
        {
          "indexed": false,
          "internalType": "address",
          "name": "spToken",
          "type": "address"
        },
        {
          "indexed": false,
          "internalType": "uint256",
          "name": "amount",
          "type": "uint256"
        },
        {
          "indexed": false,
          "internalType": "uint256",
          "name": "interests",
          "type": "uint256"
        },
        {
          "indexed": false,
          "internalType": "uint256",
          "name": "platFormInterests",
          "type": "uint256"
        }
      ],
      "name": "DoAfterLpTransferEvent",
      "type": "event"
    },
    {
      "anonymous": false,
      "inputs": [
        {
          "indexed": true,
          "internalType": "address",
          "name": "sender",
          "type": "address"
        },
        {
          "indexed": false,
          "internalType": "uint256",
          "name": "pid",
          "type": "uint256"
        },
        {
          "indexed": false,
          "internalType": "uint256",
          "name": "amount",
          "type": "uint256"
        }
      ],
      "name": "FunderClaimEvent",
      "type": "event"
    },
    {
      "anonymous": false,
      "inputs": [
        {
          "indexed": false,
          "internalType": "uint8",
          "name": "version",
          "type": "uint8"
        }
      ],
      "name": "Initialized",
      "type": "event"
    },
    {
      "anonymous": false,
      "inputs": [
        {
          "indexed": true,
          "internalType": "address",
          "name": "sender",
          "type": "address"
        },
        {
          "indexed": false,
          "internalType": "address",
          "name": "toUser",
          "type": "address"
        },
        {
          "indexed": false,
          "internalType": "uint256",
          "name": "pid",
          "type": "uint256"
        },
        {
          "indexed": false,
          "internalType": "uint256",
          "name": "amount",
          "type": "uint256"
        }
      ],
      "name": "LoanTransferTokenEvent",
      "type": "event"
    },
    {
      "anonymous": false,
      "inputs": [
        {
          "indexed": true,
          "internalType": "address",
          "name": "sender",
          "type": "address"
        },
        {
          "indexed": false,
          "internalType": "uint256",
          "name": "pid",
          "type": "uint256"
        },
        {
          "indexed": false,
          "internalType": "bool",
          "name": "flag",
          "type": "bool"
        }
      ],
      "name": "PausePoolEvent",
      "type": "event"
    },
    {
      "anonymous": false,
      "inputs": [
        {
          "indexed": true,
          "internalType": "address",
          "name": "sender",
          "type": "address"
        },
        {
          "indexed": false,
          "internalType": "uint256",
          "name": "pid",
          "type": "uint256"
        },
        {
          "indexed": false,
          "internalType": "uint256",
          "name": "amount",
          "type": "uint256"
        }
      ],
      "name": "RepayTransferTokenEvent",
      "type": "event"
    },
    {
      "anonymous": false,
      "inputs": [
        {
          "indexed": true,
          "internalType": "address",
          "name": "sender",
          "type": "address"
        },
        {
          "indexed": false,
          "internalType": "address",
          "name": "contractAddr",
          "type": "address"
        },
        {
          "indexed": false,
          "internalType": "bool",
          "name": "flag",
          "type": "bool"
        }
      ],
      "name": "SetAuthContractAccessEvent",
      "type": "event"
    },
    {
      "anonymous": false,
      "inputs": [
        {
          "indexed": true,
          "internalType": "address",
          "name": "sender",
          "type": "address"
        },
        {
          "indexed": false,
          "internalType": "address",
          "name": "beforeVal",
          "type": "address"
        },
        {
          "indexed": false,
          "internalType": "address",
          "name": "afterVal",
          "type": "address"
        }
      ],
      "name": "SetFunderEvent",
      "type": "event"
    },
    {
      "anonymous": false,
      "inputs": [
        {
          "indexed": true,
          "internalType": "address",
          "name": "sender",
          "type": "address"
        },
        {
          "indexed": false,
          "internalType": "uint256",
          "name": "beforeValue",
          "type": "uint256"
        },
        {
          "indexed": false,
          "internalType": "uint256",
          "name": "afterValue",
          "type": "uint256"
        }
      ],
      "name": "SetInterestPlatformRateEvent",
      "type": "event"
    },
    {
      "anonymous": false,
      "inputs": [
        {
          "indexed": true,
          "internalType": "address",
          "name": "sender",
          "type": "address"
        },
        {
          "indexed": false,
          "internalType": "uint256",
          "name": "beforeRate",
          "type": "uint256"
        },
        {
          "indexed": false,
          "internalType": "uint256",
          "name": "afterRate",
          "type": "uint256"
        }
      ],
      "name": "SetMaxBorrowRateEvent",
      "type": "event"
    },
    {
      "anonymous": false,
      "inputs": [
        {
          "indexed": true,
          "internalType": "address",
          "name": "sender",
          "type": "address"
        },
        {
          "indexed": false,
          "internalType": "uint256",
          "name": "pid",
          "type": "uint256"
        },
        {
          "indexed": false,
          "internalType": "uint256",
          "name": "amount",
          "type": "uint256"
        }
      ],
      "name": "SettlementRepayTransferTokenEvent",
      "type": "event"
    },
    {
      "anonymous": false,
      "inputs": [
        {
          "indexed": true,
          "internalType": "address",
          "name": "sender",
          "type": "address"
        },
        {
          "indexed": false,
          "internalType": "uint256",
          "name": "pid",
          "type": "uint256"
        },
        {
          "indexed": false,
          "internalType": "uint256",
          "name": "amount",
          "type": "uint256"
        }
      ],
      "name": "TransferToAuctionUpBorrowEvent",
      "type": "event"
    },
    {
      "anonymous": false,
      "inputs": [
        {
          "indexed": true,
          "internalType": "address",
          "name": "user",
          "type": "address"
        },
        {
          "indexed": false,
          "internalType": "uint256",
          "name": "pid",
          "type": "uint256"
        },
        {
          "indexed": false,
          "internalType": "uint256",
          "name": "amount",
          "type": "uint256"
        }
      ],
      "name": "UserLend",
      "type": "event"
    },
    {
      "anonymous": false,
      "inputs": [
        {
          "indexed": true,
          "internalType": "address",
          "name": "user",
          "type": "address"
        },
        {
          "indexed": false,
          "internalType": "uint256",
          "name": "pid",
          "type": "uint256"
        },
        {
          "indexed": false,
          "internalType": "uint256",
          "name": "amount",
          "type": "uint256"
        },
        {
          "indexed": false,
          "internalType": "uint256",
          "name": "interests",
          "type": "uint256"
        },
        {
          "indexed": false,
          "internalType": "uint256",
          "name": "platFormInterests",
          "type": "uint256"
        }
      ],
      "name": "UserRedeem",
      "type": "event"
    },
    {
      "inputs": [
        {
          "internalType": "contract ERC20",
          "name": "_token",
          "type": "address"
        },
        {
          "internalType": "bool",
          "name": "_withUpdate",
          "type": "bool"
        }
      ],
      "name": "addPool",
      "outputs": [],
      "stateMutability": "nonpayable",
      "type": "function"
    },
    {
      "inputs": [
        {
          "internalType": "address",
          "name": "",
          "type": "address"
        }
      ],
      "name": "authContractAccessMap",
      "outputs": [
        {
          "internalType": "bool",
          "name": "",
          "type": "bool"
        }
      ],
      "stateMutability": "view",
      "type": "function"
    },
    {
      "inputs": [],
      "name": "borrowCompound",
      "outputs": [
        {
          "internalType": "contract IQuadraticBorrowCompound",
          "name": "",
          "type": "address"
        }
      ],
      "stateMutability": "view",
      "type": "function"
    },
    {
      "inputs": [
        {
          "internalType": "address",
          "name": "spToken",
          "type": "address"
        },
        {
          "internalType": "address",
          "name": "sender",
          "type": "address"
        },
        {
          "internalType": "address",
          "name": "recipient",
          "type": "address"
        },
        {
          "internalType": "uint256",
          "name": "amount",
          "type": "uint256"
        }
      ],
      "name": "doAfterLpTransfer",
      "outputs": [],
      "stateMutability": "nonpayable",
      "type": "function"
    },
    {
      "inputs": [
        {
          "internalType": "contract IQuadraticBorrowCompound",
          "name": "_borrowCompound",
          "type": "address"
        },
        {
          "internalType": "uint256",
          "name": "_maxBorrowRate",
          "type": "uint256"
        },
        {
          "internalType": "uint256",
          "name": "_interestPlatformRate",
          "type": "uint256"
        }
      ],
      "name": "doInitialize",
      "outputs": [],
      "stateMutability": "nonpayable",
      "type": "function"
    },
    {
      "inputs": [],
      "name": "funder",
      "outputs": [
        {
          "internalType": "address",
          "name": "",
          "type": "address"
        }
      ],
      "stateMutability": "view",
      "type": "function"
    },
    {
      "inputs": [
        {
          "internalType": "uint256",
          "name": "_pid",
          "type": "uint256"
        },
        {
          "internalType": "uint256",
          "name": "_amount",
          "type": "uint256"
        }
      ],
      "name": "funderClaim",
      "outputs": [],
      "stateMutability": "nonpayable",
      "type": "function"
    },
    {
      "inputs": [
        {
          "internalType": "uint256",
          "name": "",
          "type": "uint256"
        }
      ],
      "name": "funderPoolInterest",
      "outputs": [
        {
          "internalType": "uint256",
          "name": "",
          "type": "uint256"
        }
      ],
      "stateMutability": "view",
      "type": "function"
    },
    {
      "inputs": [
        {
          "internalType": "address",
          "name": "owner",
          "type": "address"
        }
      ],
      "name": "getLendPoolIdsOfOwner",
      "outputs": [
        {
          "internalType": "uint256[]",
          "name": "",
          "type": "uint256[]"
        }
      ],
      "stateMutability": "view",
      "type": "function"
    },
    {
      "inputs": [],
      "name": "getPoolLength",
      "outputs": [
        {
          "internalType": "uint256",
          "name": "poolLength",
          "type": "uint256"
        }
      ],
      "stateMutability": "view",
      "type": "function"
    },
    {
      "inputs": [],
      "name": "interestPlatformRate",
      "outputs": [
        {
          "internalType": "uint256",
          "name": "",
          "type": "uint256"
        }
      ],
      "stateMutability": "view",
      "type": "function"
    },
    {
      "inputs": [
        {
          "internalType": "uint256",
          "name": "",
          "type": "uint256"
        }
      ],
      "name": "lendPoolInfo",
      "outputs": [
        {
          "internalType": "address",
          "name": "token",
          "type": "address"
        },
        {
          "internalType": "address",
          "name": "spToken",
          "type": "address"
        },
        {
          "internalType": "uint256",
          "name": "curSupply",
          "type": "uint256"
        },
        {
          "internalType": "uint256",
          "name": "curBorrow",
          "type": "uint256"
        },
        {
          "internalType": "uint256",
          "name": "totalRecvInterests",
          "type": "uint256"
        }
      ],
      "stateMutability": "view",
      "type": "function"
    },
    {
      "inputs": [
        {
          "internalType": "address",
          "name": "",
          "type": "address"
        },
        {
          "internalType": "uint256",
          "name": "",
          "type": "uint256"
        }
      ],
      "name": "lendUserInfos",
      "outputs": [
        {
          "internalType": "uint256",
          "name": "lastLendInterestShare",
          "type": "uint256"
        },
        {
          "internalType": "uint256",
          "name": "unRecvInterests",
          "type": "uint256"
        },
        {
          "internalType": "uint256",
          "name": "currTotalLend",
          "type": "uint256"
        },
        {
          "internalType": "uint256",
          "name": "userDli",
          "type": "uint256"
        }
      ],
      "stateMutability": "view",
      "type": "function"
    },
    {
      "inputs": [
        {
          "internalType": "uint256",
          "name": "pid",
          "type": "uint256"
        },
        {
          "internalType": "address",
          "name": "toUser",
          "type": "address"
        },
        {
          "internalType": "uint256",
          "name": "amount",
          "type": "uint256"
        }
      ],
      "name": "loanTransferToken",
      "outputs": [],
      "stateMutability": "nonpayable",
      "type": "function"
    },
    {
      "inputs": [],
      "name": "maxBorrowRate",
      "outputs": [
        {
          "internalType": "uint256",
          "name": "",
          "type": "uint256"
        }
      ],
      "stateMutability": "view",
      "type": "function"
    },
    {
      "inputs": [
        {
          "internalType": "uint256",
          "name": "_pid",
          "type": "uint256"
        },
        {
          "internalType": "address",
          "name": "_user",
          "type": "address"
        }
      ],
      "name": "pendingRedeemInterests",
      "outputs": [
        {
          "internalType": "uint256",
          "name": "_lendInterests",
          "type": "uint256"
        },
        {
          "internalType": "uint256",
          "name": "_platFormInterests",
          "type": "uint256"
        }
      ],
      "stateMutability": "view",
      "type": "function"
    },
    {
      "inputs": [
        {
          "internalType": "uint256",
          "name": "pid",
          "type": "uint256"
        },
        {
          "internalType": "uint256",
          "name": "amount",
          "type": "uint256"
        }
      ],
      "name": "repayTransferToken",
      "outputs": [],
      "stateMutability": "nonpayable",
      "type": "function"
    },
    {
      "inputs": [
        {
          "internalType": "address",
          "name": "_contractAddr",
          "type": "address"
        },
        {
          "internalType": "bool",
          "name": "_flag",
          "type": "bool"
        }
      ],
      "name": "setAuthContractAccess",
      "outputs": [],
      "stateMutability": "nonpayable",
      "type": "function"
    },
    {
      "inputs": [
        {
          "internalType": "address",
          "name": "_funder",
          "type": "address"
        }
      ],
      "name": "setFunder",
      "outputs": [],
      "stateMutability": "nonpayable",
      "type": "function"
    },
    {
      "inputs": [
        {
          "internalType": "uint256",
          "name": "_interestPlatformRate",
          "type": "uint256"
        }
      ],
      "name": "setInterestPlatformRate",
      "outputs": [],
      "stateMutability": "nonpayable",
      "type": "function"
    },
    {
      "inputs": [
        {
          "internalType": "uint256",
          "name": "_maxBorrowRate",
          "type": "uint256"
        }
      ],
      "name": "setMaxBorrowRate",
      "outputs": [],
      "stateMutability": "nonpayable",
      "type": "function"
    },
    {
      "inputs": [
        {
          "internalType": "uint256",
          "name": "pid",
          "type": "uint256"
        },
        {
          "internalType": "uint256",
          "name": "amount",
          "type": "uint256"
        }
      ],
      "name": "settlementRepayTransferToken",
      "outputs": [],
      "stateMutability": "nonpayable",
      "type": "function"
    },
    {
      "inputs": [
        {
          "internalType": "address",
          "name": "",
          "type": "address"
        }
      ],
      "name": "spTokenOfPid",
      "outputs": [
        {
          "internalType": "uint256",
          "name": "",
          "type": "uint256"
        }
      ],
      "stateMutability": "view",
      "type": "function"
    },
    {
      "inputs": [
        {
          "internalType": "address",
          "name": "",
          "type": "address"
        }
      ],
      "name": "tokenOfPid",
      "outputs": [
        {
          "internalType": "uint256",
          "name": "",
          "type": "uint256"
        }
      ],
      "stateMutability": "view",
      "type": "function"
    },
    {
      "inputs": [
        {
          "internalType": "uint256",
          "name": "pid",
          "type": "uint256"
        },
        {
          "internalType": "uint256",
          "name": "amount",
          "type": "uint256"
        }
      ],
      "name": "transferToAuctionUpBorrow",
      "outputs": [],
      "stateMutability": "nonpayable",
      "type": "function"
    },
    {
      "inputs": [
        {
          "internalType": "uint256",
          "name": "_pid",
          "type": "uint256"
        },
        {
          "internalType": "uint256",
          "name": "_amount",
          "type": "uint256"
        }
      ],
      "name": "userLend",
      "outputs": [],
      "stateMutability": "nonpayable",
      "type": "function"
    },
    {
      "inputs": [
        {
          "internalType": "uint256",
          "name": "_pid",
          "type": "uint256"
        },
        {
          "internalType": "uint256",
          "name": "_amount",
          "type": "uint256"
        }
      ],
      "name": "userRedeem",
      "outputs": [
        {
          "internalType": "uint256",
          "name": "",
          "type": "uint256"
        }
      ],
      "stateMutability": "nonpayable",
      "type": "function"
    }
  ],
  "bytecode": "0x608060405234801561001057600080fd5b506143f1806100206000396000f3fe60806040523480156200001157600080fd5b5060043610620001d25760003560e01c80635ea174861162000111578063b0bb003111620000a5578063cd1fa12f116200007b578063cd1fa12f14620004c7578063d43bacc114620004de578063defa58ac1462000501578063ec510b3b146200051557620001d2565b8063b0bb00311462000484578063b3944d52146200049b578063ccdcc85814620004a457620001d2565b80639cf0b43011620000e75780639cf0b430146200041c578063a7c32448146200043f578063a8bf70621462000456578063ae8eaa0c146200046d57620001d2565b80635ea1748614620003c857806364d8b80f14620003df5780637f25b67114620003f657620001d2565b806320a1e88a11620001895780633401ab44116200015f5780633401ab44146200034c5780634c0f9124146200038357806351f1a51f146200039a57806357c25c6614620003b157620001d2565b806320a1e88a14620002b35780632a58d4ca14620002bd5780632c706e6214620002ea57620001d2565b8063041ae88014620001d7578063075f686614620002085780630acc8cd114620002535780630fa42b5a146200026c57806315ffbd1914620002855780631fe7cacf146200029c575b600080fd5b600954620001eb906001600160a01b031681565b6040516001600160a01b0390911681526020015b60405180910390f35b6200021f6200021936600462002e6e565b6200052c565b604080516001600160a01b039687168152959094166020860152928401919091526060830152608082015260a001620001ff565b6200026a6200026436600462002c8d565b6200057a565b005b62000276600a5481565b604051908152602001620001ff565b6200026a6200029636600462002f01565b620005de565b6200026a620002ad36600462002e6e565b62000841565b62000276600b5481565b620002d4620002ce36600462002ea0565b620008a6565b60408051928352602083019190915201620001ff565b6200032b620002fb36600462002d40565b60016020818152600093845260408085209091529183529120805491810154600282015460039092015490919084565b604080519485526020850193909352918301526060820152608001620001ff565b620003726200035d36600462002c8d565b60066020526000908152604090205460ff1681565b6040519015158152602001620001ff565b6200026a6200039436600462002d8d565b620009f9565b6200026a620003ab36600462002f01565b62000c51565b6200026a620003c236600462002e6e565b62000dde565b6200026a620003d936600462002f01565b62000e1f565b6200026a620003f036600462002d03565b62000ed7565b6200040d6200040736600462002c8d565b62000f8f565b604051620001ff919062003014565b620002766200042d36600462002e6e565b600c6020526000908152604090205481565b6200026a6200045036600462002cac565b620010a4565b6200026a6200046736600462002ec7565b62001516565b620002766200047e36600462002f01565b620016f4565b6200026a6200049536600462002d03565b62001a36565b60085462000276565b62000276620004b536600462002c8d565b60036020526000908152604090205481565b6200026a620004d836600462002f01565b62001fee565b62000276620004ef36600462002c8d565b60026020526000908152604090205481565b600754620001eb906001600160a01b031681565b6200026a6200052636600462002f01565b620020bf565b600881815481106200053d57600080fd5b6000918252602090912060059091020180546001820154600283015460038401546004909401546001600160a01b03938416955091909216929085565b600980546001600160a01b038381166001600160a01b0319831681179093556040805191909216808252602082019390935233917f7bdd8beff7d8411e2b81e553a7f28dd1d15b287f3a02a33f26ac4e4d7a5f866091015b60405180910390a25050565b600081116200062a5760405162461bcd60e51b81526020600482015260136024820152721b195b99081a5b9d985b1a5908185b5bdd5b9d606a1b60448201526064015b60405180910390fd5b6000600883815481106200064e57634e487b7160e01b600052603260045260246000fd5b6000918252602080832033845260018252604080852088865290925281842060075492516308c7421360e41b815260048101899052600594909402909101945092916001600160a01b0390911690638c7421309060240160206040518083038186803b158015620006be57600080fd5b505afa158015620006d3573d6000803e3d6000fd5b505050506040513d601f19601f82011682018060405250810190620006f9919062002e87565b90506000620007098633620008a6565b5060018481018290558385558501546040516340c10f1960e01b8152336004820152602481018890529192506001600160a01b0316906340c10f1990604401600060405180830381600087803b1580156200076357600080fd5b505af115801562000778573d6000803e3d6000fd5b50505060028501546200078d915086620021f4565b60028501556200079d8662002209565b6002830154620007ae9086620021f4565b60028401556003830154620007c49086620021f4565b6003840155336000908152600460205260409020620007e490876200226c565b508354620007fe906001600160a01b03163330886200227a565b604080518781526020810187905233917f5f1a8c54bcfd25f08c1e3a4eebe99c06a533c5e1275136d0d9eb1b517c44e2a9910160405180910390a2505050505050565b6127108110620008655760405162461bcd60e51b815260040162000621906200315b565b600b805490829055604080518281526020810184905233917f948e8b1938d4e599e9ca63988998041e722ffd1f32cca33174001002d80a51c49101620005d2565b6001600160a01b03818116600090815260016020818152604080842087855282528084208151608081018352815481529381015492840192909252600282015483820152600390910154606083015260075490516308c7421360e41b81526004810187905292938493849290911690638c7421309060240160206040518083038186803b1580156200093757600080fd5b505afa1580156200094c573d6000803e3d6000fd5b505050506040513d601f19601f8201168201806040525081019062000972919062002e87565b9050620009ae64e8d4a51000620009a76200099b856000015185620022e790919063ffffffff16565b606086015190620022f5565b9062002303565b9350620009ce612710620009a7600b5487620022f590919063ffffffff16565b6020830151909350620009ee90620009e78686620022e7565b90620021f4565b935050509250929050565b600054610100900460ff161580801562000a1a5750600054600160ff909116105b8062000a365750303b15801562000a36575060005460ff166001145b62000a9b5760405162461bcd60e51b815260206004820152602e60248201527f496e697469616c697a61626c653a20636f6e747261637420697320616c72656160448201526d191e481a5b9a5d1a585b1a5e995960921b606482015260840162000621565b6000805460ff19166001179055801562000abf576000805461ff0019166101001790555b62000af06040518060400160405280600e81526020016d646f496e697469616c697a65203160901b81525062002311565b612710831062000b145760405162461bcd60e51b815260040162000621906200315b565b612710821062000b385760405162461bcd60e51b815260040162000621906200315b565b62000b796040518060400160405280601c81526020017f646f496e697469616c697a65205f626f72726f77436f6d706f756e6400000000815250856200235b565b62000bba6040518060400160405280601b81526020017f646f496e697469616c697a65205f6d6178426f72726f7752617465000000000081525084620023a8565b62000bdf6040518060600160405280602281526020016200439a6022913983620023a8565b600780546001600160a01b0319166001600160a01b038616179055600a839055600b829055801562000c4b576000805461ff0019169055604051600181527f7f26b83ff96e1f2b6a682f133852f6798a09c465da95921460cefb38474024989060200160405180910390a15b50505050565b6009546001600160a01b0316331462000cad5760405162461bcd60e51b815260206004820152601860248201527f6e6f742066756e64657220766973746f7220616c6c6f772e0000000000000000604482015260640162000621565b6000828152600c60205260409020548181101562000cfe5760405162461bcd60e51b815260206004820152600d60248201526c2bb937b7339030b6b7bab73a1760991b604482015260640162000621565b6000838152600c602052604090205462000d199083620022e7565b6000848152600c602052604090819020919091556007546009549151630971806560e21b8152600481018690526001600160a01b039283166024820152604481018590529116906325c6019490606401600060405180830381600087803b15801562000d8457600080fd5b505af115801562000d99573d6000803e3d6000fd5b505060408051868152602081018690523393507feb52865751bf5832b7c0bc5d822e259533c31650eff77ad238b0f5152f77fd2c9250015b60405180910390a2505050565b600a805490829055604080518281526020810184905233917fe0e514d2a747e2bb1e687d69d5da3cb84142ad1732f225910f286ee0499dd4b69101620005d2565b6007546001600160a01b0316331462000e4c5760405162461bcd60e51b81526004016200062190620030fc565b60006008838154811062000e7057634e487b7160e01b600052603260045260246000fd5b9060005260206000209060050201905062000e99828260030154620022e790919063ffffffff16565b6003820155604080518481526020810184905233917f389144a1f21d201a5e5b2baa60c49d2dcfd383572f3da187b87896a11ea04bb2910162000dd1565b6001600160a01b0382163b62000f305760405162461bcd60e51b815260206004820181905260248201527f61646472657373206973206e6f7420636f6e747261637420616464726573732e604482015260640162000621565b6001600160a01b038216600081815260066020908152604091829020805460ff191685151590811790915582519384529083015233917fab556e6fb1c2da9757ce4b669164694513e9145ce709d877b1fa1af586a15b419101620005d2565b6001600160a01b03811660009081526004602052604081206060919062000fb690620023f1565b67ffffffffffffffff81111562000fdd57634e487b7160e01b600052604160045260246000fd5b60405190808252806020026020018201604052801562001007578160200160208202803683370190505b50905060005b6001600160a01b03841660009081526004602052604090206200103090620023f1565b8110156200109d576001600160a01b03841660009081526004602052604090206200105c9082620023fc565b8282815181106200107d57634e487b7160e01b600052603260045260246000fd5b602090810291909101015280620010948162003246565b9150506200100d565b5092915050565b3360009081526005602052604090205460ff16620011055760405162461bcd60e51b815260206004820152601960248201527f6e6f74207370546f6b656e20766973746f7220616c6c6f772e00000000000000604482015260640162000621565b6001600160a01b038416600090815260036020526040902054816200113e5760405162461bcd60e51b8152600401620006219062003133565b6000600882815481106200116257634e487b7160e01b600052603260045260246000fd5b600091825260208083206001600160a01b03891684526001825260408085208786529092529220600381015460059092029092019250841115620011ba5760405162461bcd60e51b8152600401620006219062003133565b620011c58362002209565b6007546040516308c7421360e41b8152600481018590526000916001600160a01b031690638c7421309060240160206040518083038186803b1580156200120b57600080fd5b505afa15801562001220573d6000803e3d6000fd5b505050506040513d601f19601f8201168201806040525081019062001246919062002e87565b905060008062001257868a620008a6565b909250905060006200126a8383620021f4565b600060018701558486556004870154909150620012889082620021f4565b600487015560028501546200129e9089620022e7565b60028601556003850154620012b49089620022e7565b60038601819055620012e6576001600160a01b038a166000908152600460205260409020620012e490886200240a565b505b6001600160a01b03891660009081526001602090815260408083208a8452909152902062001315888b620008a6565b50600182015584815560028101546200132f908a620021f4565b6002820155600381015462001345908a620021f4565b60038201556001600160a01b038a1660009081526004602052604090206200136e90896200226c565b508315620014aa576001600160a01b038b163b620013fc57600754604051630971806560e21b8152600481018a90526001600160a01b038d8116602483015260448201879052909116906325c60194906064015b600060405180830381600087803b158015620013dd57600080fd5b505af1158015620013f2573d6000803e3d6000fd5b5050505062001478565b6001600160a01b038a163b6200144d57600754604051630971806560e21b8152600481018a90526001600160a01b038c8116602483015260448201879052909116906325c6019490606401620013c2565b6000888152600c6020526040902054620014689085620021f4565b6000898152600c60205260409020555b8215620014aa576000888152600c60205260409020546200149a9084620021f4565b6000898152600c60205260409020555b604080516001600160a01b038c811682528e811660208301529181018b90526060810186905260808101859052908c16907fe1b0d32c87f69981815ebeec8587f988fca8d38ba96a1f95fa464a689d77c10b9060a00160405180910390a2505050505050505050505050565b6007546001600160a01b03163314620015435760405162461bcd60e51b81526004016200062190620030fc565b6000600884815481106200156757634e487b7160e01b600052603260045260246000fd5b906000526020600020906005020190508181600201541015620015cd5760405162461bcd60e51b815260206004820152601860248201527f6e6f7420656e6f75676820616d6f756e7420626f72726f770000000000000000604482015260640162000621565b6002810154620015de9083620022e7565b60028201556003810154620015f49083620021f4565b60038201819055600a546002830154909162001628916200161591620021f4565b6003840154620009a790612710620022f5565b106200168a5760405162461bcd60e51b815260206004820152602a60248201527f457863656564696e6720746865206d6178696d756d20746f74616c206c656e6460448201526934b733903930ba34b79760b11b606482015260840162000621565b8054620016a2906001600160a01b0316848462002418565b604080516001600160a01b03851681526020810186905290810183905233907f09f90e6054a882887b38593d9ca349d2f233a40a420e104ef83db1076acacce09060600160405180910390a250505050565b600080600884815481106200171957634e487b7160e01b600052603260045260246000fd5b600091825260208083203384526001825260408085208986529092529220600381015460059092029092019250841115620017685760405162461bcd60e51b8152600401620006219062003133565b6007546040516308c7421360e41b8152600481018790526000916001600160a01b031690638c7421309060240160206040518083038186803b158015620017ae57600080fd5b505afa158015620017c3573d6000803e3d6000fd5b505050506040513d601f19601f82011682018060405250810190620017e9919062002e87565b9050600080620017fa8833620008a6565b909250905060006200180d8383620021f4565b6000600187015584865560028701549091506200182b9089620022e7565b60028701556004860154620018419082620021f4565b6004870155620018518962002209565b871562001885576002850154620018699089620022e7565b600286015560038501546200187f9089620022e7565b60038601555b6003850154620018ac57336000908152600460205260409020620018aa908a6200240a565b505b871562001934576001860154604051632770a7eb60e21b8152336004820152602481018a90526001600160a01b0390911690639dc29fac90604401600060405180830381600087803b1580156200190257600080fd5b505af115801562001917573d6000803e3d6000fd5b505087546200193492506001600160a01b03169050338a62002418565b8215620019dd57600754604051630971806560e21b8152600481018b9052336024820152604481018590526001600160a01b03909116906325c6019490606401600060405180830381600087803b1580156200198f57600080fd5b505af1158015620019a4573d6000803e3d6000fd5b505050506000821115620019dd576000898152600c6020526040902054620019cd9083620021f4565b60008a8152600c60205260409020555b604080518a8152602081018a90529081018490526060810183905233907f216746704783cfb7f7363147c27e30b399b7740feee81db98166c1138b4265b29060800160405180910390a250909450505050505b92915050565b62001a6260405180604001604052806009815260200168616464506f6f6c203160b81b81525062002311565b600062001baf6040518060400160405280601581526020017429bab838363c96a83937bb34b232b9102a37b5b2b760591b81525062001b34856001600160a01b03166395d89b416040518163ffffffff1660e01b815260040160006040518083038186803b15801562001ad457600080fd5b505afa15801562001ae9573d6000803e3d6000fd5b505050506040513d6000823e601f3d908101601f1916820160405262001b13919081019062002dc4565b60408051808201909152600381526253502d60e81b6020820152906200244a565b856001600160a01b031663313ce5676040518163ffffffff1660e01b815260040160206040518083038186803b15801562001b6e57600080fd5b505afa15801562001b83573d6000803e3d6000fd5b505050506040513d601f19601f8201168201806040525081019062001ba9919062002f23565b620025f5565b905062001bdd6040518060400160405280600981526020016830b2322837b7b6101960b91b81525062002311565b6040805160a0810182526001600160a01b038086168252838116602080840191825260008486018181526060860182815260808701838152600880546001810182559452965160059093027ff3f7a9fe364faab93b216da50a3214154f22a0a2b415b23a84c8169e8b636ee3810180549488166001600160a01b031995861617905594517ff3f7a9fe364faab93b216da50a3214154f22a0a2b415b23a84c8169e8b636ee4860180549190971693169290921790945592517ff3f7a9fe364faab93b216da50a3214154f22a0a2b415b23a84c8169e8b636ee583015591517ff3f7a9fe364faab93b216da50a3214154f22a0a2b415b23a84c8169e8b636ee682015591517ff3f7a9fe364faab93b216da50a3214154f22a0a2b415b23a84c8169e8b636ee79092019190915581518083019092526009825268616464506f6f6c203360b81b9082015262001d319062002311565b60085462001d4290600190620031fd565b60026000856001600160a01b03166001600160a01b031681526020019081526020016000208190555062001d9760405180604001604052806009815260200168185919141bdbdb080d60ba1b81525062002311565b6001600160a01b03808416600090815260026020908152604080832054938516835260038252918290209290925580518082019091526009815268616464506f6f6c203560b81b9181019190915262001df09062002311565b6001600160a01b038116600090815260056020908152604091829020805460ff191660011790558151808301909252600982526830b2322837b7b6101b60b91b9082015262001e3f9062002311565b62001e726040518060400160405280600f81526020016e61646472657373285f746f6b656e2960881b815250846200235b565b62001e9e604051806040016040528060088152602001672fb9b82a37b5b2b760c11b815250826200235b565b60408051808201909152600e81526d189bdc9c9bddd0dbdb5c1bdd5b9960921b602082015260075462001edb91906001600160a01b03166200235b565b6007546040516306f21ab360e01b81526001600160a01b0385811660048301528381166024830152909116906306f21ab390604401600060405180830381600087803b15801562001f2b57600080fd5b505af115801562001f40573d6000803e3d6000fd5b5050505062001f7060405180604001604052806009815260200168616464506f6f6c203760b81b81525062002311565b604080516001600160a01b03851681526000602082015283151581830152905133917f521c6b9d3195ce28fe3364e394e094b316853517a4163ca50efeb1bfe5af67f9919081900360600190a262001fe9604051806040016040528060098152602001680c2c8c8a0deded840760bb1b81525062002311565b505050565b6007546001600160a01b031633146200201b5760405162461bcd60e51b81526004016200062190620030fc565b6000600883815481106200203f57634e487b7160e01b600052603260045260246000fd5b9060005260206000209060050201905062002068828260020154620021f490919063ffffffff16565b6002820155805462002086906001600160a01b03163330856200227a565b604080518481526020810184905233917f320eaf5ab3be2fad400866790df898ac58ac6687f0f3fbaf034647c3ceaff7f6910162000dd1565b6007546001600160a01b03163314620020ec5760405162461bcd60e51b81526004016200062190620030fc565b6000600883815481106200211057634e487b7160e01b600052603260045260246000fd5b906000526020600020906005020190508181600301541015620021765760405162461bcd60e51b815260206004820152601d60248201527f63757272656e7420626f72726f7720616d6f756e74206572726f722e20000000604482015260640162000621565b6002810154620021879083620021f4565b600282015560038101546200219d9083620022e7565b60038201558054620021bb906001600160a01b03163330856200227a565b604080518481526020810184905233917fa187fd747daf1335504270b3baeb1a4ff675edd8533df517d4be58e7acf29650910162000dd1565b60006200220282846200319f565b9392505050565b60075460405163c6ce580560e01b8152600481018390526001600160a01b039091169063c6ce580590602401600060405180830381600087803b1580156200225057600080fd5b505af115801562002265573d6000803e3d6000fd5b5050505050565b6000620022028383620027da565b6040516001600160a01b038085166024830152831660448201526064810182905262000c4b9085906323b872dd60e01b906084015b60408051601f198184030181529190526020810180516001600160e01b03166001600160e01b0319909316929092179091526200282c565b6000620022028284620031fd565b6000620022028284620031db565b6000620022028284620031ba565b62002358816040516024016200232891906200305a565b60408051601f198184030181529190526020810180516001600160e01b031663104c13eb60e21b17905262002908565b50565b620023a48282604051602401620023749291906200306f565b60408051601f198184030181529190526020810180516001600160e01b031663319af33360e01b17905262002908565b5050565b620023a48282604051602401620023c1929190620030d8565b60408051601f198184030181529190526020810180516001600160e01b0316632d839cb360e21b17905262002908565b600062001a30825490565b600062002202838362002913565b60006200220283836200294c565b6040516001600160a01b03831660248201526044810182905262001fe990849063a9059cbb60e01b90606401620022af565b80518251606091849184916000916200246491906200319f565b67ffffffffffffffff8111156200248b57634e487b7160e01b600052604160045260246000fd5b6040519080825280601f01601f191660200182016040528015620024b6576020820181803683370190505b5083518351919250906000805b8381146200255357868181518110620024ec57634e487b7160e01b600052603260045260246000fd5b01602001516001600160f81b0319168583620025088162003246565b9450815181106200252957634e487b7160e01b600052603260045260246000fd5b60200101906001600160f81b031916908160001a9053506200254b8162003246565b9050620024c3565b5060005b828114620025e7578581815181106200258057634e487b7160e01b600052603260045260246000fd5b01602001516001600160f81b03191685836200259c8162003246565b945081518110620025bd57634e487b7160e01b600052603260045260246000fd5b60200101906001600160f81b031916908160001a905350620025df8162003246565b905062002557565b509298975050505050505050565b60006200261e60405180604001604052806004815260200163596f203160e01b81525062002311565b600060405180602001620026329062002c7f565b601f1982820381018352601f9091011660408190526200265b908790879087906020016200309b565b60408051601f19818403018152908290526200267b929160200162002f92565b60408051601f1981840301815282820190915260048252632cb7901960e11b60208301529150620026ac9062002311565b600085858542604051602001620026c7949392919062002fc5565b6040516020818303038152906040528051906020012090506200270660405180604001604052806004815260200163596f203360e01b81525062002311565b6000818351602085016000f590506200273b60405180604001604052806004815260200163165bc80d60e21b81525062002311565b6001600160a01b0381166200279e5760405162461bcd60e51b815260206004820152602260248201527f437265617465323a204661696c6564206f6e2063726561746520535020746f6b60448201526132b760f11b606482015260840162000621565b620027c560405180604001604052806004815260200163596f203560e01b81525062002311565b620027d08162002a74565b9695505050505050565b6000818152600183016020526040812054620028235750815460018181018455600084815260208082209093018490558454848252828601909352604090209190915562001a30565b50600062001a30565b600062002883826040518060400160405280602081526020017f5361666545524332303a206c6f772d6c6576656c2063616c6c206661696c6564815250856001600160a01b031662002abe9092919063ffffffff16565b9050805160001480620028a7575080806020019051810190620028a7919062002d6e565b62001fe95760405162461bcd60e51b815260206004820152602a60248201527f5361666545524332303a204552433230206f7065726174696f6e20646964206e6044820152691bdd081cdd58d8d9595960b21b606482015260840162000621565b620023588162002ad7565b60008260000182815481106200293957634e487b7160e01b600052603260045260246000fd5b9060005260206000200154905092915050565b6000818152600183016020526040812054801562002a6957600062002973600183620031fd565b85549091506000906200298990600190620031fd565b905081811462002a0d576000866000018281548110620029b957634e487b7160e01b600052603260045260246000fd5b9060005260206000200154905080876000018481548110620029eb57634e487b7160e01b600052603260045260246000fd5b6000918252602080832090910192909255918252600188019052604090208390555b855486908062002a2d57634e487b7160e01b600052603160045260246000fd5b60019003818190600052602060002001600090559055856001016000868152602001908152602001600020600090556001935050505062001a30565b600091505062001a30565b6040516001600160a01b0382166024820152620023589060440160408051601f198184030181529190526020810180516001600160e01b031663161765e160e11b17905262002908565b606062002acf848460008562002af8565b949350505050565b60006a636f6e736f6c652e6c6f679050600080835160208501845afa505050565b60608247101562002b5b5760405162461bcd60e51b815260206004820152602660248201527f416464726573733a20696e73756666696369656e742062616c616e636520666f6044820152651c8818d85b1b60d21b606482015260840162000621565b600080866001600160a01b0316858760405162002b79919062002f74565b60006040518083038185875af1925050503d806000811462002bb8576040519150601f19603f3d011682016040523d82523d6000602084013e62002bbd565b606091505b509150915062002bd08783838762002bdb565b979650505050505050565b6060831562002c4c57825162002c44576001600160a01b0385163b62002c445760405162461bcd60e51b815260206004820152601d60248201527f416464726573733a2063616c6c20746f206e6f6e2d636f6e7472616374000000604482015260640162000621565b508162002acf565b62002acf838381511562002c635781518083602001fd5b8060405162461bcd60e51b81526004016200062191906200305a565b6110e480620032b683390190565b60006020828403121562002c9f578081fd5b8135620022028162003290565b6000806000806080858703121562002cc2578283fd5b843562002ccf8162003290565b9350602085013562002ce18162003290565b9250604085013562002cf38162003290565b9396929550929360600135925050565b6000806040838503121562002d16578182fd5b823562002d238162003290565b9150602083013562002d3581620032a6565b809150509250929050565b6000806040838503121562002d53578182fd5b823562002d608162003290565b946020939093013593505050565b60006020828403121562002d80578081fd5b81516200220281620032a6565b60008060006060848603121562002da2578283fd5b833562002daf8162003290565b95602085013595506040909401359392505050565b60006020828403121562002dd6578081fd5b815167ffffffffffffffff8082111562002dee578283fd5b818401915084601f83011262002e02578283fd5b81518181111562002e175762002e176200327a565b604051601f8201601f19908116603f0116810190838211818310171562002e425762002e426200327a565b8160405282815287602084870101111562002e5b578586fd5b62002bd083602083016020880162003217565b60006020828403121562002e80578081fd5b5035919050565b60006020828403121562002e99578081fd5b5051919050565b6000806040838503121562002eb3578182fd5b82359150602083013562002d358162003290565b60008060006060848603121562002edc578283fd5b83359250602084013562002ef08162003290565b929592945050506040919091013590565b6000806040838503121562002f14578182fd5b50508035926020909101359150565b60006020828403121562002f35578081fd5b815160ff8116811462002202578182fd5b6000815180845262002f6081602086016020860162003217565b601f01601f19169290920160200192915050565b6000825162002f8881846020870162003217565b9190910192915050565b6000835162002fa681846020880162003217565b83519083019062002fbc81836020880162003217565b01949350505050565b6000855162002fd9818460208a0162003217565b85519083019062002fef818360208a0162003217565b60f89590951b6001600160f81b03191694019384525050600182015260210192915050565b6020808252825182820181905260009190848201906040850190845b818110156200304e5783518352928401929184019160010162003030565b50909695505050505050565b60006020825262002202602083018462002f46565b60006040825262003084604083018562002f46565b905060018060a01b03831660208301529392505050565b600060608252620030b0606083018662002f46565b8281036020840152620030c4818662002f46565b91505060ff83166040830152949350505050565b600060408252620030ed604083018562002f46565b90508260208301529392505050565b60208082526018908201527f6e6f7420626f72726f7720766973746f7220616c6c6f772e0000000000000000604082015260600190565b6020808252600e908201526d1a5b9d985b1a5908185b5bdd5b9d60921b604082015260600190565b60208082526024908201527f546865206d6178696d756d20726174696f20686173206265656e2065786365656040820152633232b21760e11b606082015260800190565b60008219821115620031b557620031b562003264565b500190565b600082620031d657634e487b7160e01b81526012600452602481fd5b500490565b6000816000190483118215151615620031f857620031f862003264565b500290565b60008282101562003212576200321262003264565b500390565b60005b83811015620032345781810151838201526020016200321a565b8381111562000c4b5750506000910152565b60006000198214156200325d576200325d62003264565b5060010190565b634e487b7160e01b600052601160045260246000fd5b634e487b7160e01b600052604160045260246000fd5b6001600160a01b03811681146200235857600080fd5b80151581146200235857600080fdfe60806040526005805460ff60a01b1916600960a11b1790553480156200002457600080fd5b50604051620010e4380380620010e4833981016040819052620000479162000269565b8251839083906200006090600390602085019062000110565b5080516200007690600490602084019062000110565b505050620000936200008d620000ba60201b60201c565b620000be565b6005805460ff909216600160a01b0260ff60a01b19909216919091179055506200033d9050565b3390565b600580546001600160a01b038381166001600160a01b0319831681179093556040519116919082907f8be0079c531659141344cd1fd0a4f28419497f9722a3daafe3b4186f6b6457e090600090a35050565b8280546200011e90620002ea565b90600052602060002090601f0160209004810192826200014257600085556200018d565b82601f106200015d57805160ff19168380011785556200018d565b828001600101855582156200018d579182015b828111156200018d57825182559160200191906001019062000170565b506200019b9291506200019f565b5090565b5b808211156200019b5760008155600101620001a0565b600082601f830112620001c7578081fd5b81516001600160401b0380821115620001e457620001e462000327565b604051601f8301601f19908116603f011681019082821181831017156200020f576200020f62000327565b816040528381526020925086838588010111156200022b578485fd5b8491505b838210156200024e57858201830151818301840152908201906200022f565b838211156200025f57848385830101525b9695505050505050565b6000806000606084860312156200027e578283fd5b83516001600160401b038082111562000295578485fd5b620002a387838801620001b6565b94506020860151915080821115620002b9578384fd5b50620002c886828701620001b6565b925050604084015160ff81168114620002df578182fd5b809150509250925092565b600281046001821680620002ff57607f821691505b602082108114156200032157634e487b7160e01b600052602260045260246000fd5b50919050565b634e487b7160e01b600052604160045260246000fd5b610d97806200034d6000396000f3fe608060405234801561001057600080fd5b50600436106101005760003560e01c8063715018a611610097578063a457c2d711610066578063a457c2d714610209578063a9059cbb1461021c578063dd62ed3e1461022f578063f2fde38b1461024257610100565b8063715018a6146101cb5780638da5cb5b146101d357806395d89b41146101ee5780639dc29fac146101f657610100565b8063313ce567116100d3578063313ce5671461016b578063395093511461019057806340c10f19146101a357806370a08231146101b857610100565b806306fdde0314610105578063095ea7b31461012357806318160ddd1461014657806323b872dd14610158575b600080fd5b61010d610255565b60405161011a9190610caf565b60405180910390f35b610136610131366004610c86565b6102e7565b604051901515815260200161011a565b6002545b60405190815260200161011a565b610136610166366004610c4b565b6102ff565b61017e600554600160a01b900460ff1690565b60405160ff909116815260200161011a565b61013661019e366004610c86565b610398565b6101b66101b1366004610c86565b6103ba565b005b61014a6101c6366004610bff565b6103d0565b6101b66103ef565b6005546040516001600160a01b03909116815260200161011a565b61010d610403565b6101b6610204366004610c86565b610412565b610136610217366004610c86565b610424565b61013661022a366004610c86565b6104af565b61014a61023d366004610c19565b610544565b6101b6610250366004610bff565b61056f565b60606003805461026490610d26565b80601f016020809104026020016040519081016040528092919081815260200182805461029090610d26565b80156102dd5780601f106102b2576101008083540402835291602001916102dd565b820191906000526020600020905b8154815290600101906020018083116102c057829003601f168201915b5050505050905090565b6000336102f58185856105e8565b5060019392505050565b60006103136005546001600160a01b031690565b6040516314f8648960e31b81523060048201526001600160a01b038681166024830152858116604483015260648201859052919091169063a7c3244890608401600060405180830381600087803b15801561036d57600080fd5b505af1158015610381573d6000803e3d6000fd5b5050505061039084848461070d565b949350505050565b6000336102f58185856103ab8383610544565b6103b59190610d02565b6105e8565b6103c2610726565b6103cc8282610780565b5050565b6001600160a01b0381166000908152602081905260409020545b919050565b6103f7610726565b6104016000610840565b565b60606004805461026490610d26565b61041a610726565b6103cc8282610892565b600033816104328286610544565b9050838110156104975760405162461bcd60e51b815260206004820152602560248201527f45524332303a2064656372656173656420616c6c6f77616e63652062656c6f77604482015264207a65726f60d81b60648201526084015b60405180910390fd5b6104a482868684036105e8565b506001949350505050565b60006104c36005546001600160a01b031690565b6040516314f8648960e31b81523060048201523360248201526001600160a01b03858116604483015260648201859052919091169063a7c3244890608401600060405180830381600087803b15801561051b57600080fd5b505af115801561052f573d6000803e3d6000fd5b5050505061053d83836109bc565b9392505050565b6001600160a01b03918216600090815260016020908152604080832093909416825291909152205490565b610577610726565b6001600160a01b0381166105dc5760405162461bcd60e51b815260206004820152602660248201527f4f776e61626c653a206e6577206f776e657220697320746865207a65726f206160448201526564647265737360d01b606482015260840161048e565b6105e581610840565b50565b6001600160a01b03831661064a5760405162461bcd60e51b8152602060048201526024808201527f45524332303a20617070726f76652066726f6d20746865207a65726f206164646044820152637265737360e01b606482015260840161048e565b6001600160a01b0382166106ab5760405162461bcd60e51b815260206004820152602260248201527f45524332303a20617070726f766520746f20746865207a65726f206164647265604482015261737360f01b606482015260840161048e565b6001600160a01b0383811660008181526001602090815260408083209487168084529482529182902085905590518481527f8c5be1e5ebec7d5bd14f71427d1e84f3dd0314c0f7b2291e5b200ac8c7c3b92591015b60405180910390a3505050565b60003361071b8582856109ca565b6104a4858585610a44565b6005546001600160a01b031633146104015760405162461bcd60e51b815260206004820181905260248201527f4f776e61626c653a2063616c6c6572206973206e6f7420746865206f776e6572604482015260640161048e565b6001600160a01b0382166107d65760405162461bcd60e51b815260206004820152601f60248201527f45524332303a206d696e7420746f20746865207a65726f206164647265737300604482015260640161048e565b80600260008282546107e89190610d02565b90915550506001600160a01b038216600081815260208181526040808320805486019055518481527fddf252ad1be2c89b69c2b068fc378daa952ba7f163c4a11628f55a4df523b3ef910160405180910390a36103cc565b600580546001600160a01b038381166001600160a01b0319831681179093556040519116919082907f8be0079c531659141344cd1fd0a4f28419497f9722a3daafe3b4186f6b6457e090600090a35050565b6001600160a01b0382166108f25760405162461bcd60e51b815260206004820152602160248201527f45524332303a206275726e2066726f6d20746865207a65726f206164647265736044820152607360f81b606482015260840161048e565b6001600160a01b038216600090815260208190526040902054818110156109665760405162461bcd60e51b815260206004820152602260248201527f45524332303a206275726e20616d6f756e7420657863656564732062616c616e604482015261636560f01b606482015260840161048e565b6001600160a01b0383166000818152602081815260408083208686039055600280548790039055518581529192917fddf252ad1be2c89b69c2b068fc378daa952ba7f163c4a11628f55a4df523b3ef9101610700565b6000336102f5818585610a44565b60006109d68484610544565b90506000198114610a3e5781811015610a315760405162461bcd60e51b815260206004820152601d60248201527f45524332303a20696e73756666696369656e7420616c6c6f77616e6365000000604482015260640161048e565b610a3e84848484036105e8565b50505050565b6001600160a01b038316610aa85760405162461bcd60e51b815260206004820152602560248201527f45524332303a207472616e736665722066726f6d20746865207a65726f206164604482015264647265737360d81b606482015260840161048e565b6001600160a01b038216610b0a5760405162461bcd60e51b815260206004820152602360248201527f45524332303a207472616e7366657220746f20746865207a65726f206164647260448201526265737360e81b606482015260840161048e565b6001600160a01b03831660009081526020819052604090205481811015610b825760405162461bcd60e51b815260206004820152602660248201527f45524332303a207472616e7366657220616d6f756e7420657863656564732062604482015265616c616e636560d01b606482015260840161048e565b6001600160a01b03848116600081815260208181526040808320878703905593871680835291849020805487019055925185815290927fddf252ad1be2c89b69c2b068fc378daa952ba7f163c4a11628f55a4df523b3ef910160405180910390a3610a3e565b80356001600160a01b03811681146103ea57600080fd5b600060208284031215610c10578081fd5b61053d82610be8565b60008060408385031215610c2b578081fd5b610c3483610be8565b9150610c4260208401610be8565b90509250929050565b600080600060608486031215610c5f578081fd5b610c6884610be8565b9250610c7660208501610be8565b9150604084013590509250925092565b60008060408385031215610c98578182fd5b610ca183610be8565b946020939093013593505050565b6000602080835283518082850152825b81811015610cdb57858101830151858201604001528201610cbf565b81811115610cec5783604083870101525b50601f01601f1916929092016040019392505050565b60008219821115610d2157634e487b7160e01b81526011600452602481fd5b500190565b600281046001821680610d3a57607f821691505b60208210811415610d5b57634e487b7160e01b600052602260045260246000fd5b5091905056fea26469706673582212200bde55648828f758e47d45aae5be369919838f92e17064f7131948dc1808f37b64736f6c63430008020033646f496e697469616c697a65205f696e746572657374506c6174666f726d52617465a2646970667358221220b19edd4f6b42dc49a786aa185a1f259afec119815316bc7216b372b64a89489864736f6c63430008020033",
  "linkReferences": {},
  "deployedLinkReferences": {}
}