{
  "_format": "hh-sol-artifact-1",
  "contractName": "QuadraticLendCompound",
  "sourceName": "contracts/lendborrow/QuadraticLendCompound.sol",
  "abi": [
    {
      "anonymous": false,
      "inputs": [
        {
          "indexed": true,
          "internalType": "address",
          "name": "user",
          "type": "address"
        },
        {
          "indexed": false,
          "internalType": "address",
          "name": "token",
          "type": "address"
        },
        {
          "indexed": false,
          "internalType": "uint256",
          "name": "allocpoint",
          "type": "uint256"
        },
        {
          "indexed": false,
          "internalType": "bool",
          "name": "withUpdate",
          "type": "bool"
        }
      ],
      "name": "AddPoolEvent",
      "type": "event"
    },
    {
      "anonymous": false,
      "inputs": [
        {
          "indexed": true,
          "internalType": "address",
          "name": "sender",
          "type": "address"
        },
        {
          "indexed": false,
          "internalType": "address",
          "name": "recipient",
          "type": "address"
        },
        {
          "indexed": false,
          "internalType": "address",
          "name": "spToken",
          "type": "address"
        },
        {
          "indexed": false,
          "internalType": "uint256",
          "name": "amount",
          "type": "uint256"
        },
        {
          "indexed": false,
          "internalType": "uint256",
          "name": "interests",
          "type": "uint256"
        },
        {
          "indexed": false,
          "internalType": "uint256",
          "name": "platFormInterests",
          "type": "uint256"
        }
      ],
      "name": "DoAfterLpTransferEvent",
      "type": "event"
    },
    {
      "anonymous": false,
      "inputs": [
        {
          "indexed": true,
          "internalType": "address",
          "name": "sender",
          "type": "address"
        },
        {
          "indexed": false,
          "internalType": "uint256",
          "name": "pid",
          "type": "uint256"
        },
        {
          "indexed": false,
          "internalType": "uint256",
          "name": "amount",
          "type": "uint256"
        }
      ],
      "name": "FunderClaimEvent",
      "type": "event"
    },
    {
      "anonymous": false,
      "inputs": [
        {
          "indexed": true,
          "internalType": "address",
          "name": "previousOwner",
          "type": "address"
        },
        {
          "indexed": true,
          "internalType": "address",
          "name": "newOwner",
          "type": "address"
        }
      ],
      "name": "GovernanceTransferred",
      "type": "event"
    },
    {
      "anonymous": false,
      "inputs": [
        {
          "indexed": false,
          "internalType": "uint8",
          "name": "version",
          "type": "uint8"
        }
      ],
      "name": "Initialized",
      "type": "event"
    },
    {
      "anonymous": false,
      "inputs": [
        {
          "indexed": true,
          "internalType": "address",
          "name": "sender",
          "type": "address"
        },
        {
          "indexed": false,
          "internalType": "address",
          "name": "toUser",
          "type": "address"
        },
        {
          "indexed": false,
          "internalType": "uint256",
          "name": "pid",
          "type": "uint256"
        },
        {
          "indexed": false,
          "internalType": "uint256",
          "name": "amount",
          "type": "uint256"
        }
      ],
      "name": "LoanTransferTokenEvent",
      "type": "event"
    },
    {
      "anonymous": false,
      "inputs": [
        {
          "indexed": true,
          "internalType": "address",
          "name": "sender",
          "type": "address"
        },
        {
          "indexed": false,
          "internalType": "uint256",
          "name": "pid",
          "type": "uint256"
        },
        {
          "indexed": false,
          "internalType": "bool",
          "name": "flag",
          "type": "bool"
        }
      ],
      "name": "PausePoolEvent",
      "type": "event"
    },
    {
      "anonymous": false,
      "inputs": [
        {
          "indexed": false,
          "internalType": "address",
          "name": "account",
          "type": "address"
        }
      ],
      "name": "Paused",
      "type": "event"
    },
    {
      "anonymous": false,
      "inputs": [
        {
          "indexed": true,
          "internalType": "address",
          "name": "sender",
          "type": "address"
        },
        {
          "indexed": false,
          "internalType": "uint256",
          "name": "pid",
          "type": "uint256"
        },
        {
          "indexed": false,
          "internalType": "uint256",
          "name": "amount",
          "type": "uint256"
        }
      ],
      "name": "RepayTransferTokenEvent",
      "type": "event"
    },
    {
      "anonymous": false,
      "inputs": [
        {
          "indexed": true,
          "internalType": "bytes32",
          "name": "role",
          "type": "bytes32"
        },
        {
          "indexed": true,
          "internalType": "address",
          "name": "account",
          "type": "address"
        },
        {
          "indexed": true,
          "internalType": "address",
          "name": "sender",
          "type": "address"
        }
      ],
      "name": "RoleGranted",
      "type": "event"
    },
    {
      "anonymous": false,
      "inputs": [
        {
          "indexed": true,
          "internalType": "bytes32",
          "name": "role",
          "type": "bytes32"
        },
        {
          "indexed": true,
          "internalType": "address",
          "name": "account",
          "type": "address"
        },
        {
          "indexed": true,
          "internalType": "address",
          "name": "sender",
          "type": "address"
        }
      ],
      "name": "RoleRevoked",
      "type": "event"
    },
    {
      "anonymous": false,
      "inputs": [
        {
          "indexed": true,
          "internalType": "address",
          "name": "sender",
          "type": "address"
        },
        {
          "indexed": false,
          "internalType": "address",
          "name": "contractAddr",
          "type": "address"
        },
        {
          "indexed": false,
          "internalType": "bool",
          "name": "flag",
          "type": "bool"
        }
      ],
      "name": "SetAuthContractAccessEvent",
      "type": "event"
    },
    {
      "anonymous": false,
      "inputs": [
        {
          "indexed": true,
          "internalType": "address",
          "name": "sender",
          "type": "address"
        },
        {
          "indexed": false,
          "internalType": "address",
          "name": "beforeVal",
          "type": "address"
        },
        {
          "indexed": false,
          "internalType": "address",
          "name": "afterVal",
          "type": "address"
        }
      ],
      "name": "SetFunderEvent",
      "type": "event"
    },
    {
      "anonymous": false,
      "inputs": [
        {
          "indexed": true,
          "internalType": "address",
          "name": "sender",
          "type": "address"
        },
        {
          "indexed": false,
          "internalType": "uint256",
          "name": "beforeValue",
          "type": "uint256"
        },
        {
          "indexed": false,
          "internalType": "uint256",
          "name": "afterValue",
          "type": "uint256"
        }
      ],
      "name": "SetInterestPlatformRateEvent",
      "type": "event"
    },
    {
      "anonymous": false,
      "inputs": [
        {
          "indexed": true,
          "internalType": "address",
          "name": "sender",
          "type": "address"
        },
        {
          "indexed": false,
          "internalType": "uint256",
          "name": "beforeRate",
          "type": "uint256"
        },
        {
          "indexed": false,
          "internalType": "uint256",
          "name": "afterRate",
          "type": "uint256"
        }
      ],
      "name": "SetMaxBorrowRateEvent",
      "type": "event"
    },
    {
      "anonymous": false,
      "inputs": [
        {
          "indexed": true,
          "internalType": "address",
          "name": "sender",
          "type": "address"
        },
        {
          "indexed": false,
          "internalType": "uint256",
          "name": "pid",
          "type": "uint256"
        },
        {
          "indexed": false,
          "internalType": "uint256",
          "name": "amount",
          "type": "uint256"
        }
      ],
      "name": "SettlementRepayTransferTokenEvent",
      "type": "event"
    },
    {
      "anonymous": false,
      "inputs": [
        {
          "indexed": true,
          "internalType": "address",
          "name": "sender",
          "type": "address"
        },
        {
          "indexed": false,
          "internalType": "uint256",
          "name": "pid",
          "type": "uint256"
        },
        {
          "indexed": false,
          "internalType": "uint256",
          "name": "amount",
          "type": "uint256"
        }
      ],
      "name": "TransferToAuctionUpBorrowEvent",
      "type": "event"
    },
    {
      "anonymous": false,
      "inputs": [
        {
          "indexed": false,
          "internalType": "address",
          "name": "account",
          "type": "address"
        }
      ],
      "name": "Unpaused",
      "type": "event"
    },
    {
      "anonymous": false,
      "inputs": [
        {
          "indexed": true,
          "internalType": "address",
          "name": "user",
          "type": "address"
        },
        {
          "indexed": false,
          "internalType": "uint256",
          "name": "pid",
          "type": "uint256"
        },
        {
          "indexed": false,
          "internalType": "uint256",
          "name": "amount",
          "type": "uint256"
        }
      ],
      "name": "UserLend",
      "type": "event"
    },
    {
      "anonymous": false,
      "inputs": [
        {
          "indexed": true,
          "internalType": "address",
          "name": "user",
          "type": "address"
        },
        {
          "indexed": false,
          "internalType": "uint256",
          "name": "pid",
          "type": "uint256"
        },
        {
          "indexed": false,
          "internalType": "uint256",
          "name": "amount",
          "type": "uint256"
        },
        {
          "indexed": false,
          "internalType": "uint256",
          "name": "interests",
          "type": "uint256"
        },
        {
          "indexed": false,
          "internalType": "uint256",
          "name": "platFormInterests",
          "type": "uint256"
        }
      ],
      "name": "UserRedeem",
      "type": "event"
    },
    {
      "inputs": [],
      "name": "PAUSER_ROLE",
      "outputs": [
        {
          "internalType": "bytes32",
          "name": "",
          "type": "bytes32"
        }
      ],
      "stateMutability": "view",
      "type": "function"
    },
    {
      "inputs": [],
      "name": "_governance",
      "outputs": [
        {
          "internalType": "address",
          "name": "",
          "type": "address"
        }
      ],
      "stateMutability": "view",
      "type": "function"
    },
    {
      "inputs": [
        {
          "internalType": "contract ERC20",
          "name": "_token",
          "type": "address"
        },
        {
          "internalType": "bool",
          "name": "_withUpdate",
          "type": "bool"
        }
      ],
      "name": "addPool",
      "outputs": [],
      "stateMutability": "nonpayable",
      "type": "function"
    },
    {
      "inputs": [
        {
          "internalType": "address",
          "name": "",
          "type": "address"
        }
      ],
      "name": "authContractAccessMap",
      "outputs": [
        {
          "internalType": "bool",
          "name": "",
          "type": "bool"
        }
      ],
      "stateMutability": "view",
      "type": "function"
    },
    {
      "inputs": [],
      "name": "borrowCompound",
      "outputs": [
        {
          "internalType": "contract IQuadraticBorrowCompound",
          "name": "",
          "type": "address"
        }
      ],
      "stateMutability": "view",
      "type": "function"
    },
    {
      "inputs": [
        {
          "internalType": "address",
          "name": "_token",
          "type": "address"
        }
      ],
      "name": "checkPoolPause",
      "outputs": [],
      "stateMutability": "view",
      "type": "function"
    },
    {
      "inputs": [
        {
          "internalType": "address",
          "name": "spToken",
          "type": "address"
        },
        {
          "internalType": "address",
          "name": "sender",
          "type": "address"
        },
        {
          "internalType": "address",
          "name": "recipient",
          "type": "address"
        },
        {
          "internalType": "uint256",
          "name": "amount",
          "type": "uint256"
        }
      ],
      "name": "doAfterLpTransfer",
      "outputs": [],
      "stateMutability": "nonpayable",
      "type": "function"
    },
    {
      "inputs": [
        {
          "internalType": "contract IQuadraticBorrowCompound",
          "name": "_borrowCompound",
          "type": "address"
        },
        {
          "internalType": "uint256",
          "name": "_maxBorrowRate",
          "type": "uint256"
        },
        {
          "internalType": "uint256",
          "name": "_interestPlatformRate",
          "type": "uint256"
        }
      ],
      "name": "doInitialize",
      "outputs": [],
      "stateMutability": "nonpayable",
      "type": "function"
    },
    {
      "inputs": [],
      "name": "funder",
      "outputs": [
        {
          "internalType": "address",
          "name": "",
          "type": "address"
        }
      ],
      "stateMutability": "view",
      "type": "function"
    },
    {
      "inputs": [
        {
          "internalType": "uint256",
          "name": "_pid",
          "type": "uint256"
        },
        {
          "internalType": "uint256",
          "name": "_amount",
          "type": "uint256"
        }
      ],
      "name": "funderClaim",
      "outputs": [],
      "stateMutability": "nonpayable",
      "type": "function"
    },
    {
      "inputs": [
        {
          "internalType": "uint256",
          "name": "",
          "type": "uint256"
        }
      ],
      "name": "funderPoolInterest",
      "outputs": [
        {
          "internalType": "uint256",
          "name": "",
          "type": "uint256"
        }
      ],
      "stateMutability": "view",
      "type": "function"
    },
    {
      "inputs": [
        {
          "internalType": "address",
          "name": "owner",
          "type": "address"
        }
      ],
      "name": "getLendPoolIdsOfOwner",
      "outputs": [
        {
          "internalType": "uint256[]",
          "name": "",
          "type": "uint256[]"
        }
      ],
      "stateMutability": "view",
      "type": "function"
    },
    {
      "inputs": [],
      "name": "getPoolLength",
      "outputs": [
        {
          "internalType": "uint256",
          "name": "poolLength",
          "type": "uint256"
        }
      ],
      "stateMutability": "view",
      "type": "function"
    },
    {
      "inputs": [
        {
          "internalType": "bytes32",
          "name": "role",
          "type": "bytes32"
        },
        {
          "internalType": "address",
          "name": "account",
          "type": "address"
        }
      ],
      "name": "grantRole",
      "outputs": [],
      "stateMutability": "nonpayable",
      "type": "function"
    },
    {
      "inputs": [
        {
          "internalType": "bytes32",
          "name": "role",
          "type": "bytes32"
        },
        {
          "internalType": "address",
          "name": "account",
          "type": "address"
        }
      ],
      "name": "hasRole",
      "outputs": [
        {
          "internalType": "bool",
          "name": "",
          "type": "bool"
        }
      ],
      "stateMutability": "view",
      "type": "function"
    },
    {
      "inputs": [],
      "name": "interestPlatformRate",
      "outputs": [
        {
          "internalType": "uint256",
          "name": "",
          "type": "uint256"
        }
      ],
      "stateMutability": "view",
      "type": "function"
    },
    {
      "inputs": [
        {
          "internalType": "uint256",
          "name": "",
          "type": "uint256"
        }
      ],
      "name": "lendPoolInfo",
      "outputs": [
        {
          "internalType": "address",
          "name": "token",
          "type": "address"
        },
        {
          "internalType": "address",
          "name": "spToken",
          "type": "address"
        },
        {
          "internalType": "uint256",
          "name": "curSupply",
          "type": "uint256"
        },
        {
          "internalType": "uint256",
          "name": "curBorrow",
          "type": "uint256"
        },
        {
          "internalType": "uint256",
          "name": "totalRecvInterests",
          "type": "uint256"
        }
      ],
      "stateMutability": "view",
      "type": "function"
    },
    {
      "inputs": [
        {
          "internalType": "address",
          "name": "",
          "type": "address"
        },
        {
          "internalType": "uint256",
          "name": "",
          "type": "uint256"
        }
      ],
      "name": "lendUserInfos",
      "outputs": [
        {
          "internalType": "uint256",
          "name": "lastLendInterestShare",
          "type": "uint256"
        },
        {
          "internalType": "uint256",
          "name": "unRecvInterests",
          "type": "uint256"
        },
        {
          "internalType": "uint256",
          "name": "currTotalLend",
          "type": "uint256"
        },
        {
          "internalType": "uint256",
          "name": "userDli",
          "type": "uint256"
        }
      ],
      "stateMutability": "view",
      "type": "function"
    },
    {
      "inputs": [
        {
          "internalType": "uint256",
          "name": "pid",
          "type": "uint256"
        },
        {
          "internalType": "address",
          "name": "toUser",
          "type": "address"
        },
        {
          "internalType": "uint256",
          "name": "amount",
          "type": "uint256"
        }
      ],
      "name": "loanTransferToken",
      "outputs": [],
      "stateMutability": "nonpayable",
      "type": "function"
    },
    {
      "inputs": [],
      "name": "maxBorrowRate",
      "outputs": [
        {
          "internalType": "uint256",
          "name": "",
          "type": "uint256"
        }
      ],
      "stateMutability": "view",
      "type": "function"
    },
    {
      "inputs": [],
      "name": "pause",
      "outputs": [],
      "stateMutability": "nonpayable",
      "type": "function"
    },
    {
      "inputs": [
        {
          "internalType": "uint256",
          "name": "_pid",
          "type": "uint256"
        }
      ],
      "name": "pausePool",
      "outputs": [],
      "stateMutability": "nonpayable",
      "type": "function"
    },
    {
      "inputs": [],
      "name": "paused",
      "outputs": [
        {
          "internalType": "bool",
          "name": "",
          "type": "bool"
        }
      ],
      "stateMutability": "view",
      "type": "function"
    },
    {
      "inputs": [
        {
          "internalType": "uint256",
          "name": "_pid",
          "type": "uint256"
        },
        {
          "internalType": "address",
          "name": "_user",
          "type": "address"
        }
      ],
      "name": "pendingRedeemInterests",
      "outputs": [
        {
          "internalType": "uint256",
          "name": "_lendInterests",
          "type": "uint256"
        },
        {
          "internalType": "uint256",
          "name": "_platFormInterests",
          "type": "uint256"
        }
      ],
      "stateMutability": "view",
      "type": "function"
    },
    {
      "inputs": [
        {
          "internalType": "uint256",
          "name": "pid",
          "type": "uint256"
        },
        {
          "internalType": "uint256",
          "name": "amount",
          "type": "uint256"
        }
      ],
      "name": "repayTransferToken",
      "outputs": [],
      "stateMutability": "nonpayable",
      "type": "function"
    },
    {
      "inputs": [
        {
          "internalType": "bytes32",
          "name": "role",
          "type": "bytes32"
        },
        {
          "internalType": "address",
          "name": "account",
          "type": "address"
        }
      ],
      "name": "revokeRole",
      "outputs": [],
      "stateMutability": "nonpayable",
      "type": "function"
    },
    {
      "inputs": [
        {
          "internalType": "address",
          "name": "_contractAddr",
          "type": "address"
        },
        {
          "internalType": "bool",
          "name": "_flag",
          "type": "bool"
        }
      ],
      "name": "setAuthContractAccess",
      "outputs": [],
      "stateMutability": "nonpayable",
      "type": "function"
    },
    {
      "inputs": [
        {
          "internalType": "address",
          "name": "_funder",
          "type": "address"
        }
      ],
      "name": "setFunder",
      "outputs": [],
      "stateMutability": "nonpayable",
      "type": "function"
    },
    {
      "inputs": [
        {
          "internalType": "address",
          "name": "governance",
          "type": "address"
        }
      ],
      "name": "setGovernance",
      "outputs": [],
      "stateMutability": "nonpayable",
      "type": "function"
    },
    {
      "inputs": [
        {
          "internalType": "uint256",
          "name": "_interestPlatformRate",
          "type": "uint256"
        }
      ],
      "name": "setInterestPlatformRate",
      "outputs": [],
      "stateMutability": "nonpayable",
      "type": "function"
    },
    {
      "inputs": [
        {
          "internalType": "uint256",
          "name": "_maxBorrowRate",
          "type": "uint256"
        }
      ],
      "name": "setMaxBorrowRate",
      "outputs": [],
      "stateMutability": "nonpayable",
      "type": "function"
    },
    {
      "inputs": [
        {
          "internalType": "uint256",
          "name": "pid",
          "type": "uint256"
        },
        {
          "internalType": "uint256",
          "name": "amount",
          "type": "uint256"
        }
      ],
      "name": "settlementRepayTransferToken",
      "outputs": [],
      "stateMutability": "nonpayable",
      "type": "function"
    },
    {
      "inputs": [
        {
          "internalType": "address",
          "name": "",
          "type": "address"
        }
      ],
      "name": "spTokenOfPid",
      "outputs": [
        {
          "internalType": "uint256",
          "name": "",
          "type": "uint256"
        }
      ],
      "stateMutability": "view",
      "type": "function"
    },
    {
      "inputs": [
        {
          "internalType": "address",
          "name": "",
          "type": "address"
        }
      ],
      "name": "tokenOfPid",
      "outputs": [
        {
          "internalType": "uint256",
          "name": "",
          "type": "uint256"
        }
      ],
      "stateMutability": "view",
      "type": "function"
    },
    {
      "inputs": [
        {
          "internalType": "uint256",
          "name": "pid",
          "type": "uint256"
        },
        {
          "internalType": "uint256",
          "name": "amount",
          "type": "uint256"
        }
      ],
      "name": "transferToAuctionUpBorrow",
      "outputs": [],
      "stateMutability": "nonpayable",
      "type": "function"
    },
    {
      "inputs": [],
      "name": "unpause",
      "outputs": [],
      "stateMutability": "nonpayable",
      "type": "function"
    },
    {
      "inputs": [
        {
          "internalType": "uint256",
          "name": "_pid",
          "type": "uint256"
        }
      ],
      "name": "unpausePool",
      "outputs": [],
      "stateMutability": "nonpayable",
      "type": "function"
    },
    {
      "inputs": [
        {
          "internalType": "uint256",
          "name": "_pid",
          "type": "uint256"
        },
        {
          "internalType": "uint256",
          "name": "_amount",
          "type": "uint256"
        }
      ],
      "name": "userLend",
      "outputs": [],
      "stateMutability": "nonpayable",
      "type": "function"
    },
    {
      "inputs": [
        {
          "internalType": "uint256",
          "name": "_pid",
          "type": "uint256"
        },
        {
          "internalType": "uint256",
          "name": "_amount",
          "type": "uint256"
        }
      ],
      "name": "userRedeem",
      "outputs": [
        {
          "internalType": "uint256",
          "name": "",
          "type": "uint256"
        }
      ],
      "stateMutability": "nonpayable",
      "type": "function"
    }
  ],
  "bytecode": "0x608060405234801561001057600080fd5b506000805460ff60a01b1932166001600160a81b0319909116179055600180556149438061003f6000396000f3fe60806040523480156200001157600080fd5b50600436106200026d5760003560e01c806364d8b80f1162000155578063b0bb003111620000c7578063d43bacc11162000086578063d43bacc11462000640578063d547741f1462000663578063defa58ac146200067a578063e63ab1e9146200068e578063ec510b3b14620006a557600080fd5b8063b0bb003114620005cf578063b13ae80414620005e6578063b3944d5214620005fd578063ccdcc8581462000606578063cd1fa12f146200062957600080fd5b80639cf0b43011620001145780639cf0b4301462000550578063a7c324481462000573578063a8bf7062146200058a578063ab033ea914620005a1578063ae8eaa0c14620005b857600080fd5b806364d8b80f14620004db5780637f25b67114620004f25780638456cb59146200051857806389a52cfc146200052257806391d14854146200053957600080fd5b80632c706e6211620001ef57806351f1a51f11620001ae57806351f1a51f146200046c57806357c25c6614620004835780635c975abb146200049a5780635e8ead7714620004ad5780635ea1748614620004c457600080fd5b80632c706e6214620003995780632f2ff15d14620003fd5780633401ab4414620004145780633f4ba83a146200044b5780634c0f9124146200045557600080fd5b806315ffbd19116200023c57806315ffbd1914620003205780631c2f3e3d14620003375780631fe7cacf146200034b57806320a1e88a14620003625780632a58d4ca146200036c57600080fd5b8063041ae8801462000272578063075f686614620002a35780630acc8cd114620002ee5780630fa42b5a1462000307575b600080fd5b600c5462000286906001600160a01b031681565b6040516001600160a01b0390911681526020015b60405180910390f35b620002ba620002b436600462003186565b620006bc565b604080516001600160a01b039687168152959094166020860152928401919091526060830152608082015260a0016200029a565b62000305620002ff366004620031b6565b6200070a565b005b62000311600d5481565b6040519081526020016200029a565b6200030562000331366004620031d6565b620007a4565b60005462000286906001600160a01b031681565b620003056200035c36600462003186565b62000a1e565b62000311600e5481565b620003836200037d366004620031f9565b62000ab0565b604080519283526020830191909152016200029a565b620003dc620003aa3660046200322c565b600460209081526000928352604080842090915290825290208054600182015460028301546003909301549192909184565b6040805194855260208501939093529183015260608201526080016200029a565b620003056200040e366004620031f9565b62000bf3565b6200043a62000425366004620031b6565b60096020526000908152604090205460ff1681565b60405190151581526020016200029a565b6200030562000c2c565b62000305620004663660046200325b565b62000c65565b620003056200047d366004620031d6565b62000e16565b620003056200049436600462003186565b62000fdd565b600054600160a01b900460ff166200043a565b62000305620004be36600462003186565b6200104b565b62000305620004d5366004620031d6565b6200118b565b62000305620004ec366004620032a2565b62001248565b6200050962000503366004620031b6565b6200132d565b6040516200029a9190620032d5565b620003056200141e565b6200030562000533366004620031b6565b62001490565b6200043a6200054a366004620031f9565b6200150b565b620003116200056136600462003186565b600f6020526000908152604090205481565b62000305620005843660046200331b565b62001538565b620003056200059b36600462003373565b620019ac565b62000305620005b2366004620031b6565b62001b97565b62000311620005c9366004620031d6565b62001c77565b62000305620005e0366004620032a2565b62001fd3565b62000305620005f736600462003186565b620023b2565b600b5462000311565b6200031162000617366004620031b6565b60066020526000908152604090205481565b620003056200063a366004620031d6565b620024ba565b6200031162000651366004620031b6565b60056020526000908152604090205481565b6200030562000674366004620031f9565b62002590565b600a5462000286906001600160a01b031681565b62000311600080516020620048ee83398151915281565b62000305620006b6366004620031d6565b620025c9565b600b8181548110620006cd57600080fd5b6000918252602090912060059091020180546001820154600283015460038401546004909401546001600160a01b03938416955091909216929085565b6000546001600160a01b03163314620007405760405162461bcd60e51b81526004016200073790620033ae565b60405180910390fd5b600c80546001600160a01b038381166001600160a01b0319831681179093556040805191909216808252602082019390935233917f7bdd8beff7d8411e2b81e553a7f28dd1d15b287f3a02a33f26ac4e4d7a5f866091015b60405180910390a25050565b620007ae6200270b565b620007b862002766565b60008111620008005760405162461bcd60e51b81526020600482015260136024820152721b195b99081a5b9d985b1a5908185b5bdd5b9d606a1b604482015260640162000737565b6000600b8381548110620008185762000818620033d6565b60009182526020909120600590910201805490915062000841906001600160a01b031662001490565b336000908152600460208181526040808420878552909152808320600a5491516308c7421360e41b815292830187905292916001600160a01b0390911690638c74213090602401602060405180830381865afa158015620008a6573d6000803e3d6000fd5b505050506040513d601f19601f82011682018060405250810190620008cc9190620033ec565b90506000620008dc863362000ab0565b5060018481018290558385558501546040516340c10f1960e01b8152336004820152602481018890529192506001600160a01b0316906340c10f1990604401600060405180830381600087803b1580156200093657600080fd5b505af11580156200094b573d6000803e3d6000fd5b505050600285015462000960915086620027b5565b60028501556200097086620027ca565b6002830154620009819086620027b5565b60028401556003830154620009979086620027b5565b6003840155336000908152600760205260409020620009b790876200282d565b508354620009d1906001600160a01b03163330886200283b565b604080518781526020810187905233917f5f1a8c54bcfd25f08c1e3a4eebe99c06a533c5e1275136d0d9eb1b517c44e2a9910160405180910390a25050505062000a1a60018055565b5050565b6000546001600160a01b0316331462000a4b5760405162461bcd60e51b81526004016200073790620033ae565b612710811062000a6f5760405162461bcd60e51b8152600401620007379062003406565b600e805490829055604080518281526020810184905233917f948e8b1938d4e599e9ca63988998041e722ffd1f32cca33174001002d80a51c4910162000798565b6001600160a01b0381811660009081526004602081815260408084208785528252808420815160808101835281548152600182015493810193909352600281015483830152600301546060830152600a5490516308c7421360e41b8152928301879052929384939192849290911690638c74213090602401602060405180830381865afa15801562000b46573d6000803e3d6000fd5b505050506040513d601f19601f8201168201806040525081019062000b6c9190620033ec565b905062000ba864e8d4a5100062000ba162000b95856000015185620028a890919063ffffffff16565b606086015190620028b6565b90620028c4565b935062000bc861271062000ba1600e5487620028b690919063ffffffff16565b602083015190935062000be89062000be18686620028a8565b90620027b5565b935050509250929050565b6000546001600160a01b0316331462000c205760405162461bcd60e51b81526004016200073790620033ae565b62000a1a8282620028d2565b6000546001600160a01b0316331462000c595760405162461bcd60e51b81526004016200073790620033ae565b62000c636200293e565b565b600354610100900460ff161580801562000c865750600354600160ff909116105b8062000ca25750303b15801562000ca2575060035460ff166001145b62000d075760405162461bcd60e51b815260206004820152602e60248201527f496e697469616c697a61626c653a20636f6e747261637420697320616c72656160448201526d191e481a5b9a5d1a585b1a5e995960921b606482015260840162000737565b6003805460ff19166001179055801562000d2b576003805461ff0019166101001790555b612710831062000d4f5760405162461bcd60e51b8152600401620007379062003406565b612710821062000d735760405162461bcd60e51b8152600401620007379062003406565b600080546001600160a01b0319163390811790915562000da490600080516020620048ee83398151915290620028d2565b600a80546001600160a01b0319166001600160a01b038616179055600d839055600e829055801562000e10576003805461ff0019169055604051600181527f7f26b83ff96e1f2b6a682f133852f6798a09c465da95921460cefb38474024989060200160405180910390a15b50505050565b600c546001600160a01b0316331462000e725760405162461bcd60e51b815260206004820152601860248201527f6e6f742066756e64657220766973746f7220616c6c6f772e0000000000000000604482015260640162000737565b62000eac600b838154811062000e8c5762000e8c620033d6565b60009182526020909120600590910201546001600160a01b031662001490565b6000828152600f60205260409020548181101562000efd5760405162461bcd60e51b815260206004820152600d60248201526c2bb937b7339030b6b7bab73a1760991b604482015260640162000737565b6000838152600f602052604090205462000f189083620028a8565b6000848152600f60205260409081902091909155600a54600c549151630971806560e21b8152600481018690526001600160a01b039283166024820152604481018590529116906325c6019490606401600060405180830381600087803b15801562000f8357600080fd5b505af115801562000f98573d6000803e3d6000fd5b505060408051868152602081018690523393507feb52865751bf5832b7c0bc5d822e259533c31650eff77ad238b0f5152f77fd2c9250015b60405180910390a2505050565b6000546001600160a01b031633146200100a5760405162461bcd60e51b81526004016200073790620033ae565b600d805490829055604080518281526020810184905233917fe0e514d2a747e2bb1e687d69d5da3cb84142ad1732f225910f286ee0499dd4b6910162000798565b600080516020620048ee8339815191526200106781336200150b565b620010b05760405162461bcd60e51b815260206004820152601860248201527730b1b1b7bab73a1034b99036b4b9b9b4b733903937b6329760411b604482015260640162000737565b6000600b8381548110620010c857620010c8620033d6565b60009182526020918290206040805160a081018252600590930290910180546001600160a01b0390811680855260018301549091169484019490945260028101549183019190915260038101546060830152600401546080820152915062001152907fe1518dcd454e34128041da7650fde1a12551e3e90f879a74ba9c344c4671632290620028d2565b604080518481526001602082015233917f8825f3b37c71ed68326b85768a26f08960100ff9ce5a70fea0d194f4d3be9d42910162000fd0565b600a546001600160a01b03163314620011b85760405162461bcd60e51b815260040162000737906200344a565b6000600b8381548110620011d057620011d0620033d6565b600091825260209091206005909102018054909150620011f9906001600160a01b031662001490565b60038101546200120a9083620028a8565b6003820155604080518481526020810184905233917f389144a1f21d201a5e5b2baa60c49d2dcfd383572f3da187b87896a11ea04bb2910162000fd0565b6000546001600160a01b03163314620012755760405162461bcd60e51b81526004016200073790620033ae565b6001600160a01b0382163b620012ce5760405162461bcd60e51b815260206004820181905260248201527f61646472657373206973206e6f7420636f6e747261637420616464726573732e604482015260640162000737565b6001600160a01b038216600081815260096020908152604091829020805460ff191685151590811790915582519384529083015233917fab556e6fb1c2da9757ce4b669164694513e9145ce709d877b1fa1af586a15b41910162000798565b6001600160a01b038116600090815260076020526040812060609190620013549062002995565b67ffffffffffffffff8111156200136f576200136f62003481565b60405190808252806020026020018201604052801562001399578160200160208202803683370190505b50905060005b6001600160a01b0384166000908152600760205260409020620013c29062002995565b81101562001417576001600160a01b0384166000908152600760205260409020620013ee9082620029a0565b828281518110620014035762001403620033d6565b60209081029190910101526001016200139f565b5092915050565b600080516020620048ee8339815191526200143a81336200150b565b620014835760405162461bcd60e51b815260206004820152601860248201527730b1b1b7bab73a1034b99036b4b9b9b4b733903937b6329760411b604482015260640162000737565b6200148d620029ae565b50565b620014bc7fe1518dcd454e34128041da7650fde1a12551e3e90f879a74ba9c344c46716322826200150b565b156200148d5760405162461bcd60e51b815260206004820152601d60248201527f5468697320706f6f6c20686173206265656e2073757370656e6465642e000000604482015260640162000737565b60008281526002602090815260408083206001600160a01b038516845290915290205460ff165b92915050565b3360009081526008602052604090205460ff16620015995760405162461bcd60e51b815260206004820152601960248201527f6e6f74207370546f6b656e20766973746f7220616c6c6f772e00000000000000604482015260640162000737565b6001600160a01b03841660009081526006602052604090205481620015d25760405162461bcd60e51b8152600401620007379062003497565b6000600b8281548110620015ea57620015ea620033d6565b60009182526020909120600590910201805490915062001613906001600160a01b031662001490565b6001600160a01b0385166000908152600460209081526040808320858452909152902060038101548411156200165d5760405162461bcd60e51b8152600401620007379062003497565b6200166883620027ca565b600a546040516308c7421360e41b8152600481018590526000916001600160a01b031690638c74213090602401602060405180830381865afa158015620016b3573d6000803e3d6000fd5b505050506040513d601f19601f82011682018060405250810190620016d99190620033ec565b9050600080620016ea868a62000ab0565b90925090506000620016fd8383620027b5565b6000600187015584865560048701549091506200171b9082620027b5565b60048701556002850154620017319089620028a8565b60028601556003850154620017479089620028a8565b600386018190556000036200177c576001600160a01b038a1660009081526007602052604090206200177a9088620029f4565b505b6001600160a01b03891660009081526004602090815260408083208a84529091529020620017ab888b62000ab0565b5060018201558481556002810154620017c5908a620027b5565b60028201556003810154620017db908a620027b5565b60038201556001600160a01b038a1660009081526007602052604090206200180490896200282d565b50831562001940576001600160a01b038b163b6200189257600a54604051630971806560e21b8152600481018a90526001600160a01b038d8116602483015260448201879052909116906325c60194906064015b600060405180830381600087803b1580156200187357600080fd5b505af115801562001888573d6000803e3d6000fd5b505050506200190e565b6001600160a01b038a163b620018e357600a54604051630971806560e21b8152600481018a90526001600160a01b038c8116602483015260448201879052909116906325c601949060640162001858565b6000888152600f6020526040902054620018fe9085620027b5565b6000898152600f60205260409020555b821562001940576000888152600f6020526040902054620019309084620027b5565b6000898152600f60205260409020555b604080516001600160a01b038c811682528e811660208301529181018b90526060810186905260808101859052908c16907fe1b0d32c87f69981815ebeec8587f988fca8d38ba96a1f95fa464a689d77c10b9060a00160405180910390a2505050505050505050505050565b600a546001600160a01b03163314620019d95760405162461bcd60e51b815260040162000737906200344a565b6000600b8481548110620019f157620019f1620033d6565b60009182526020909120600590910201805490915062001a1a906001600160a01b031662001490565b818160020154101562001a705760405162461bcd60e51b815260206004820152601860248201527f6e6f7420656e6f75676820616d6f756e7420626f72726f770000000000000000604482015260640162000737565b600281015462001a819083620028a8565b6002820155600381015462001a979083620027b5565b60038201819055600d546002830154909162001acb9162001ab891620027b5565b600384015462000ba190612710620028b6565b1062001b2d5760405162461bcd60e51b815260206004820152602a60248201527f457863656564696e6720746865206d6178696d756d20746f74616c206c656e6460448201526934b733903930ba34b79760b11b606482015260840162000737565b805462001b45906001600160a01b0316848462002a02565b604080516001600160a01b03851681526020810186905290810183905233907f09f90e6054a882887b38593d9ca349d2f233a40a420e104ef83db1076acacce09060600160405180910390a250505050565b6000546001600160a01b0316331462001bc45760405162461bcd60e51b81526004016200073790620033ae565b6001600160a01b03811662001c1c5760405162461bcd60e51b815260206004820152601f60248201527f6e657720676f7665726e616e636520746865207a65726f206164647265737300604482015260640162000737565b600080546040516001600160a01b03808516939216917f5f56bee8cffbe9a78652a74a60705edede02af10b0bbb888ca44b79a0d42ce8091a3600080546001600160a01b0319166001600160a01b0392909216919091179055565b600062001c836200270b565b62001c8d62002766565b6000600b848154811062001ca55762001ca5620033d6565b60009182526020909120600590910201805490915062001cce906001600160a01b031662001490565b3360009081526004602090815260408083208784529091529020600381015484111562001d0f5760405162461bcd60e51b8152600401620007379062003497565b600a546040516308c7421360e41b8152600481018790526000916001600160a01b031690638c74213090602401602060405180830381865afa15801562001d5a573d6000803e3d6000fd5b505050506040513d601f19601f8201168201806040525081019062001d809190620033ec565b905060008062001d91883362000ab0565b9092509050600062001da48383620027b5565b60006001870155848655600287015490915062001dc29089620028a8565b6002870155600486015462001dd89082620027b5565b600487015562001de889620027ca565b871562001e1c57600285015462001e009089620028a8565b6002860155600385015462001e169089620028a8565b60038601555b846003015460000362001e465733600090815260076020526040902062001e44908a620029f4565b505b871562001ece576001860154604051632770a7eb60e21b8152336004820152602481018a90526001600160a01b0390911690639dc29fac90604401600060405180830381600087803b15801562001e9c57600080fd5b505af115801562001eb1573d6000803e3d6000fd5b5050875462001ece92506001600160a01b03169050338a62002a02565b821562001f7757600a54604051630971806560e21b8152600481018b9052336024820152604481018590526001600160a01b03909116906325c6019490606401600060405180830381600087803b15801562001f2957600080fd5b505af115801562001f3e573d6000803e3d6000fd5b50505050600082111562001f77576000898152600f602052604090205462001f679083620027b5565b60008a8152600f60205260409020555b604080518a8152602081018a90529081018490526060810183905233907f216746704783cfb7f7363147c27e30b399b7740feee81db98166c1138b4265b29060800160405180910390a250909450505050506200153260018055565b6000546001600160a01b03163314620020005760405162461bcd60e51b81526004016200073790620033ae565b6001600160a01b038216600090815260056020526040902054156200205b5760405162461bcd60e51b815260206004820152601060248201526f2a37b5b2b71034b99032bc34b9ba399760811b604482015260640162000737565b6000620021886040518060400160405280601581526020017429bab838363c96a83937bb34b232b9102a37b5b2b760591b8152506200211d856001600160a01b03166395d89b416040518163ffffffff1660e01b8152600401600060405180830381865afa158015620020d2573d6000803e3d6000fd5b505050506040513d6000823e601f3d908101601f19168201604052620020fc9190810190620034e5565b60408051808201909152600381526253502d60e81b60208201529062002a39565b856001600160a01b031663313ce5676040518163ffffffff1660e01b8152600401602060405180830381865afa1580156200215c573d6000803e3d6000fd5b505050506040513d601f19601f8201168201806040525081019062002182919062003593565b62002ba8565b6040805160a0810182526001600160a01b0380871682528084166020830190815260009383018481526060840185815260808501868152600b80546001818101835598829052965160059097027f0175b7a638427703f0dbe7bb9bbf987a2551717b34e79f33b5b1008d1fa01db9810180549888166001600160a01b0319998a1617905594517f0175b7a638427703f0dbe7bb9bbf987a2551717b34e79f33b5b1008d1fa01dba860180549190971697169690961790945590517f0175b7a638427703f0dbe7bb9bbf987a2551717b34e79f33b5b1008d1fa01dbb830155517f0175b7a638427703f0dbe7bb9bbf987a2551717b34e79f33b5b1008d1fa01dbc82015590517f0175b7a638427703f0dbe7bb9bbf987a2551717b34e79f33b5b1008d1fa01dbd9091015554919250620022c191620035ce565b6001600160a01b0384811660008181526005602090815260408083208690558685168084526006835281842096909655600890915290819020805460ff19166001179055600a5490516306f21ab360e01b8152600481019290925260248201939093529116906306f21ab390604401600060405180830381600087803b1580156200234b57600080fd5b505af115801562002360573d6000803e3d6000fd5b5050604080516001600160a01b038716815260006020820152851515918101919091523392507f521c6b9d3195ce28fe3364e394e094b316853517a4163ca50efeb1bfe5af67f9915060600162000fd0565b6000546001600160a01b03163314620023df5760405162461bcd60e51b81526004016200073790620033ae565b6000600b8281548110620023f757620023f7620033d6565b60009182526020918290206040805160a081018252600590930290910180546001600160a01b0390811680855260018301549091169484019490945260028101549183019190915260038101546060830152600401546080820152915062002481907fe1518dcd454e34128041da7650fde1a12551e3e90f879a74ba9c344c467163229062002cba565b604080518381526000602082015233917f8825f3b37c71ed68326b85768a26f08960100ff9ce5a70fea0d194f4d3be9d42910162000798565b600a546001600160a01b03163314620024e75760405162461bcd60e51b815260040162000737906200344a565b6000600b8381548110620024ff57620024ff620033d6565b60009182526020909120600590910201805490915062002528906001600160a01b031662001490565b6002810154620025399083620027b5565b6002820155805462002557906001600160a01b03163330856200283b565b604080518481526020810184905233917f320eaf5ab3be2fad400866790df898ac58ac6687f0f3fbaf034647c3ceaff7f6910162000fd0565b6000546001600160a01b03163314620025bd5760405162461bcd60e51b81526004016200073790620033ae565b62000a1a828262002cba565b600a546001600160a01b03163314620025f65760405162461bcd60e51b815260040162000737906200344a565b6000600b83815481106200260e576200260e620033d6565b60009182526020909120600590910201805490915062002637906001600160a01b031662001490565b81816003015410156200268d5760405162461bcd60e51b815260206004820152601d60248201527f63757272656e7420626f72726f7720616d6f756e74206572726f722e20000000604482015260640162000737565b60028101546200269e9083620027b5565b60028201556003810154620026b49083620028a8565b60038201558054620026d2906001600160a01b03163330856200283b565b604080518481526020810184905233917fa187fd747daf1335504270b3baeb1a4ff675edd8533df517d4be58e7acf29650910162000fd0565b6002600154036200275f5760405162461bcd60e51b815260206004820152601f60248201527f5265656e7472616e637947756172643a207265656e7472616e742063616c6c00604482015260640162000737565b6002600155565b600054600160a01b900460ff161562000c635760405162461bcd60e51b815260206004820152601060248201526f14185d5cd8589b194e881c185d5cd95960821b604482015260640162000737565b6000620027c38284620035e4565b9392505050565b600a5460405163c6ce580560e01b8152600481018390526001600160a01b039091169063c6ce580590602401600060405180830381600087803b1580156200281157600080fd5b505af115801562002826573d6000803e3d6000fd5b5050505050565b6000620027c3838362002d24565b6040516001600160a01b038085166024830152831660448201526064810182905262000e109085906323b872dd60e01b906084015b60408051601f198184030181529190526020810180516001600160e01b03166001600160e01b03199093169290921790915262002d76565b6000620027c38284620035ce565b6000620027c38284620035fa565b6000620027c3828462003614565b620028de82826200150b565b62000a1a5760008281526002602090815260408083206001600160a01b0385168085529252808320805460ff1916600117905551339285917f2f8788117e7eff1d82e926ec794901d17c78024a50270940304540a733656f0d9190a45050565b6200294862002e52565b6000805460ff60a01b191690557f5db9ee0a495bf2e6ff9c91a7834c1ba4fdd244a5e8aa4e537bd38aeae4b073aa335b6040516001600160a01b03909116815260200160405180910390a1565b600062001532825490565b6000620027c3838362002ea4565b620029b862002766565b6000805460ff60a01b1916600160a01b1790557f62e78cea01bee320cd4e420270b5ea74000d11b0c9f74754ebdbfc544b05a258620029783390565b6000620027c3838362002ed1565b6040516001600160a01b03831660248201526044810182905262002a3490849063a9059cbb60e01b9060640162002870565b505050565b805182516060918491849160009162002a539190620035e4565b67ffffffffffffffff81111562002a6e5762002a6e62003481565b6040519080825280601f01601f19166020018201604052801562002a99576020820181803683370190505b5083518351919250906000805b83811462002b1e5786818151811062002ac35762002ac3620033d6565b01602001516001600160f81b031916858362002adf8162003637565b94508151811062002af45762002af4620033d6565b60200101906001600160f81b031916908160001a90535062002b168162003637565b905062002aa6565b5060005b82811462002b9a5785818151811062002b3f5762002b3f620033d6565b01602001516001600160f81b031916858362002b5b8162003637565b94508151811062002b705762002b70620033d6565b60200101906001600160f81b031916908160001a90535062002b928162003637565b905062002b22565b509298975050505050505050565b6000806040518060200162002bbd9062003178565b601f1982820381018352601f90910116604081905262002be69087908790879060200162003681565b60408051601f198184030181529082905262002c069291602001620036be565b604051602081830303815290604052905060008585854260405160200162002c329493929190620036f1565b6040516020818303038152906040528051906020012090506000818351846020016000f590506001600160a01b03811662002cb05760405162461bcd60e51b815260206004820152601f60248201527f437265617465323a204661696c6564206f6e2063726561746520746f6b656e00604482015260640162000737565b9695505050505050565b62002cc682826200150b565b1562000a1a5760008281526002602090815260408083206001600160a01b0385168085529252808320805460ff1916905551339285917ff6391f5c32d9c69d2a47ea670b442974b53935d1edc7fd64eb21e047a839171b9190a45050565b600081815260018301602052604081205462002d6d5750815460018181018455600084815260208082209093018490558454848252828601909352604090209190915562001532565b50600062001532565b600062002dcd826040518060400160405280602081526020017f5361666545524332303a206c6f772d6c6576656c2063616c6c206661696c6564815250856001600160a01b031662002fd59092919063ffffffff16565b905080516000148062002df157508080602001905181019062002df1919062003740565b62002a345760405162461bcd60e51b815260206004820152602a60248201527f5361666545524332303a204552433230206f7065726174696f6e20646964206e6044820152691bdd081cdd58d8d9595960b21b606482015260840162000737565b600054600160a01b900460ff1662000c635760405162461bcd60e51b815260206004820152601460248201527314185d5cd8589b194e881b9bdd081c185d5cd95960621b604482015260640162000737565b600082600001828154811062002ebe5762002ebe620033d6565b9060005260206000200154905092915050565b6000818152600183016020526040812054801562002fca57600062002ef8600183620035ce565b855490915060009062002f0e90600190620035ce565b905081811462002f7a57600086600001828154811062002f325762002f32620033d6565b906000526020600020015490508087600001848154811062002f585762002f58620033d6565b6000918252602080832090910192909255918252600188019052604090208390555b855486908062002f8e5762002f8e62003760565b60019003818190600052602060002001600090559055856001016000868152602001908152602001600020600090556001935050505062001532565b600091505062001532565b606062002fe6848460008562002fee565b949350505050565b606082471015620030515760405162461bcd60e51b815260206004820152602660248201527f416464726573733a20696e73756666696369656e742062616c616e636520666f6044820152651c8818d85b1b60d21b606482015260840162000737565b600080866001600160a01b031685876040516200306f919062003776565b60006040518083038185875af1925050503d8060008114620030ae576040519150601f19603f3d011682016040523d82523d6000602084013e620030b3565b606091505b5091509150620030c687838387620030d1565b979650505050505050565b60608315620031455782516000036200313d576001600160a01b0385163b6200313d5760405162461bcd60e51b815260206004820152601d60248201527f416464726573733a2063616c6c20746f206e6f6e2d636f6e7472616374000000604482015260640162000737565b508162002fe6565b62002fe683838151156200315c5781518083602001fd5b8060405162461bcd60e51b815260040162000737919062003794565b61114480620037aa83390190565b6000602082840312156200319957600080fd5b5035919050565b6001600160a01b03811681146200148d57600080fd5b600060208284031215620031c957600080fd5b8135620027c381620031a0565b60008060408385031215620031ea57600080fd5b50508035926020909101359150565b600080604083850312156200320d57600080fd5b8235915060208301356200322181620031a0565b809150509250929050565b600080604083850312156200324057600080fd5b82356200324d81620031a0565b946020939093013593505050565b6000806000606084860312156200327157600080fd5b83356200327e81620031a0565b95602085013595506040909401359392505050565b80151581146200148d57600080fd5b60008060408385031215620032b657600080fd5b8235620032c381620031a0565b91506020830135620032218162003293565b6020808252825182820181905260009190848201906040850190845b818110156200330f57835183529284019291840191600101620032f1565b50909695505050505050565b600080600080608085870312156200333257600080fd5b84356200333f81620031a0565b935060208501356200335181620031a0565b925060408501356200336381620031a0565b9396929550929360600135925050565b6000806000606084860312156200338957600080fd5b8335925060208401356200339d81620031a0565b929592945050506040919091013590565b6020808252600e908201526d6e6f7420676f7665726e616e636560901b604082015260600190565b634e487b7160e01b600052603260045260246000fd5b600060208284031215620033ff57600080fd5b5051919050565b60208082526024908201527f546865206d6178696d756d20726174696f20686173206265656e2065786365656040820152633232b21760e11b606082015260800190565b60208082526018908201527f6e6f7420626f72726f7720766973746f7220616c6c6f772e0000000000000000604082015260600190565b634e487b7160e01b600052604160045260246000fd5b6020808252600e908201526d1a5b9d985b1a5908185b5bdd5b9d60921b604082015260600190565b60005b83811015620034dc578181015183820152602001620034c2565b50506000910152565b600060208284031215620034f857600080fd5b815167ffffffffffffffff808211156200351157600080fd5b818401915084601f8301126200352657600080fd5b8151818111156200353b576200353b62003481565b604051601f8201601f19908116603f0116810190838211818310171562003566576200356662003481565b816040528281528760208487010111156200358057600080fd5b620030c6836020830160208801620034bf565b600060208284031215620035a657600080fd5b815160ff81168114620027c357600080fd5b634e487b7160e01b600052601160045260246000fd5b81810381811115620015325762001532620035b8565b80820180821115620015325762001532620035b8565b8082028115828204841417620015325762001532620035b8565b6000826200363257634e487b7160e01b600052601260045260246000fd5b500490565b6000600182016200364c576200364c620035b8565b5060010190565b600081518084526200366d816020860160208601620034bf565b601f01601f19169290920160200192915050565b60608152600062003696606083018662003653565b8281036020840152620036aa818662003653565b91505060ff83166040830152949350505050565b60008351620036d2818460208801620034bf565b835190830190620036e8818360208801620034bf565b01949350505050565b6000855162003705818460208a01620034bf565b8551908301906200371b818360208a01620034bf565b60f89590951b6001600160f81b03191694019384525050600182015260210192915050565b6000602082840312156200375357600080fd5b8151620027c38162003293565b634e487b7160e01b600052603160045260246000fd5b600082516200378a818460208701620034bf565b9190910192915050565b602081526000620027c360208301846200365356fe60806040526005805460ff60a01b1916600960a11b1790553480156200002457600080fd5b5060405162001144380380620011448339810160408190526200004791620001c8565b82826003620000578382620002de565b506004620000668282620002de565b505050620000836200007d620000aa60201b60201c565b620000ae565b6005805460ff909216600160a01b0260ff60a01b1990921691909117905550620003aa9050565b3390565b600580546001600160a01b038381166001600160a01b0319831681179093556040519116919082907f8be0079c531659141344cd1fd0a4f28419497f9722a3daafe3b4186f6b6457e090600090a35050565b634e487b7160e01b600052604160045260246000fd5b600082601f8301126200012857600080fd5b81516001600160401b038082111562000145576200014562000100565b604051601f8301601f19908116603f0116810190828211818310171562000170576200017062000100565b81604052838152602092508660208588010111156200018e57600080fd5b600091505b83821015620001b2578582018301518183018401529082019062000193565b6000602085830101528094505050505092915050565b600080600060608486031215620001de57600080fd5b83516001600160401b0380821115620001f657600080fd5b620002048783880162000116565b945060208601519150808211156200021b57600080fd5b506200022a8682870162000116565b925050604084015160ff811681146200024257600080fd5b809150509250925092565b600181811c908216806200026257607f821691505b6020821081036200028357634e487b7160e01b600052602260045260246000fd5b50919050565b601f821115620002d9576000816000526020600020601f850160051c81016020861015620002b45750805b601f850160051c820191505b81811015620002d557828155600101620002c0565b5050505b505050565b81516001600160401b03811115620002fa57620002fa62000100565b62000312816200030b84546200024d565b8462000289565b602080601f8311600181146200034a5760008415620003315750858301515b600019600386901b1c1916600185901b178555620002d5565b600085815260208120601f198616915b828110156200037b578886015182559484019460019091019084016200035a565b50858210156200039a5787850151600019600388901b60f8161c191681555b5050505050600190811b01905550565b610d8a80620003ba6000396000f3fe608060405234801561001057600080fd5b50600436106101005760003560e01c8063715018a611610097578063a457c2d711610066578063a457c2d714610219578063a9059cbb1461022c578063dd62ed3e1461023f578063f2fde38b1461025257600080fd5b8063715018a6146101db5780638da5cb5b146101e357806395d89b41146101fe5780639dc29fac1461020657600080fd5b8063313ce567116100d3578063313ce5671461016b578063395093511461018a57806340c10f191461019d57806370a08231146101b257600080fd5b806306fdde0314610105578063095ea7b31461012357806318160ddd1461014657806323b872dd14610158575b600080fd5b61010d610265565b60405161011a9190610bda565b60405180910390f35b610136610131366004610c45565b6102f7565b604051901515815260200161011a565b6002545b60405190815260200161011a565b610136610166366004610c6f565b610311565b600554600160a01b900460ff1660405160ff909116815260200161011a565b610136610198366004610c45565b6103aa565b6101b06101ab366004610c45565b6103cc565b005b61014a6101c0366004610cab565b6001600160a01b031660009081526020819052604090205490565b6101b06103e2565b6005546040516001600160a01b03909116815260200161011a565b61010d6103f6565b6101b0610214366004610c45565b610405565b610136610227366004610c45565b610417565b61013661023a366004610c45565b6104a2565b61014a61024d366004610cc6565b610537565b6101b0610260366004610cab565b610562565b60606003805461027490610cf9565b80601f01602080910402602001604051908101604052809291908181526020018280546102a090610cf9565b80156102ed5780601f106102c2576101008083540402835291602001916102ed565b820191906000526020600020905b8154815290600101906020018083116102d057829003601f168201915b5050505050905090565b6000336103058185856105db565b60019150505b92915050565b60006103256005546001600160a01b031690565b6040516314f8648960e31b81523060048201526001600160a01b038681166024830152858116604483015260648201859052919091169063a7c3244890608401600060405180830381600087803b15801561037f57600080fd5b505af1158015610393573d6000803e3d6000fd5b505050506103a2848484610700565b949350505050565b6000336103058185856103bd8383610537565b6103c79190610d33565b6105db565b6103d4610719565b6103de8282610773565b5050565b6103ea610719565b6103f46000610832565b565b60606004805461027490610cf9565b61040d610719565b6103de8282610884565b600033816104258286610537565b90508381101561048a5760405162461bcd60e51b815260206004820152602560248201527f45524332303a2064656372656173656420616c6c6f77616e63652062656c6f77604482015264207a65726f60d81b60648201526084015b60405180910390fd5b61049782868684036105db565b506001949350505050565b60006104b66005546001600160a01b031690565b6040516314f8648960e31b81523060048201523360248201526001600160a01b03858116604483015260648201859052919091169063a7c3244890608401600060405180830381600087803b15801561050e57600080fd5b505af1158015610522573d6000803e3d6000fd5b5050505061053083836109ae565b9392505050565b6001600160a01b03918216600090815260016020908152604080832093909416825291909152205490565b61056a610719565b6001600160a01b0381166105cf5760405162461bcd60e51b815260206004820152602660248201527f4f776e61626c653a206e6577206f776e657220697320746865207a65726f206160448201526564647265737360d01b6064820152608401610481565b6105d881610832565b50565b6001600160a01b03831661063d5760405162461bcd60e51b8152602060048201526024808201527f45524332303a20617070726f76652066726f6d20746865207a65726f206164646044820152637265737360e01b6064820152608401610481565b6001600160a01b03821661069e5760405162461bcd60e51b815260206004820152602260248201527f45524332303a20617070726f766520746f20746865207a65726f206164647265604482015261737360f01b6064820152608401610481565b6001600160a01b0383811660008181526001602090815260408083209487168084529482529182902085905590518481527f8c5be1e5ebec7d5bd14f71427d1e84f3dd0314c0f7b2291e5b200ac8c7c3b92591015b60405180910390a3505050565b60003361070e8582856109bc565b610497858585610a36565b6005546001600160a01b031633146103f45760405162461bcd60e51b815260206004820181905260248201527f4f776e61626c653a2063616c6c6572206973206e6f7420746865206f776e65726044820152606401610481565b6001600160a01b0382166107c95760405162461bcd60e51b815260206004820152601f60248201527f45524332303a206d696e7420746f20746865207a65726f2061646472657373006044820152606401610481565b80600260008282546107db9190610d33565b90915550506001600160a01b038216600081815260208181526040808320805486019055518481527fddf252ad1be2c89b69c2b068fc378daa952ba7f163c4a11628f55a4df523b3ef910160405180910390a35050565b600580546001600160a01b038381166001600160a01b0319831681179093556040519116919082907f8be0079c531659141344cd1fd0a4f28419497f9722a3daafe3b4186f6b6457e090600090a35050565b6001600160a01b0382166108e45760405162461bcd60e51b815260206004820152602160248201527f45524332303a206275726e2066726f6d20746865207a65726f206164647265736044820152607360f81b6064820152608401610481565b6001600160a01b038216600090815260208190526040902054818110156109585760405162461bcd60e51b815260206004820152602260248201527f45524332303a206275726e20616d6f756e7420657863656564732062616c616e604482015261636560f01b6064820152608401610481565b6001600160a01b0383166000818152602081815260408083208686039055600280548790039055518581529192917fddf252ad1be2c89b69c2b068fc378daa952ba7f163c4a11628f55a4df523b3ef91016106f3565b600033610305818585610a36565b60006109c88484610537565b90506000198114610a305781811015610a235760405162461bcd60e51b815260206004820152601d60248201527f45524332303a20696e73756666696369656e7420616c6c6f77616e63650000006044820152606401610481565b610a3084848484036105db565b50505050565b6001600160a01b038316610a9a5760405162461bcd60e51b815260206004820152602560248201527f45524332303a207472616e736665722066726f6d20746865207a65726f206164604482015264647265737360d81b6064820152608401610481565b6001600160a01b038216610afc5760405162461bcd60e51b815260206004820152602360248201527f45524332303a207472616e7366657220746f20746865207a65726f206164647260448201526265737360e81b6064820152608401610481565b6001600160a01b03831660009081526020819052604090205481811015610b745760405162461bcd60e51b815260206004820152602660248201527f45524332303a207472616e7366657220616d6f756e7420657863656564732062604482015265616c616e636560d01b6064820152608401610481565b6001600160a01b03848116600081815260208181526040808320878703905593871680835291849020805487019055925185815290927fddf252ad1be2c89b69c2b068fc378daa952ba7f163c4a11628f55a4df523b3ef910160405180910390a3610a30565b60006020808352835180602085015260005b81811015610c0857858101830151858201604001528201610bec565b506000604082860101526040601f19601f8301168501019250505092915050565b80356001600160a01b0381168114610c4057600080fd5b919050565b60008060408385031215610c5857600080fd5b610c6183610c29565b946020939093013593505050565b600080600060608486031215610c8457600080fd5b610c8d84610c29565b9250610c9b60208501610c29565b9150604084013590509250925092565b600060208284031215610cbd57600080fd5b61053082610c29565b60008060408385031215610cd957600080fd5b610ce283610c29565b9150610cf060208401610c29565b90509250929050565b600181811c90821680610d0d57607f821691505b602082108103610d2d57634e487b7160e01b600052602260045260246000fd5b50919050565b8082018082111561030b57634e487b7160e01b600052601160045260246000fdfea264697066735822122003508b5e904dc9939afa1d55d5e315d51682a2b40cfb180ec9007d640335efd564736f6c6343000818003365d7a28e3265b37a6474929f336521b332c1681b933f6cb9f3376673440d862aa2646970667358221220b90e4a8d49bb72edb632a2b8d552d549e09c669977b61d33919801332bc7742264736f6c63430008180033",
  "linkReferences": {},
  "deployedLinkReferences": {}
}