{
  "_format": "hh-sol-artifact-1",
  "contractName": "UniswapV3ChainLinkUsdOracle",
  "sourceName": "contracts/uniswap/UniswapV3ChainLinkUsdOracle.sol",
  "abi": [
    {
      "anonymous": false,
      "inputs": [
        {
          "indexed": true,
          "internalType": "address",
          "name": "previousOwner",
          "type": "address"
        },
        {
          "indexed": true,
          "internalType": "address",
          "name": "newOwner",
          "type": "address"
        }
      ],
      "name": "GovernanceTransferred",
      "type": "event"
    },
    {
      "anonymous": false,
      "inputs": [
        {
          "indexed": true,
          "internalType": "address",
          "name": "sender",
          "type": "address"
        },
        {
          "indexed": false,
          "internalType": "address[]",
          "name": "_tokens",
          "type": "address[]"
        },
        {
          "indexed": false,
          "internalType": "address[]",
          "name": "_feedAddr",
          "type": "address[]"
        }
      ],
      "name": "SetTokenRefFeedEvent",
      "type": "event"
    },
    {
      "inputs": [
        {
          "internalType": "address",
          "name": "_nonfungiblePositionManager",
          "type": "address"
        }
      ],
      "name": "doInitialize",
      "outputs": [],
      "stateMutability": "nonpayable",
      "type": "function"
    },
    {
      "inputs": [
        {
          "internalType": "address",
          "name": "_token",
          "type": "address"
        }
      ],
      "name": "getLatestPrice",
      "outputs": [
        {
          "internalType": "int256",
          "name": "_answer",
          "type": "int256"
        },
        {
          "internalType": "int256",
          "name": "_decimals",
          "type": "int256"
        }
      ],
      "stateMutability": "view",
      "type": "function"
    },
    {
      "inputs": [
        {
          "internalType": "uint256",
          "name": "_tokenId",
          "type": "uint256"
        }
      ],
      "name": "getNFTAmounts",
      "outputs": [
        {
          "internalType": "address",
          "name": "_token0",
          "type": "address"
        },
        {
          "internalType": "address",
          "name": "_token1",
          "type": "address"
        },
        {
          "internalType": "uint24",
          "name": "_fee",
          "type": "uint24"
        },
        {
          "internalType": "uint256",
          "name": "_amount0",
          "type": "uint256"
        },
        {
          "internalType": "uint256",
          "name": "_amount1",
          "type": "uint256"
        }
      ],
      "stateMutability": "view",
      "type": "function"
    },
    {
      "inputs": [
        {
          "internalType": "uint256",
          "name": "_tokenId",
          "type": "uint256"
        },
        {
          "internalType": "address",
          "name": "_quoteToken",
          "type": "address"
        }
      ],
      "name": "getTWAPQuoteNft",
      "outputs": [
        {
          "internalType": "uint256",
          "name": "_quoteAmount",
          "type": "uint256"
        },
        {
          "internalType": "uint256",
          "name": "_gasEstimate",
          "type": "uint256"
        }
      ],
      "stateMutability": "view",
      "type": "function"
    },
    {
      "inputs": [
        {
          "internalType": "address",
          "name": "_token",
          "type": "address"
        },
        {
          "internalType": "address",
          "name": "_quoteToken",
          "type": "address"
        }
      ],
      "name": "getTokenQuotePrice",
      "outputs": [
        {
          "internalType": "uint256",
          "name": "_quotePrice",
          "type": "uint256"
        },
        {
          "internalType": "uint256",
          "name": "_gasEstimate",
          "type": "uint256"
        }
      ],
      "stateMutability": "view",
      "type": "function"
    },
    {
      "inputs": [],
      "name": "governance",
      "outputs": [
        {
          "internalType": "address",
          "name": "",
          "type": "address"
        }
      ],
      "stateMutability": "view",
      "type": "function"
    },
    {
      "inputs": [],
      "name": "nonfungiblePositionManager",
      "outputs": [
        {
          "internalType": "contract INonfungiblePositionManager",
          "name": "",
          "type": "address"
        }
      ],
      "stateMutability": "view",
      "type": "function"
    },
    {
      "inputs": [
        {
          "internalType": "address",
          "name": "_governance",
          "type": "address"
        }
      ],
      "name": "setGovernance",
      "outputs": [],
      "stateMutability": "nonpayable",
      "type": "function"
    },
    {
      "inputs": [
        {
          "internalType": "address[]",
          "name": "_tokens",
          "type": "address[]"
        },
        {
          "internalType": "address[]",
          "name": "_feedAddr",
          "type": "address[]"
        }
      ],
      "name": "setTokenRefFeed",
      "outputs": [],
      "stateMutability": "nonpayable",
      "type": "function"
    },
    {
      "inputs": [
        {
          "internalType": "address",
          "name": "",
          "type": "address"
        }
      ],
      "name": "tokenRefFeed",
      "outputs": [
        {
          "internalType": "address",
          "name": "priceFeed",
          "type": "address"
        },
        {
          "internalType": "int256",
          "name": "decimals",
          "type": "int256"
        }
      ],
      "stateMutability": "view",
      "type": "function"
    },
    {
      "inputs": [],
      "name": "uniswapV3Factory",
      "outputs": [
        {
          "internalType": "contract IUniswapV3Factory",
          "name": "",
          "type": "address"
        }
      ],
      "stateMutability": "view",
      "type": "function"
    },
    {
      "inputs": [],
      "name": "usdDefaultDecimals",
      "outputs": [
        {
          "internalType": "int256",
          "name": "",
          "type": "int256"
        }
      ],
      "stateMutability": "view",
      "type": "function"
    }
  ],
  "bytecode": "0x608060405234801561001057600080fd5b50611a94806100206000396000f3fe608060405234801561001057600080fd5b50600436106100b45760003560e01c8063605f354411610071578063605f35441461013b57806398298c151461015f578063ab033ea914610174578063b44a272214610187578063da8e4d191461018f578063de10ac9d146101b0576100b4565b806316345f18146100b9578063361983e4146100e35780633e48e995146100f85780634bd838901461010b5780635aa6e6751461011e5780635b54918214610133575b600080fd5b6100cc6100c73660046114af565b6101c3565b6040516100da9291906118a9565b60405180910390f35b6100eb61028d565b6040516100da91906118a0565b6100cc6101063660046114e7565b610292565b6100cc61011936600461162f565b61039e565b61012661049e565b6040516100da91906117e3565b6101266104b3565b61014e610149366004611617565b6104c2565b6040516100da95949392919061181f565b61017261016d3660046114af565b6104e5565b005b6101726101823660046114af565b610651565b610126610718565b6101a261019d3660046114af565b610727565b6040516100da929190611855565b6101726101be36600461151f565b61074c565b6001600160a01b03808216600090815260036020526040812080546001909101549192168061020d5760405162461bcd60e51b8152600401610204906118b7565b60405180910390fd5b806001600160a01b031663feaf968c6040518163ffffffff1660e01b815260040160a06040518083038186803b15801561024657600080fd5b505afa15801561025a573d6000803e3d6000fd5b505050506040513d601f19601f8201168201806040525081019061027e9190611653565b50919794965093945050505050565b600881565b60008060005a905060006102a5866101c3565b50905060006102b3866101c3565b5090506102ce816102c8846305f5e10061097a565b906109dc565b94506000866001600160a01b031663313ce5676040518163ffffffff1660e01b815260040160206040518083038186803b15801561030b57600080fd5b505afa15801561031f573d6000803e3d6000fd5b505050506040513d601f19601f8201168201806040525081019061034391906116a2565b905060088160ff16131561036c576103658660071960ff841601600a0a61097a565b955061038e565b8060ff166008131561038e5761038b8660ff8316600803600a0a6109dc565b95505b835a039450505050509250929050565b60008060005a905060006103b1856101c3565b5090506000806103c2888885610a43565b90925090506103d182846109dc565b95506000876001600160a01b031663313ce5676040518163ffffffff1660e01b815260040160206040518083038186803b15801561040e57600080fd5b505afa158015610422573d6000803e3d6000fd5b505050506040513d601f19601f8201168201806040525081019061044691906116a2565b9050818160ff16111561046d576104668760ff8316849003600a0a61097a565b965061048d565b8060ff1682111561048d5761048a8760ff83168403600a0a6109dc565b96505b845a03955050505050509250929050565b6000546201000090046001600160a01b031681565b6002546001600160a01b031681565b60008060008060006104d386610bdb565b939a9299509097509550909350915050565b600054610100900460ff166105005760005460ff1615610508565b610508610e03565b6105435760405162461bcd60e51b815260040180806020018281038252602e815260200180611a10602e913960400191505060405180910390fd5b600054610100900460ff1615801561056e576000805460ff1961ff0019909116610100171660011790555b6000805462010000600160b01b031916336201000002179055600180546001600160a01b0319166001600160a01b0384811691909117918290556040805163c45a015560e01b81529051929091169163c45a015591600480820192602092909190829003018186803b1580156105e357600080fd5b505afa1580156105f7573d6000803e3d6000fd5b505050506040513d601f19601f8201168201806040525081019061061b91906114cb565b600280546001600160a01b0319166001600160a01b0392909216919091179055801561064d576000805461ff00191690555b5050565b6000546201000090046001600160a01b031633146106815760405162461bcd60e51b815260040161020490611998565b6000546201000090046001600160a01b03166106af5760405162461bcd60e51b81526004016102049061192a565b600080546040516001600160a01b03808516936201000090930416917f5f56bee8cffbe9a78652a74a60705edede02af10b0bbb888ca44b79a0d42ce8091a3600080546001600160a01b03909216620100000262010000600160b01b0319909216919091179055565b6001546001600160a01b031681565b600360205260009081526040902080546001909101546001600160a01b039091169082565b6000546201000090046001600160a01b0316331461077c5760405162461bcd60e51b815260040161020490611998565b826107995760405162461bcd60e51b8152600401610204906118e0565b8281146107b85760405162461bcd60e51b8152600401610204906119c0565b60005b8381101561092c5760008383838181106107d157fe5b90506020020160208101906107e691906114af565b90506000816001600160a01b031663313ce5676040518163ffffffff1660e01b815260040160206040518083038186803b15801561082357600080fd5b505afa158015610837573d6000803e3d6000fd5b505050506040513d601f19601f8201168201806040525081019061085b91906116a2565b60ff169050600881146108805760405162461bcd60e51b815260040161020490611961565b604051806040016040528086868681811061089757fe5b90506020020160208101906108ac91906114af565b6001600160a01b03168152602001829052600360008989878181106108cd57fe5b90506020020160208101906108e291906114af565b6001600160a01b0390811682526020808301939093526040909101600020835181546001600160a01b03191692169190911781559101516001918201559290920191506107bb9050565b50336001600160a01b03167fc20c0086516e4bd82ca05c254f38c08d435b1e548e2ee9338ce0ac49a6b7e5218585858560405161096c949392919061186e565b60405180910390a250505050565b600082610989575060006109d6565b8282028284828161099657fe5b04146109d35760405162461bcd60e51b8152600401808060200182810382526021815260200180611a3e6021913960400191505060405180910390fd5b90505b92915050565b6000808211610a32576040805162461bcd60e51b815260206004820152601a60248201527f536166654d6174683a206469766973696f6e206279207a65726f000000000000604482015290519081900360640190fd5b818381610a3b57fe5b049392505050565b600080600080600080610a5589610bdb565b9450945050935093506000610a6c8886858c610e14565b90506000610a7c8986858d610e14565b90506000866001600160a01b031663313ce5676040518163ffffffff1660e01b815260040160206040518083038186803b158015610ab957600080fd5b505afa158015610acd573d6000803e3d6000fd5b505050506040513d601f19601f82011682018060405250810190610af191906116a2565b90506000866001600160a01b031663313ce5676040518163ffffffff1660e01b815260040160206040518083038186803b158015610b2e57600080fd5b505afa158015610b42573d6000803e3d6000fd5b505050506040513d601f19601f82011682018060405250810190610b6691906116a2565b90508160ff1698508160ff168160ff161115610b9c5760ff8082169950610b9590859084840316600a0a61097a565b9350610bbf565b8060ff168260ff161115610bbf57610bbc8360ff83850316600a0a61097a565b92505b610bc98484610e57565b99505050505050505050935093915050565b60015460405163133f757160e31b815260009182918291829182918291829182916001600160a01b03909116906399fbab8890610c1c908c906004016118a0565b6101806040518083038186803b158015610c3557600080fd5b505afa158015610c49573d6000803e3d6000fd5b505050506040513d601f19601f82011682018060405250810190610c6d91906116bc565b909192939495969798999a50909192939495969798995090919250909150905050809650819750829850839b50849c50859d505050505050506000600260009054906101000a90046001600160a01b03166001600160a01b0316631698ee828a8a8a6040518463ffffffff1660e01b8152600401610ced939291906117f7565b60206040518083038186803b158015610d0557600080fd5b505afa158015610d19573d6000803e3d6000fd5b505050506040513d601f19601f82011682018060405250810190610d3d91906114cb565b90506000816001600160a01b0316633850c7bd6040518163ffffffff1660e01b815260040160e06040518083038186803b158015610d7a57600080fd5b505afa158015610d8e573d6000803e3d6000fd5b505050506040513d601f19601f82011682018060405250810190610db29190611588565b50505050509150506000610dc582610eb1565b90506000610dd287610eb1565b90506000610ddf87610eb1565b9050610ded838383896111e3565b9d9f9c9e509a9c9a9b9950505050505050505050565b6000610e0e3061127f565b15905090565b60008215610e4f57816001600160a01b0316846001600160a01b031614610e4257610e3e846101c3565b5094505b610e4c858461097a565b90505b949350505050565b6000828201838110156109d3576040805162461bcd60e51b815260206004820152601b60248201527f536166654d6174683a206164646974696f6e206f766572666c6f770000000000604482015290519081900360640190fd5b60008060008360020b12610ec8578260020b610ed0565b8260020b6000035b9050620d89e8811115610f0e576040805162461bcd60e51b81526020600482015260016024820152601560fa1b604482015290519081900360640190fd5b600060018216610f2257600160801b610f34565b6ffffcb933bd6fad37aa2d162d1a5940015b70ffffffffffffffffffffffffffffffffff1690506002821615610f68576ffff97272373d413259a46990580e213a0260801c5b6004821615610f87576ffff2e50f5f656932ef12357cf3c7fdcc0260801c5b6008821615610fa6576fffe5caca7e10e4e61c3624eaa0941cd00260801c5b6010821615610fc5576fffcb9843d60f6159c9db58835c9266440260801c5b6020821615610fe4576fff973b41fa98c081472e6896dfb254c00260801c5b6040821615611003576fff2ea16466c96a3843ec78b326b528610260801c5b6080821615611022576ffe5dee046a99a2a811c461f1969c30530260801c5b610100821615611042576ffcbe86c7900a88aedcffc83b479aa3a40260801c5b610200821615611062576ff987a7253ac413176f2b074cf7815e540260801c5b610400821615611082576ff3392b0822b70005940c7a398e4b70f30260801c5b6108008216156110a2576fe7159475a2c29b7443b29c7fa6e889d90260801c5b6110008216156110c2576fd097f3bdfd2022b8845ad8f792aa58250260801c5b6120008216156110e2576fa9f746462d870fdf8a65dc1f90e061e50260801c5b614000821615611102576f70d869a156d2a1b890bb3df62baf32f70260801c5b618000821615611122576f31be135f97d08fd981231505542fcfa60260801c5b62010000821615611143576f09aa508b5b7a84e1c677de54f3e99bc90260801c5b62020000821615611163576e5d6af8dedb81196699c329225ee6040260801c5b62040000821615611182576d2216e584f5fa1ea926041bedfe980260801c5b6208000082161561119f576b048a170391f7dc42444e8fa20260801c5b60008460020b13156111ba5780600019816111b657fe5b0490505b6401000000008106156111ce5760016111d1565b60005b60ff16602082901c0192505050919050565b600080836001600160a01b0316856001600160a01b03161115611204579293925b846001600160a01b0316866001600160a01b03161161122f57611228858585611289565b9150611276565b836001600160a01b0316866001600160a01b0316101561126857611254868585611289565b91506112618587856112f4565b9050611276565b6112738585856112f4565b90505b94509492505050565b803b15155b919050565b6000826001600160a01b0316846001600160a01b031611156112a9579192915b836001600160a01b03166112e2606060ff16846001600160801b0316901b8686036001600160a01b0316866001600160a01b0316611333565b816112e957fe5b0490505b9392505050565b6000826001600160a01b0316846001600160a01b03161115611314579192915b610e4f826001600160801b03168585036001600160a01b0316600160601b5b6000808060001985870986860292508281109083900303905080611369576000841161135e57600080fd5b5082900490506112ed565b80841161137557600080fd5b6000848688096000868103871696879004966002600389028118808a02820302808a02820302808a02820302808a02820302808a02820302808a02909103029181900381900460010186841190950394909402919094039290920491909117919091029150509392505050565b8051611284816119f7565b60008083601f8401126113fe578182fd5b50813567ffffffffffffffff811115611415578182fd5b602083019150836020808302850101111561142f57600080fd5b9250929050565b8051600281900b811461128457600080fd5b80516001600160801b038116811461128457600080fd5b805161ffff8116811461128457600080fd5b805162ffffff8116811461128457600080fd5b805169ffffffffffffffffffff8116811461128457600080fd5b805160ff8116811461128457600080fd5b6000602082840312156114c0578081fd5b81356109d3816119f7565b6000602082840312156114dc578081fd5b81516109d3816119f7565b600080604083850312156114f9578081fd5b8235611504816119f7565b91506020830135611514816119f7565b809150509250929050565b60008060008060408587031215611534578182fd5b843567ffffffffffffffff8082111561154b578384fd5b611557888389016113ed565b9096509450602087013591508082111561156f578384fd5b5061157c878288016113ed565b95989497509550505050565b600080600080600080600060e0888a0312156115a2578283fd5b87516115ad816119f7565b96506115bb60208901611436565b95506115c96040890161145f565b94506115d76060890161145f565b93506115e56080890161145f565b92506115f360a0890161149e565b915060c08801518015158114611607578182fd5b8091505092959891949750929550565b600060208284031215611628578081fd5b5035919050565b60008060408385031215611641578182fd5b823591506020830135611514816119f7565b600080600080600060a0868803121561166a578081fd5b61167386611484565b945060208601519350604086015192506060860151915061169660808701611484565b90509295509295909350565b6000602082840312156116b3578081fd5b6112ed8261149e565b6000806000806000806000806000806000806101808d8f0312156116de578586fd5b8c516bffffffffffffffffffffffff811681146116f9578687fd5b9b5061170760208e016113e2565b9a5061171560408e016113e2565b995061172360608e016113e2565b985061173160808e01611471565b975061173f60a08e01611436565b965061174d60c08e01611436565b955061175b60e08e01611448565b94506101008d015193506101208d0151925061177a6101408e01611448565b91506117896101608e01611448565b90509295989b509295989b509295989b565b60008284526020808501945082825b858110156117d85781356117bd816119f7565b6001600160a01b0316875295820195908201906001016117aa565b509495945050505050565b6001600160a01b0391909116815260200190565b6001600160a01b03938416815291909216602082015262ffffff909116604082015260600190565b6001600160a01b03958616815293909416602084015262ffffff9190911660408301526060820152608081019190915260a00190565b6001600160a01b03929092168252602082015260400190565b60006040825261188260408301868861179b565b828103602084015261189581858761179b565b979650505050505050565b90815260200190565b918252602082015260400190565b6020808252600f908201526e2737ba1031b7b73334b3bab932b21760891b604082015260600190565b6020808252602a908201527f506172616d657465722073697a6573206d7573742062652067726561746572206040820152693a3430b7103d32b9379760b11b606082015260800190565b6020808252601f908201527f6e657720676f7665726e616e636520746865207a65726f206164647265737300604082015260600190565b6020808252601b908201527f546869732074797065206973206e6f7420737570706f727465642e0000000000604082015260600190565b6020808252600e908201526d6e6f7420676f7665726e616e636560901b604082015260600190565b6020808252601e908201527f506172616d657465722073697a657320617265206e6f7420657175616c2e0000604082015260600190565b6001600160a01b0381168114611a0c57600080fd5b5056fe496e697469616c697a61626c653a20636f6e747261637420697320616c726561647920696e697469616c697a6564536166654d6174683a206d756c7469706c69636174696f6e206f766572666c6f77a2646970667358221220d926d496d96640f5654ff7fe6d102339bca81922e01906b44eb80136328bd55864736f6c63430007050033",
  "linkReferences": {},
  "deployedLinkReferences": {}
}