{
  "_format": "hh-sol-artifact-1",
  "contractName": "UniswapV3PoolWhite",
  "sourceName": "contracts/uniswap/UniswapV3PoolWhite.sol",
  "abi": [
    {
      "anonymous": false,
      "inputs": [
        {
          "indexed": true,
          "internalType": "address",
          "name": "previousOwner",
          "type": "address"
        },
        {
          "indexed": true,
          "internalType": "address",
          "name": "newOwner",
          "type": "address"
        }
      ],
      "name": "GovernanceTransferred",
      "type": "event"
    },
    {
      "anonymous": false,
      "inputs": [
        {
          "indexed": true,
          "internalType": "address",
          "name": "sender",
          "type": "address"
        },
        {
          "indexed": false,
          "internalType": "address[]",
          "name": "pools",
          "type": "address[]"
        },
        {
          "indexed": false,
          "internalType": "bool",
          "name": "allow",
          "type": "bool"
        }
      ],
      "name": "SetV3PoolWhiteAddressesEvent",
      "type": "event"
    },
    {
      "inputs": [
        {
          "internalType": "uint256",
          "name": "_tokenId",
          "type": "uint256"
        }
      ],
      "name": "checkV3PoolWhiteList",
      "outputs": [
        {
          "internalType": "bool",
          "name": "",
          "type": "bool"
        }
      ],
      "stateMutability": "view",
      "type": "function"
    },
    {
      "inputs": [
        {
          "internalType": "address",
          "name": "_nonfungiblePositionManager",
          "type": "address"
        }
      ],
      "name": "doInitialize",
      "outputs": [],
      "stateMutability": "nonpayable",
      "type": "function"
    },
    {
      "inputs": [
        {
          "internalType": "uint256",
          "name": "_tokenId",
          "type": "uint256"
        }
      ],
      "name": "getUninswapV3Pool",
      "outputs": [
        {
          "internalType": "address",
          "name": "",
          "type": "address"
        }
      ],
      "stateMutability": "view",
      "type": "function"
    },
    {
      "inputs": [],
      "name": "governance",
      "outputs": [
        {
          "internalType": "address",
          "name": "",
          "type": "address"
        }
      ],
      "stateMutability": "view",
      "type": "function"
    },
    {
      "inputs": [],
      "name": "nonfungiblePositionManager",
      "outputs": [
        {
          "internalType": "contract INonfungiblePositionManager",
          "name": "",
          "type": "address"
        }
      ],
      "stateMutability": "view",
      "type": "function"
    },
    {
      "inputs": [
        {
          "internalType": "address",
          "name": "_governance",
          "type": "address"
        }
      ],
      "name": "setGovernance",
      "outputs": [],
      "stateMutability": "nonpayable",
      "type": "function"
    },
    {
      "inputs": [
        {
          "internalType": "address[]",
          "name": "_pools",
          "type": "address[]"
        },
        {
          "internalType": "bool",
          "name": "_allow",
          "type": "bool"
        }
      ],
      "name": "setV3PoolWhiteAddresses",
      "outputs": [],
      "stateMutability": "nonpayable",
      "type": "function"
    },
    {
      "inputs": [],
      "name": "uniswapV3Factory",
      "outputs": [
        {
          "internalType": "contract IUniswapV3Factory",
          "name": "",
          "type": "address"
        }
      ],
      "stateMutability": "view",
      "type": "function"
    },
    {
      "inputs": [
        {
          "internalType": "address",
          "name": "",
          "type": "address"
        }
      ],
      "name": "v3PoolWhiteList",
      "outputs": [
        {
          "internalType": "bool",
          "name": "",
          "type": "bool"
        }
      ],
      "stateMutability": "view",
      "type": "function"
    }
  ],
  "bytecode": "0x608060405234801561001057600080fd5b506107d3806100206000396000f3fe608060405234801561001057600080fd5b50600436106100935760003560e01c80635b549182116100665780635b5491821461018757806398298c151461018f5780639b806c1c146101b5578063ab033ea9146101d2578063b44a2722146101f857610093565b806308bea486146100985780632782a487146100d257806342431387146101465780635aa6e67514610163575b600080fd5b6100be600480360360208110156100ae57600080fd5b50356001600160a01b0316610200565b604080519115158252519081900360200190f35b610144600480360360408110156100e857600080fd5b81019060208101813564010000000081111561010357600080fd5b82018360208201111561011557600080fd5b8035906020019184602083028401116401000000008311171561013757600080fd5b9193509150351515610215565b005b6100be6004803603602081101561015c57600080fd5b5035610337565b61016b610380565b604080516001600160a01b039092168252519081900360200190f35b61016b61038f565b610144600480360360208110156101a557600080fd5b50356001600160a01b031661039e565b61016b600480360360208110156101cb57600080fd5b5035610501565b610144600480360360208110156101e857600080fd5b50356001600160a01b031661063a565b61016b610743565b60026020526000908152604090205460ff1681565b6003546001600160a01b03163314610265576040805162461bcd60e51b815260206004820152600e60248201526d6e6f7420676f7665726e616e636560901b604482015290519081900360640190fd5b60005b828110156102ba57816002600086868581811061028157fe5b602090810292909201356001600160a01b0316835250810191909152604001600020805460ff1916911515919091179055600101610268565b50336001600160a01b03167fd338bc1a461f044a627db6bd4eeb25364cf8a54c17a955be9351dff21d2499ea848484604051808060200183151581526020018281038252858582818152602001925060200280828437600083820152604051601f909101601f1916909201829003965090945050505050a2505050565b60008061034383610501565b90506001600160a01b03811661035d57600091505061037b565b6001600160a01b031660009081526002602052604090205460ff1690505b919050565b6003546001600160a01b031681565b6001546001600160a01b031681565b600054610100900460ff166103b95760005460ff16156103c1565b6103c1610758565b6103fc5760405162461bcd60e51b815260040180806020018281038252602e815260200180610770602e913960400191505060405180910390fd5b600054610100900460ff16158015610427576000805460ff1961ff0019909116610100171660011790555b600380546001600160a01b03191633179055600080546001600160a01b038481166201000090810262010000600160b01b031990931692909217928390556040805163c45a015560e01b8152905192909304169163c45a0155916004808301926020929190829003018186803b1580156104a057600080fd5b505afa1580156104b4573d6000803e3d6000fd5b505050506040513d60208110156104ca57600080fd5b5051600180546001600160a01b0319166001600160a01b0390921691909117905580156104fd576000805461ff00191690555b5050565b600080600080600060029054906101000a90046001600160a01b03166001600160a01b03166399fbab88866040518263ffffffff1660e01b8152600401808281526020019150506101806040518083038186803b15801561056157600080fd5b505afa158015610575573d6000803e3d6000fd5b505050506040513d61018081101561058c57600080fd5b5060408082015160608301516080909301516001548351630b4c774160e11b81526001600160a01b038085166004830152808716602483015262ffffff8416604483015294519398509496509094509190911691631698ee82916064808301926020929190829003018186803b15801561060557600080fd5b505afa158015610619573d6000803e3d6000fd5b505050506040513d602081101561062f57600080fd5b505195945050505050565b6003546001600160a01b0316331461068a576040805162461bcd60e51b815260206004820152600e60248201526d6e6f7420676f7665726e616e636560901b604482015290519081900360640190fd5b6003546001600160a01b03166106e7576040805162461bcd60e51b815260206004820152601f60248201527f6e657720676f7665726e616e636520746865207a65726f206164647265737300604482015290519081900360640190fd5b6003546040516001600160a01b038084169216907f5f56bee8cffbe9a78652a74a60705edede02af10b0bbb888ca44b79a0d42ce8090600090a3600380546001600160a01b0319166001600160a01b0392909216919091179055565b6000546201000090046001600160a01b031681565b600061076330610769565b15905090565b3b15159056fe496e697469616c697a61626c653a20636f6e747261637420697320616c726561647920696e697469616c697a6564a26469706673582212201e3ef28607c9e36be669f3e16a1cd074e605bf778f5239240bc4719deb71006c64736f6c63430007050033",
  "linkReferences": {},
  "deployedLinkReferences": {}
}