{
  "_format": "hh-sol-artifact-1",
  "contractName": "QuadraticBorrowCompound",
  "sourceName": "contracts/lendborrow/QuadraticBorrowCompound.sol",
  "abi": [
    {
      "anonymous": false,
      "inputs": [
        {
          "indexed": true,
          "internalType": "uint256",
          "name": "position",
          "type": "uint256"
        },
        {
          "indexed": false,
          "internalType": "address",
          "name": "sender",
          "type": "address"
        },
        {
          "indexed": false,
          "internalType": "address",
          "name": "token0",
          "type": "address"
        },
        {
          "indexed": false,
          "internalType": "address",
          "name": "token1",
          "type": "address"
        }
      ],
      "name": "AddNftV3WhiteListEvent",
      "type": "event"
    },
    {
      "anonymous": false,
      "inputs": [
        {
          "indexed": true,
          "internalType": "address",
          "name": "sender",
          "type": "address"
        },
        {
          "indexed": false,
          "internalType": "address",
          "name": "apply721Address",
          "type": "address"
        },
        {
          "indexed": false,
          "internalType": "uint256",
          "name": "specialMaxRate",
          "type": "uint256"
        },
        {
          "indexed": false,
          "internalType": "uint256",
          "name": "tokenId",
          "type": "uint256"
        }
      ],
      "name": "ApplyRateEvent",
      "type": "event"
    },
    {
      "anonymous": false,
      "inputs": [
        {
          "indexed": true,
          "internalType": "address",
          "name": "sender",
          "type": "address"
        },
        {
          "indexed": false,
          "internalType": "address",
          "name": "beforeVal",
          "type": "address"
        },
        {
          "indexed": false,
          "internalType": "address",
          "name": "afterVal",
          "type": "address"
        }
      ],
      "name": "ChangeUniswapV3OracleEvent",
      "type": "event"
    },
    {
      "anonymous": false,
      "inputs": [
        {
          "indexed": true,
          "internalType": "address",
          "name": "sender",
          "type": "address"
        },
        {
          "indexed": false,
          "internalType": "uint256",
          "name": "pid",
          "type": "uint256"
        },
        {
          "indexed": false,
          "internalType": "uint256",
          "name": "amount",
          "type": "uint256"
        }
      ],
      "name": "FunderClaimEvent",
      "type": "event"
    },
    {
      "anonymous": false,
      "inputs": [
        {
          "indexed": true,
          "internalType": "address",
          "name": "previousOwner",
          "type": "address"
        },
        {
          "indexed": true,
          "internalType": "address",
          "name": "newOwner",
          "type": "address"
        }
      ],
      "name": "GovernanceTransferred",
      "type": "event"
    },
    {
      "anonymous": false,
      "inputs": [
        {
          "indexed": false,
          "internalType": "uint8",
          "name": "version",
          "type": "uint8"
        }
      ],
      "name": "Initialized",
      "type": "event"
    },
    {
      "anonymous": false,
      "inputs": [
        {
          "indexed": true,
          "internalType": "address",
          "name": "sender",
          "type": "address"
        },
        {
          "indexed": false,
          "internalType": "uint256",
          "name": "pid",
          "type": "uint256"
        },
        {
          "indexed": false,
          "internalType": "uint256",
          "name": "beforeVal",
          "type": "uint256"
        },
        {
          "indexed": false,
          "internalType": "uint256",
          "name": "afterVal",
          "type": "uint256"
        }
      ],
      "name": "MinSettingCollateralEvent",
      "type": "event"
    },
    {
      "anonymous": false,
      "inputs": [
        {
          "indexed": true,
          "internalType": "address",
          "name": "sender",
          "type": "address"
        },
        {
          "indexed": false,
          "internalType": "uint256",
          "name": "pid",
          "type": "uint256"
        },
        {
          "indexed": false,
          "internalType": "bool",
          "name": "flag",
          "type": "bool"
        }
      ],
      "name": "PausePoolEvent",
      "type": "event"
    },
    {
      "anonymous": false,
      "inputs": [
        {
          "indexed": false,
          "internalType": "address",
          "name": "account",
          "type": "address"
        }
      ],
      "name": "Paused",
      "type": "event"
    },
    {
      "anonymous": false,
      "inputs": [
        {
          "indexed": true,
          "internalType": "bytes32",
          "name": "role",
          "type": "bytes32"
        },
        {
          "indexed": true,
          "internalType": "address",
          "name": "account",
          "type": "address"
        },
        {
          "indexed": true,
          "internalType": "address",
          "name": "sender",
          "type": "address"
        }
      ],
      "name": "RoleGranted",
      "type": "event"
    },
    {
      "anonymous": false,
      "inputs": [
        {
          "indexed": true,
          "internalType": "bytes32",
          "name": "role",
          "type": "bytes32"
        },
        {
          "indexed": true,
          "internalType": "address",
          "name": "account",
          "type": "address"
        },
        {
          "indexed": true,
          "internalType": "address",
          "name": "sender",
          "type": "address"
        }
      ],
      "name": "RoleRevoked",
      "type": "event"
    },
    {
      "anonymous": false,
      "inputs": [
        {
          "indexed": true,
          "internalType": "uint256",
          "name": "pid",
          "type": "uint256"
        },
        {
          "indexed": false,
          "internalType": "address",
          "name": "sender",
          "type": "address"
        },
        {
          "indexed": false,
          "internalType": "uint256",
          "name": "beforeOverdueRate",
          "type": "uint256"
        },
        {
          "indexed": false,
          "internalType": "uint256",
          "name": "afterOverdueRate",
          "type": "uint256"
        }
      ],
      "name": "SetBorrowPoolOverdueRateEvent",
      "type": "event"
    },
    {
      "anonymous": false,
      "inputs": [
        {
          "indexed": true,
          "internalType": "address",
          "name": "sender",
          "type": "address"
        },
        {
          "indexed": false,
          "internalType": "address",
          "name": "beforeVal",
          "type": "address"
        },
        {
          "indexed": false,
          "internalType": "address",
          "name": "afterVal",
          "type": "address"
        }
      ],
      "name": "SetFunderEvent",
      "type": "event"
    },
    {
      "anonymous": false,
      "inputs": [
        {
          "indexed": true,
          "internalType": "address",
          "name": "sender",
          "type": "address"
        },
        {
          "indexed": false,
          "internalType": "uint256",
          "name": "beforeValue",
          "type": "uint256"
        },
        {
          "indexed": false,
          "internalType": "uint256",
          "name": "afterValue",
          "type": "uint256"
        }
      ],
      "name": "SetInterestPlatformRateEvent",
      "type": "event"
    },
    {
      "anonymous": false,
      "inputs": [
        {
          "indexed": true,
          "internalType": "uint256",
          "name": "position",
          "type": "uint256"
        },
        {
          "indexed": false,
          "internalType": "address",
          "name": "sender",
          "type": "address"
        },
        {
          "indexed": false,
          "internalType": "address",
          "name": "beforeToken0",
          "type": "address"
        },
        {
          "indexed": false,
          "internalType": "address",
          "name": "beforeToken1",
          "type": "address"
        },
        {
          "indexed": false,
          "internalType": "address",
          "name": "afterToken0",
          "type": "address"
        },
        {
          "indexed": false,
          "internalType": "address",
          "name": "afterToken1",
          "type": "address"
        }
      ],
      "name": "SetNftV3WhiteListEvent",
      "type": "event"
    },
    {
      "anonymous": false,
      "inputs": [
        {
          "indexed": true,
          "internalType": "address",
          "name": "special72",
          "type": "address"
        },
        {
          "indexed": false,
          "internalType": "address",
          "name": "sender",
          "type": "address"
        },
        {
          "indexed": false,
          "internalType": "uint256",
          "name": "beforeRate",
          "type": "uint256"
        },
        {
          "indexed": false,
          "internalType": "uint256",
          "name": "afterRate",
          "type": "uint256"
        }
      ],
      "name": "SetSpecial721BorrowRateEvent",
      "type": "event"
    },
    {
      "anonymous": false,
      "inputs": [
        {
          "indexed": true,
          "internalType": "uint256",
          "name": "bid",
          "type": "uint256"
        },
        {
          "indexed": false,
          "internalType": "uint256",
          "name": "pid",
          "type": "uint256"
        },
        {
          "indexed": false,
          "internalType": "uint256",
          "name": "amount",
          "type": "uint256"
        },
        {
          "indexed": false,
          "internalType": "uint256",
          "name": "interests",
          "type": "uint256"
        },
        {
          "indexed": false,
          "internalType": "uint256",
          "name": "platFormInterests",
          "type": "uint256"
        }
      ],
      "name": "SettlementBorrowEvent",
      "type": "event"
    },
    {
      "anonymous": false,
      "inputs": [
        {
          "indexed": true,
          "internalType": "address",
          "name": "sender",
          "type": "address"
        },
        {
          "indexed": false,
          "internalType": "uint256",
          "name": "pid",
          "type": "uint256"
        },
        {
          "indexed": false,
          "internalType": "address",
          "name": "toUser",
          "type": "address"
        },
        {
          "indexed": false,
          "internalType": "uint256",
          "name": "interests",
          "type": "uint256"
        }
      ],
      "name": "TransferInterestToLendEvent",
      "type": "event"
    },
    {
      "anonymous": false,
      "inputs": [
        {
          "indexed": true,
          "internalType": "uint256",
          "name": "bid",
          "type": "uint256"
        },
        {
          "indexed": true,
          "internalType": "uint256",
          "name": "tokenId",
          "type": "uint256"
        },
        {
          "indexed": false,
          "internalType": "uint256",
          "name": "pid",
          "type": "uint256"
        }
      ],
      "name": "TransferToAuction",
      "type": "event"
    },
    {
      "anonymous": false,
      "inputs": [
        {
          "indexed": false,
          "internalType": "address",
          "name": "account",
          "type": "address"
        }
      ],
      "name": "Unpaused",
      "type": "event"
    },
    {
      "anonymous": false,
      "inputs": [
        {
          "indexed": true,
          "internalType": "address",
          "name": "user",
          "type": "address"
        },
        {
          "indexed": true,
          "internalType": "uint256",
          "name": "tokenId",
          "type": "uint256"
        },
        {
          "indexed": true,
          "internalType": "uint256",
          "name": "pid",
          "type": "uint256"
        },
        {
          "indexed": false,
          "internalType": "uint256",
          "name": "bid",
          "type": "uint256"
        },
        {
          "indexed": false,
          "internalType": "uint256",
          "name": "value",
          "type": "uint256"
        },
        {
          "indexed": false,
          "internalType": "uint256",
          "name": "amount",
          "type": "uint256"
        },
        {
          "indexed": false,
          "internalType": "uint256",
          "name": "borrowRate",
          "type": "uint256"
        },
        {
          "indexed": false,
          "internalType": "address",
          "name": "apply721Address",
          "type": "address"
        },
        {
          "indexed": false,
          "internalType": "uint256",
          "name": "startBlock",
          "type": "uint256"
        }
      ],
      "name": "UserBorrow",
      "type": "event"
    },
    {
      "anonymous": false,
      "inputs": [
        {
          "indexed": true,
          "internalType": "address",
          "name": "user",
          "type": "address"
        },
        {
          "indexed": true,
          "internalType": "uint256",
          "name": "bid",
          "type": "uint256"
        },
        {
          "indexed": false,
          "internalType": "uint256",
          "name": "pid",
          "type": "uint256"
        },
        {
          "indexed": false,
          "internalType": "uint256",
          "name": "amount",
          "type": "uint256"
        },
        {
          "indexed": false,
          "internalType": "uint256",
          "name": "interests",
          "type": "uint256"
        },
        {
          "indexed": false,
          "internalType": "uint256",
          "name": "platFormInterests",
          "type": "uint256"
        }
      ],
      "name": "UserReturn",
      "type": "event"
    },
    {
      "anonymous": false,
      "inputs": [
        {
          "indexed": true,
          "internalType": "address",
          "name": "sender",
          "type": "address"
        },
        {
          "indexed": false,
          "internalType": "address",
          "name": "user",
          "type": "address"
        },
        {
          "indexed": false,
          "internalType": "bool",
          "name": "flag",
          "type": "bool"
        }
      ],
      "name": "setSettlementBorrowAuthEvent",
      "type": "event"
    },
    {
      "inputs": [],
      "name": "PAUSER_ROLE",
      "outputs": [
        {
          "internalType": "bytes32",
          "name": "",
          "type": "bytes32"
        }
      ],
      "stateMutability": "view",
      "type": "function"
    },
    {
      "inputs": [
        {
          "internalType": "uint256",
          "name": "",
          "type": "uint256"
        }
      ],
      "name": "______________________back",
      "outputs": [
        {
          "internalType": "address",
          "name": "",
          "type": "address"
        }
      ],
      "stateMutability": "view",
      "type": "function"
    },
    {
      "inputs": [
        {
          "internalType": "uint256",
          "name": "",
          "type": "uint256"
        }
      ],
      "name": "______________________back1",
      "outputs": [
        {
          "internalType": "address",
          "name": "",
          "type": "address"
        }
      ],
      "stateMutability": "view",
      "type": "function"
    },
    {
      "inputs": [],
      "name": "_governance",
      "outputs": [
        {
          "internalType": "address",
          "name": "",
          "type": "address"
        }
      ],
      "stateMutability": "view",
      "type": "function"
    },
    {
      "inputs": [
        {
          "internalType": "address",
          "name": "borrowToken",
          "type": "address"
        },
        {
          "internalType": "address",
          "name": "lendCToken",
          "type": "address"
        }
      ],
      "name": "addBorrowPool",
      "outputs": [],
      "stateMutability": "nonpayable",
      "type": "function"
    },
    {
      "inputs": [
        {
          "internalType": "address",
          "name": "special721",
          "type": "address"
        },
        {
          "internalType": "uint256",
          "name": "tokenId",
          "type": "uint256"
        }
      ],
      "name": "applyRate",
      "outputs": [],
      "stateMutability": "nonpayable",
      "type": "function"
    },
    {
      "inputs": [
        {
          "internalType": "uint256",
          "name": "",
          "type": "uint256"
        }
      ],
      "name": "badDebtInterest",
      "outputs": [
        {
          "internalType": "uint256",
          "name": "",
          "type": "uint256"
        }
      ],
      "stateMutability": "view",
      "type": "function"
    },
    {
      "inputs": [
        {
          "internalType": "uint256",
          "name": "",
          "type": "uint256"
        }
      ],
      "name": "badDebtPrincipal",
      "outputs": [
        {
          "internalType": "uint256",
          "name": "",
          "type": "uint256"
        }
      ],
      "stateMutability": "view",
      "type": "function"
    },
    {
      "inputs": [],
      "name": "blockPerDay",
      "outputs": [
        {
          "internalType": "uint256",
          "name": "",
          "type": "uint256"
        }
      ],
      "stateMutability": "view",
      "type": "function"
    },
    {
      "inputs": [
        {
          "internalType": "uint256",
          "name": "",
          "type": "uint256"
        }
      ],
      "name": "borrowInfo",
      "outputs": [
        {
          "internalType": "address",
          "name": "user",
          "type": "address"
        },
        {
          "internalType": "uint256",
          "name": "pid",
          "type": "uint256"
        },
        {
          "internalType": "uint256",
          "name": "tokenId",
          "type": "uint256"
        },
        {
          "internalType": "uint256",
          "name": "borrowValue",
          "type": "uint256"
        },
        {
          "internalType": "uint256",
          "name": "auctionValue",
          "type": "uint256"
        },
        {
          "internalType": "uint256",
          "name": "amount",
          "type": "uint256"
        },
        {
          "internalType": "uint256",
          "name": "repaidAmount",
          "type": "uint256"
        },
        {
          "internalType": "uint256",
          "name": "startBowShare",
          "type": "uint256"
        },
        {
          "internalType": "uint256",
          "name": "startBlock",
          "type": "uint256"
        },
        {
          "internalType": "uint256",
          "name": "returnBlock",
          "type": "uint256"
        },
        {
          "internalType": "uint256",
          "name": "interests",
          "type": "uint256"
        },
        {
          "internalType": "uint256",
          "name": "state",
          "type": "uint256"
        }
      ],
      "stateMutability": "view",
      "type": "function"
    },
    {
      "inputs": [
        {
          "internalType": "uint256",
          "name": "",
          "type": "uint256"
        }
      ],
      "name": "borrowPoolInfo",
      "outputs": [
        {
          "internalType": "address",
          "name": "token",
          "type": "address"
        },
        {
          "internalType": "address",
          "name": "ctoken",
          "type": "address"
        },
        {
          "internalType": "uint256",
          "name": "curBorrow",
          "type": "uint256"
        },
        {
          "internalType": "uint256",
          "name": "curBowRate",
          "type": "uint256"
        },
        {
          "internalType": "uint256",
          "name": "lastShareBlock",
          "type": "uint256"
        },
        {
          "internalType": "uint256",
          "name": "globalBowShare",
          "type": "uint256"
        },
        {
          "internalType": "uint256",
          "name": "globalLendInterestShare",
          "type": "uint256"
        },
        {
          "internalType": "uint256",
          "name": "totalMineInterests",
          "type": "uint256"
        },
        {
          "internalType": "uint256",
          "name": "overdueRate",
          "type": "uint256"
        }
      ],
      "stateMutability": "view",
      "type": "function"
    },
    {
      "inputs": [
        {
          "internalType": "address",
          "name": "",
          "type": "address"
        },
        {
          "internalType": "uint256",
          "name": "",
          "type": "uint256"
        }
      ],
      "name": "borrowUserInfos",
      "outputs": [
        {
          "internalType": "uint256",
          "name": "currTotalBorrow",
          "type": "uint256"
        }
      ],
      "stateMutability": "view",
      "type": "function"
    },
    {
      "inputs": [
        {
          "internalType": "address",
          "name": "_uniswapV3Oracle",
          "type": "address"
        }
      ],
      "name": "changeUniswapV3Oracle",
      "outputs": [],
      "stateMutability": "nonpayable",
      "type": "function"
    },
    {
      "inputs": [
        {
          "internalType": "uint256",
          "name": "tokenId",
          "type": "uint256"
        }
      ],
      "name": "checkNftV3WhiteList",
      "outputs": [
        {
          "internalType": "bool",
          "name": "flag",
          "type": "bool"
        }
      ],
      "stateMutability": "view",
      "type": "function"
    },
    {
      "inputs": [
        {
          "internalType": "address",
          "name": "_token",
          "type": "address"
        }
      ],
      "name": "checkPoolPause",
      "outputs": [],
      "stateMutability": "view",
      "type": "function"
    },
    {
      "inputs": [
        {
          "internalType": "address",
          "name": "_uniswapV3",
          "type": "address"
        },
        {
          "internalType": "address",
          "name": "_uniswapV3Oracle",
          "type": "address"
        },
        {
          "internalType": "contract IQuadraticLendCompound",
          "name": "_iQuadraticLendCompound",
          "type": "address"
        },
        {
          "internalType": "address",
          "name": "_quadraticAuction",
          "type": "address"
        },
        {
          "internalType": "uint256",
          "name": "_globalDefault",
          "type": "uint256"
        },
        {
          "internalType": "uint256",
          "name": "_interestPlatformRate",
          "type": "uint256"
        }
      ],
      "name": "doInitialize",
      "outputs": [],
      "stateMutability": "nonpayable",
      "type": "function"
    },
    {
      "inputs": [],
      "name": "funder",
      "outputs": [
        {
          "internalType": "address",
          "name": "",
          "type": "address"
        }
      ],
      "stateMutability": "view",
      "type": "function"
    },
    {
      "inputs": [
        {
          "internalType": "uint256",
          "name": "_pid",
          "type": "uint256"
        },
        {
          "internalType": "uint256",
          "name": "_amount",
          "type": "uint256"
        }
      ],
      "name": "funderClaim",
      "outputs": [],
      "stateMutability": "nonpayable",
      "type": "function"
    },
    {
      "inputs": [
        {
          "internalType": "uint256",
          "name": "",
          "type": "uint256"
        }
      ],
      "name": "funderPoolInterest",
      "outputs": [
        {
          "internalType": "uint256",
          "name": "",
          "type": "uint256"
        }
      ],
      "stateMutability": "view",
      "type": "function"
    },
    {
      "inputs": [
        {
          "internalType": "address",
          "name": "owner",
          "type": "address"
        },
        {
          "internalType": "uint256",
          "name": "pid",
          "type": "uint256"
        }
      ],
      "name": "getBorrowIdsOfOwnerAndPoolId",
      "outputs": [
        {
          "internalType": "uint256[]",
          "name": "",
          "type": "uint256[]"
        }
      ],
      "stateMutability": "view",
      "type": "function"
    },
    {
      "inputs": [
        {
          "internalType": "address",
          "name": "owner",
          "type": "address"
        }
      ],
      "name": "getBorrowPoolIdsOfOwner",
      "outputs": [
        {
          "internalType": "uint256[]",
          "name": "",
          "type": "uint256[]"
        }
      ],
      "stateMutability": "view",
      "type": "function"
    },
    {
      "inputs": [
        {
          "internalType": "uint256",
          "name": "pid",
          "type": "uint256"
        }
      ],
      "name": "getBorrowingRate",
      "outputs": [
        {
          "internalType": "uint256",
          "name": "",
          "type": "uint256"
        }
      ],
      "stateMutability": "view",
      "type": "function"
    },
    {
      "inputs": [
        {
          "internalType": "uint256",
          "name": "pid",
          "type": "uint256"
        }
      ],
      "name": "getFundUtilization",
      "outputs": [
        {
          "internalType": "uint256",
          "name": "",
          "type": "uint256"
        }
      ],
      "stateMutability": "view",
      "type": "function"
    },
    {
      "inputs": [
        {
          "internalType": "uint256",
          "name": "pid",
          "type": "uint256"
        }
      ],
      "name": "getGlobalLendInterestShare",
      "outputs": [
        {
          "internalType": "uint256",
          "name": "globalLendInterestShare",
          "type": "uint256"
        }
      ],
      "stateMutability": "view",
      "type": "function"
    },
    {
      "inputs": [
        {
          "internalType": "uint256",
          "name": "pid",
          "type": "uint256"
        }
      ],
      "name": "getLendingRate",
      "outputs": [
        {
          "internalType": "uint256",
          "name": "",
          "type": "uint256"
        }
      ],
      "stateMutability": "view",
      "type": "function"
    },
    {
      "inputs": [],
      "name": "getSpecial721Length",
      "outputs": [
        {
          "internalType": "uint256",
          "name": "",
          "type": "uint256"
        }
      ],
      "stateMutability": "view",
      "type": "function"
    },
    {
      "inputs": [
        {
          "internalType": "address",
          "name": "user",
          "type": "address"
        }
      ],
      "name": "getUserApplyRate",
      "outputs": [
        {
          "internalType": "string",
          "name": "name",
          "type": "string"
        },
        {
          "internalType": "uint256",
          "name": "userMaxRate",
          "type": "uint256"
        },
        {
          "internalType": "uint256",
          "name": "defaultRate",
          "type": "uint256"
        },
        {
          "internalType": "uint256",
          "name": "tokenId",
          "type": "uint256"
        },
        {
          "internalType": "address",
          "name": "apply721Address",
          "type": "address"
        },
        {
          "internalType": "bool",
          "name": "signed",
          "type": "bool"
        }
      ],
      "stateMutability": "view",
      "type": "function"
    },
    {
      "inputs": [
        {
          "internalType": "uint256",
          "name": "pid",
          "type": "uint256"
        },
        {
          "internalType": "uint256",
          "name": "tokenId",
          "type": "uint256"
        },
        {
          "internalType": "uint256",
          "name": "borrowAmount",
          "type": "uint256"
        },
        {
          "internalType": "address",
          "name": "_user",
          "type": "address"
        }
      ],
      "name": "getUserMaxBorrowAmount",
      "outputs": [
        {
          "internalType": "uint256",
          "name": "_maxBorrowAmount",
          "type": "uint256"
        },
        {
          "internalType": "bool",
          "name": "_flag",
          "type": "bool"
        }
      ],
      "stateMutability": "view",
      "type": "function"
    },
    {
      "inputs": [],
      "name": "globalDefault",
      "outputs": [
        {
          "internalType": "uint256",
          "name": "",
          "type": "uint256"
        }
      ],
      "stateMutability": "view",
      "type": "function"
    },
    {
      "inputs": [
        {
          "internalType": "bytes32",
          "name": "role",
          "type": "bytes32"
        },
        {
          "internalType": "address",
          "name": "account",
          "type": "address"
        }
      ],
      "name": "grantRole",
      "outputs": [],
      "stateMutability": "nonpayable",
      "type": "function"
    },
    {
      "inputs": [
        {
          "internalType": "bytes32",
          "name": "role",
          "type": "bytes32"
        },
        {
          "internalType": "address",
          "name": "account",
          "type": "address"
        }
      ],
      "name": "hasRole",
      "outputs": [
        {
          "internalType": "bool",
          "name": "",
          "type": "bool"
        }
      ],
      "stateMutability": "view",
      "type": "function"
    },
    {
      "inputs": [],
      "name": "interestPlatformRate",
      "outputs": [
        {
          "internalType": "uint256",
          "name": "",
          "type": "uint256"
        }
      ],
      "stateMutability": "view",
      "type": "function"
    },
    {
      "inputs": [
        {
          "internalType": "uint256",
          "name": "bid",
          "type": "uint256"
        }
      ],
      "name": "isBorrowOverdue",
      "outputs": [
        {
          "internalType": "bool",
          "name": "",
          "type": "bool"
        }
      ],
      "stateMutability": "view",
      "type": "function"
    },
    {
      "inputs": [],
      "name": "lendCompound",
      "outputs": [
        {
          "internalType": "contract IQuadraticLendCompound",
          "name": "",
          "type": "address"
        }
      ],
      "stateMutability": "view",
      "type": "function"
    },
    {
      "inputs": [
        {
          "internalType": "uint256",
          "name": "",
          "type": "uint256"
        }
      ],
      "name": "minSettingCollateral",
      "outputs": [
        {
          "internalType": "uint256",
          "name": "",
          "type": "uint256"
        }
      ],
      "stateMutability": "view",
      "type": "function"
    },
    {
      "inputs": [],
      "name": "pause",
      "outputs": [],
      "stateMutability": "nonpayable",
      "type": "function"
    },
    {
      "inputs": [
        {
          "internalType": "uint256",
          "name": "_pid",
          "type": "uint256"
        }
      ],
      "name": "pausePool",
      "outputs": [],
      "stateMutability": "nonpayable",
      "type": "function"
    },
    {
      "inputs": [],
      "name": "paused",
      "outputs": [
        {
          "internalType": "bool",
          "name": "",
          "type": "bool"
        }
      ],
      "stateMutability": "view",
      "type": "function"
    },
    {
      "inputs": [
        {
          "internalType": "uint256",
          "name": "bid",
          "type": "uint256"
        }
      ],
      "name": "pendingReturnInterests",
      "outputs": [
        {
          "internalType": "uint256",
          "name": "",
          "type": "uint256"
        }
      ],
      "stateMutability": "view",
      "type": "function"
    },
    {
      "inputs": [],
      "name": "quadraticAuction",
      "outputs": [
        {
          "internalType": "address",
          "name": "",
          "type": "address"
        }
      ],
      "stateMutability": "view",
      "type": "function"
    },
    {
      "inputs": [
        {
          "internalType": "bytes32",
          "name": "role",
          "type": "bytes32"
        },
        {
          "internalType": "address",
          "name": "account",
          "type": "address"
        }
      ],
      "name": "revokeRole",
      "outputs": [],
      "stateMutability": "nonpayable",
      "type": "function"
    },
    {
      "inputs": [
        {
          "internalType": "uint256",
          "name": "pid",
          "type": "uint256"
        },
        {
          "internalType": "uint256",
          "name": "overdueRate",
          "type": "uint256"
        }
      ],
      "name": "setBorrowPoolOverdueRate",
      "outputs": [],
      "stateMutability": "nonpayable",
      "type": "function"
    },
    {
      "inputs": [
        {
          "internalType": "address",
          "name": "_funder",
          "type": "address"
        }
      ],
      "name": "setFunder",
      "outputs": [],
      "stateMutability": "nonpayable",
      "type": "function"
    },
    {
      "inputs": [
        {
          "internalType": "address",
          "name": "governance",
          "type": "address"
        }
      ],
      "name": "setGovernance",
      "outputs": [],
      "stateMutability": "nonpayable",
      "type": "function"
    },
    {
      "inputs": [
        {
          "internalType": "uint256",
          "name": "_interestPlatformRate",
          "type": "uint256"
        }
      ],
      "name": "setInterestPlatformRate",
      "outputs": [],
      "stateMutability": "nonpayable",
      "type": "function"
    },
    {
      "inputs": [
        {
          "internalType": "uint256",
          "name": "_pid",
          "type": "uint256"
        },
        {
          "internalType": "uint256",
          "name": "_minAmount",
          "type": "uint256"
        }
      ],
      "name": "setMinSettingCollateral",
      "outputs": [],
      "stateMutability": "nonpayable",
      "type": "function"
    },
    {
      "inputs": [
        {
          "internalType": "address",
          "name": "_user",
          "type": "address"
        },
        {
          "internalType": "bool",
          "name": "_flag",
          "type": "bool"
        }
      ],
      "name": "setSettlementBorrowAuth",
      "outputs": [],
      "stateMutability": "nonpayable",
      "type": "function"
    },
    {
      "inputs": [
        {
          "internalType": "address",
          "name": "special721",
          "type": "address"
        },
        {
          "internalType": "uint256",
          "name": "rate",
          "type": "uint256"
        },
        {
          "internalType": "string",
          "name": "name",
          "type": "string"
        }
      ],
      "name": "setSpecial721BorrowRate",
      "outputs": [],
      "stateMutability": "nonpayable",
      "type": "function"
    },
    {
      "inputs": [
        {
          "internalType": "uint256",
          "name": "bid",
          "type": "uint256"
        }
      ],
      "name": "settlementBorrow",
      "outputs": [],
      "stateMutability": "nonpayable",
      "type": "function"
    },
    {
      "inputs": [
        {
          "internalType": "address",
          "name": "",
          "type": "address"
        }
      ],
      "name": "settlementBorrowAuth",
      "outputs": [
        {
          "internalType": "bool",
          "name": "",
          "type": "bool"
        }
      ],
      "stateMutability": "view",
      "type": "function"
    },
    {
      "inputs": [
        {
          "internalType": "address",
          "name": "tokenA",
          "type": "address"
        },
        {
          "internalType": "address",
          "name": "tokenB",
          "type": "address"
        }
      ],
      "name": "sortTokens",
      "outputs": [
        {
          "internalType": "address",
          "name": "token0",
          "type": "address"
        },
        {
          "internalType": "address",
          "name": "token1",
          "type": "address"
        }
      ],
      "stateMutability": "pure",
      "type": "function"
    },
    {
      "inputs": [
        {
          "internalType": "uint256",
          "name": "",
          "type": "uint256"
        }
      ],
      "name": "special721Arr",
      "outputs": [
        {
          "internalType": "address",
          "name": "",
          "type": "address"
        }
      ],
      "stateMutability": "view",
      "type": "function"
    },
    {
      "inputs": [
        {
          "internalType": "address",
          "name": "",
          "type": "address"
        }
      ],
      "name": "special721Info",
      "outputs": [
        {
          "internalType": "string",
          "name": "name",
          "type": "string"
        },
        {
          "internalType": "uint256",
          "name": "rate",
          "type": "uint256"
        }
      ],
      "stateMutability": "view",
      "type": "function"
    },
    {
      "inputs": [
        {
          "internalType": "uint256",
          "name": "pid",
          "type": "uint256"
        },
        {
          "internalType": "address",
          "name": "toUser",
          "type": "address"
        },
        {
          "internalType": "uint256",
          "name": "interests",
          "type": "uint256"
        }
      ],
      "name": "transferInterestToLend",
      "outputs": [],
      "stateMutability": "nonpayable",
      "type": "function"
    },
    {
      "inputs": [
        {
          "internalType": "uint256",
          "name": "bid",
          "type": "uint256"
        }
      ],
      "name": "transferToAuction",
      "outputs": [],
      "stateMutability": "nonpayable",
      "type": "function"
    },
    {
      "inputs": [],
      "name": "uniswapV3",
      "outputs": [
        {
          "internalType": "contract IERC721",
          "name": "",
          "type": "address"
        }
      ],
      "stateMutability": "view",
      "type": "function"
    },
    {
      "inputs": [],
      "name": "uniswapV3Oracle",
      "outputs": [
        {
          "internalType": "contract IUniswapV3Oracle",
          "name": "",
          "type": "address"
        }
      ],
      "stateMutability": "view",
      "type": "function"
    },
    {
      "inputs": [],
      "name": "unpause",
      "outputs": [],
      "stateMutability": "nonpayable",
      "type": "function"
    },
    {
      "inputs": [
        {
          "internalType": "uint256",
          "name": "_pid",
          "type": "uint256"
        }
      ],
      "name": "unpausePool",
      "outputs": [],
      "stateMutability": "nonpayable",
      "type": "function"
    },
    {
      "inputs": [
        {
          "internalType": "uint256",
          "name": "pid",
          "type": "uint256"
        }
      ],
      "name": "updateBorrowPool",
      "outputs": [],
      "stateMutability": "nonpayable",
      "type": "function"
    },
    {
      "inputs": [
        {
          "internalType": "address",
          "name": "",
          "type": "address"
        }
      ],
      "name": "userApplyRate",
      "outputs": [
        {
          "internalType": "address",
          "name": "apply721Address",
          "type": "address"
        },
        {
          "internalType": "uint256",
          "name": "specialMaxRate",
          "type": "uint256"
        },
        {
          "internalType": "uint256",
          "name": "tokenId",
          "type": "uint256"
        }
      ],
      "stateMutability": "view",
      "type": "function"
    },
    {
      "inputs": [
        {
          "internalType": "uint256",
          "name": "bid",
          "type": "uint256"
        },
        {
          "internalType": "uint256",
          "name": "repayAmount",
          "type": "uint256"
        }
      ],
      "name": "userReturn",
      "outputs": [],
      "stateMutability": "nonpayable",
      "type": "function"
    },
    {
      "inputs": [
        {
          "internalType": "uint256",
          "name": "pid",
          "type": "uint256"
        },
        {
          "internalType": "uint256",
          "name": "tokenId",
          "type": "uint256"
        },
        {
          "internalType": "uint256",
          "name": "borrowAmount",
          "type": "uint256"
        }
      ],
      "name": "v3NFTBorrow",
      "outputs": [],
      "stateMutability": "nonpayable",
      "type": "function"
    }
  ],
  "bytecode": "0x608060405261028a60125534801561001657600080fd5b506000805460ff60a01b196001600160a01b03199091163217169055600180556151ad806100456000396000f3fe608060405234801561001057600080fd5b50600436106103c55760003560e01c806369e9d4c1116101ff578063ac40ae021161011a578063e0ced952116100ad578063ee77d32f1161007c578063ee77d32f146109b2578063ee80ac6f146109c5578063f4119594146109e5578063f807eb12146109f8576103c5565b8063e0ced95214610960578063e3759d1514610973578063e49352fe14610994578063e63ab1e91461099d576103c5565b8063cf9f79c8116100e9578063cf9f79c8146108fc578063d547741f1461090f578063d9f899f214610922578063de587a271461094d576103c5565b8063ac40ae02146108ba578063b13ae804146108c3578063b36cd07f146108d6578063c6ce5805146108e9576103c5565b806391d14854116101925780639cf0b430116101615780639cf0b4301461082c5780639f0950f91461084c578063a38acccb14610894578063ab033ea9146108a7576103c5565b806391d14854146107d357806393e5b188146107e65780639a01a4f7146107f95780639aea17b41461080c576103c5565b806389a52cfc116101ce57806389a52cfc146107385780638c7421301461074b5780638e7d12bd1461075e57806391300db714610771576103c5565b806369e9d4c11461068757806372543925146106a75780637d3e2a5a146106ba5780638456cb5914610730576103c5565b806325c60194116102ef5780634ddf733211610282578063584b8bf411610251578063584b8bf41461063b5780635c975abb1461064e5780635e8ead77146106615780636427386014610674576103c5565b80634ddf7332146105c257806351f1a51f146105e2578063544caa56146105f55780635712cfc614610628576103c5565b806336311d28116102be57806336311d281461058c5780633ddb99431461059f5780633f4ba83a146105a757806341dd50d4146105af576103c5565b806325c60194146105305780632e5871ec146105435780632f2ff15d1461055657806335e41bd514610569576103c5565b806319e4d512116103675780631fe7cacf116103365780631fe7cacf146104e057806320a1e88a146104f357806321a043af1461050a57806322be6b1f1461051d576103c5565b806319e4d512146104945780631c2f3e3d146104a75780631e0b8043146104ba5780631e8438c4146104cd576103c5565b806306f21ab3116103a357806306f21ab3146104365780630acc8cd11461044b5780631575df931461045e5780631917abb214610471576103c5565b8063012a472c146103ca5780630411f4b7146103f8578063041ae88014610423575b600080fd5b6103dd6103d8366004614a17565b610a20565b6040516103ef96959493929190614eb9565b60405180910390f35b60085461040b906001600160a01b031681565b6040516001600160a01b0390911681526020016103ef565b60165461040b906001600160a01b031681565b610449610444366004614a4f565b610bd0565b005b610449610459366004614a17565b610de3565b61040b61046c366004614c9d565b610e71565b61048461047f366004614c9d565b610e9b565b60405190151581526020016103ef565b6104496104a2366004614b4c565b611103565b60005461040b906001600160a01b031681565b6104496104c8366004614b21565b61127e565b6104496104db366004614af4565b611376565b6104496104ee366004614c9d565b6113fe565b6104fc60175481565b6040519081526020016103ef565b6104fc610518366004614c9d565b611489565b6104fc61052b366004614c9d565b6114b0565b61044961053e366004614ccd565b611598565b610449610551366004614d04565b61169d565b610449610564366004614c14565b61174e565b610484610577366004614a17565b60136020526000908152604090205460ff1681565b61044961059a366004614c9d565b611782565b600e546104fc565b610449611c72565b61040b6105bd366004614c9d565b611ca6565b6104fc6105d0366004614c9d565b60146020526000908152604090205481565b6104496105f0366004614d04565b611cb6565b610608610603366004614a4f565b611e90565b604080516001600160a01b039384168152929091166020830152016103ef565b6104fc610636366004614c9d565b611f71565b61040b610649366004614c9d565b611f97565b610484600054600160a01b900460ff1690565b61044961066f366004614c9d565b611fa7565b60115461040b906001600160a01b031681565b6104fc610695366004614c9d565b60156020526000908152604090205481565b6104496106b5366004614c9d565b612114565b6106cd6106c8366004614c9d565b61248b565b604080516001600160a01b03909d168d5260208d019b909b52998b019890985260608a0196909652608089019490945260a088019290925260c087015260e0860152610100850152610120840152610140830152610160820152610180016103ef565b610449612505565b610449610746366004614a17565b61256d565b6104fc610759366004614c9d565b6125e4565b60095461040b906001600160a01b031681565b61078461077f366004614c9d565b612620565b604080516001600160a01b039a8b1681529990981660208a0152968801959095526060870193909352608086019190915260a085015260c084015260e0830152610100820152610120016103ef565b6104846107e1366004614c14565b612688565b6104496107f4366004614a17565b6126b3565b600a5461040b906001600160a01b031681565b61081f61081a366004614b21565b612739565b6040516103ef9190614e40565b6104fc61083a366004614c9d565b60186020526000908152604090205481565b61088561085a366004614a17565b6010602052600090815260409020805460018201546002909201546001600160a01b03909116919083565b6040516103ef93929190614e1f565b6104496108a2366004614d48565b612863565b6104496108b5366004614a17565b612e9a565b6104fc60125481565b6104496108d1366004614c9d565b612f75565b6104fc6108e4366004614c9d565b6130ac565b6104496108f7366004614c9d565b6130d8565b61081f61090a366004614a17565b61310b565b61044961091d366004614c14565b613213565b6104fc610930366004614b21565b600460209081526000928352604080842090915290825290205481565b61044961095b366004614a87565b613247565b61044961096e366004614d04565b613433565b610986610981366004614a17565b613a5f565b6040516103ef929190614e97565b6104fc61168081565b6104fc60008051602061515883398151915281565b6104496109c0366004614d04565b613b03565b6104fc6109d3366004614c9d565b60196020526000908152604090205481565b6104846109f3366004614c9d565b613b82565b610a0b610a06366004614d73565b613c08565b604080519283529015156020830152016103ef565b6012546001600160a01b038083166000908152601060205260408120546060939192839116818115610bbe576001600160a01b038781166000908152601060205260408082206002015490516331a9108f60e11b8152600481018290529095509091841690636352211e9060240160206040518083038186803b158015610aa657600080fd5b505afa158015610aba573d6000803e3d6000fd5b505050506040513d601f19601f82011682018060405250810190610ade9190614a33565b9050806001600160a01b0316886001600160a01b03161415610bbc576001600160a01b0380891660009081526010602090815260408083206001908101549488168452600f909252909120805492985090935090610b3b906150b2565b80601f0160208091040260200160405190810160405280929190818152602001828054610b67906150b2565b8015610bb45780601f10610b8957610100808354040283529160200191610bb4565b820191906000526020600020905b815481529060010190602001808311610b9757829003601f168201915b505050505096505b505b84610bc7578394505b91939550919395565b600a546001600160a01b03163314610c035760405162461bcd60e51b8152600401610bfa90614f00565b60405180910390fd5b60408051610120810182526001600160a01b03938416815291831660208301908152600091830182815260608401838152436080860190815260a0860185815260c0870186815260e088018781526103206101008a01908152600b80546001810182559952985160099098027f0175b7a638427703f0dbe7bb9bbf987a2551717b34e79f33b5b1008d1fa01db981018054998c166001600160a01b03199a8b1617905596517f0175b7a638427703f0dbe7bb9bbf987a2551717b34e79f33b5b1008d1fa01dba8801805491909b1698169790971790985592517f0175b7a638427703f0dbe7bb9bbf987a2551717b34e79f33b5b1008d1fa01dbb85015590517f0175b7a638427703f0dbe7bb9bbf987a2551717b34e79f33b5b1008d1fa01dbc840155517f0175b7a638427703f0dbe7bb9bbf987a2551717b34e79f33b5b1008d1fa01dbd830155517f0175b7a638427703f0dbe7bb9bbf987a2551717b34e79f33b5b1008d1fa01dbe82015592517f0175b7a638427703f0dbe7bb9bbf987a2551717b34e79f33b5b1008d1fa01dbf840155517f0175b7a638427703f0dbe7bb9bbf987a2551717b34e79f33b5b1008d1fa01dc0830155517f0175b7a638427703f0dbe7bb9bbf987a2551717b34e79f33b5b1008d1fa01dc190910155565b6000546001600160a01b03163314610e0d5760405162461bcd60e51b8152600401610bfa90614fbf565b601680546001600160a01b038381166001600160a01b0319831681179093556040805191909216808252602082019390935233917f7bdd8beff7d8411e2b81e553a7f28dd1d15b287f3a02a33f26ac4e4d7a5f866091015b60405180910390a25050565b600e8181548110610e8157600080fd5b6000918252602090912001546001600160a01b0316905081565b60008060078381548110610ebf57634e487b7160e01b600052603260045260246000fd5b600091825260208083206040805161018081018252600c90940290910180546001600160a01b0316845260018101549284018390526002810154918401919091526003810154606084015260048101546080840152600581015460a0840152600681015460c0840152600781015460e084015260088101546101008401526009810154610120840152600a810154610140840152600b908101546101608401528054929450918110610f8157634e487b7160e01b600052603260045260246000fd5b600091825260208083206040805161012081018252600990940290910180546001600160a01b039081168086526001830154821694860194909452600282015485840152600382015460608601526004808301546080870152600583015460a0870152600683015460c0870152600783015460e08701526008909201546101008601526011548884015193516304bd838960e41b81529597501693634bd838909361104193929091019182526001600160a01b0316602082015260400190565b604080518083038186803b15801561105857600080fd5b505afa15801561106c573d6000803e3d6000fd5b505050506040513d601f19601f820116820180604052508101906110909190614d25565b50905060006110b96103e86110b385610100015185613d9190919063ffffffff16565b90613d9d565b905060006110c687613da9565b9050816110e08660a0015183613f6290919063ffffffff16565b11156110f4576001955050505050506110fe565b6000955050505050505b919050565b6000546001600160a01b0316331461112d5760405162461bcd60e51b8152600401610bfa90614fbf565b6103e8821061114e5760405162461bcd60e51b8152600401610bfa90614f7b565b6001600160a01b0383166000908152600f6020908152604090912060018101548351909261118092919085019061497e565b506001600160a01b0384166000908152600f602052604081206001908101859055905b600e5481101561120e57856001600160a01b0316600e82815481106111d857634e487b7160e01b600052603260045260246000fd5b6000918252602090912001546001600160a01b031614156111fc576000915061120e565b80611206816150ed565b9150506111a3565b50801561123257600e8054869190634e487b7160e01b600052603260045260246000fd5b846001600160a01b03167f012b78c5d21ba97b720997b598236d1931fd00cf38a65f88b51ca53092f6baf533848760405161126f93929190614e1f565b60405180910390a25050505050565b611286613f6e565b61128e613fc8565b6001600160a01b0382166000908152600f6020526040902060010154806112f75760405162461bcd60e51b815260206004820152601e60248201527f546869732037323120436f6e7472616374206e6f742073657474696e672e00006044820152606401610bfa565b336000818152601060205260409081902080546001600160a01b0319166001600160a01b03871617815560018101849055600201849055517f1e539acd4750e5a45f933dcf79543f31ff71228f09cdb2073a13800d3fd4d44e9061136090869085908790614e1f565b60405180910390a25061137260018055565b5050565b6000546001600160a01b031633146113a05760405162461bcd60e51b8152600401610bfa90614fbf565b6001600160a01b038216600081815260136020908152604091829020805460ff191685151590811790915582519384529083015233917f3e8a5da8cabc1b490a219f97b787a956fa8fe76312bfe464ecbe6764a27302329101610e65565b6000546001600160a01b031633146114285760405162461bcd60e51b8152600401610bfa90614fbf565b61271081106114495760405162461bcd60e51b8152600401610bfa90614f7b565b6017805490829055604080518281526020810184905233917f948e8b1938d4e599e9ca63988998041e722ffd1f32cca33174001002d80a51c49101610e65565b600061149482610e9b565b156114a1575060006110fe565b6114aa82613da9565b92915050565b600a546040516303afb43360e11b81526004810183905260009182916001600160a01b039091169063075f68669060240160a06040518083038186803b1580156114f957600080fd5b505afa15801561150d573d6000803e3d6000fd5b505050506040513d601f19601f820116820180604052508101906115319190614c38565b9050600061155082606001518360400151613f6290919063ffffffff16565b1161155f5760009150506110fe565b61159161157d82606001518360400151613f6290919063ffffffff16565b60608301516110b39064e8d4a51000613d91565b9392505050565b600a546001600160a01b031633146115c25760405162461bcd60e51b8152600401610bfa90614f00565b611605600b84815481106115e657634e487b7160e01b600052603260045260246000fd5b60009182526020909120600990910201546001600160a01b031661256d565b61164c8282600b868154811061162b57634e487b7160e01b600052603260045260246000fd5b60009182526020909120600990910201546001600160a01b0316919061401b565b604080518481526001600160a01b038416602082015290810182905233907fce170d5650bdcc51636034b3f5b91db7f7ff62151f63e68616f5c4c930521aca906060015b60405180910390a2505050565b6000546001600160a01b031633146116c75760405162461bcd60e51b8152600401610bfa90614fbf565b6000600b83815481106116ea57634e487b7160e01b600052603260045260246000fd5b90600052602060002090600902019050600081600801549050828260080181905550837fb898b12c44cb1aea78e35bcabb7eeeb5d86ef4848d91556dcc1f368af3ba62e633838660405161174093929190614e1f565b60405180910390a250505050565b6000546001600160a01b031633146117785760405162461bcd60e51b8152600401610bfa90614fbf565b611372828261407e565b61178a613f6e565b611792613fc8565b61179b81610e9b565b6117dd5760405162461bcd60e51b815260206004820152601360248201527263616e206e6f742061756374696f6e206e6f7760681b6044820152606401610bfa565b60006007828154811061180057634e487b7160e01b600052603260045260246000fd5b90600052602060002090600c0201905080600b015460011461185a5760405162461bcd60e51b81526020600482015260136024820152723137b93937bb9039ba30ba329032b93937b91760691b6044820152606401610bfa565b80546001820154600b80546001600160a01b039093169260009290811061189157634e487b7160e01b600052603260045260246000fd5b6000918252602090912060099091020180549091506118b8906001600160a01b031661256d565b6001600160a01b03821660009081526004602090815260408083206001870154845290915290206009600b8501556118ef85613da9565b600a85015560058401548154611904916140e7565b81556001600160a01b038316600090815260056020908152604080832060018801548452909152902061193790866140f3565b506001600160a01b0383166000908152600560209081526040808320600188015484529091529020611968906140ff565b6119945760018401546001600160a01b0384166000908152600660205260409020611992916140f3565b505b600584015460018501546000908152601460205260409020546119b691613f62565b600185018054600090815260146020908152604080832094909455600a880154925482526015905291909120546119ec91613f62565b600185018054600090815260156020526040902091909155546005850154611a1691906002614109565b600a5460018501546005860154604051632f50ba4360e11b8152600481019290925260248201526001600160a01b0390911690635ea1748690604401600060405180830381600087803b158015611a6c57600080fd5b505af1158015611a80573d6000803e3d6000fd5b5050601154600287015485546040516304bd838960e41b815260048101929092526001600160a01b039081166024830152600094509091169150634bd8389090604401604080518083038186803b158015611ada57600080fd5b505afa158015611aee573d6000803e3d6000fd5b505050506040513d601f19601f82011682018060405250810190611b129190614d25565b50600486810182905560095460085460028901548754600a8b01546040516372abff2960e01b81526001600160a01b03948516968101969096526024860192909252604485018c9052821660648501526084840185905260a484015292935091909116906372abff299060c401600060405180830381600087803b158015611b9957600080fd5b505af1158015611bad573d6000803e3d6000fd5b505060085460095460028901546040516323b872dd60e01b81526001600160a01b0393841695506323b872dd9450611bec933093169190600401614dfb565b600060405180830381600087803b158015611c0657600080fd5b505af1158015611c1a573d6000803e3d6000fd5b505050508460020154867fb23eb9c94498577267929ee3a0dfb5264937ecd77eabac78da59dac1efee11af8760010154604051611c5991815260200190565b60405180910390a35050505050611c6f60018055565b50565b6000546001600160a01b03163314611c9c5760405162461bcd60e51b8152600401610bfa90614fbf565b611ca4614182565b565b600c8181548110610e8157600080fd5b6016546001600160a01b03163314611d105760405162461bcd60e51b815260206004820152601860248201527f6e6f742066756e64657220766973746f7220616c6c6f772e00000000000000006044820152606401610bfa565b60008281526018602052604090205481811015611d5f5760405162461bcd60e51b815260206004820152600d60248201526c2bb937b7339030b6b7bab73a1760991b6044820152606401610bfa565b600083815260186020526040902054611d7890836140e7565b600084815260186020526040812091909155600b805485908110611dac57634e487b7160e01b600052603260045260246000fd5b60009182526020918290206040805161012081018252600990930290910180546001600160a01b039081168085526001830154909116948401949094526002810154918301919091526003810154606083015260048101546080830152600581015460a0830152600681015460c0830152600781015460e0830152600801546101008201529150611e3c9061256d565b6016548151611e58916001600160a01b0391821691168561401b565b604080518581526020810185905233917feb52865751bf5832b7c0bc5d822e259533c31650eff77ad238b0f5152f77fd2c9101611740565b600080826001600160a01b0316846001600160a01b03161415611ef55760405162461bcd60e51b815260206004820152601b60248201527f5633204e46543a204944454e544943414c5f41444452455353455300000000006044820152606401610bfa565b826001600160a01b0316846001600160a01b031610611f15578284611f18565b83835b90925090506001600160a01b038216611f6a5760405162461bcd60e51b81526020600482015260146024820152735633204e46543a205a45524f5f4144445245535360601b6044820152606401610bfa565b9250929050565b60006114aa64e8d4a510006110b3611f88856130ac565b611f91866114b0565b90613d91565b600d8181548110610e8157600080fd5b600080516020615158833981519152611fc08133612688565b6120075760405162461bcd60e51b815260206004820152601860248201527730b1b1b7bab73a1034b99036b4b9b9b4b733903937b6329760411b6044820152606401610bfa565b6000600b838154811061202a57634e487b7160e01b600052603260045260246000fd5b60009182526020918290206040805161012081018252600990930290910180546001600160a01b039081168085526001830154909116948401949094526002810154918301919091526003810154606083015260048101546080830152600581015460a0830152600681015460c0830152600781015460e08301526008015461010082015291506120dc907fe1518dcd454e34128041da7650fde1a12551e3e90f879a74ba9c344c467163229061407e565b604080518481526001602082015233917f8825f3b37c71ed68326b85768a26f08960100ff9ce5a70fea0d194f4d3be9d429101611690565b3360009081526013602052604090205460ff1661217f5760405162461bcd60e51b815260206004820152602360248201527f6e6f7420736574746c656d656e7420626f72726f7720766973746f7220616c6c60448201526237bb9760e91b6064820152608401610bfa565b612187613f6e565b61218f613fc8565b6000600782815481106121b257634e487b7160e01b600052603260045260246000fd5b90600052602060002090600c0201905080600b01546009146122055760405162461bcd60e51b815260206004820152600c60248201526b6572726f722073746174757360a01b6044820152606401610bfa565b6000600b82600101548154811061222c57634e487b7160e01b600052603260045260246000fd5b600091825260209091206009909102018054909150612253906001600160a01b031661256d565b6008600b830155436009830155600a82015460058301546000916122779190613f62565b6005840154600185015460009081526014602052604090205491925061229d91906140e7565b600184018054600090815260146020908152604080832094909455600a870154925482526015905291909120546122d3916140e7565b6001840154600090815260156020526040812091909155601754600a85015461230391612710916110b391613d91565b905061232984600101546123248387600a01546140e790919063ffffffff16565b6141d7565b8254612340906001600160a01b03163330856142ce565b80156123795760018401546000908152601860205260409020546123649082613f62565b60018501546000908152601860205260409020555b600a548354612396916001600160a01b03918216911660006142ef565b600a54600585015484546123b8926001600160a01b03918216929116906142ef565b600a546001850154600586015460405163cd1fa12f60e01b8152600481019290925260248201526001600160a01b039091169063cd1fa12f90604401600060405180830381600087803b15801561240e57600080fd5b505af1158015612422573d6000803e3d6000fd5b50505060018501546005860154600a87015460408051938452602084019290925290820152606081018390528691507fd6279cb4c900712994fa56f896b7c2fc1226a85706c06dd7678198df07419ff09060800160405180910390a250505050611c6f60018055565b6007818154811061249b57600080fd5b60009182526020909120600c9091020180546001820154600283015460038401546004850154600586015460068701546007880154600889015460098a0154600a8b0154600b909b01546001600160a01b03909a169b50979996989597949693959294919390928c565b60008051602061515883398151915261251e8133612688565b6125655760405162461bcd60e51b815260206004820152601860248201527730b1b1b7bab73a1034b99036b4b9b9b4b733903937b6329760411b6044820152606401610bfa565b611c6f614413565b6125977fe1518dcd454e34128041da7650fde1a12551e3e90f879a74ba9c344c4671632282612688565b15611c6f5760405162461bcd60e51b815260206004820152601d60248201527f5468697320706f6f6c20686173206265656e2073757370656e6465642e0000006044820152606401610bfa565b6000600b828154811061260757634e487b7160e01b600052603260045260246000fd5b9060005260206000209060090201600601549050919050565b600b818154811061263057600080fd5b60009182526020909120600990910201805460018201546002830154600384015460048501546005860154600687015460078801546008909801546001600160a01b0397881699509690951696939592949193909289565b60009182526002602090815260408084206001600160a01b0393909316845291905290205460ff1690565b6000546001600160a01b031633146126dd5760405162461bcd60e51b8152600401610bfa90614fbf565b601180546001600160a01b038381166001600160a01b0319831681179093556040805191909216808252602082019390935233917f55f88e1a470467a8151fa2efb5c4a38d5ead3df1c5a84112b8d2b428ac28e7529101610e65565b6001600160a01b0382166000908152600560209081526040808320848452909152812060609190612769906140ff565b67ffffffffffffffff81111561278f57634e487b7160e01b600052604160045260246000fd5b6040519080825280602002602001820160405280156127b8578160200160208202803683370190505b50905060005b6001600160a01b038516600090815260056020908152604080832087845290915290206127ea906140ff565b81101561285b576001600160a01b0385166000908152600560209081526040808320878452909152902061281e9082614456565b82828151811061283e57634e487b7160e01b600052603260045260246000fd5b602090810291909101015280612853816150ed565b9150506127be565b509392505050565b333b1515806128725750323314155b156128ed576128a17fb08ae0ab489f3db6965ca08713613b335addfe0b316a24a9d9a85fbc99bff5f533612688565b6128ed5760405162461bcd60e51b815260206004820152601b60248201527f6e6f742077686974656c69737420766973746f7220616c6c6f772e00000000006044820152606401610bfa565b6128f5613f6e565b6128fd613fc8565b61290682613b82565b6129225760405162461bcd60e51b8152600401610bfa90614f30565b3360009081526004602090815260408083208684529091528120600b80549192918690811061296157634e487b7160e01b600052603260045260246000fd5b60009182526020918290206040805161012081018252600990930290910180546001600160a01b039081168085526001830154909116948401949094526002810154918301919091526003810154606083015260048101546080830152600581015460a0830152600681015460c0830152600781015460e08301526008015461010082015291506129f19061256d565b60115481516040516304bd838960e41b81526000926001600160a01b031691634bd8389091612a369189916004019182526001600160a01b0316602082015260400190565b604080518083038186803b158015612a4d57600080fd5b505afa158015612a61573d6000803e3d6000fd5b505050506040513d601f19601f82011682018060405250810190612a859190614d25565b506000878152601960205260409020549091508111612af25760405162461bcd60e51b815260206004820152602360248201527f5468652076616c7565206f6620636f6c6c61746572616c20697320746f6f206c60448201526237bb9760e91b6064820152608401610bfa565b6000612afd33610a20565b505050509150506000612b1f6103e86110b38486613d9190919063ffffffff16565b905085811015612b7d5760405162461bcd60e51b815260206004820152602360248201527f4578636565647320746865206d6178696d756d206c6f616e61626c6520616d6f6044820152621d5b9d60ea1b6064820152608401610bfa565b612b8988876001614109565b6007604051806101800160405280336001600160a01b031681526020018a815260200189815260200185815260200160008152602001888152602001600081526020018660a0015181526020014381526020016000815260200160008152602001600181525090806001815401808255809150506001900390600052602060002090600c020160009091909190915060008201518160000160006101000a8154816001600160a01b0302191690836001600160a01b031602179055506020820151816001015560408201518160020155606082015181600301556080820151816004015560a0820151816005015560c0820151816006015560e082015181600701556101008201518160080155610120820151816009015561014082015181600a015561016082015181600b0155505060006001600780549050612ccd919061506f565b8654909150612cdc9088613f62565b86553360009081526005602090815260408083208c84529091529020612d01906140ff565b612d2057336000908152600660205260409020612d1e908a614462565b505b3360009081526005602090815260408083208c84529091529020612d449082614462565b506008546040516323b872dd60e01b81526001600160a01b03909116906323b872dd90612d7990339030908d90600401614dfb565b600060405180830381600087803b158015612d9357600080fd5b505af1158015612da7573d6000803e3d6000fd5b5050600a5460405163545fb83160e11b8152600481018d9052336024820152604481018b90526001600160a01b03909116925063a8bf70629150606401600060405180830381600087803b158015612dfe57600080fd5b505af1158015612e12573d6000803e3d6000fd5b5050336000818152601060209081526040918290205482518781529182018a90528183018d9052606082018990526001600160a01b031660808201524360a082015290518d94508c93507f0a00f00280e32be58f7700959160aa318c58c4d12ad6d6d83cdf7520d8c107809181900360c00190a4505050505050612e9560018055565b505050565b6000546001600160a01b03163314612ec45760405162461bcd60e51b8152600401610bfa90614fbf565b6001600160a01b038116612f1a5760405162461bcd60e51b815260206004820152601f60248201527f6e657720676f7665726e616e636520746865207a65726f2061646472657373006044820152606401610bfa565b600080546040516001600160a01b03808516939216917f5f56bee8cffbe9a78652a74a60705edede02af10b0bbb888ca44b79a0d42ce8091a3600080546001600160a01b0319166001600160a01b0392909216919091179055565b6000546001600160a01b03163314612f9f5760405162461bcd60e51b8152600401610bfa90614fbf565b6000600b8281548110612fc257634e487b7160e01b600052603260045260246000fd5b60009182526020918290206040805161012081018252600990930290910180546001600160a01b039081168085526001830154909116948401949094526002810154918301919091526003810154606083015260048101546080830152600581015460a0830152600681015460c0830152600781015460e0830152600801546101008201529150613074907fe1518dcd454e34128041da7650fde1a12551e3e90f879a74ba9c344c467163229061446e565b604080518381526000602082015233917f8825f3b37c71ed68326b85768a26f08960100ff9ce5a70fea0d194f4d3be9d429101610e65565b60006114aa6405d21dba006130d264e8d4a510006110b3642e90edd000611f91886114b0565b90613f62565b600a546001600160a01b031633146131025760405162461bcd60e51b8152600401610bfa90614f00565b611c6f816144d5565b6001600160a01b038116600090815260066020526040812060609190613130906140ff565b67ffffffffffffffff81111561315657634e487b7160e01b600052604160045260246000fd5b60405190808252806020026020018201604052801561317f578160200160208202803683370190505b50905060005b6001600160a01b03841660009081526006602052604090206131a6906140ff565b81101561320c576001600160a01b03841660009081526006602052604090206131cf9082614456565b8282815181106131ef57634e487b7160e01b600052603260045260246000fd5b602090810291909101015280613204816150ed565b915050613185565b5092915050565b6000546001600160a01b0316331461323d5760405162461bcd60e51b8152600401610bfa90614fbf565b611372828261446e565b600354610100900460ff16158080156132675750600354600160ff909116105b806132815750303b158015613281575060035460ff166001145b6132e45760405162461bcd60e51b815260206004820152602e60248201527f496e697469616c697a61626c653a20636f6e747261637420697320616c72656160448201526d191e481a5b9a5d1a585b1a5e995960921b6064820152608401610bfa565b6003805460ff191660011790558015613307576003805461ff0019166101001790555b6103e883106133285760405162461bcd60e51b8152600401610bfa90614f7b565b61271082106133495760405162461bcd60e51b8152600401610bfa90614f7b565b600080546001600160a01b03191633908117909155613377906000805160206151588339815191529061407e565b600880546001600160a01b03199081166001600160a01b038a811691909117909255601180548216898416179055600a805482168884161790556009805490911686831617908190556012859055166000908152601360205260409020805460ff191660011790556017829055801561342a576003805461ff0019169055604051600181527f7f26b83ff96e1f2b6a682f133852f6798a09c465da95921460cefb38474024989060200160405180910390a15b50505050505050565b333b1515806134425750323314155b156134bd576134717fb08ae0ab489f3db6965ca08713613b335addfe0b316a24a9d9a85fbc99bff5f533612688565b6134bd5760405162461bcd60e51b815260206004820152601b60248201527f6e6f742077686974656c69737420766973746f7220616c6c6f772e00000000006044820152606401610bfa565b6134c5613f6e565b6134cd613fc8565b6000600783815481106134f057634e487b7160e01b600052603260045260246000fd5b60009182526020909120600c9091020180549091506001600160a01b031633146135485760405162461bcd60e51b81526020600482015260096024820152683737ba1037bbb732b960b91b6044820152606401610bfa565b6000600b82600101548154811061356f57634e487b7160e01b600052603260045260246000fd5b60009182526020918290206040805161012081018252600990930290910180546001600160a01b039081168085526001830154909116948401949094526002810154918301919091526003810154606083015260048101546080830152600581015460a0830152600681015460c0830152600781015460e08301526008015461010082015291506135ff9061256d565b3360009081526004602090815260408083206001860154845290915281209061362786613da9565b9050808510156136795760405162461bcd60e51b815260206004820152601d60248201527f4e6f7420656e6f75676820746f20726570617920696e7465726573742e0000006044820152606401610bfa565b600584015460009061368b9083613f62565b905080861115613699578095505b60006136a587846140e7565b85516040516370a0823160e01b81523360048201529192506000916001600160a01b03909116906370a082319060240160206040518083038186803b1580156136ed57600080fd5b505afa158015613701573d6000803e3d6000fd5b505050506040513d601f19601f820116820180604052508101906137259190614cb5565b90508781101561376c5760405162461bcd60e51b81526020600482015260126024820152713737ba1032b737bab3b41030b6b7bab73a1760711b6044820152606401610bfa565b61377c8760010154836002614109565b60006137996127106110b360175488613d9190919063ffffffff16565b60018901549091506137af9061232487846140e7565b85546137bb90846140e7565b865560058801548314156138be5733600090815260056020908152604080832060018c0154845290915290206137f1908b6140f3565b5085546138425733600090815260056020908152604080832060018c01548452909152902061381f906140ff565b613842576001880154336000908152600660205260409020613840916140f3565b505b4360098901556002600b8901819055600854908901546040516323b872dd60e01b81526001600160a01b03909216916323b872dd916138879130913391600401614dfb565b600060405180830381600087803b1580156138a157600080fd5b505af11580156138b5573d6000803e3d6000fd5b505050506138dd565b60058801546138cd90846140e7565b600589015560a087015160078901555b60068801546138ec9084613f62565b6006890155600a8801546139009086613f62565b600a890155865161391c906001600160a01b031633308c6142ce565b80156139555760018801546000908152601860205260409020546139409082613f62565b60018901546000908152601860205260409020555b600a548751613972916001600160a01b03918216911660006142ef565b600a54875161398e916001600160a01b039182169116856142ef565b600a54600189015460405163ec510b3b60e01b81526001600160a01b039092169163ec510b3b916139cc918790600401918252602082015260400190565b600060405180830381600087803b1580156139e657600080fd5b505af11580156139fa573d6000803e3d6000fd5b505050600189015460408051918252602082018690528101879052606081018390528b915033907f793324a68db7201628508c33a28fc8107763fee328f5f54783918c1f2844443f9060800160405180910390a3505050505050505061137260018055565b600f60205260009081526040902080548190613a7a906150b2565b80601f0160208091040260200160405190810160405280929190818152602001828054613aa6906150b2565b8015613af35780601f10613ac857610100808354040283529160200191613af3565b820191906000526020600020905b815481529060010190602001808311613ad657829003601f168201915b5050505050908060010154905082565b6000546001600160a01b03163314613b2d5760405162461bcd60e51b8152600401610bfa90614fbf565b600082815260196020908152604091829020805490849055825185815291820181905291810183905233907f79cf9f96b45472cf1222a9e1ad96a4c1cc372d190c97eb95ce5aa1a72e2d488a90606001611690565b604051634243138760e01b81526004810182905260009073502f11922661d072f91b73ae981eeedb236cb9449063424313879060240160206040518083038186803b158015613bd057600080fd5b505afa158015613be4573d6000803e3d6000fd5b505050506040513d601f19601f820116820180604052508101906114aa9190614bf8565b600080613c1485613b82565b613c305760405162461bcd60e51b8152600401610bfa90614f30565b6000600b8781548110613c5357634e487b7160e01b600052603260045260246000fd5b60009182526020808320604080516101208101825260099490940290910180546001600160a01b039081168086526001830154821694860194909452600282015485840152600382015460608601526004808301546080870152600583015460a0870152600683015460c0870152600783015460e087015260089092015461010086015260115492516304bd838960e41b81529182018c905260248201939093529294501690634bd8389090604401604080518083038186803b158015613d1957600080fd5b505afa158015613d2d573d6000803e3d6000fd5b505050506040513d601f19601f82011682018060405250810190613d519190614d25565b5090506000613d5f86610a20565b50505050915050613d7f6103e86110b38385613d9190919063ffffffff16565b99968a10159850959650505050505050565b60006115918284615050565b60006115918284615030565b60008060078381548110613dcd57634e487b7160e01b600052603260045260246000fd5b600091825260208083206040805161018081018252600c90940290910180546001600160a01b0316845260018101549284018390526002810154918401919091526003810154606084015260048101546080840152600581015460a0840152600681015460c0840152600781015460e084015260088101546101008401526009810154610120840152600a810154610140840152600b908101546101608401528054929450918110613e8f57634e487b7160e01b600052603260045260246000fd5b600091825260208083206040805161012081018252600990940290910180546001600160a01b03908116855260018201541692840192909252600282015490830152600381015460608301819052600482015460808401819052600583015460a0850152600683015460c0850152600783015460e0850152600890920154610100840152919350613f21919043614560565b9050613f5964e8d4a510006110b38560a00151611f918760e00151613f53878960a00151613f6290919063ffffffff16565b906140e7565b95945050505050565b60006115918284615018565b60026001541415613fc15760405162461bcd60e51b815260206004820152601f60248201527f5265656e7472616e637947756172643a207265656e7472616e742063616c6c006044820152606401610bfa565b6002600155565b613fdb600054600160a01b900460ff1690565b15611ca45760405162461bcd60e51b815260206004820152601060248201526f14185d5cd8589b194e881c185d5cd95960821b6044820152606401610bfa565b6040516001600160a01b038316602482015260448101829052612e9590849063a9059cbb60e01b906064015b60408051601f198184030181529190526020810180516001600160e01b03166001600160e01b03199093169290921790915261458f565b6140888282612688565b6113725760008281526002602090815260408083206001600160a01b0385168085529252808320805460ff1916600117905551339285917f2f8788117e7eff1d82e926ec794901d17c78024a50270940304540a733656f0d9190a45050565b6000611591828461506f565b60006115918383614664565b60006114aa825490565b6000600b848154811061412c57634e487b7160e01b600052603260045260246000fd5b90600052602060002090600902019050816001141561415e5760028101546141549084613f62565b6002820155614173565b600281015461416d90846140e7565b60028201555b61417c846144d5565b50505050565b61418a614781565b6000805460ff60a01b191690557f5db9ee0a495bf2e6ff9c91a7834c1ba4fdd244a5e8aa4e537bd38aeae4b073aa335b6040516001600160a01b03909116815260200160405180910390a1565b8015611372576000600b838154811061420057634e487b7160e01b600052603260045260246000fd5b9060005260206000209060090201905060008160010160009054906101000a90046001600160a01b03166001600160a01b03166318160ddd6040518163ffffffff1660e01b815260040160206040518083038186803b15801561426257600080fd5b505afa158015614276573d6000803e3d6000fd5b505050506040513d601f19601f8201168201806040525081019061429a9190614cb5565b9050801561417c576142c36142b8826110b38664e8d4a51000613d91565b600684015490613f62565b600683015550505050565b61417c846323b872dd60e01b85858560405160240161404793929190614dfb565b8015806143785750604051636eb1769f60e11b81523060048201526001600160a01b03838116602483015284169063dd62ed3e9060440160206040518083038186803b15801561433e57600080fd5b505afa158015614352573d6000803e3d6000fd5b505050506040513d601f19601f820116820180604052508101906143769190614cb5565b155b6143e35760405162461bcd60e51b815260206004820152603660248201527f5361666545524332303a20617070726f76652066726f6d206e6f6e2d7a65726f60448201527520746f206e6f6e2d7a65726f20616c6c6f77616e636560501b6064820152608401610bfa565b6040516001600160a01b038316602482015260448101829052612e9590849063095ea7b360e01b90606401614047565b61441b613fc8565b6000805460ff60a01b1916600160a01b1790557f62e78cea01bee320cd4e420270b5ea74000d11b0c9f74754ebdbfc544b05a2586141ba3390565b600061159183836147d7565b6000611591838361480f565b6144788282612688565b156113725760008281526002602090815260408083206001600160a01b0385168085529252808320805460ff1916905551339285917ff6391f5c32d9c69d2a47ea670b442974b53935d1edc7fd64eb21e047a839171b9190a45050565b6000600b82815481106144f857634e487b7160e01b600052603260045260246000fd5b90600052602060002090600902019050438160040154106145195750611c6f565b600061452e8260030154836004015443614560565b436004840155905061453f836130ac565b600383015560058201546145539082613f62565b8260050181905550505050565b600061458761457361168061016d615050565b6110b361458085876140e7565b8790613d91565b949350505050565b60006145e4826040518060400160405280602081526020017f5361666545524332303a206c6f772d6c6576656c2063616c6c206661696c6564815250856001600160a01b031661485e9092919063ffffffff16565b90508051600014806146055750808060200190518101906146059190614bf8565b612e955760405162461bcd60e51b815260206004820152602a60248201527f5361666545524332303a204552433230206f7065726174696f6e20646964206e6044820152691bdd081cdd58d8d9595960b21b6064820152608401610bfa565b6000818152600183016020526040812054801561477757600061468860018361506f565b855490915060009061469c9060019061506f565b905081811461471d5760008660000182815481106146ca57634e487b7160e01b600052603260045260246000fd5b90600052602060002001549050808760000184815481106146fb57634e487b7160e01b600052603260045260246000fd5b6000918252602080832090910192909255918252600188019052604090208390555b855486908061473c57634e487b7160e01b600052603160045260246000fd5b6001900381819060005260206000200160009055905585600101600086815260200190815260200160002060009055600193505050506114aa565b60009150506114aa565b614794600054600160a01b900460ff1690565b611ca45760405162461bcd60e51b815260206004820152601460248201527314185d5cd8589b194e881b9bdd081c185d5cd95960621b6044820152606401610bfa565b60008260000182815481106147fc57634e487b7160e01b600052603260045260246000fd5b9060005260206000200154905092915050565b6000818152600183016020526040812054614856575081546001818101845560008481526020808220909301849055845484825282860190935260409020919091556114aa565b5060006114aa565b6060614587848460008585600080866001600160a01b031685876040516148859190614ddf565b60006040518083038185875af1925050503d80600081146148c2576040519150601f19603f3d011682016040523d82523d6000602084013e6148c7565b606091505b50915091506148d8878383876148e3565b979650505050505050565b6060831561494f578251614948576001600160a01b0385163b6149485760405162461bcd60e51b815260206004820152601d60248201527f416464726573733a2063616c6c20746f206e6f6e2d636f6e74726163740000006044820152606401610bfa565b5081614587565b61458783838151156149645781518083602001fd5b8060405162461bcd60e51b8152600401610bfa9190614e84565b82805461498a906150b2565b90600052602060002090601f0160209004810192826149ac57600085556149f2565b82601f106149c557805160ff19168380011785556149f2565b828001600101855582156149f2579182015b828111156149f25782518255916020019190600101906149d7565b506149fe929150614a02565b5090565b5b808211156149fe5760008155600101614a03565b600060208284031215614a28578081fd5b813561159181615134565b600060208284031215614a44578081fd5b815161159181615134565b60008060408385031215614a61578081fd5b8235614a6c81615134565b91506020830135614a7c81615134565b809150509250929050565b60008060008060008060c08789031215614a9f578182fd5b8635614aaa81615134565b95506020870135614aba81615134565b94506040870135614aca81615134565b93506060870135614ada81615134565b9598949750929560808101359460a0909101359350915050565b60008060408385031215614b06578182fd5b8235614b1181615134565b91506020830135614a7c81615149565b60008060408385031215614b33578182fd5b8235614b3e81615134565b946020939093013593505050565b600080600060608486031215614b60578283fd5b8335614b6b81615134565b92506020848101359250604085013567ffffffffffffffff80821115614b8f578384fd5b818701915087601f830112614ba2578384fd5b813581811115614bb457614bb461511e565b614bc6601f8201601f19168501614fe7565b91508082528884828501011115614bdb578485fd5b808484018584013784848284010152508093505050509250925092565b600060208284031215614c09578081fd5b815161159181615149565b60008060408385031215614c26578182fd5b823591506020830135614a7c81615134565b600060a08284031215614c49578081fd5b614c5360a0614fe7565b8251614c5e81615134565b81526020830151614c6e81615134565b806020830152506040830151604082015260608301516060820152608083015160808201528091505092915050565b600060208284031215614cae578081fd5b5035919050565b600060208284031215614cc6578081fd5b5051919050565b600080600060608486031215614ce1578081fd5b833592506020840135614cf381615134565b929592945050506040919091013590565b60008060408385031215614d16578182fd5b50508035926020909101359150565b60008060408385031215614d37578182fd5b505080516020909101519092909150565b600080600060608486031215614d5c578081fd5b505081359360208301359350604090920135919050565b60008060008060808587031215614d88578182fd5b8435935060208501359250604085013591506060850135614da881615134565b939692955090935050565b60008151808452614dcb816020860160208601615086565b601f01601f19169290920160200192915050565b60008251614df1818460208701615086565b9190910192915050565b6001600160a01b039384168152919092166020820152604081019190915260600190565b6001600160a01b039390931683526020830191909152604082015260600190565b6020808252825182820181905260009190848201906040850190845b81811015614e7857835183529284019291840191600101614e5c565b50909695505050505050565b6000602082526115916020830184614db3565b600060408252614eaa6040830185614db3565b90508260208301529392505050565b600060c08252614ecc60c0830189614db3565b602083019790975250604081019490945260608401929092526001600160a01b03166080830152151560a090910152919050565b6020808252601690820152753737ba103632b732103b34b9ba37b91030b63637bb9760511b604082015260600190565b6020808252602b908201527f426f72726f77206572726f722e4e6f7420756e6973776170205633207768697460408201526a32903634b9ba1027232a1760a91b606082015260800190565b60208082526024908201527f546865206d6178696d756d20726174696f20686173206265656e2065786365656040820152633232b21760e11b606082015260800190565b6020808252600e908201526d6e6f7420676f7665726e616e636560901b604082015260600190565b604051601f8201601f1916810167ffffffffffffffff811182821017156150105761501061511e565b604052919050565b6000821982111561502b5761502b615108565b500190565b60008261504b57634e487b7160e01b81526012600452602481fd5b500490565b600081600019048311821515161561506a5761506a615108565b500290565b60008282101561508157615081615108565b500390565b60005b838110156150a1578181015183820152602001615089565b8381111561417c5750506000910152565b6002810460018216806150c657607f821691505b602082108114156150e757634e487b7160e01b600052602260045260246000fd5b50919050565b600060001982141561510157615101615108565b5060010190565b634e487b7160e01b600052601160045260246000fd5b634e487b7160e01b600052604160045260246000fd5b6001600160a01b0381168114611c6f57600080fd5b8015158114611c6f57600080fdfe65d7a28e3265b37a6474929f336521b332c1681b933f6cb9f3376673440d862aa26469706673582212209f199b86c5cfa63e2213d8a54b961607ddfd78c4a6c959b5730a91842bd013ac64736f6c63430008020033",
  "linkReferences": {},
  "deployedLinkReferences": {}
}