{
  "_format": "hh-sol-artifact-1",
  "contractName": "QuadraticBorrowCompound",
  "sourceName": "contracts/lendborrow/QuadraticBorrowCompound.sol",
  "abi": [
    {
      "anonymous": false,
      "inputs": [
        {
          "indexed": true,
          "internalType": "uint256",
          "name": "position",
          "type": "uint256"
        },
        {
          "indexed": false,
          "internalType": "address",
          "name": "sender",
          "type": "address"
        },
        {
          "indexed": false,
          "internalType": "address",
          "name": "token0",
          "type": "address"
        },
        {
          "indexed": false,
          "internalType": "address",
          "name": "token1",
          "type": "address"
        }
      ],
      "name": "AddNftV3WhiteListEvent",
      "type": "event"
    },
    {
      "anonymous": false,
      "inputs": [
        {
          "indexed": true,
          "internalType": "address",
          "name": "sender",
          "type": "address"
        },
        {
          "indexed": false,
          "internalType": "address",
          "name": "apply721Address",
          "type": "address"
        },
        {
          "indexed": false,
          "internalType": "uint256",
          "name": "specialMaxRate",
          "type": "uint256"
        },
        {
          "indexed": false,
          "internalType": "uint256",
          "name": "tokenId",
          "type": "uint256"
        }
      ],
      "name": "ApplyRateEvent",
      "type": "event"
    },
    {
      "anonymous": false,
      "inputs": [
        {
          "indexed": true,
          "internalType": "address",
          "name": "sender",
          "type": "address"
        },
        {
          "indexed": false,
          "internalType": "address",
          "name": "beforeVal",
          "type": "address"
        },
        {
          "indexed": false,
          "internalType": "address",
          "name": "afterVal",
          "type": "address"
        }
      ],
      "name": "ChangeUniswapV3OracleEvent",
      "type": "event"
    },
    {
      "anonymous": false,
      "inputs": [
        {
          "indexed": true,
          "internalType": "address",
          "name": "sender",
          "type": "address"
        },
        {
          "indexed": false,
          "internalType": "uint256",
          "name": "pid",
          "type": "uint256"
        },
        {
          "indexed": false,
          "internalType": "uint256",
          "name": "amount",
          "type": "uint256"
        }
      ],
      "name": "FunderClaimEvent",
      "type": "event"
    },
    {
      "anonymous": false,
      "inputs": [
        {
          "indexed": true,
          "internalType": "address",
          "name": "previousOwner",
          "type": "address"
        },
        {
          "indexed": true,
          "internalType": "address",
          "name": "newOwner",
          "type": "address"
        }
      ],
      "name": "GovernanceTransferred",
      "type": "event"
    },
    {
      "anonymous": false,
      "inputs": [
        {
          "indexed": false,
          "internalType": "uint8",
          "name": "version",
          "type": "uint8"
        }
      ],
      "name": "Initialized",
      "type": "event"
    },
    {
      "anonymous": false,
      "inputs": [
        {
          "indexed": true,
          "internalType": "address",
          "name": "sender",
          "type": "address"
        },
        {
          "indexed": false,
          "internalType": "uint256",
          "name": "pid",
          "type": "uint256"
        },
        {
          "indexed": false,
          "internalType": "uint256",
          "name": "beforeVal",
          "type": "uint256"
        },
        {
          "indexed": false,
          "internalType": "uint256",
          "name": "afterVal",
          "type": "uint256"
        }
      ],
      "name": "MinSettingCollateralEvent",
      "type": "event"
    },
    {
      "anonymous": false,
      "inputs": [
        {
          "indexed": true,
          "internalType": "address",
          "name": "sender",
          "type": "address"
        },
        {
          "indexed": false,
          "internalType": "uint256",
          "name": "pid",
          "type": "uint256"
        },
        {
          "indexed": false,
          "internalType": "bool",
          "name": "flag",
          "type": "bool"
        }
      ],
      "name": "PausePoolEvent",
      "type": "event"
    },
    {
      "anonymous": false,
      "inputs": [
        {
          "indexed": false,
          "internalType": "address",
          "name": "account",
          "type": "address"
        }
      ],
      "name": "Paused",
      "type": "event"
    },
    {
      "anonymous": false,
      "inputs": [
        {
          "indexed": true,
          "internalType": "bytes32",
          "name": "role",
          "type": "bytes32"
        },
        {
          "indexed": true,
          "internalType": "address",
          "name": "account",
          "type": "address"
        },
        {
          "indexed": true,
          "internalType": "address",
          "name": "sender",
          "type": "address"
        }
      ],
      "name": "RoleGranted",
      "type": "event"
    },
    {
      "anonymous": false,
      "inputs": [
        {
          "indexed": true,
          "internalType": "bytes32",
          "name": "role",
          "type": "bytes32"
        },
        {
          "indexed": true,
          "internalType": "address",
          "name": "account",
          "type": "address"
        },
        {
          "indexed": true,
          "internalType": "address",
          "name": "sender",
          "type": "address"
        }
      ],
      "name": "RoleRevoked",
      "type": "event"
    },
    {
      "anonymous": false,
      "inputs": [
        {
          "indexed": true,
          "internalType": "uint256",
          "name": "pid",
          "type": "uint256"
        },
        {
          "indexed": false,
          "internalType": "address",
          "name": "sender",
          "type": "address"
        },
        {
          "indexed": false,
          "internalType": "uint256",
          "name": "beforeOverdueRate",
          "type": "uint256"
        },
        {
          "indexed": false,
          "internalType": "uint256",
          "name": "afterOverdueRate",
          "type": "uint256"
        }
      ],
      "name": "SetBorrowPoolOverdueRateEvent",
      "type": "event"
    },
    {
      "anonymous": false,
      "inputs": [
        {
          "indexed": true,
          "internalType": "address",
          "name": "sender",
          "type": "address"
        },
        {
          "indexed": false,
          "internalType": "address",
          "name": "beforeVal",
          "type": "address"
        },
        {
          "indexed": false,
          "internalType": "address",
          "name": "afterVal",
          "type": "address"
        }
      ],
      "name": "SetFunderEvent",
      "type": "event"
    },
    {
      "anonymous": false,
      "inputs": [
        {
          "indexed": true,
          "internalType": "address",
          "name": "sender",
          "type": "address"
        },
        {
          "indexed": false,
          "internalType": "uint256",
          "name": "beforeValue",
          "type": "uint256"
        },
        {
          "indexed": false,
          "internalType": "uint256",
          "name": "afterValue",
          "type": "uint256"
        }
      ],
      "name": "SetInterestPlatformRateEvent",
      "type": "event"
    },
    {
      "anonymous": false,
      "inputs": [
        {
          "indexed": true,
          "internalType": "uint256",
          "name": "position",
          "type": "uint256"
        },
        {
          "indexed": false,
          "internalType": "address",
          "name": "sender",
          "type": "address"
        },
        {
          "indexed": false,
          "internalType": "address",
          "name": "beforeToken0",
          "type": "address"
        },
        {
          "indexed": false,
          "internalType": "address",
          "name": "beforeToken1",
          "type": "address"
        },
        {
          "indexed": false,
          "internalType": "address",
          "name": "afterToken0",
          "type": "address"
        },
        {
          "indexed": false,
          "internalType": "address",
          "name": "afterToken1",
          "type": "address"
        }
      ],
      "name": "SetNftV3WhiteListEvent",
      "type": "event"
    },
    {
      "anonymous": false,
      "inputs": [
        {
          "indexed": true,
          "internalType": "address",
          "name": "special72",
          "type": "address"
        },
        {
          "indexed": false,
          "internalType": "address",
          "name": "sender",
          "type": "address"
        },
        {
          "indexed": false,
          "internalType": "uint256",
          "name": "beforeRate",
          "type": "uint256"
        },
        {
          "indexed": false,
          "internalType": "uint256",
          "name": "afterRate",
          "type": "uint256"
        }
      ],
      "name": "SetSpecial721BorrowRateEvent",
      "type": "event"
    },
    {
      "anonymous": false,
      "inputs": [
        {
          "indexed": true,
          "internalType": "uint256",
          "name": "bid",
          "type": "uint256"
        },
        {
          "indexed": false,
          "internalType": "uint256",
          "name": "pid",
          "type": "uint256"
        },
        {
          "indexed": false,
          "internalType": "uint256",
          "name": "amount",
          "type": "uint256"
        },
        {
          "indexed": false,
          "internalType": "uint256",
          "name": "interests",
          "type": "uint256"
        },
        {
          "indexed": false,
          "internalType": "uint256",
          "name": "platFormInterests",
          "type": "uint256"
        }
      ],
      "name": "SettlementBorrowEvent",
      "type": "event"
    },
    {
      "anonymous": false,
      "inputs": [
        {
          "indexed": true,
          "internalType": "address",
          "name": "sender",
          "type": "address"
        },
        {
          "indexed": false,
          "internalType": "uint256",
          "name": "pid",
          "type": "uint256"
        },
        {
          "indexed": false,
          "internalType": "address",
          "name": "toUser",
          "type": "address"
        },
        {
          "indexed": false,
          "internalType": "uint256",
          "name": "interests",
          "type": "uint256"
        }
      ],
      "name": "TransferInterestToLendEvent",
      "type": "event"
    },
    {
      "anonymous": false,
      "inputs": [
        {
          "indexed": true,
          "internalType": "uint256",
          "name": "bid",
          "type": "uint256"
        },
        {
          "indexed": true,
          "internalType": "uint256",
          "name": "tokenId",
          "type": "uint256"
        },
        {
          "indexed": false,
          "internalType": "uint256",
          "name": "pid",
          "type": "uint256"
        }
      ],
      "name": "TransferToAuction",
      "type": "event"
    },
    {
      "anonymous": false,
      "inputs": [
        {
          "indexed": false,
          "internalType": "address",
          "name": "account",
          "type": "address"
        }
      ],
      "name": "Unpaused",
      "type": "event"
    },
    {
      "anonymous": false,
      "inputs": [
        {
          "indexed": true,
          "internalType": "address",
          "name": "user",
          "type": "address"
        },
        {
          "indexed": true,
          "internalType": "uint256",
          "name": "tokenId",
          "type": "uint256"
        },
        {
          "indexed": true,
          "internalType": "uint256",
          "name": "pid",
          "type": "uint256"
        },
        {
          "indexed": false,
          "internalType": "uint256",
          "name": "bid",
          "type": "uint256"
        },
        {
          "indexed": false,
          "internalType": "uint256",
          "name": "value",
          "type": "uint256"
        },
        {
          "indexed": false,
          "internalType": "uint256",
          "name": "amount",
          "type": "uint256"
        },
        {
          "indexed": false,
          "internalType": "uint256",
          "name": "borrowRate",
          "type": "uint256"
        },
        {
          "indexed": false,
          "internalType": "address",
          "name": "apply721Address",
          "type": "address"
        },
        {
          "indexed": false,
          "internalType": "uint256",
          "name": "startBlock",
          "type": "uint256"
        }
      ],
      "name": "UserBorrow",
      "type": "event"
    },
    {
      "anonymous": false,
      "inputs": [
        {
          "indexed": true,
          "internalType": "address",
          "name": "user",
          "type": "address"
        },
        {
          "indexed": true,
          "internalType": "uint256",
          "name": "bid",
          "type": "uint256"
        },
        {
          "indexed": false,
          "internalType": "uint256",
          "name": "pid",
          "type": "uint256"
        },
        {
          "indexed": false,
          "internalType": "uint256",
          "name": "amount",
          "type": "uint256"
        },
        {
          "indexed": false,
          "internalType": "uint256",
          "name": "interests",
          "type": "uint256"
        },
        {
          "indexed": false,
          "internalType": "uint256",
          "name": "platFormInterests",
          "type": "uint256"
        }
      ],
      "name": "UserReturn",
      "type": "event"
    },
    {
      "anonymous": false,
      "inputs": [
        {
          "indexed": true,
          "internalType": "address",
          "name": "sender",
          "type": "address"
        },
        {
          "indexed": false,
          "internalType": "address",
          "name": "user",
          "type": "address"
        },
        {
          "indexed": false,
          "internalType": "bool",
          "name": "flag",
          "type": "bool"
        }
      ],
      "name": "setSettlementBorrowAuthEvent",
      "type": "event"
    },
    {
      "inputs": [],
      "name": "PAUSER_ROLE",
      "outputs": [
        {
          "internalType": "bytes32",
          "name": "",
          "type": "bytes32"
        }
      ],
      "stateMutability": "view",
      "type": "function"
    },
    {
      "inputs": [],
      "name": "_governance",
      "outputs": [
        {
          "internalType": "address",
          "name": "",
          "type": "address"
        }
      ],
      "stateMutability": "view",
      "type": "function"
    },
    {
      "inputs": [
        {
          "internalType": "address",
          "name": "borrowToken",
          "type": "address"
        },
        {
          "internalType": "address",
          "name": "lendCToken",
          "type": "address"
        }
      ],
      "name": "addBorrowPool",
      "outputs": [],
      "stateMutability": "nonpayable",
      "type": "function"
    },
    {
      "inputs": [
        {
          "internalType": "address",
          "name": "special721",
          "type": "address"
        },
        {
          "internalType": "uint256",
          "name": "tokenId",
          "type": "uint256"
        }
      ],
      "name": "applyRate",
      "outputs": [],
      "stateMutability": "nonpayable",
      "type": "function"
    },
    {
      "inputs": [
        {
          "internalType": "uint256",
          "name": "",
          "type": "uint256"
        }
      ],
      "name": "badDebtInterest",
      "outputs": [
        {
          "internalType": "uint256",
          "name": "",
          "type": "uint256"
        }
      ],
      "stateMutability": "view",
      "type": "function"
    },
    {
      "inputs": [
        {
          "internalType": "uint256",
          "name": "",
          "type": "uint256"
        }
      ],
      "name": "badDebtPrincipal",
      "outputs": [
        {
          "internalType": "uint256",
          "name": "",
          "type": "uint256"
        }
      ],
      "stateMutability": "view",
      "type": "function"
    },
    {
      "inputs": [],
      "name": "blockPerDay",
      "outputs": [
        {
          "internalType": "uint256",
          "name": "",
          "type": "uint256"
        }
      ],
      "stateMutability": "view",
      "type": "function"
    },
    {
      "inputs": [
        {
          "internalType": "uint256",
          "name": "",
          "type": "uint256"
        }
      ],
      "name": "borrowInfo",
      "outputs": [
        {
          "internalType": "address",
          "name": "user",
          "type": "address"
        },
        {
          "internalType": "uint256",
          "name": "pid",
          "type": "uint256"
        },
        {
          "internalType": "uint256",
          "name": "tokenId",
          "type": "uint256"
        },
        {
          "internalType": "uint256",
          "name": "borrowValue",
          "type": "uint256"
        },
        {
          "internalType": "uint256",
          "name": "auctionValue",
          "type": "uint256"
        },
        {
          "internalType": "uint256",
          "name": "amount",
          "type": "uint256"
        },
        {
          "internalType": "uint256",
          "name": "repaidAmount",
          "type": "uint256"
        },
        {
          "internalType": "uint256",
          "name": "startBowShare",
          "type": "uint256"
        },
        {
          "internalType": "uint256",
          "name": "startBlock",
          "type": "uint256"
        },
        {
          "internalType": "uint256",
          "name": "returnBlock",
          "type": "uint256"
        },
        {
          "internalType": "uint256",
          "name": "interests",
          "type": "uint256"
        },
        {
          "internalType": "uint256",
          "name": "state",
          "type": "uint256"
        }
      ],
      "stateMutability": "view",
      "type": "function"
    },
    {
      "inputs": [
        {
          "internalType": "uint256",
          "name": "",
          "type": "uint256"
        }
      ],
      "name": "borrowPoolInfo",
      "outputs": [
        {
          "internalType": "address",
          "name": "token",
          "type": "address"
        },
        {
          "internalType": "address",
          "name": "ctoken",
          "type": "address"
        },
        {
          "internalType": "uint256",
          "name": "curBorrow",
          "type": "uint256"
        },
        {
          "internalType": "uint256",
          "name": "curBowRate",
          "type": "uint256"
        },
        {
          "internalType": "uint256",
          "name": "lastShareBlock",
          "type": "uint256"
        },
        {
          "internalType": "uint256",
          "name": "globalBowShare",
          "type": "uint256"
        },
        {
          "internalType": "uint256",
          "name": "globalLendInterestShare",
          "type": "uint256"
        },
        {
          "internalType": "uint256",
          "name": "totalMineInterests",
          "type": "uint256"
        },
        {
          "internalType": "uint256",
          "name": "overdueRate",
          "type": "uint256"
        }
      ],
      "stateMutability": "view",
      "type": "function"
    },
    {
      "inputs": [
        {
          "internalType": "address",
          "name": "",
          "type": "address"
        },
        {
          "internalType": "uint256",
          "name": "",
          "type": "uint256"
        }
      ],
      "name": "borrowUserInfos",
      "outputs": [
        {
          "internalType": "uint256",
          "name": "currTotalBorrow",
          "type": "uint256"
        }
      ],
      "stateMutability": "view",
      "type": "function"
    },
    {
      "inputs": [
        {
          "internalType": "address",
          "name": "_uniswapV3Oracle",
          "type": "address"
        }
      ],
      "name": "changeUniswapV3Oracle",
      "outputs": [],
      "stateMutability": "nonpayable",
      "type": "function"
    },
    {
      "inputs": [
        {
          "internalType": "address",
          "name": "_token",
          "type": "address"
        }
      ],
      "name": "checkPoolPause",
      "outputs": [],
      "stateMutability": "view",
      "type": "function"
    },
    {
      "inputs": [
        {
          "internalType": "address",
          "name": "_uniswapV3",
          "type": "address"
        },
        {
          "internalType": "address",
          "name": "_uniswapV3Oracle",
          "type": "address"
        },
        {
          "internalType": "contract IQuadraticLendCompound",
          "name": "_iQuadraticLendCompound",
          "type": "address"
        },
        {
          "internalType": "address",
          "name": "_quadraticAuction",
          "type": "address"
        },
        {
          "internalType": "uint256",
          "name": "_globalDefault",
          "type": "uint256"
        },
        {
          "internalType": "uint256",
          "name": "_interestPlatformRate",
          "type": "uint256"
        }
      ],
      "name": "doInitialize",
      "outputs": [],
      "stateMutability": "nonpayable",
      "type": "function"
    },
    {
      "inputs": [],
      "name": "funder",
      "outputs": [
        {
          "internalType": "address",
          "name": "",
          "type": "address"
        }
      ],
      "stateMutability": "view",
      "type": "function"
    },
    {
      "inputs": [
        {
          "internalType": "uint256",
          "name": "_pid",
          "type": "uint256"
        },
        {
          "internalType": "uint256",
          "name": "_amount",
          "type": "uint256"
        }
      ],
      "name": "funderClaim",
      "outputs": [],
      "stateMutability": "nonpayable",
      "type": "function"
    },
    {
      "inputs": [
        {
          "internalType": "uint256",
          "name": "",
          "type": "uint256"
        }
      ],
      "name": "funderPoolInterest",
      "outputs": [
        {
          "internalType": "uint256",
          "name": "",
          "type": "uint256"
        }
      ],
      "stateMutability": "view",
      "type": "function"
    },
    {
      "inputs": [
        {
          "internalType": "address",
          "name": "owner",
          "type": "address"
        },
        {
          "internalType": "uint256",
          "name": "pid",
          "type": "uint256"
        }
      ],
      "name": "getBorrowIdsOfOwnerAndPoolId",
      "outputs": [
        {
          "internalType": "uint256[]",
          "name": "",
          "type": "uint256[]"
        }
      ],
      "stateMutability": "view",
      "type": "function"
    },
    {
      "inputs": [
        {
          "internalType": "address",
          "name": "owner",
          "type": "address"
        }
      ],
      "name": "getBorrowPoolIdsOfOwner",
      "outputs": [
        {
          "internalType": "uint256[]",
          "name": "",
          "type": "uint256[]"
        }
      ],
      "stateMutability": "view",
      "type": "function"
    },
    {
      "inputs": [
        {
          "internalType": "uint256",
          "name": "pid",
          "type": "uint256"
        }
      ],
      "name": "getBorrowingRate",
      "outputs": [
        {
          "internalType": "uint256",
          "name": "",
          "type": "uint256"
        }
      ],
      "stateMutability": "view",
      "type": "function"
    },
    {
      "inputs": [
        {
          "internalType": "uint256",
          "name": "pid",
          "type": "uint256"
        }
      ],
      "name": "getFundUtilization",
      "outputs": [
        {
          "internalType": "uint256",
          "name": "",
          "type": "uint256"
        }
      ],
      "stateMutability": "view",
      "type": "function"
    },
    {
      "inputs": [
        {
          "internalType": "uint256",
          "name": "pid",
          "type": "uint256"
        }
      ],
      "name": "getGlobalLendInterestShare",
      "outputs": [
        {
          "internalType": "uint256",
          "name": "globalLendInterestShare",
          "type": "uint256"
        }
      ],
      "stateMutability": "view",
      "type": "function"
    },
    {
      "inputs": [
        {
          "internalType": "uint256",
          "name": "pid",
          "type": "uint256"
        }
      ],
      "name": "getLendingRate",
      "outputs": [
        {
          "internalType": "uint256",
          "name": "",
          "type": "uint256"
        }
      ],
      "stateMutability": "view",
      "type": "function"
    },
    {
      "inputs": [],
      "name": "getSpecial721Length",
      "outputs": [
        {
          "internalType": "uint256",
          "name": "",
          "type": "uint256"
        }
      ],
      "stateMutability": "view",
      "type": "function"
    },
    {
      "inputs": [
        {
          "internalType": "address",
          "name": "user",
          "type": "address"
        }
      ],
      "name": "getUserApplyRate",
      "outputs": [
        {
          "internalType": "string",
          "name": "name",
          "type": "string"
        },
        {
          "internalType": "uint256",
          "name": "userMaxRate",
          "type": "uint256"
        },
        {
          "internalType": "uint256",
          "name": "defaultRate",
          "type": "uint256"
        },
        {
          "internalType": "uint256",
          "name": "tokenId",
          "type": "uint256"
        },
        {
          "internalType": "address",
          "name": "apply721Address",
          "type": "address"
        },
        {
          "internalType": "bool",
          "name": "signed",
          "type": "bool"
        }
      ],
      "stateMutability": "view",
      "type": "function"
    },
    {
      "inputs": [
        {
          "internalType": "uint256",
          "name": "pid",
          "type": "uint256"
        },
        {
          "internalType": "uint256",
          "name": "tokenId",
          "type": "uint256"
        },
        {
          "internalType": "uint256",
          "name": "borrowAmount",
          "type": "uint256"
        },
        {
          "internalType": "address",
          "name": "_user",
          "type": "address"
        }
      ],
      "name": "getUserMaxBorrowAmount",
      "outputs": [
        {
          "internalType": "uint256",
          "name": "_maxBorrowAmount",
          "type": "uint256"
        },
        {
          "internalType": "bool",
          "name": "_flag",
          "type": "bool"
        }
      ],
      "stateMutability": "view",
      "type": "function"
    },
    {
      "inputs": [],
      "name": "globalDefault",
      "outputs": [
        {
          "internalType": "uint256",
          "name": "",
          "type": "uint256"
        }
      ],
      "stateMutability": "view",
      "type": "function"
    },
    {
      "inputs": [
        {
          "internalType": "bytes32",
          "name": "role",
          "type": "bytes32"
        },
        {
          "internalType": "address",
          "name": "account",
          "type": "address"
        }
      ],
      "name": "grantRole",
      "outputs": [],
      "stateMutability": "nonpayable",
      "type": "function"
    },
    {
      "inputs": [
        {
          "internalType": "bytes32",
          "name": "role",
          "type": "bytes32"
        },
        {
          "internalType": "address",
          "name": "account",
          "type": "address"
        }
      ],
      "name": "hasRole",
      "outputs": [
        {
          "internalType": "bool",
          "name": "",
          "type": "bool"
        }
      ],
      "stateMutability": "view",
      "type": "function"
    },
    {
      "inputs": [],
      "name": "interestPlatformRate",
      "outputs": [
        {
          "internalType": "uint256",
          "name": "",
          "type": "uint256"
        }
      ],
      "stateMutability": "view",
      "type": "function"
    },
    {
      "inputs": [
        {
          "internalType": "uint256",
          "name": "bid",
          "type": "uint256"
        }
      ],
      "name": "isBorrowOverdue",
      "outputs": [
        {
          "internalType": "bool",
          "name": "",
          "type": "bool"
        }
      ],
      "stateMutability": "view",
      "type": "function"
    },
    {
      "inputs": [],
      "name": "lendCompound",
      "outputs": [
        {
          "internalType": "contract IQuadraticLendCompound",
          "name": "",
          "type": "address"
        }
      ],
      "stateMutability": "view",
      "type": "function"
    },
    {
      "inputs": [
        {
          "internalType": "uint256",
          "name": "",
          "type": "uint256"
        }
      ],
      "name": "minSettingCollateral",
      "outputs": [
        {
          "internalType": "uint256",
          "name": "",
          "type": "uint256"
        }
      ],
      "stateMutability": "view",
      "type": "function"
    },
    {
      "inputs": [],
      "name": "pause",
      "outputs": [],
      "stateMutability": "nonpayable",
      "type": "function"
    },
    {
      "inputs": [
        {
          "internalType": "uint256",
          "name": "_pid",
          "type": "uint256"
        }
      ],
      "name": "pausePool",
      "outputs": [],
      "stateMutability": "nonpayable",
      "type": "function"
    },
    {
      "inputs": [],
      "name": "paused",
      "outputs": [
        {
          "internalType": "bool",
          "name": "",
          "type": "bool"
        }
      ],
      "stateMutability": "view",
      "type": "function"
    },
    {
      "inputs": [
        {
          "internalType": "uint256",
          "name": "bid",
          "type": "uint256"
        }
      ],
      "name": "pendingReturnInterests",
      "outputs": [
        {
          "internalType": "uint256",
          "name": "",
          "type": "uint256"
        }
      ],
      "stateMutability": "view",
      "type": "function"
    },
    {
      "inputs": [],
      "name": "quadraticAuction",
      "outputs": [
        {
          "internalType": "address",
          "name": "",
          "type": "address"
        }
      ],
      "stateMutability": "view",
      "type": "function"
    },
    {
      "inputs": [
        {
          "internalType": "bytes32",
          "name": "role",
          "type": "bytes32"
        },
        {
          "internalType": "address",
          "name": "account",
          "type": "address"
        }
      ],
      "name": "revokeRole",
      "outputs": [],
      "stateMutability": "nonpayable",
      "type": "function"
    },
    {
      "inputs": [
        {
          "internalType": "uint256",
          "name": "pid",
          "type": "uint256"
        },
        {
          "internalType": "uint256",
          "name": "overdueRate",
          "type": "uint256"
        }
      ],
      "name": "setBorrowPoolOverdueRate",
      "outputs": [],
      "stateMutability": "nonpayable",
      "type": "function"
    },
    {
      "inputs": [
        {
          "internalType": "address",
          "name": "_funder",
          "type": "address"
        }
      ],
      "name": "setFunder",
      "outputs": [],
      "stateMutability": "nonpayable",
      "type": "function"
    },
    {
      "inputs": [
        {
          "internalType": "address",
          "name": "governance",
          "type": "address"
        }
      ],
      "name": "setGovernance",
      "outputs": [],
      "stateMutability": "nonpayable",
      "type": "function"
    },
    {
      "inputs": [
        {
          "internalType": "uint256",
          "name": "_interestPlatformRate",
          "type": "uint256"
        }
      ],
      "name": "setInterestPlatformRate",
      "outputs": [],
      "stateMutability": "nonpayable",
      "type": "function"
    },
    {
      "inputs": [
        {
          "internalType": "uint256",
          "name": "_pid",
          "type": "uint256"
        },
        {
          "internalType": "uint256",
          "name": "_minAmount",
          "type": "uint256"
        }
      ],
      "name": "setMinSettingCollateral",
      "outputs": [],
      "stateMutability": "nonpayable",
      "type": "function"
    },
    {
      "inputs": [
        {
          "internalType": "address",
          "name": "_user",
          "type": "address"
        },
        {
          "internalType": "bool",
          "name": "_flag",
          "type": "bool"
        }
      ],
      "name": "setSettlementBorrowAuth",
      "outputs": [],
      "stateMutability": "nonpayable",
      "type": "function"
    },
    {
      "inputs": [
        {
          "internalType": "address",
          "name": "special721",
          "type": "address"
        },
        {
          "internalType": "uint256",
          "name": "rate",
          "type": "uint256"
        },
        {
          "internalType": "string",
          "name": "name",
          "type": "string"
        }
      ],
      "name": "setSpecial721BorrowRate",
      "outputs": [],
      "stateMutability": "nonpayable",
      "type": "function"
    },
    {
      "inputs": [
        {
          "internalType": "uint256",
          "name": "bid",
          "type": "uint256"
        }
      ],
      "name": "settlementBorrow",
      "outputs": [],
      "stateMutability": "nonpayable",
      "type": "function"
    },
    {
      "inputs": [
        {
          "internalType": "address",
          "name": "",
          "type": "address"
        }
      ],
      "name": "settlementBorrowAuth",
      "outputs": [
        {
          "internalType": "bool",
          "name": "",
          "type": "bool"
        }
      ],
      "stateMutability": "view",
      "type": "function"
    },
    {
      "inputs": [
        {
          "internalType": "address",
          "name": "tokenA",
          "type": "address"
        },
        {
          "internalType": "address",
          "name": "tokenB",
          "type": "address"
        }
      ],
      "name": "sortTokens",
      "outputs": [
        {
          "internalType": "address",
          "name": "token0",
          "type": "address"
        },
        {
          "internalType": "address",
          "name": "token1",
          "type": "address"
        }
      ],
      "stateMutability": "pure",
      "type": "function"
    },
    {
      "inputs": [
        {
          "internalType": "uint256",
          "name": "",
          "type": "uint256"
        }
      ],
      "name": "special721Arr",
      "outputs": [
        {
          "internalType": "address",
          "name": "",
          "type": "address"
        }
      ],
      "stateMutability": "view",
      "type": "function"
    },
    {
      "inputs": [
        {
          "internalType": "address",
          "name": "",
          "type": "address"
        }
      ],
      "name": "special721Info",
      "outputs": [
        {
          "internalType": "string",
          "name": "name",
          "type": "string"
        },
        {
          "internalType": "uint256",
          "name": "rate",
          "type": "uint256"
        }
      ],
      "stateMutability": "view",
      "type": "function"
    },
    {
      "inputs": [
        {
          "internalType": "uint256",
          "name": "pid",
          "type": "uint256"
        },
        {
          "internalType": "address",
          "name": "toUser",
          "type": "address"
        },
        {
          "internalType": "uint256",
          "name": "interests",
          "type": "uint256"
        }
      ],
      "name": "transferInterestToLend",
      "outputs": [],
      "stateMutability": "nonpayable",
      "type": "function"
    },
    {
      "inputs": [
        {
          "internalType": "uint256",
          "name": "bid",
          "type": "uint256"
        }
      ],
      "name": "transferToAuction",
      "outputs": [],
      "stateMutability": "nonpayable",
      "type": "function"
    },
    {
      "inputs": [],
      "name": "uniswapV3",
      "outputs": [
        {
          "internalType": "contract IERC721",
          "name": "",
          "type": "address"
        }
      ],
      "stateMutability": "view",
      "type": "function"
    },
    {
      "inputs": [],
      "name": "uniswapV3Oracle",
      "outputs": [
        {
          "internalType": "contract IUniswapV3Oracle",
          "name": "",
          "type": "address"
        }
      ],
      "stateMutability": "view",
      "type": "function"
    },
    {
      "inputs": [],
      "name": "unpause",
      "outputs": [],
      "stateMutability": "nonpayable",
      "type": "function"
    },
    {
      "inputs": [
        {
          "internalType": "uint256",
          "name": "_pid",
          "type": "uint256"
        }
      ],
      "name": "unpausePool",
      "outputs": [],
      "stateMutability": "nonpayable",
      "type": "function"
    },
    {
      "inputs": [
        {
          "internalType": "uint256",
          "name": "pid",
          "type": "uint256"
        }
      ],
      "name": "updateBorrowPool",
      "outputs": [],
      "stateMutability": "nonpayable",
      "type": "function"
    },
    {
      "inputs": [
        {
          "internalType": "address",
          "name": "",
          "type": "address"
        }
      ],
      "name": "userApplyRate",
      "outputs": [
        {
          "internalType": "address",
          "name": "apply721Address",
          "type": "address"
        },
        {
          "internalType": "uint256",
          "name": "specialMaxRate",
          "type": "uint256"
        },
        {
          "internalType": "uint256",
          "name": "tokenId",
          "type": "uint256"
        }
      ],
      "stateMutability": "view",
      "type": "function"
    },
    {
      "inputs": [
        {
          "internalType": "uint256",
          "name": "bid",
          "type": "uint256"
        },
        {
          "internalType": "uint256",
          "name": "repayAmount",
          "type": "uint256"
        }
      ],
      "name": "userReturn",
      "outputs": [],
      "stateMutability": "nonpayable",
      "type": "function"
    },
    {
      "inputs": [
        {
          "internalType": "uint256",
          "name": "pid",
          "type": "uint256"
        },
        {
          "internalType": "uint256",
          "name": "tokenId",
          "type": "uint256"
        },
        {
          "internalType": "uint256",
          "name": "borrowAmount",
          "type": "uint256"
        }
      ],
      "name": "v3NFTBorrow",
      "outputs": [],
      "stateMutability": "nonpayable",
      "type": "function"
    }
  ],
  "bytecode": "0x608060405261028a60105534801561001657600080fd5b506000805460ff60a01b1932166001600160a81b031990911617905560018055614e70806100456000396000f3fe608060405234801561001057600080fd5b50600436106103a45760003560e01c806372543925116101e9578063ac40ae021161010f578063de587a27116100ad578063e63ab1e91161007c578063e63ab1e914610955578063ee77d32f1461096a578063ee80ac6f1461097d578063f807eb121461099d57600080fd5b8063de587a2714610905578063e0ced95214610918578063e3759d151461092b578063e49352fe1461094c57600080fd5b8063c6ce5805116100e9578063c6ce5805146108a1578063cf9f79c8146108b4578063d547741f146108c7578063d9f899f2146108da57600080fd5b8063ac40ae0214610872578063b13ae8041461087b578063b36cd07f1461088e57600080fd5b806391d14854116101875780639cf0b430116101565780639cf0b430146107e45780639f0950f914610804578063a38acccb1461084c578063ab033ea91461085f57600080fd5b806391d148541461078b57806393e5b1881461079e5780639a01a4f7146107b15780639aea17b4146107c457600080fd5b806389a52cfc116101c357806389a52cfc146106f05780638c742130146107035780638e7d12bd1461071657806391300db71461072957600080fd5b8063725439251461065f5780637d3e2a5a146106725780638456cb59146106e857600080fd5b806325c60194116102ce5780634ddf73321161026c5780635c975abb1161023b5780635c975abb146106075780635e8ead7714610619578063642738601461062c57806369e9d4c11461063f57600080fd5b80634ddf73321461058e57806351f1a51f146105ae578063544caa56146105c15780635712cfc6146105f457600080fd5b806335e41bd5116102a857806335e41bd51461054857806336311d281461056b5780633ddb99431461057e5780633f4ba83a1461058657600080fd5b806325c601941461050f5780632e5871ec146105225780632f2ff15d1461053557600080fd5b806319e4d512116103465780631fe7cacf116103155780631fe7cacf146104bf57806320a1e88a146104d257806321a043af146104e957806322be6b1f146104fc57600080fd5b806319e4d512146104735780631c2f3e3d146104865780631e0b8043146104995780631e8438c4146104ac57600080fd5b806306f21ab31161038257806306f21ab3146104155780630acc8cd11461042a5780631575df931461043d5780631917abb21461045057600080fd5b8063012a472c146103a95780630411f4b7146103d7578063041ae88014610402575b600080fd5b6103bc6103b7366004614600565b6109c5565b6040516103ce9695949392919061466d565b60405180910390f35b6008546103ea906001600160a01b031681565b6040516001600160a01b0390911681526020016103ce565b6014546103ea906001600160a01b031681565b6104286104233660046146b4565b610b68565b005b610428610438366004614600565b610d7b565b6103ea61044b3660046146ed565b610e09565b61046361045e3660046146ed565b610e33565b60405190151581526020016103ce565b61042861048136600461474d565b61106d565b6000546103ea906001600160a01b031681565b6104286104a73660046147fe565b6111e6565b6104286104ba366004614838565b6112de565b6104286104cd3660046146ed565b611366565b6104db60155481565b6040519081526020016103ce565b6104db6104f73660046146ed565b6113f1565b6104db61050a3660046146ed565b611418565b61042861051d366004614866565b6114f0565b61042861053036600461489e565b6115d9565b6104286105433660046148c0565b61167c565b610463610556366004614600565b60116020526000908152604090205460ff1681565b6104286105793660046146ed565b6116b0565b600c546104db565b610428611b78565b6104db61059c3660046146ed565b60126020526000908152604090205481565b6104286105bc36600461489e565b611bac565b6105d46105cf3660046146b4565b611d78565b604080516001600160a01b039384168152929091166020830152016103ce565b6104db6106023660046146ed565b611e58565b600054600160a01b900460ff16610463565b6104286106273660046146ed565b611e7e565b600f546103ea906001600160a01b031681565b6104db61064d3660046146ed565b60136020526000908152604090205481565b61042861066d3660046146ed565b611fdd565b6106856106803660046146ed565b612338565b604080516001600160a01b03909d168d5260208d019b909b52998b019890985260608a0196909652608089019490945260a088019290925260c087015260e0860152610100850152610120840152610140830152610160820152610180016103ce565b6104286123b2565b6104286106fe366004614600565b61241a565b6104db6107113660046146ed565b612491565b6009546103ea906001600160a01b031681565b61073c6107373660046146ed565b6124bf565b604080516001600160a01b039a8b1681529990981660208a0152968801959095526060870193909352608086019190915260a085015260c084015260e0830152610100820152610120016103ce565b6104636107993660046148c0565b612527565b6104286107ac366004614600565b612552565b600a546103ea906001600160a01b031681565b6107d76107d23660046147fe565b6125d8565b6040516103ce91906148e5565b6104db6107f23660046146ed565b60166020526000908152604090205481565b61083d610812366004614600565b600e602052600090815260409020805460018201546002909201546001600160a01b03909116919083565b6040516103ce93929190614929565b61042861085a36600461494a565b6126dc565b61042861086d366004614600565b612cd4565b6104db60105481565b6104286108893660046146ed565b612daf565b6104db61089c3660046146ed565b612ed8565b6104286108af3660046146ed565b612f04565b6107d76108c2366004614600565b612f37565b6104286108d53660046148c0565b613019565b6104db6108e83660046147fe565b600460209081526000928352604080842090915290825290205481565b610428610913366004614976565b61304d565b61042861092636600461489e565b613237565b61093e610939366004614600565b61383d565b6040516103ce9291906149e4565b6104db61168081565b6104db600080516020614e1b83398151915281565b61042861097836600461489e565b6138e1565b6104db61098b3660046146ed565b60176020526000908152604090205481565b6109b06109ab366004614a06565b613960565b604080519283529015156020830152016103ce565b6010546001600160a01b038083166000908152600e60205260408120546060939192839116818115610b53576001600160a01b038781166000908152600e60205260408082206002015490516331a9108f60e11b8152600481018290529095509091841690636352211e90602401602060405180830381865afa158015610a50573d6000803e3d6000fd5b505050506040513d601f19601f82011682018060405250810190610a749190614a47565b9050806001600160a01b0316886001600160a01b031603610b51576001600160a01b038089166000908152600e602090815260408083206001908101549488168452600d909252909120805492985090935090610ad090614a64565b80601f0160208091040260200160405190810160405280929190818152602001828054610afc90614a64565b8015610b495780601f10610b1e57610100808354040283529160200191610b49565b820191906000526020600020905b815481529060010190602001808311610b2c57829003601f168201915b505050505096505b505b84600003610b5f578394505b91939550919395565b600a546001600160a01b03163314610b9b5760405162461bcd60e51b8152600401610b9290614a9e565b60405180910390fd5b60408051610120810182526001600160a01b03938416815291831660208301908152600091830182815260608401838152436080860190815260a0860185815260c0870186815260e088018781526103206101008a01908152600b80546001810182559952985160099098027f0175b7a638427703f0dbe7bb9bbf987a2551717b34e79f33b5b1008d1fa01db981018054998c166001600160a01b03199a8b1617905596517f0175b7a638427703f0dbe7bb9bbf987a2551717b34e79f33b5b1008d1fa01dba8801805491909b1698169790971790985592517f0175b7a638427703f0dbe7bb9bbf987a2551717b34e79f33b5b1008d1fa01dbb85015590517f0175b7a638427703f0dbe7bb9bbf987a2551717b34e79f33b5b1008d1fa01dbc840155517f0175b7a638427703f0dbe7bb9bbf987a2551717b34e79f33b5b1008d1fa01dbd830155517f0175b7a638427703f0dbe7bb9bbf987a2551717b34e79f33b5b1008d1fa01dbe82015592517f0175b7a638427703f0dbe7bb9bbf987a2551717b34e79f33b5b1008d1fa01dbf840155517f0175b7a638427703f0dbe7bb9bbf987a2551717b34e79f33b5b1008d1fa01dc0830155517f0175b7a638427703f0dbe7bb9bbf987a2551717b34e79f33b5b1008d1fa01dc190910155565b6000546001600160a01b03163314610da55760405162461bcd60e51b8152600401610b9290614ace565b601480546001600160a01b038381166001600160a01b0319831681179093556040805191909216808252602082019390935233917f7bdd8beff7d8411e2b81e553a7f28dd1d15b287f3a02a33f26ac4e4d7a5f866091015b60405180910390a25050565b600c8181548110610e1957600080fd5b6000918252602090912001546001600160a01b0316905081565b60008060078381548110610e4957610e49614af6565b600091825260208083206040805161018081018252600c90940290910180546001600160a01b0316845260018101549284018390526002810154918401919091526003810154606084015260048101546080840152600581015460a0840152600681015460c0840152600781015460e084015260088101546101008401526009810154610120840152600a810154610140840152600b908101546101608401528054929450918110610efd57610efd614af6565b600091825260208083206040805161012081018252600990940290910180546001600160a01b039081168086526001830154821694860194909452600282015485840152600382015460608601526004808301546080870152600583015460a0870152600683015460c0870152600783015460e0870152600890920154610100860152600f548884015193516304bd838960e41b81529597501693634bd8389093610fbd93929091019182526001600160a01b0316602082015260400190565b6040805180830381865afa158015610fd9573d6000803e3d6000fd5b505050506040513d601f19601f82011682018060405250810190610ffd9190614b0c565b50905060006110266103e861102085610100015185613aa790919063ffffffff16565b90613ab3565b9050600061103387613abf565b90508161104d8660a0015183613c5c90919063ffffffff16565b1115611060575060019695505050505050565b5060009695505050505050565b6000546001600160a01b031633146110975760405162461bcd60e51b8152600401610b9290614ace565b6103e882106110b85760405162461bcd60e51b8152600401610b9290614b30565b6001600160a01b0383166000908152600d602052604090206001810154906110e08382614bc4565b506001600160a01b0384166000908152600d602052604081206001908101859055905b600c5481101561115557856001600160a01b0316600c828154811061112a5761112a614af6565b6000918252602090912001546001600160a01b03160361114d5760009150611155565b600101611103565b50801561119a57600c805486919061116b614af6565b9060005260206000200160006101000a8154816001600160a01b0302191690836001600160a01b031602179055505b846001600160a01b03167f012b78c5d21ba97b720997b598236d1931fd00cf38a65f88b51ca53092f6baf53384876040516111d793929190614929565b60405180910390a25050505050565b6111ee613c68565b6111f6613cc1565b6001600160a01b0382166000908152600d60205260409020600101548061125f5760405162461bcd60e51b815260206004820152601e60248201527f546869732037323120436f6e7472616374206e6f742073657474696e672e00006044820152606401610b92565b336000818152600e60205260409081902080546001600160a01b0319166001600160a01b03871617815560018101849055600201849055517f1e539acd4750e5a45f933dcf79543f31ff71228f09cdb2073a13800d3fd4d44e906112c890869085908790614929565b60405180910390a2506112da60018055565b5050565b6000546001600160a01b031633146113085760405162461bcd60e51b8152600401610b9290614ace565b6001600160a01b038216600081815260116020908152604091829020805460ff191685151590811790915582519384529083015233917f3e8a5da8cabc1b490a219f97b787a956fa8fe76312bfe464ecbe6764a27302329101610dfd565b6000546001600160a01b031633146113905760405162461bcd60e51b8152600401610b9290614ace565b61271081106113b15760405162461bcd60e51b8152600401610b9290614b30565b6015805490829055604080518281526020810184905233917f948e8b1938d4e599e9ca63988998041e722ffd1f32cca33174001002d80a51c49101610dfd565b60006113fc82610e33565b1561140957506000919050565b61141282613abf565b92915050565b600a546040516303afb43360e11b81526004810183905260009182916001600160a01b039091169063075f68669060240160a060405180830381865afa158015611466573d6000803e3d6000fd5b505050506040513d601f19601f8201168201806040525081019061148a9190614c84565b905060006114a982606001518360400151613c5c90919063ffffffff16565b116114b75750600092915050565b6114e96114d582606001518360400151613c5c90919063ffffffff16565b60608301516110209064e8d4a51000613aa7565b9392505050565b600a546001600160a01b0316331461151a5760405162461bcd60e51b8152600401610b9290614a9e565b61154f600b848154811061153057611530614af6565b60009182526020909120600990910201546001600160a01b031661241a565b6115888282600b868154811061156757611567614af6565b60009182526020909120600990910201546001600160a01b03169190613d0e565b604080518481526001600160a01b038416602082015290810182905233907fce170d5650bdcc51636034b3f5b91db7f7ff62151f63e68616f5c4c930521aca906060015b60405180910390a2505050565b6000546001600160a01b031633146116035760405162461bcd60e51b8152600401610b9290614ace565b6000600b838154811061161857611618614af6565b90600052602060002090600902019050600081600801549050828260080181905550837fb898b12c44cb1aea78e35bcabb7eeeb5d86ef4848d91556dcc1f368af3ba62e633838660405161166e93929190614929565b60405180910390a250505050565b6000546001600160a01b031633146116a65760405162461bcd60e51b8152600401610b9290614ace565b6112da8282613d71565b6116b8613c68565b6116c0613cc1565b6116c981610e33565b61170b5760405162461bcd60e51b815260206004820152601360248201527263616e206e6f742061756374696f6e206e6f7760681b6044820152606401610b92565b60006007828154811061172057611720614af6565b90600052602060002090600c0201905080600b015460011461177a5760405162461bcd60e51b81526020600482015260136024820152723137b93937bb9039ba30ba329032b93937b91760691b6044820152606401610b92565b80546001820154600b80546001600160a01b03909316926000929081106117a3576117a3614af6565b6000918252602090912060099091020180549091506117ca906001600160a01b031661241a565b6001600160a01b03821660009081526004602090815260408083206001870154845290915290206009600b85015561180185613abf565b600a8501556005840154815461181691613dda565b81556001600160a01b03831660009081526005602090815260408083206001880154845290915290206118499086613de6565b506001600160a01b038316600090815260056020908152604080832060018801548452909152902061187a90613df2565b6000036118a95760018401546001600160a01b03841660009081526006602052604090206118a791613de6565b505b600584015460018501546000908152601260205260409020546118cb91613c5c565b600185018054600090815260126020908152604080832094909455600a8801549254825260139052919091205461190191613c5c565b60018501805460009081526013602052604090209190915554600585015461192b91906002613dfc565b600a5460018501546005860154604051632f50ba4360e11b8152600481019290925260248201526001600160a01b0390911690635ea1748690604401600060405180830381600087803b15801561198157600080fd5b505af1158015611995573d6000803e3d6000fd5b5050600f54600287015485546040516304bd838960e41b815260048101929092526001600160a01b039081166024830152600094509091169150634bd83890906044016040805180830381865afa1580156119f4573d6000803e3d6000fd5b505050506040513d601f19601f82011682018060405250810190611a189190614b0c565b50600486810182905560095460085460028901548754600a8b01546040516372abff2960e01b81526001600160a01b03948516968101969096526024860192909252604485018c9052821660648501526084840185905260a484015292935091909116906372abff299060c401600060405180830381600087803b158015611a9f57600080fd5b505af1158015611ab3573d6000803e3d6000fd5b505060085460095460028901546040516323b872dd60e01b81526001600160a01b0393841695506323b872dd9450611af2933093169190600401614d06565b600060405180830381600087803b158015611b0c57600080fd5b505af1158015611b20573d6000803e3d6000fd5b505050508460020154867fb23eb9c94498577267929ee3a0dfb5264937ecd77eabac78da59dac1efee11af8760010154604051611b5f91815260200190565b60405180910390a35050505050611b7560018055565b50565b6000546001600160a01b03163314611ba25760405162461bcd60e51b8152600401610b9290614ace565b611baa613e66565b565b6014546001600160a01b03163314611c065760405162461bcd60e51b815260206004820152601860248201527f6e6f742066756e64657220766973746f7220616c6c6f772e00000000000000006044820152606401610b92565b60008281526016602052604090205481811015611c555760405162461bcd60e51b815260206004820152600d60248201526c2bb937b7339030b6b7bab73a1760991b6044820152606401610b92565b600083815260166020526040902054611c6e9083613dda565b600084815260166020526040812091909155600b805485908110611c9457611c94614af6565b60009182526020918290206040805161012081018252600990930290910180546001600160a01b039081168085526001830154909116948401949094526002810154918301919091526003810154606083015260048101546080830152600581015460a0830152600681015460c0830152600781015460e0830152600801546101008201529150611d249061241a565b6014548151611d40916001600160a01b03918216911685613d0e565b604080518581526020810185905233917feb52865751bf5832b7c0bc5d822e259533c31650eff77ad238b0f5152f77fd2c910161166e565b600080826001600160a01b0316846001600160a01b031603611ddc5760405162461bcd60e51b815260206004820152601b60248201527f5633204e46543a204944454e544943414c5f41444452455353455300000000006044820152606401610b92565b826001600160a01b0316846001600160a01b031610611dfc578284611dff565b83835b90925090506001600160a01b038216611e515760405162461bcd60e51b81526020600482015260146024820152735633204e46543a205a45524f5f4144445245535360601b6044820152606401610b92565b9250929050565b600061141264e8d4a51000611020611e6f85612ed8565b611e7886611418565b90613aa7565b600080516020614e1b833981519152611e978133612527565b611ede5760405162461bcd60e51b815260206004820152601860248201527730b1b1b7bab73a1034b99036b4b9b9b4b733903937b6329760411b6044820152606401610b92565b6000600b8381548110611ef357611ef3614af6565b60009182526020918290206040805161012081018252600990930290910180546001600160a01b039081168085526001830154909116948401949094526002810154918301919091526003810154606083015260048101546080830152600581015460a0830152600681015460c0830152600781015460e0830152600801546101008201529150611fa5907fe1518dcd454e34128041da7650fde1a12551e3e90f879a74ba9c344c4671632290613d71565b604080518481526001602082015233917f8825f3b37c71ed68326b85768a26f08960100ff9ce5a70fea0d194f4d3be9d4291016115cc565b3360009081526011602052604090205460ff166120485760405162461bcd60e51b815260206004820152602360248201527f6e6f7420736574746c656d656e7420626f72726f7720766973746f7220616c6c60448201526237bb9760e91b6064820152608401610b92565b612050613c68565b612058613cc1565b60006007828154811061206d5761206d614af6565b90600052602060002090600c0201905080600b01546009146120c05760405162461bcd60e51b815260206004820152600c60248201526b6572726f722073746174757360a01b6044820152606401610b92565b6000600b8260010154815481106120d9576120d9614af6565b600091825260209091206009909102018054909150612100906001600160a01b031661241a565b6008600b830155436009830155600a82015460058301546000916121249190613c5c565b6005840154600185015460009081526012602052604090205491925061214a9190613dda565b600184018054600090815260126020908152604080832094909455600a8701549254825260139052919091205461218091613dda565b6001840154600090815260136020526040812091909155601554600a8501546121b0916127109161102091613aa7565b90506121d684600101546121d18387600a0154613dda90919063ffffffff16565b613ebb565b82546121ed906001600160a01b0316333085613f95565b80156122265760018401546000908152601660205260409020546122119082613c5c565b60018501546000908152601660205260409020555b600a548354612243916001600160a01b0391821691166000613fb6565b600a5460058501548454612265926001600160a01b0391821692911690613fb6565b600a546001850154600586015460405163cd1fa12f60e01b8152600481019290925260248201526001600160a01b039091169063cd1fa12f90604401600060405180830381600087803b1580156122bb57600080fd5b505af11580156122cf573d6000803e3d6000fd5b50505060018501546005860154600a87015460408051938452602084019290925290820152606081018390528691507fd6279cb4c900712994fa56f896b7c2fc1226a85706c06dd7678198df07419ff09060800160405180910390a250505050611b7560018055565b6007818154811061234857600080fd5b60009182526020909120600c9091020180546001820154600283015460038401546004850154600586015460068701546007880154600889015460098a0154600a8b0154600b909b01546001600160a01b03909a169b50979996989597949693959294919390928c565b600080516020614e1b8339815191526123cb8133612527565b6124125760405162461bcd60e51b815260206004820152601860248201527730b1b1b7bab73a1034b99036b4b9b9b4b733903937b6329760411b6044820152606401610b92565b611b756140cb565b6124447fe1518dcd454e34128041da7650fde1a12551e3e90f879a74ba9c344c4671632282612527565b15611b755760405162461bcd60e51b815260206004820152601d60248201527f5468697320706f6f6c20686173206265656e2073757370656e6465642e0000006044820152606401610b92565b6000600b82815481106124a6576124a6614af6565b9060005260206000209060090201600601549050919050565b600b81815481106124cf57600080fd5b60009182526020909120600990910201805460018201546002830154600384015460048501546005860154600687015460078801546008909801546001600160a01b0397881699509690951696939592949193909289565b60009182526002602090815260408084206001600160a01b0393909316845291905290205460ff1690565b6000546001600160a01b0316331461257c5760405162461bcd60e51b8152600401610b9290614ace565b600f80546001600160a01b038381166001600160a01b0319831681179093556040805191909216808252602082019390935233917f55f88e1a470467a8151fa2efb5c4a38d5ead3df1c5a84112b8d2b428ac28e7529101610dfd565b6001600160a01b038216600090815260056020908152604080832084845290915281206060919061260890613df2565b67ffffffffffffffff81111561262057612620614706565b604051908082528060200260200182016040528015612649578160200160208202803683370190505b50905060005b6001600160a01b0385166000908152600560209081526040808320878452909152902061267b90613df2565b8110156126d4576001600160a01b038516600090815260056020908152604080832087845290915290206126af908261410e565b8282815181106126c1576126c1614af6565b602090810291909101015260010161264f565b509392505050565b333b1515806126eb5750323314155b156127665761271a7fb08ae0ab489f3db6965ca08713613b335addfe0b316a24a9d9a85fbc99bff5f533612527565b6127665760405162461bcd60e51b815260206004820152601b60248201527f6e6f742077686974656c69737420766973746f7220616c6c6f772e00000000006044820152606401610b92565b61276e613c68565b612776613cc1565b3360009081526004602090815260408083208684529091528120600b8054919291869081106127a7576127a7614af6565b60009182526020918290206040805161012081018252600990930290910180546001600160a01b039081168085526001830154909116948401949094526002810154918301919091526003810154606083015260048101546080830152600581015460a0830152600681015460c0830152600781015460e08301526008015461010082015291506128379061241a565b600f5481516040516304bd838960e41b81526000926001600160a01b031691634bd838909161287c9189916004019182526001600160a01b0316602082015260400190565b6040805180830381865afa158015612898573d6000803e3d6000fd5b505050506040513d601f19601f820116820180604052508101906128bc9190614b0c565b5060008781526017602052604090205490915081116129295760405162461bcd60e51b815260206004820152602360248201527f5468652076616c7565206f6620636f6c6c61746572616c20697320746f6f206c60448201526237bb9760e91b6064820152608401610b92565b6000612934336109c5565b5050505091505060006129566103e86110208486613aa790919063ffffffff16565b9050858110156129b45760405162461bcd60e51b815260206004820152602360248201527f4578636565647320746865206d6178696d756d206c6f616e61626c6520616d6f6044820152621d5b9d60ea1b6064820152608401610b92565b6129c088876001613dfc565b6007604051806101800160405280336001600160a01b031681526020018a815260200189815260200185815260200160008152602001888152602001600081526020018660a0015181526020014381526020016000815260200160008152602001600181525090806001815401808255809150506001900390600052602060002090600c020160009091909190915060008201518160000160006101000a8154816001600160a01b0302191690836001600160a01b031602179055506020820151816001015560408201518160020155606082015181600301556080820151816004015560a0820151816005015560c0820151816006015560e082015181600701556101008201518160080155610120820151816009015561014082015181600a015561016082015181600b0155505060006001600780549050612b049190614d40565b8654909150612b139088613c5c565b86553360009081526005602090815260408083208c84529091529020612b3890613df2565b600003612b5a57336000908152600660205260409020612b58908a61411a565b505b3360009081526005602090815260408083208c84529091529020612b7e908261411a565b506008546040516323b872dd60e01b81526001600160a01b03909116906323b872dd90612bb390339030908d90600401614d06565b600060405180830381600087803b158015612bcd57600080fd5b505af1158015612be1573d6000803e3d6000fd5b5050600a5460405163545fb83160e11b8152600481018d9052336024820152604481018b90526001600160a01b03909116925063a8bf70629150606401600060405180830381600087803b158015612c3857600080fd5b505af1158015612c4c573d6000803e3d6000fd5b5050336000818152600e60209081526040918290205482518781529182018a90528183018d9052606082018990526001600160a01b031660808201524360a082015290518d94508c93507f0a00f00280e32be58f7700959160aa318c58c4d12ad6d6d83cdf7520d8c107809181900360c00190a4505050505050612ccf60018055565b505050565b6000546001600160a01b03163314612cfe5760405162461bcd60e51b8152600401610b9290614ace565b6001600160a01b038116612d545760405162461bcd60e51b815260206004820152601f60248201527f6e657720676f7665726e616e636520746865207a65726f2061646472657373006044820152606401610b92565b600080546040516001600160a01b03808516939216917f5f56bee8cffbe9a78652a74a60705edede02af10b0bbb888ca44b79a0d42ce8091a3600080546001600160a01b0319166001600160a01b0392909216919091179055565b6000546001600160a01b03163314612dd95760405162461bcd60e51b8152600401610b9290614ace565b6000600b8281548110612dee57612dee614af6565b60009182526020918290206040805161012081018252600990930290910180546001600160a01b039081168085526001830154909116948401949094526002810154918301919091526003810154606083015260048101546080830152600581015460a0830152600681015460c0830152600781015460e0830152600801546101008201529150612ea0907fe1518dcd454e34128041da7650fde1a12551e3e90f879a74ba9c344c4671632290614126565b604080518381526000602082015233917f8825f3b37c71ed68326b85768a26f08960100ff9ce5a70fea0d194f4d3be9d429101610dfd565b60006114126405d21dba00612efe64e8d4a51000611020642e90edd000611e7888611418565b90613c5c565b600a546001600160a01b03163314612f2e5760405162461bcd60e51b8152600401610b9290614a9e565b611b758161418d565b6001600160a01b038116600090815260066020526040812060609190612f5c90613df2565b67ffffffffffffffff811115612f7457612f74614706565b604051908082528060200260200182016040528015612f9d578160200160208202803683370190505b50905060005b6001600160a01b0384166000908152600660205260409020612fc490613df2565b811015613012576001600160a01b0384166000908152600660205260409020612fed908261410e565b828281518110612fff57612fff614af6565b6020908102919091010152600101612fa3565b5092915050565b6000546001600160a01b031633146130435760405162461bcd60e51b8152600401610b9290614ace565b6112da8282614126565b600354610100900460ff161580801561306d5750600354600160ff909116105b806130875750303b158015613087575060035460ff166001145b6130ea5760405162461bcd60e51b815260206004820152602e60248201527f496e697469616c697a61626c653a20636f6e747261637420697320616c72656160448201526d191e481a5b9a5d1a585b1a5e995960921b6064820152608401610b92565b6003805460ff19166001179055801561310d576003805461ff0019166101001790555b6103e8831061312e5760405162461bcd60e51b8152600401610b9290614b30565b612710821061314f5760405162461bcd60e51b8152600401610b9290614b30565b600080546001600160a01b0319163390811790915561317d90600080516020614e1b83398151915290613d71565b600880546001600160a01b03808a166001600160a01b031992831617909255600f8054898416908316179055600a805488841690831617905560098054928716929091168217905560108490556000908152601160205260409020805460ff191660011790556015829055801561322e576003805461ff0019169055604051600181527f7f26b83ff96e1f2b6a682f133852f6798a09c465da95921460cefb38474024989060200160405180910390a15b50505050505050565b333b1515806132465750323314155b156132c1576132757fb08ae0ab489f3db6965ca08713613b335addfe0b316a24a9d9a85fbc99bff5f533612527565b6132c15760405162461bcd60e51b815260206004820152601b60248201527f6e6f742077686974656c69737420766973746f7220616c6c6f772e00000000006044820152606401610b92565b6132c9613c68565b6132d1613cc1565b6000600783815481106132e6576132e6614af6565b60009182526020909120600c9091020180549091506001600160a01b0316331461333e5760405162461bcd60e51b81526020600482015260096024820152683737ba1037bbb732b960b91b6044820152606401610b92565b6000600b82600101548154811061335757613357614af6565b60009182526020918290206040805161012081018252600990930290910180546001600160a01b039081168085526001830154909116948401949094526002810154918301919091526003810154606083015260048101546080830152600581015460a0830152600681015460c0830152600781015460e08301526008015461010082015291506133e79061241a565b3360009081526004602090815260408083206001860154845290915281209061340f86613abf565b9050808510156134615760405162461bcd60e51b815260206004820152601d60248201527f4e6f7420656e6f75676820746f20726570617920696e7465726573742e0000006044820152606401610b92565b60058401546000906134739083613c5c565b905080861115613481578095505b600061348d8784613dda565b85516040516370a0823160e01b81523360048201529192506000916001600160a01b03909116906370a0823190602401602060405180830381865afa1580156134da573d6000803e3d6000fd5b505050506040513d601f19601f820116820180604052508101906134fe9190614d53565b9050878110156135455760405162461bcd60e51b81526020600482015260126024820152713737ba1032b737bab3b41030b6b7bab73a1760711b6044820152606401610b92565b6135558760010154836002613dfc565b600061357261271061102060155488613aa790919063ffffffff16565b6001890154909150613588906121d18784613dda565b85546135949084613dda565b86556005880154830361369c5733600090815260056020908152604080832060018c0154845290915290206135c9908b613de6565b5085546000036136205733600090815260056020908152604080832060018c0154845290915290206135fa90613df2565b60000361362057600188015433600090815260066020526040902061361e91613de6565b505b4360098901556002600b8901819055600854908901546040516323b872dd60e01b81526001600160a01b03909216916323b872dd916136659130913391600401614d06565b600060405180830381600087803b15801561367f57600080fd5b505af1158015613693573d6000803e3d6000fd5b505050506136bb565b60058801546136ab9084613dda565b600589015560a087015160078901555b60068801546136ca9084613c5c565b6006890155600a8801546136de9086613c5c565b600a89015586516136fa906001600160a01b031633308c613f95565b801561373357600188015460009081526016602052604090205461371e9082613c5c565b60018901546000908152601660205260409020555b600a548751613750916001600160a01b0391821691166000613fb6565b600a54875161376c916001600160a01b03918216911685613fb6565b600a54600189015460405163ec510b3b60e01b81526001600160a01b039092169163ec510b3b916137aa918790600401918252602082015260400190565b600060405180830381600087803b1580156137c457600080fd5b505af11580156137d8573d6000803e3d6000fd5b505050600189015460408051918252602082018690528101879052606081018390528b915033907f793324a68db7201628508c33a28fc8107763fee328f5f54783918c1f2844443f9060800160405180910390a350505050505050506112da60018055565b600d6020526000908152604090208054819061385890614a64565b80601f016020809104026020016040519081016040528092919081815260200182805461388490614a64565b80156138d15780601f106138a6576101008083540402835291602001916138d1565b820191906000526020600020905b8154815290600101906020018083116138b457829003601f168201915b5050505050908060010154905082565b6000546001600160a01b0316331461390b5760405162461bcd60e51b8152600401610b9290614ace565b600082815260176020908152604091829020805490849055825185815291820181905291810183905233907f79cf9f96b45472cf1222a9e1ad96a4c1cc372d190c97eb95ce5aa1a72e2d488a906060016115cc565b6000806000600b878154811061397857613978614af6565b60009182526020808320604080516101208101825260099490940290910180546001600160a01b039081168086526001830154821694860194909452600282015485840152600382015460608601526004808301546080870152600583015460a0870152600683015460c0870152600783015460e0870152600890920154610100860152600f5492516304bd838960e41b81529182018c905260248201939093529294501690634bd83890906044016040805180830381865afa158015613a43573d6000803e3d6000fd5b505050506040513d601f19601f82011682018060405250810190613a679190614b0c565b5090506000613a75866109c5565b50505050915050613a956103e86110208385613aa790919063ffffffff16565b99968a10159850959650505050505050565b60006114e98284614d6c565b60006114e98284614d83565b60008060078381548110613ad557613ad5614af6565b600091825260208083206040805161018081018252600c90940290910180546001600160a01b0316845260018101549284018390526002810154918401919091526003810154606084015260048101546080840152600581015460a0840152600681015460c0840152600781015460e084015260088101546101008401526009810154610120840152600a810154610140840152600b908101546101608401528054929450918110613b8957613b89614af6565b600091825260208083206040805161012081018252600990940290910180546001600160a01b03908116855260018201541692840192909252600282015490830152600381015460608301819052600482015460808401819052600583015460a0850152600683015460c0850152600783015460e0850152600890920154610100840152919350613c1b919043614208565b9050613c5364e8d4a510006110208560a00151611e788760e00151613c4d878960a00151613c5c90919063ffffffff16565b90613dda565b95945050505050565b60006114e98284614da5565b600260015403613cba5760405162461bcd60e51b815260206004820152601f60248201527f5265656e7472616e637947756172643a207265656e7472616e742063616c6c006044820152606401610b92565b6002600155565b600054600160a01b900460ff1615611baa5760405162461bcd60e51b815260206004820152601060248201526f14185d5cd8589b194e881c185d5cd95960821b6044820152606401610b92565b6040516001600160a01b038316602482015260448101829052612ccf90849063a9059cbb60e01b906064015b60408051601f198184030181529190526020810180516001600160e01b03166001600160e01b031990931692909217909152614237565b613d7b8282612527565b6112da5760008281526002602090815260408083206001600160a01b0385168085529252808320805460ff1916600117905551339285917f2f8788117e7eff1d82e926ec794901d17c78024a50270940304540a733656f0d9190a45050565b60006114e98284614d40565b60006114e9838361430c565b6000611412825490565b6000600b8481548110613e1157613e11614af6565b9060005260206000209060090201905081600103613e42576002810154613e389084613c5c565b6002820155613e57565b6002810154613e519084613dda565b60028201555b613e608461418d565b50505050565b613e6e6143ff565b6000805460ff60a01b191690557f5db9ee0a495bf2e6ff9c91a7834c1ba4fdd244a5e8aa4e537bd38aeae4b073aa335b6040516001600160a01b03909116815260200160405180910390a1565b80156112da576000600b8381548110613ed657613ed6614af6565b9060005260206000209060090201905060008160010160009054906101000a90046001600160a01b03166001600160a01b03166318160ddd6040518163ffffffff1660e01b8152600401602060405180830381865afa158015613f3d573d6000803e3d6000fd5b505050506040513d601f19601f82011682018060405250810190613f619190614d53565b90508015613e6057613f8a613f7f826110208664e8d4a51000613aa7565b600684015490613c5c565b600683015550505050565b613e60846323b872dd60e01b858585604051602401613d3a93929190614d06565b8015806140305750604051636eb1769f60e11b81523060048201526001600160a01b03838116602483015284169063dd62ed3e90604401602060405180830381865afa15801561400a573d6000803e3d6000fd5b505050506040513d601f19601f8201168201806040525081019061402e9190614d53565b155b61409b5760405162461bcd60e51b815260206004820152603660248201527f5361666545524332303a20617070726f76652066726f6d206e6f6e2d7a65726f60448201527520746f206e6f6e2d7a65726f20616c6c6f77616e636560501b6064820152608401610b92565b6040516001600160a01b038316602482015260448101829052612ccf90849063095ea7b360e01b90606401613d3a565b6140d3613cc1565b6000805460ff60a01b1916600160a01b1790557f62e78cea01bee320cd4e420270b5ea74000d11b0c9f74754ebdbfc544b05a258613e9e3390565b60006114e9838361444f565b60006114e98383614479565b6141308282612527565b156112da5760008281526002602090815260408083206001600160a01b0385168085529252808320805460ff1916905551339285917ff6391f5c32d9c69d2a47ea670b442974b53935d1edc7fd64eb21e047a839171b9190a45050565b6000600b82815481106141a2576141a2614af6565b90600052602060002090600902019050438160040154106141c1575050565b60006141d68260030154836004015443614208565b43600484015590506141e783612ed8565b600383015560058201546141fb9082613c5c565b8260050181905550505050565b600061422f61421b61168061016d614d6c565b6110206142288587613dda565b8790613aa7565b949350505050565b600061428c826040518060400160405280602081526020017f5361666545524332303a206c6f772d6c6576656c2063616c6c206661696c6564815250856001600160a01b03166144c89092919063ffffffff16565b90508051600014806142ad5750808060200190518101906142ad9190614db8565b612ccf5760405162461bcd60e51b815260206004820152602a60248201527f5361666545524332303a204552433230206f7065726174696f6e20646964206e6044820152691bdd081cdd58d8d9595960b21b6064820152608401610b92565b600081815260018301602052604081205480156143f5576000614330600183614d40565b855490915060009061434490600190614d40565b90508181146143a957600086600001828154811061436457614364614af6565b906000526020600020015490508087600001848154811061438757614387614af6565b6000918252602080832090910192909255918252600188019052604090208390555b85548690806143ba576143ba614dd5565b600190038181906000526020600020016000905590558560010160008681526020019081526020016000206000905560019350505050611412565b6000915050611412565b600054600160a01b900460ff16611baa5760405162461bcd60e51b815260206004820152601460248201527314185d5cd8589b194e881b9bdd081c185d5cd95960621b6044820152606401610b92565b600082600001828154811061446657614466614af6565b9060005260206000200154905092915050565b60008181526001830160205260408120546144c057508154600181810184556000848152602080822090930184905584548482528286019093526040902091909155611412565b506000611412565b606061422f848460008585600080866001600160a01b031685876040516144ef9190614deb565b60006040518083038185875af1925050503d806000811461452c576040519150601f19603f3d011682016040523d82523d6000602084013e614531565b606091505b50915091506145428783838761454d565b979650505050505050565b606083156145bc5782516000036145b5576001600160a01b0385163b6145b55760405162461bcd60e51b815260206004820152601d60248201527f416464726573733a2063616c6c20746f206e6f6e2d636f6e74726163740000006044820152606401610b92565b508161422f565b61422f83838151156145d15781518083602001fd5b8060405162461bcd60e51b8152600401610b929190614e07565b6001600160a01b0381168114611b7557600080fd5b60006020828403121561461257600080fd5b81356114e9816145eb565b60005b83811015614638578181015183820152602001614620565b50506000910152565b6000815180845261465981602086016020860161461d565b601f01601f19169290920160200192915050565b60c08152600061468060c0830189614641565b602083019790975250604081019490945260608401929092526001600160a01b03166080830152151560a090910152919050565b600080604083850312156146c757600080fd5b82356146d2816145eb565b915060208301356146e2816145eb565b809150509250929050565b6000602082840312156146ff57600080fd5b5035919050565b634e487b7160e01b600052604160045260246000fd5b604051601f8201601f1916810167ffffffffffffffff8111828210171561474557614745614706565b604052919050565b60008060006060848603121561476257600080fd5b833561476d816145eb565b92506020848101359250604085013567ffffffffffffffff8082111561479257600080fd5b818701915087601f8301126147a657600080fd5b8135818111156147b8576147b8614706565b6147ca601f8201601f1916850161471c565b915080825288848285010111156147e057600080fd5b80848401858401376000848284010152508093505050509250925092565b6000806040838503121561481157600080fd5b823561481c816145eb565b946020939093013593505050565b8015158114611b7557600080fd5b6000806040838503121561484b57600080fd5b8235614856816145eb565b915060208301356146e28161482a565b60008060006060848603121561487b57600080fd5b83359250602084013561488d816145eb565b929592945050506040919091013590565b600080604083850312156148b157600080fd5b50508035926020909101359150565b600080604083850312156148d357600080fd5b8235915060208301356146e2816145eb565b6020808252825182820181905260009190848201906040850190845b8181101561491d57835183529284019291840191600101614901565b50909695505050505050565b6001600160a01b039390931683526020830191909152604082015260600190565b60008060006060848603121561495f57600080fd5b505081359360208301359350604090920135919050565b60008060008060008060c0878903121561498f57600080fd5b863561499a816145eb565b955060208701356149aa816145eb565b945060408701356149ba816145eb565b935060608701356149ca816145eb565b9598949750929560808101359460a0909101359350915050565b6040815260006149f76040830185614641565b90508260208301529392505050565b60008060008060808587031215614a1c57600080fd5b8435935060208501359250604085013591506060850135614a3c816145eb565b939692955090935050565b600060208284031215614a5957600080fd5b81516114e9816145eb565b600181811c90821680614a7857607f821691505b602082108103614a9857634e487b7160e01b600052602260045260246000fd5b50919050565b6020808252601690820152753737ba103632b732103b34b9ba37b91030b63637bb9760511b604082015260600190565b6020808252600e908201526d6e6f7420676f7665726e616e636560901b604082015260600190565b634e487b7160e01b600052603260045260246000fd5b60008060408385031215614b1f57600080fd5b505080516020909101519092909150565b60208082526024908201527f546865206d6178696d756d20726174696f20686173206265656e2065786365656040820152633232b21760e11b606082015260800190565b601f821115612ccf576000816000526020600020601f850160051c81016020861015614b9d5750805b601f850160051c820191505b81811015614bbc57828155600101614ba9565b505050505050565b815167ffffffffffffffff811115614bde57614bde614706565b614bf281614bec8454614a64565b84614b74565b602080601f831160018114614c275760008415614c0f5750858301515b600019600386901b1c1916600185901b178555614bbc565b600085815260208120601f198616915b82811015614c5657888601518255948401946001909101908401614c37565b5085821015614c745787850151600019600388901b60f8161c191681555b5050505050600190811b01905550565b600060a08284031215614c9657600080fd5b60405160a0810181811067ffffffffffffffff82111715614cb957614cb9614706565b6040528251614cc7816145eb565b81526020830151614cd7816145eb565b806020830152506040830151604082015260608301516060820152608083015160808201528091505092915050565b6001600160a01b039384168152919092166020820152604081019190915260600190565b634e487b7160e01b600052601160045260246000fd5b8181038181111561141257611412614d2a565b600060208284031215614d6557600080fd5b5051919050565b808202811582820484141761141257611412614d2a565b600082614da057634e487b7160e01b600052601260045260246000fd5b500490565b8082018082111561141257611412614d2a565b600060208284031215614dca57600080fd5b81516114e98161482a565b634e487b7160e01b600052603160045260246000fd5b60008251614dfd81846020870161461d565b9190910192915050565b6020815260006114e9602083018461464156fe65d7a28e3265b37a6474929f336521b332c1681b933f6cb9f3376673440d862aa2646970667358221220e19274f4d75b5345cffadb5543dc280c2a9c2fb6c84f61402faead0065f9a35564736f6c63430008180033",
  "linkReferences": {},
  "deployedLinkReferences": {}
}