{
  "_format": "hh-sol-artifact-1",
  "contractName": "QuadraticBorrowCompound",
  "sourceName": "contracts/lendborrow/QuadraticBorrowCompound.sol",
  "abi": [
    {
      "anonymous": false,
      "inputs": [
        {
          "indexed": true,
          "internalType": "uint256",
          "name": "position",
          "type": "uint256"
        },
        {
          "indexed": false,
          "internalType": "address",
          "name": "sender",
          "type": "address"
        },
        {
          "indexed": false,
          "internalType": "address",
          "name": "token0",
          "type": "address"
        },
        {
          "indexed": false,
          "internalType": "address",
          "name": "token1",
          "type": "address"
        }
      ],
      "name": "AddNftV3WhiteListEvent",
      "type": "event"
    },
    {
      "anonymous": false,
      "inputs": [
        {
          "indexed": true,
          "internalType": "address",
          "name": "sender",
          "type": "address"
        },
        {
          "indexed": false,
          "internalType": "address",
          "name": "apply721Address",
          "type": "address"
        },
        {
          "indexed": false,
          "internalType": "uint256",
          "name": "specialMaxRate",
          "type": "uint256"
        },
        {
          "indexed": false,
          "internalType": "uint256",
          "name": "tokenId",
          "type": "uint256"
        }
      ],
      "name": "ApplyRateEvent",
      "type": "event"
    },
    {
      "anonymous": false,
      "inputs": [
        {
          "indexed": true,
          "internalType": "address",
          "name": "sender",
          "type": "address"
        },
        {
          "indexed": false,
          "internalType": "address",
          "name": "beforeVal",
          "type": "address"
        },
        {
          "indexed": false,
          "internalType": "address",
          "name": "afterVal",
          "type": "address"
        }
      ],
      "name": "ChangeUniswapV3OracleEvent",
      "type": "event"
    },
    {
      "anonymous": false,
      "inputs": [
        {
          "indexed": true,
          "internalType": "address",
          "name": "sender",
          "type": "address"
        },
        {
          "indexed": false,
          "internalType": "uint256",
          "name": "pid",
          "type": "uint256"
        },
        {
          "indexed": false,
          "internalType": "uint256",
          "name": "amount",
          "type": "uint256"
        }
      ],
      "name": "FunderClaimEvent",
      "type": "event"
    },
    {
      "anonymous": false,
      "inputs": [
        {
          "indexed": true,
          "internalType": "address",
          "name": "previousOwner",
          "type": "address"
        },
        {
          "indexed": true,
          "internalType": "address",
          "name": "newOwner",
          "type": "address"
        }
      ],
      "name": "GovernanceTransferred",
      "type": "event"
    },
    {
      "anonymous": false,
      "inputs": [
        {
          "indexed": false,
          "internalType": "uint8",
          "name": "version",
          "type": "uint8"
        }
      ],
      "name": "Initialized",
      "type": "event"
    },
    {
      "anonymous": false,
      "inputs": [
        {
          "indexed": true,
          "internalType": "address",
          "name": "sender",
          "type": "address"
        },
        {
          "indexed": false,
          "internalType": "uint256",
          "name": "pid",
          "type": "uint256"
        },
        {
          "indexed": false,
          "internalType": "uint256",
          "name": "beforeVal",
          "type": "uint256"
        },
        {
          "indexed": false,
          "internalType": "uint256",
          "name": "afterVal",
          "type": "uint256"
        }
      ],
      "name": "MinSettingCollateralEvent",
      "type": "event"
    },
    {
      "anonymous": false,
      "inputs": [
        {
          "indexed": true,
          "internalType": "address",
          "name": "sender",
          "type": "address"
        },
        {
          "indexed": false,
          "internalType": "uint256",
          "name": "pid",
          "type": "uint256"
        },
        {
          "indexed": false,
          "internalType": "bool",
          "name": "flag",
          "type": "bool"
        }
      ],
      "name": "PausePoolEvent",
      "type": "event"
    },
    {
      "anonymous": false,
      "inputs": [
        {
          "indexed": false,
          "internalType": "address",
          "name": "account",
          "type": "address"
        }
      ],
      "name": "Paused",
      "type": "event"
    },
    {
      "anonymous": false,
      "inputs": [
        {
          "indexed": true,
          "internalType": "bytes32",
          "name": "role",
          "type": "bytes32"
        },
        {
          "indexed": true,
          "internalType": "address",
          "name": "account",
          "type": "address"
        },
        {
          "indexed": true,
          "internalType": "address",
          "name": "sender",
          "type": "address"
        }
      ],
      "name": "RoleGranted",
      "type": "event"
    },
    {
      "anonymous": false,
      "inputs": [
        {
          "indexed": true,
          "internalType": "bytes32",
          "name": "role",
          "type": "bytes32"
        },
        {
          "indexed": true,
          "internalType": "address",
          "name": "account",
          "type": "address"
        },
        {
          "indexed": true,
          "internalType": "address",
          "name": "sender",
          "type": "address"
        }
      ],
      "name": "RoleRevoked",
      "type": "event"
    },
    {
      "anonymous": false,
      "inputs": [
        {
          "indexed": true,
          "internalType": "uint256",
          "name": "pid",
          "type": "uint256"
        },
        {
          "indexed": false,
          "internalType": "address",
          "name": "sender",
          "type": "address"
        },
        {
          "indexed": false,
          "internalType": "uint256",
          "name": "beforeOverdueRate",
          "type": "uint256"
        },
        {
          "indexed": false,
          "internalType": "uint256",
          "name": "afterOverdueRate",
          "type": "uint256"
        }
      ],
      "name": "SetBorrowPoolOverdueRateEvent",
      "type": "event"
    },
    {
      "anonymous": false,
      "inputs": [
        {
          "indexed": true,
          "internalType": "address",
          "name": "sender",
          "type": "address"
        },
        {
          "indexed": false,
          "internalType": "address",
          "name": "beforeVal",
          "type": "address"
        },
        {
          "indexed": false,
          "internalType": "address",
          "name": "afterVal",
          "type": "address"
        }
      ],
      "name": "SetFunderEvent",
      "type": "event"
    },
    {
      "anonymous": false,
      "inputs": [
        {
          "indexed": true,
          "internalType": "address",
          "name": "sender",
          "type": "address"
        },
        {
          "indexed": false,
          "internalType": "uint256",
          "name": "beforeValue",
          "type": "uint256"
        },
        {
          "indexed": false,
          "internalType": "uint256",
          "name": "afterValue",
          "type": "uint256"
        }
      ],
      "name": "SetInterestPlatformRateEvent",
      "type": "event"
    },
    {
      "anonymous": false,
      "inputs": [
        {
          "indexed": true,
          "internalType": "uint256",
          "name": "position",
          "type": "uint256"
        },
        {
          "indexed": false,
          "internalType": "address",
          "name": "sender",
          "type": "address"
        },
        {
          "indexed": false,
          "internalType": "address",
          "name": "beforeToken0",
          "type": "address"
        },
        {
          "indexed": false,
          "internalType": "address",
          "name": "beforeToken1",
          "type": "address"
        },
        {
          "indexed": false,
          "internalType": "address",
          "name": "afterToken0",
          "type": "address"
        },
        {
          "indexed": false,
          "internalType": "address",
          "name": "afterToken1",
          "type": "address"
        }
      ],
      "name": "SetNftV3WhiteListEvent",
      "type": "event"
    },
    {
      "anonymous": false,
      "inputs": [
        {
          "indexed": true,
          "internalType": "address",
          "name": "special72",
          "type": "address"
        },
        {
          "indexed": false,
          "internalType": "address",
          "name": "sender",
          "type": "address"
        },
        {
          "indexed": false,
          "internalType": "uint256",
          "name": "beforeRate",
          "type": "uint256"
        },
        {
          "indexed": false,
          "internalType": "uint256",
          "name": "afterRate",
          "type": "uint256"
        }
      ],
      "name": "SetSpecial721BorrowRateEvent",
      "type": "event"
    },
    {
      "anonymous": false,
      "inputs": [
        {
          "indexed": true,
          "internalType": "uint256",
          "name": "bid",
          "type": "uint256"
        },
        {
          "indexed": false,
          "internalType": "uint256",
          "name": "pid",
          "type": "uint256"
        },
        {
          "indexed": false,
          "internalType": "uint256",
          "name": "amount",
          "type": "uint256"
        },
        {
          "indexed": false,
          "internalType": "uint256",
          "name": "interests",
          "type": "uint256"
        },
        {
          "indexed": false,
          "internalType": "uint256",
          "name": "platFormInterests",
          "type": "uint256"
        }
      ],
      "name": "SettlementBorrowEvent",
      "type": "event"
    },
    {
      "anonymous": false,
      "inputs": [
        {
          "indexed": true,
          "internalType": "address",
          "name": "sender",
          "type": "address"
        },
        {
          "indexed": false,
          "internalType": "uint256",
          "name": "pid",
          "type": "uint256"
        },
        {
          "indexed": false,
          "internalType": "address",
          "name": "toUser",
          "type": "address"
        },
        {
          "indexed": false,
          "internalType": "uint256",
          "name": "interests",
          "type": "uint256"
        }
      ],
      "name": "TransferInterestToLendEvent",
      "type": "event"
    },
    {
      "anonymous": false,
      "inputs": [
        {
          "indexed": true,
          "internalType": "uint256",
          "name": "bid",
          "type": "uint256"
        },
        {
          "indexed": true,
          "internalType": "uint256",
          "name": "tokenId",
          "type": "uint256"
        },
        {
          "indexed": false,
          "internalType": "uint256",
          "name": "pid",
          "type": "uint256"
        }
      ],
      "name": "TransferToAuction",
      "type": "event"
    },
    {
      "anonymous": false,
      "inputs": [
        {
          "indexed": false,
          "internalType": "address",
          "name": "account",
          "type": "address"
        }
      ],
      "name": "Unpaused",
      "type": "event"
    },
    {
      "anonymous": false,
      "inputs": [
        {
          "indexed": true,
          "internalType": "address",
          "name": "user",
          "type": "address"
        },
        {
          "indexed": true,
          "internalType": "uint256",
          "name": "tokenId",
          "type": "uint256"
        },
        {
          "indexed": true,
          "internalType": "uint256",
          "name": "pid",
          "type": "uint256"
        },
        {
          "indexed": false,
          "internalType": "uint256",
          "name": "bid",
          "type": "uint256"
        },
        {
          "indexed": false,
          "internalType": "uint256",
          "name": "value",
          "type": "uint256"
        },
        {
          "indexed": false,
          "internalType": "uint256",
          "name": "amount",
          "type": "uint256"
        },
        {
          "indexed": false,
          "internalType": "uint256",
          "name": "borrowRate",
          "type": "uint256"
        },
        {
          "indexed": false,
          "internalType": "address",
          "name": "apply721Address",
          "type": "address"
        },
        {
          "indexed": false,
          "internalType": "uint256",
          "name": "startBlock",
          "type": "uint256"
        }
      ],
      "name": "UserBorrow",
      "type": "event"
    },
    {
      "anonymous": false,
      "inputs": [
        {
          "indexed": true,
          "internalType": "address",
          "name": "user",
          "type": "address"
        },
        {
          "indexed": true,
          "internalType": "uint256",
          "name": "bid",
          "type": "uint256"
        },
        {
          "indexed": false,
          "internalType": "uint256",
          "name": "pid",
          "type": "uint256"
        },
        {
          "indexed": false,
          "internalType": "uint256",
          "name": "amount",
          "type": "uint256"
        },
        {
          "indexed": false,
          "internalType": "uint256",
          "name": "interests",
          "type": "uint256"
        },
        {
          "indexed": false,
          "internalType": "uint256",
          "name": "platFormInterests",
          "type": "uint256"
        }
      ],
      "name": "UserReturn",
      "type": "event"
    },
    {
      "anonymous": false,
      "inputs": [
        {
          "indexed": true,
          "internalType": "address",
          "name": "sender",
          "type": "address"
        },
        {
          "indexed": false,
          "internalType": "address",
          "name": "user",
          "type": "address"
        },
        {
          "indexed": false,
          "internalType": "bool",
          "name": "flag",
          "type": "bool"
        }
      ],
      "name": "setSettlementBorrowAuthEvent",
      "type": "event"
    },
    {
      "inputs": [],
      "name": "PAUSER_ROLE",
      "outputs": [
        {
          "internalType": "bytes32",
          "name": "",
          "type": "bytes32"
        }
      ],
      "stateMutability": "view",
      "type": "function"
    },
    {
      "inputs": [],
      "name": "_governance",
      "outputs": [
        {
          "internalType": "address",
          "name": "",
          "type": "address"
        }
      ],
      "stateMutability": "view",
      "type": "function"
    },
    {
      "inputs": [
        {
          "internalType": "address",
          "name": "borrowToken",
          "type": "address"
        },
        {
          "internalType": "address",
          "name": "lendCToken",
          "type": "address"
        }
      ],
      "name": "addBorrowPool",
      "outputs": [],
      "stateMutability": "nonpayable",
      "type": "function"
    },
    {
      "inputs": [
        {
          "internalType": "address",
          "name": "special721",
          "type": "address"
        },
        {
          "internalType": "uint256",
          "name": "tokenId",
          "type": "uint256"
        }
      ],
      "name": "applyRate",
      "outputs": [],
      "stateMutability": "nonpayable",
      "type": "function"
    },
    {
      "inputs": [
        {
          "internalType": "uint256",
          "name": "",
          "type": "uint256"
        }
      ],
      "name": "badDebtInterest",
      "outputs": [
        {
          "internalType": "uint256",
          "name": "",
          "type": "uint256"
        }
      ],
      "stateMutability": "view",
      "type": "function"
    },
    {
      "inputs": [
        {
          "internalType": "uint256",
          "name": "",
          "type": "uint256"
        }
      ],
      "name": "badDebtPrincipal",
      "outputs": [
        {
          "internalType": "uint256",
          "name": "",
          "type": "uint256"
        }
      ],
      "stateMutability": "view",
      "type": "function"
    },
    {
      "inputs": [],
      "name": "blockPerDay",
      "outputs": [
        {
          "internalType": "uint256",
          "name": "",
          "type": "uint256"
        }
      ],
      "stateMutability": "view",
      "type": "function"
    },
    {
      "inputs": [
        {
          "internalType": "uint256",
          "name": "",
          "type": "uint256"
        }
      ],
      "name": "borrowInfo",
      "outputs": [
        {
          "internalType": "address",
          "name": "user",
          "type": "address"
        },
        {
          "internalType": "uint256",
          "name": "pid",
          "type": "uint256"
        },
        {
          "internalType": "uint256",
          "name": "tokenId",
          "type": "uint256"
        },
        {
          "internalType": "uint256",
          "name": "borrowValue",
          "type": "uint256"
        },
        {
          "internalType": "uint256",
          "name": "auctionValue",
          "type": "uint256"
        },
        {
          "internalType": "uint256",
          "name": "amount",
          "type": "uint256"
        },
        {
          "internalType": "uint256",
          "name": "repaidAmount",
          "type": "uint256"
        },
        {
          "internalType": "uint256",
          "name": "startBowShare",
          "type": "uint256"
        },
        {
          "internalType": "uint256",
          "name": "startBlock",
          "type": "uint256"
        },
        {
          "internalType": "uint256",
          "name": "returnBlock",
          "type": "uint256"
        },
        {
          "internalType": "uint256",
          "name": "interests",
          "type": "uint256"
        },
        {
          "internalType": "uint256",
          "name": "state",
          "type": "uint256"
        }
      ],
      "stateMutability": "view",
      "type": "function"
    },
    {
      "inputs": [
        {
          "internalType": "uint256",
          "name": "",
          "type": "uint256"
        }
      ],
      "name": "borrowPoolInfo",
      "outputs": [
        {
          "internalType": "address",
          "name": "token",
          "type": "address"
        },
        {
          "internalType": "address",
          "name": "ctoken",
          "type": "address"
        },
        {
          "internalType": "uint256",
          "name": "curBorrow",
          "type": "uint256"
        },
        {
          "internalType": "uint256",
          "name": "curBowRate",
          "type": "uint256"
        },
        {
          "internalType": "uint256",
          "name": "lastShareBlock",
          "type": "uint256"
        },
        {
          "internalType": "uint256",
          "name": "globalBowShare",
          "type": "uint256"
        },
        {
          "internalType": "uint256",
          "name": "globalLendInterestShare",
          "type": "uint256"
        },
        {
          "internalType": "uint256",
          "name": "totalMineInterests",
          "type": "uint256"
        },
        {
          "internalType": "uint256",
          "name": "overdueRate",
          "type": "uint256"
        }
      ],
      "stateMutability": "view",
      "type": "function"
    },
    {
      "inputs": [
        {
          "internalType": "address",
          "name": "",
          "type": "address"
        },
        {
          "internalType": "uint256",
          "name": "",
          "type": "uint256"
        }
      ],
      "name": "borrowUserInfos",
      "outputs": [
        {
          "internalType": "uint256",
          "name": "currTotalBorrow",
          "type": "uint256"
        }
      ],
      "stateMutability": "view",
      "type": "function"
    },
    {
      "inputs": [
        {
          "internalType": "address",
          "name": "_uniswapV3Oracle",
          "type": "address"
        }
      ],
      "name": "changeUniswapV3Oracle",
      "outputs": [],
      "stateMutability": "nonpayable",
      "type": "function"
    },
    {
      "inputs": [
        {
          "internalType": "address",
          "name": "_token",
          "type": "address"
        }
      ],
      "name": "checkPoolPause",
      "outputs": [],
      "stateMutability": "view",
      "type": "function"
    },
    {
      "inputs": [
        {
          "internalType": "address",
          "name": "_uniswapV3",
          "type": "address"
        },
        {
          "internalType": "address",
          "name": "_uniswapV3Oracle",
          "type": "address"
        },
        {
          "internalType": "contract IQuadraticLendCompound",
          "name": "_iQuadraticLendCompound",
          "type": "address"
        },
        {
          "internalType": "address",
          "name": "_quadraticAuction",
          "type": "address"
        },
        {
          "internalType": "uint256",
          "name": "_globalDefault",
          "type": "uint256"
        },
        {
          "internalType": "uint256",
          "name": "_interestPlatformRate",
          "type": "uint256"
        }
      ],
      "name": "doInitialize",
      "outputs": [],
      "stateMutability": "nonpayable",
      "type": "function"
    },
    {
      "inputs": [],
      "name": "funder",
      "outputs": [
        {
          "internalType": "address",
          "name": "",
          "type": "address"
        }
      ],
      "stateMutability": "view",
      "type": "function"
    },
    {
      "inputs": [
        {
          "internalType": "uint256",
          "name": "_pid",
          "type": "uint256"
        },
        {
          "internalType": "uint256",
          "name": "_amount",
          "type": "uint256"
        }
      ],
      "name": "funderClaim",
      "outputs": [],
      "stateMutability": "nonpayable",
      "type": "function"
    },
    {
      "inputs": [
        {
          "internalType": "uint256",
          "name": "",
          "type": "uint256"
        }
      ],
      "name": "funderPoolInterest",
      "outputs": [
        {
          "internalType": "uint256",
          "name": "",
          "type": "uint256"
        }
      ],
      "stateMutability": "view",
      "type": "function"
    },
    {
      "inputs": [
        {
          "internalType": "address",
          "name": "owner",
          "type": "address"
        },
        {
          "internalType": "uint256",
          "name": "pid",
          "type": "uint256"
        }
      ],
      "name": "getBorrowIdsOfOwnerAndPoolId",
      "outputs": [
        {
          "internalType": "uint256[]",
          "name": "",
          "type": "uint256[]"
        }
      ],
      "stateMutability": "view",
      "type": "function"
    },
    {
      "inputs": [
        {
          "internalType": "address",
          "name": "owner",
          "type": "address"
        }
      ],
      "name": "getBorrowPoolIdsOfOwner",
      "outputs": [
        {
          "internalType": "uint256[]",
          "name": "",
          "type": "uint256[]"
        }
      ],
      "stateMutability": "view",
      "type": "function"
    },
    {
      "inputs": [
        {
          "internalType": "uint256",
          "name": "pid",
          "type": "uint256"
        }
      ],
      "name": "getBorrowingRate",
      "outputs": [
        {
          "internalType": "uint256",
          "name": "",
          "type": "uint256"
        }
      ],
      "stateMutability": "view",
      "type": "function"
    },
    {
      "inputs": [
        {
          "internalType": "uint256",
          "name": "pid",
          "type": "uint256"
        }
      ],
      "name": "getFundUtilization",
      "outputs": [
        {
          "internalType": "uint256",
          "name": "",
          "type": "uint256"
        }
      ],
      "stateMutability": "view",
      "type": "function"
    },
    {
      "inputs": [
        {
          "internalType": "uint256",
          "name": "pid",
          "type": "uint256"
        }
      ],
      "name": "getGlobalLendInterestShare",
      "outputs": [
        {
          "internalType": "uint256",
          "name": "globalLendInterestShare",
          "type": "uint256"
        }
      ],
      "stateMutability": "view",
      "type": "function"
    },
    {
      "inputs": [
        {
          "internalType": "uint256",
          "name": "pid",
          "type": "uint256"
        }
      ],
      "name": "getLendingRate",
      "outputs": [
        {
          "internalType": "uint256",
          "name": "",
          "type": "uint256"
        }
      ],
      "stateMutability": "view",
      "type": "function"
    },
    {
      "inputs": [],
      "name": "getSpecial721Length",
      "outputs": [
        {
          "internalType": "uint256",
          "name": "",
          "type": "uint256"
        }
      ],
      "stateMutability": "view",
      "type": "function"
    },
    {
      "inputs": [
        {
          "internalType": "address",
          "name": "user",
          "type": "address"
        }
      ],
      "name": "getUserApplyRate",
      "outputs": [
        {
          "internalType": "string",
          "name": "name",
          "type": "string"
        },
        {
          "internalType": "uint256",
          "name": "userMaxRate",
          "type": "uint256"
        },
        {
          "internalType": "uint256",
          "name": "defaultRate",
          "type": "uint256"
        },
        {
          "internalType": "uint256",
          "name": "tokenId",
          "type": "uint256"
        },
        {
          "internalType": "address",
          "name": "apply721Address",
          "type": "address"
        },
        {
          "internalType": "bool",
          "name": "signed",
          "type": "bool"
        }
      ],
      "stateMutability": "view",
      "type": "function"
    },
    {
      "inputs": [
        {
          "internalType": "uint256",
          "name": "pid",
          "type": "uint256"
        },
        {
          "internalType": "uint256",
          "name": "tokenId",
          "type": "uint256"
        },
        {
          "internalType": "uint256",
          "name": "borrowAmount",
          "type": "uint256"
        },
        {
          "internalType": "address",
          "name": "_user",
          "type": "address"
        }
      ],
      "name": "getUserMaxBorrowAmount",
      "outputs": [
        {
          "internalType": "uint256",
          "name": "_maxBorrowAmount",
          "type": "uint256"
        },
        {
          "internalType": "bool",
          "name": "_flag",
          "type": "bool"
        }
      ],
      "stateMutability": "view",
      "type": "function"
    },
    {
      "inputs": [],
      "name": "globalDefault",
      "outputs": [
        {
          "internalType": "uint256",
          "name": "",
          "type": "uint256"
        }
      ],
      "stateMutability": "view",
      "type": "function"
    },
    {
      "inputs": [
        {
          "internalType": "bytes32",
          "name": "role",
          "type": "bytes32"
        },
        {
          "internalType": "address",
          "name": "account",
          "type": "address"
        }
      ],
      "name": "grantRole",
      "outputs": [],
      "stateMutability": "nonpayable",
      "type": "function"
    },
    {
      "inputs": [
        {
          "internalType": "bytes32",
          "name": "role",
          "type": "bytes32"
        },
        {
          "internalType": "address",
          "name": "account",
          "type": "address"
        }
      ],
      "name": "hasRole",
      "outputs": [
        {
          "internalType": "bool",
          "name": "",
          "type": "bool"
        }
      ],
      "stateMutability": "view",
      "type": "function"
    },
    {
      "inputs": [],
      "name": "interestPlatformRate",
      "outputs": [
        {
          "internalType": "uint256",
          "name": "",
          "type": "uint256"
        }
      ],
      "stateMutability": "view",
      "type": "function"
    },
    {
      "inputs": [
        {
          "internalType": "uint256",
          "name": "bid",
          "type": "uint256"
        }
      ],
      "name": "isBorrowOverdue",
      "outputs": [
        {
          "internalType": "bool",
          "name": "",
          "type": "bool"
        }
      ],
      "stateMutability": "view",
      "type": "function"
    },
    {
      "inputs": [],
      "name": "lendCompound",
      "outputs": [
        {
          "internalType": "contract IQuadraticLendCompound",
          "name": "",
          "type": "address"
        }
      ],
      "stateMutability": "view",
      "type": "function"
    },
    {
      "inputs": [
        {
          "internalType": "uint256",
          "name": "",
          "type": "uint256"
        }
      ],
      "name": "minSettingCollateral",
      "outputs": [
        {
          "internalType": "uint256",
          "name": "",
          "type": "uint256"
        }
      ],
      "stateMutability": "view",
      "type": "function"
    },
    {
      "inputs": [],
      "name": "pause",
      "outputs": [],
      "stateMutability": "nonpayable",
      "type": "function"
    },
    {
      "inputs": [
        {
          "internalType": "uint256",
          "name": "_pid",
          "type": "uint256"
        }
      ],
      "name": "pausePool",
      "outputs": [],
      "stateMutability": "nonpayable",
      "type": "function"
    },
    {
      "inputs": [],
      "name": "paused",
      "outputs": [
        {
          "internalType": "bool",
          "name": "",
          "type": "bool"
        }
      ],
      "stateMutability": "view",
      "type": "function"
    },
    {
      "inputs": [
        {
          "internalType": "uint256",
          "name": "bid",
          "type": "uint256"
        }
      ],
      "name": "pendingReturnInterests",
      "outputs": [
        {
          "internalType": "uint256",
          "name": "",
          "type": "uint256"
        }
      ],
      "stateMutability": "view",
      "type": "function"
    },
    {
      "inputs": [],
      "name": "quadraticAuction",
      "outputs": [
        {
          "internalType": "address",
          "name": "",
          "type": "address"
        }
      ],
      "stateMutability": "view",
      "type": "function"
    },
    {
      "inputs": [
        {
          "internalType": "bytes32",
          "name": "role",
          "type": "bytes32"
        },
        {
          "internalType": "address",
          "name": "account",
          "type": "address"
        }
      ],
      "name": "revokeRole",
      "outputs": [],
      "stateMutability": "nonpayable",
      "type": "function"
    },
    {
      "inputs": [
        {
          "internalType": "uint256",
          "name": "pid",
          "type": "uint256"
        },
        {
          "internalType": "uint256",
          "name": "overdueRate",
          "type": "uint256"
        }
      ],
      "name": "setBorrowPoolOverdueRate",
      "outputs": [],
      "stateMutability": "nonpayable",
      "type": "function"
    },
    {
      "inputs": [
        {
          "internalType": "address",
          "name": "_funder",
          "type": "address"
        }
      ],
      "name": "setFunder",
      "outputs": [],
      "stateMutability": "nonpayable",
      "type": "function"
    },
    {
      "inputs": [
        {
          "internalType": "address",
          "name": "governance",
          "type": "address"
        }
      ],
      "name": "setGovernance",
      "outputs": [],
      "stateMutability": "nonpayable",
      "type": "function"
    },
    {
      "inputs": [
        {
          "internalType": "uint256",
          "name": "_interestPlatformRate",
          "type": "uint256"
        }
      ],
      "name": "setInterestPlatformRate",
      "outputs": [],
      "stateMutability": "nonpayable",
      "type": "function"
    },
    {
      "inputs": [
        {
          "internalType": "uint256",
          "name": "_pid",
          "type": "uint256"
        },
        {
          "internalType": "uint256",
          "name": "_minAmount",
          "type": "uint256"
        }
      ],
      "name": "setMinSettingCollateral",
      "outputs": [],
      "stateMutability": "nonpayable",
      "type": "function"
    },
    {
      "inputs": [
        {
          "internalType": "address",
          "name": "_user",
          "type": "address"
        },
        {
          "internalType": "bool",
          "name": "_flag",
          "type": "bool"
        }
      ],
      "name": "setSettlementBorrowAuth",
      "outputs": [],
      "stateMutability": "nonpayable",
      "type": "function"
    },
    {
      "inputs": [
        {
          "internalType": "address",
          "name": "special721",
          "type": "address"
        },
        {
          "internalType": "uint256",
          "name": "rate",
          "type": "uint256"
        },
        {
          "internalType": "string",
          "name": "name",
          "type": "string"
        }
      ],
      "name": "setSpecial721BorrowRate",
      "outputs": [],
      "stateMutability": "nonpayable",
      "type": "function"
    },
    {
      "inputs": [
        {
          "internalType": "uint256",
          "name": "bid",
          "type": "uint256"
        }
      ],
      "name": "settlementBorrow",
      "outputs": [],
      "stateMutability": "nonpayable",
      "type": "function"
    },
    {
      "inputs": [
        {
          "internalType": "address",
          "name": "",
          "type": "address"
        }
      ],
      "name": "settlementBorrowAuth",
      "outputs": [
        {
          "internalType": "bool",
          "name": "",
          "type": "bool"
        }
      ],
      "stateMutability": "view",
      "type": "function"
    },
    {
      "inputs": [
        {
          "internalType": "address",
          "name": "tokenA",
          "type": "address"
        },
        {
          "internalType": "address",
          "name": "tokenB",
          "type": "address"
        }
      ],
      "name": "sortTokens",
      "outputs": [
        {
          "internalType": "address",
          "name": "token0",
          "type": "address"
        },
        {
          "internalType": "address",
          "name": "token1",
          "type": "address"
        }
      ],
      "stateMutability": "pure",
      "type": "function"
    },
    {
      "inputs": [
        {
          "internalType": "uint256",
          "name": "",
          "type": "uint256"
        }
      ],
      "name": "special721Arr",
      "outputs": [
        {
          "internalType": "address",
          "name": "",
          "type": "address"
        }
      ],
      "stateMutability": "view",
      "type": "function"
    },
    {
      "inputs": [
        {
          "internalType": "address",
          "name": "",
          "type": "address"
        }
      ],
      "name": "special721Info",
      "outputs": [
        {
          "internalType": "string",
          "name": "name",
          "type": "string"
        },
        {
          "internalType": "uint256",
          "name": "rate",
          "type": "uint256"
        }
      ],
      "stateMutability": "view",
      "type": "function"
    },
    {
      "inputs": [
        {
          "internalType": "uint256",
          "name": "pid",
          "type": "uint256"
        },
        {
          "internalType": "address",
          "name": "toUser",
          "type": "address"
        },
        {
          "internalType": "uint256",
          "name": "interests",
          "type": "uint256"
        }
      ],
      "name": "transferInterestToLend",
      "outputs": [],
      "stateMutability": "nonpayable",
      "type": "function"
    },
    {
      "inputs": [
        {
          "internalType": "uint256",
          "name": "bid",
          "type": "uint256"
        }
      ],
      "name": "transferToAuction",
      "outputs": [],
      "stateMutability": "nonpayable",
      "type": "function"
    },
    {
      "inputs": [],
      "name": "uniswapV3",
      "outputs": [
        {
          "internalType": "contract IERC721",
          "name": "",
          "type": "address"
        }
      ],
      "stateMutability": "view",
      "type": "function"
    },
    {
      "inputs": [],
      "name": "uniswapV3Oracle",
      "outputs": [
        {
          "internalType": "contract IUniswapV3Oracle",
          "name": "",
          "type": "address"
        }
      ],
      "stateMutability": "view",
      "type": "function"
    },
    {
      "inputs": [],
      "name": "unpause",
      "outputs": [],
      "stateMutability": "nonpayable",
      "type": "function"
    },
    {
      "inputs": [
        {
          "internalType": "uint256",
          "name": "_pid",
          "type": "uint256"
        }
      ],
      "name": "unpausePool",
      "outputs": [],
      "stateMutability": "nonpayable",
      "type": "function"
    },
    {
      "inputs": [
        {
          "internalType": "uint256",
          "name": "pid",
          "type": "uint256"
        }
      ],
      "name": "updateBorrowPool",
      "outputs": [],
      "stateMutability": "nonpayable",
      "type": "function"
    },
    {
      "inputs": [
        {
          "internalType": "address",
          "name": "",
          "type": "address"
        }
      ],
      "name": "userApplyRate",
      "outputs": [
        {
          "internalType": "address",
          "name": "apply721Address",
          "type": "address"
        },
        {
          "internalType": "uint256",
          "name": "specialMaxRate",
          "type": "uint256"
        },
        {
          "internalType": "uint256",
          "name": "tokenId",
          "type": "uint256"
        }
      ],
      "stateMutability": "view",
      "type": "function"
    },
    {
      "inputs": [
        {
          "internalType": "uint256",
          "name": "bid",
          "type": "uint256"
        },
        {
          "internalType": "uint256",
          "name": "repayAmount",
          "type": "uint256"
        }
      ],
      "name": "userReturn",
      "outputs": [],
      "stateMutability": "nonpayable",
      "type": "function"
    },
    {
      "inputs": [
        {
          "internalType": "uint256",
          "name": "pid",
          "type": "uint256"
        },
        {
          "internalType": "uint256",
          "name": "tokenId",
          "type": "uint256"
        },
        {
          "internalType": "uint256",
          "name": "borrowAmount",
          "type": "uint256"
        }
      ],
      "name": "v3NFTBorrow",
      "outputs": [],
      "stateMutability": "nonpayable",
      "type": "function"
    }
  ],
  "bytecode": "0x608060405261028a60105534801561001657600080fd5b506000805460ff60a01b196001600160a01b0319909116321716905560018055615018806100456000396000f3fe608060405234801561001057600080fd5b50600436106103a45760003560e01c806372543925116101e9578063ac40ae021161010f578063de587a27116100ad578063e63ab1e91161007c578063e63ab1e914610956578063ee77d32f1461096b578063ee80ac6f1461097e578063f807eb121461099e576103a4565b8063de587a2714610906578063e0ced95214610919578063e3759d151461092c578063e49352fe1461094d576103a4565b8063c6ce5805116100e9578063c6ce5805146108a2578063cf9f79c8146108b5578063d547741f146108c8578063d9f899f2146108db576103a4565b8063ac40ae0214610873578063b13ae8041461087c578063b36cd07f1461088f576103a4565b806391d14854116101875780639cf0b430116101565780639cf0b430146107e55780639f0950f914610805578063a38acccb1461084d578063ab033ea914610860576103a4565b806391d148541461078c57806393e5b1881461079f5780639a01a4f7146107b25780639aea17b4146107c5576103a4565b806389a52cfc116101c357806389a52cfc146106f15780638c742130146107045780638e7d12bd1461071757806391300db71461072a576103a4565b806372543925146106605780637d3e2a5a146106735780638456cb59146106e9576103a4565b806325c60194116102ce5780634ddf73321161026c5780635c975abb1161023b5780635c975abb146106075780635e8ead771461061a578063642738601461062d57806369e9d4c114610640576103a4565b80634ddf73321461058e57806351f1a51f146105ae578063544caa56146105c15780635712cfc6146105f4576103a4565b806335e41bd5116102a857806335e41bd51461054857806336311d281461056b5780633ddb99431461057e5780633f4ba83a14610586576103a4565b806325c601941461050f5780632e5871ec146105225780632f2ff15d14610535576103a4565b806319e4d512116103465780631fe7cacf116103155780631fe7cacf146104bf57806320a1e88a146104d257806321a043af146104e957806322be6b1f146104fc576103a4565b806319e4d512146104735780631c2f3e3d146104865780631e0b8043146104995780631e8438c4146104ac576103a4565b806306f21ab31161038257806306f21ab3146104155780630acc8cd11461042a5780631575df931461043d5780631917abb214610450576103a4565b8063012a472c146103a95780630411f4b7146103d7578063041ae88014610402575b600080fd5b6103bc6103b73660046148cd565b6109c6565b6040516103ce96959493929190614d6f565b60405180910390f35b6008546103ea906001600160a01b031681565b6040516001600160a01b0390911681526020016103ce565b6014546103ea906001600160a01b031681565b610428610423366004614905565b610b76565b005b6104286104383660046148cd565b610d89565b6103ea61044b366004614b53565b610e17565b61046361045e366004614b53565b610e41565b60405190151581526020016103ce565b610428610481366004614a02565b6110a9565b6000546103ea906001600160a01b031681565b6104286104a73660046149d7565b611224565b6104286104ba3660046149aa565b61131c565b6104286104cd366004614b53565b6113a4565b6104db60155481565b6040519081526020016103ce565b6104db6104f7366004614b53565b61142f565b6104db61050a366004614b53565b611456565b61042861051d366004614b83565b61153e565b610428610530366004614bba565b611643565b610428610543366004614aca565b6116f4565b6104636105563660046148cd565b60116020526000908152604090205460ff1681565b610428610579366004614b53565b611728565b600c546104db565b610428611c18565b6104db61059c366004614b53565b60126020526000908152604090205481565b6104286105bc366004614bba565b611c4c565b6105d46105cf366004614905565b611e26565b604080516001600160a01b039384168152929091166020830152016103ce565b6104db610602366004614b53565b611f07565b610463600054600160a01b900460ff1690565b610428610628366004614b53565b611f2d565b600f546103ea906001600160a01b031681565b6104db61064e366004614b53565b60136020526000908152604090205481565b61042861066e366004614b53565b61209a565b610686610681366004614b53565b612411565b604080516001600160a01b03909d168d5260208d019b909b52998b019890985260608a0196909652608089019490945260a088019290925260c087015260e0860152610100850152610120840152610140830152610160820152610180016103ce565b61042861248b565b6104286106ff3660046148cd565b6124f3565b6104db610712366004614b53565b61256a565b6009546103ea906001600160a01b031681565b61073d610738366004614b53565b6125a6565b604080516001600160a01b039a8b1681529990981660208a0152968801959095526060870193909352608086019190915260a085015260c084015260e0830152610100820152610120016103ce565b61046361079a366004614aca565b61260e565b6104286107ad3660046148cd565b612639565b600a546103ea906001600160a01b031681565b6107d86107d33660046149d7565b6126bf565b6040516103ce9190614cf6565b6104db6107f3366004614b53565b60166020526000908152604090205481565b61083e6108133660046148cd565b600e602052600090815260409020805460018201546002909201546001600160a01b03909116919083565b6040516103ce93929190614cd5565b61042861085b366004614bfe565b6127e9565b61042861086e3660046148cd565b612dfb565b6104db60105481565b61042861088a366004614b53565b612ed6565b6104db61089d366004614b53565b61300d565b6104286108b0366004614b53565b613039565b6107d86108c33660046148cd565b61306c565b6104286108d6366004614aca565b613174565b6104db6108e93660046149d7565b600460209081526000928352604080842090915290825290205481565b61042861091436600461493d565b6131a8565b610428610927366004614bba565b613394565b61093f61093a3660046148cd565b6139c0565b6040516103ce929190614d4d565b6104db61168081565b6104db600080516020614fc383398151915281565b610428610979366004614bba565b613a64565b6104db61098c366004614b53565b60176020526000908152604090205481565b6109b16109ac366004614c29565b613ae3565b604080519283529015156020830152016103ce565b6010546001600160a01b038083166000908152600e60205260408120546060939192839116818115610b64576001600160a01b038781166000908152600e60205260408082206002015490516331a9108f60e11b8152600481018290529095509091841690636352211e9060240160206040518083038186803b158015610a4c57600080fd5b505afa158015610a60573d6000803e3d6000fd5b505050506040513d601f19601f82011682018060405250810190610a8491906148e9565b9050806001600160a01b0316886001600160a01b03161415610b62576001600160a01b038089166000908152600e602090815260408083206001908101549488168452600d909252909120805492985090935090610ae190614f1d565b80601f0160208091040260200160405190810160405280929190818152602001828054610b0d90614f1d565b8015610b5a5780601f10610b2f57610100808354040283529160200191610b5a565b820191906000526020600020905b815481529060010190602001808311610b3d57829003601f168201915b505050505096505b505b84610b6d578394505b91939550919395565b600a546001600160a01b03163314610ba95760405162461bcd60e51b8152600401610ba090614db6565b60405180910390fd5b60408051610120810182526001600160a01b03938416815291831660208301908152600091830182815260608401838152436080860190815260a0860185815260c0870186815260e088018781526103206101008a01908152600b80546001810182559952985160099098027f0175b7a638427703f0dbe7bb9bbf987a2551717b34e79f33b5b1008d1fa01db981018054998c166001600160a01b03199a8b1617905596517f0175b7a638427703f0dbe7bb9bbf987a2551717b34e79f33b5b1008d1fa01dba8801805491909b1698169790971790985592517f0175b7a638427703f0dbe7bb9bbf987a2551717b34e79f33b5b1008d1fa01dbb85015590517f0175b7a638427703f0dbe7bb9bbf987a2551717b34e79f33b5b1008d1fa01dbc840155517f0175b7a638427703f0dbe7bb9bbf987a2551717b34e79f33b5b1008d1fa01dbd830155517f0175b7a638427703f0dbe7bb9bbf987a2551717b34e79f33b5b1008d1fa01dbe82015592517f0175b7a638427703f0dbe7bb9bbf987a2551717b34e79f33b5b1008d1fa01dbf840155517f0175b7a638427703f0dbe7bb9bbf987a2551717b34e79f33b5b1008d1fa01dc0830155517f0175b7a638427703f0dbe7bb9bbf987a2551717b34e79f33b5b1008d1fa01dc190910155565b6000546001600160a01b03163314610db35760405162461bcd60e51b8152600401610ba090614e2a565b601480546001600160a01b038381166001600160a01b0319831681179093556040805191909216808252602082019390935233917f7bdd8beff7d8411e2b81e553a7f28dd1d15b287f3a02a33f26ac4e4d7a5f866091015b60405180910390a25050565b600c8181548110610e2757600080fd5b6000918252602090912001546001600160a01b0316905081565b60008060078381548110610e6557634e487b7160e01b600052603260045260246000fd5b600091825260208083206040805161018081018252600c90940290910180546001600160a01b0316845260018101549284018390526002810154918401919091526003810154606084015260048101546080840152600581015460a0840152600681015460c0840152600781015460e084015260088101546101008401526009810154610120840152600a810154610140840152600b908101546101608401528054929450918110610f2757634e487b7160e01b600052603260045260246000fd5b600091825260208083206040805161012081018252600990940290910180546001600160a01b039081168086526001830154821694860194909452600282015485840152600382015460608601526004808301546080870152600583015460a0870152600683015460c0870152600783015460e0870152600890920154610100860152600f548884015193516304bd838960e41b81529597501693634bd8389093610fe793929091019182526001600160a01b0316602082015260400190565b604080518083038186803b158015610ffe57600080fd5b505afa158015611012573d6000803e3d6000fd5b505050506040513d601f19601f820116820180604052508101906110369190614bdb565b509050600061105f6103e861105985610100015185613c4790919063ffffffff16565b90613c53565b9050600061106c87613c5f565b9050816110868660a0015183613e1890919063ffffffff16565b111561109a576001955050505050506110a4565b6000955050505050505b919050565b6000546001600160a01b031633146110d35760405162461bcd60e51b8152600401610ba090614e2a565b6103e882106110f45760405162461bcd60e51b8152600401610ba090614de6565b6001600160a01b0383166000908152600d60209081526040909120600181015483519092611126929190850190614834565b506001600160a01b0384166000908152600d602052604081206001908101859055905b600c548110156111b457856001600160a01b0316600c828154811061117e57634e487b7160e01b600052603260045260246000fd5b6000918252602090912001546001600160a01b031614156111a257600091506111b4565b806111ac81614f58565b915050611149565b5080156111d857600c8054869190634e487b7160e01b600052603260045260246000fd5b846001600160a01b03167f012b78c5d21ba97b720997b598236d1931fd00cf38a65f88b51ca53092f6baf533848760405161121593929190614cd5565b60405180910390a25050505050565b61122c613e24565b611234613e7e565b6001600160a01b0382166000908152600d60205260409020600101548061129d5760405162461bcd60e51b815260206004820152601e60248201527f546869732037323120436f6e7472616374206e6f742073657474696e672e00006044820152606401610ba0565b336000818152600e60205260409081902080546001600160a01b0319166001600160a01b03871617815560018101849055600201849055517f1e539acd4750e5a45f933dcf79543f31ff71228f09cdb2073a13800d3fd4d44e9061130690869085908790614cd5565b60405180910390a25061131860018055565b5050565b6000546001600160a01b031633146113465760405162461bcd60e51b8152600401610ba090614e2a565b6001600160a01b038216600081815260116020908152604091829020805460ff191685151590811790915582519384529083015233917f3e8a5da8cabc1b490a219f97b787a956fa8fe76312bfe464ecbe6764a27302329101610e0b565b6000546001600160a01b031633146113ce5760405162461bcd60e51b8152600401610ba090614e2a565b61271081106113ef5760405162461bcd60e51b8152600401610ba090614de6565b6015805490829055604080518281526020810184905233917f948e8b1938d4e599e9ca63988998041e722ffd1f32cca33174001002d80a51c49101610e0b565b600061143a82610e41565b15611447575060006110a4565b61145082613c5f565b92915050565b600a546040516303afb43360e11b81526004810183905260009182916001600160a01b039091169063075f68669060240160a06040518083038186803b15801561149f57600080fd5b505afa1580156114b3573d6000803e3d6000fd5b505050506040513d601f19601f820116820180604052508101906114d79190614aee565b905060006114f682606001518360400151613e1890919063ffffffff16565b116115055760009150506110a4565b61153761152382606001518360400151613e1890919063ffffffff16565b60608301516110599064e8d4a51000613c47565b9392505050565b600a546001600160a01b031633146115685760405162461bcd60e51b8152600401610ba090614db6565b6115ab600b848154811061158c57634e487b7160e01b600052603260045260246000fd5b60009182526020909120600990910201546001600160a01b03166124f3565b6115f28282600b86815481106115d157634e487b7160e01b600052603260045260246000fd5b60009182526020909120600990910201546001600160a01b03169190613ed1565b604080518481526001600160a01b038416602082015290810182905233907fce170d5650bdcc51636034b3f5b91db7f7ff62151f63e68616f5c4c930521aca906060015b60405180910390a2505050565b6000546001600160a01b0316331461166d5760405162461bcd60e51b8152600401610ba090614e2a565b6000600b838154811061169057634e487b7160e01b600052603260045260246000fd5b90600052602060002090600902019050600081600801549050828260080181905550837fb898b12c44cb1aea78e35bcabb7eeeb5d86ef4848d91556dcc1f368af3ba62e63383866040516116e693929190614cd5565b60405180910390a250505050565b6000546001600160a01b0316331461171e5760405162461bcd60e51b8152600401610ba090614e2a565b6113188282613f34565b611730613e24565b611738613e7e565b61174181610e41565b6117835760405162461bcd60e51b815260206004820152601360248201527263616e206e6f742061756374696f6e206e6f7760681b6044820152606401610ba0565b6000600782815481106117a657634e487b7160e01b600052603260045260246000fd5b90600052602060002090600c0201905080600b01546001146118005760405162461bcd60e51b81526020600482015260136024820152723137b93937bb9039ba30ba329032b93937b91760691b6044820152606401610ba0565b80546001820154600b80546001600160a01b039093169260009290811061183757634e487b7160e01b600052603260045260246000fd5b60009182526020909120600990910201805490915061185e906001600160a01b03166124f3565b6001600160a01b03821660009081526004602090815260408083206001870154845290915290206009600b85015561189585613c5f565b600a850155600584015481546118aa91613f9d565b81556001600160a01b03831660009081526005602090815260408083206001880154845290915290206118dd9086613fa9565b506001600160a01b038316600090815260056020908152604080832060018801548452909152902061190e90613fb5565b61193a5760018401546001600160a01b038416600090815260066020526040902061193891613fa9565b505b6005840154600185015460009081526012602052604090205461195c91613e18565b600185018054600090815260126020908152604080832094909455600a8801549254825260139052919091205461199291613e18565b6001850180546000908152601360205260409020919091555460058501546119bc91906002613fbf565b600a5460018501546005860154604051632f50ba4360e11b8152600481019290925260248201526001600160a01b0390911690635ea1748690604401600060405180830381600087803b158015611a1257600080fd5b505af1158015611a26573d6000803e3d6000fd5b5050600f54600287015485546040516304bd838960e41b815260048101929092526001600160a01b039081166024830152600094509091169150634bd8389090604401604080518083038186803b158015611a8057600080fd5b505afa158015611a94573d6000803e3d6000fd5b505050506040513d601f19601f82011682018060405250810190611ab89190614bdb565b50600486810182905560095460085460028901548754600a8b01546040516372abff2960e01b81526001600160a01b03948516968101969096526024860192909252604485018c9052821660648501526084840185905260a484015292935091909116906372abff299060c401600060405180830381600087803b158015611b3f57600080fd5b505af1158015611b53573d6000803e3d6000fd5b505060085460095460028901546040516323b872dd60e01b81526001600160a01b0393841695506323b872dd9450611b92933093169190600401614cb1565b600060405180830381600087803b158015611bac57600080fd5b505af1158015611bc0573d6000803e3d6000fd5b505050508460020154867fb23eb9c94498577267929ee3a0dfb5264937ecd77eabac78da59dac1efee11af8760010154604051611bff91815260200190565b60405180910390a35050505050611c1560018055565b50565b6000546001600160a01b03163314611c425760405162461bcd60e51b8152600401610ba090614e2a565b611c4a614038565b565b6014546001600160a01b03163314611ca65760405162461bcd60e51b815260206004820152601860248201527f6e6f742066756e64657220766973746f7220616c6c6f772e00000000000000006044820152606401610ba0565b60008281526016602052604090205481811015611cf55760405162461bcd60e51b815260206004820152600d60248201526c2bb937b7339030b6b7bab73a1760991b6044820152606401610ba0565b600083815260166020526040902054611d0e9083613f9d565b600084815260166020526040812091909155600b805485908110611d4257634e487b7160e01b600052603260045260246000fd5b60009182526020918290206040805161012081018252600990930290910180546001600160a01b039081168085526001830154909116948401949094526002810154918301919091526003810154606083015260048101546080830152600581015460a0830152600681015460c0830152600781015460e0830152600801546101008201529150611dd2906124f3565b6014548151611dee916001600160a01b03918216911685613ed1565b604080518581526020810185905233917feb52865751bf5832b7c0bc5d822e259533c31650eff77ad238b0f5152f77fd2c91016116e6565b600080826001600160a01b0316846001600160a01b03161415611e8b5760405162461bcd60e51b815260206004820152601b60248201527f5633204e46543a204944454e544943414c5f41444452455353455300000000006044820152606401610ba0565b826001600160a01b0316846001600160a01b031610611eab578284611eae565b83835b90925090506001600160a01b038216611f005760405162461bcd60e51b81526020600482015260146024820152735633204e46543a205a45524f5f4144445245535360601b6044820152606401610ba0565b9250929050565b600061145064e8d4a51000611059611f1e8561300d565b611f2786611456565b90613c47565b600080516020614fc3833981519152611f46813361260e565b611f8d5760405162461bcd60e51b815260206004820152601860248201527730b1b1b7bab73a1034b99036b4b9b9b4b733903937b6329760411b6044820152606401610ba0565b6000600b8381548110611fb057634e487b7160e01b600052603260045260246000fd5b60009182526020918290206040805161012081018252600990930290910180546001600160a01b039081168085526001830154909116948401949094526002810154918301919091526003810154606083015260048101546080830152600581015460a0830152600681015460c0830152600781015460e0830152600801546101008201529150612062907fe1518dcd454e34128041da7650fde1a12551e3e90f879a74ba9c344c4671632290613f34565b604080518481526001602082015233917f8825f3b37c71ed68326b85768a26f08960100ff9ce5a70fea0d194f4d3be9d429101611636565b3360009081526011602052604090205460ff166121055760405162461bcd60e51b815260206004820152602360248201527f6e6f7420736574746c656d656e7420626f72726f7720766973746f7220616c6c60448201526237bb9760e91b6064820152608401610ba0565b61210d613e24565b612115613e7e565b60006007828154811061213857634e487b7160e01b600052603260045260246000fd5b90600052602060002090600c0201905080600b015460091461218b5760405162461bcd60e51b815260206004820152600c60248201526b6572726f722073746174757360a01b6044820152606401610ba0565b6000600b8260010154815481106121b257634e487b7160e01b600052603260045260246000fd5b6000918252602090912060099091020180549091506121d9906001600160a01b03166124f3565b6008600b830155436009830155600a82015460058301546000916121fd9190613e18565b600584015460018501546000908152601260205260409020549192506122239190613f9d565b600184018054600090815260126020908152604080832094909455600a8701549254825260139052919091205461225991613f9d565b6001840154600090815260136020526040812091909155601554600a850154612289916127109161105991613c47565b90506122af84600101546122aa8387600a0154613f9d90919063ffffffff16565b61408d565b82546122c6906001600160a01b0316333085614184565b80156122ff5760018401546000908152601660205260409020546122ea9082613e18565b60018501546000908152601660205260409020555b600a54835461231c916001600160a01b03918216911660006141a5565b600a546005850154845461233e926001600160a01b03918216929116906141a5565b600a546001850154600586015460405163cd1fa12f60e01b8152600481019290925260248201526001600160a01b039091169063cd1fa12f90604401600060405180830381600087803b15801561239457600080fd5b505af11580156123a8573d6000803e3d6000fd5b50505060018501546005860154600a87015460408051938452602084019290925290820152606081018390528691507fd6279cb4c900712994fa56f896b7c2fc1226a85706c06dd7678198df07419ff09060800160405180910390a250505050611c1560018055565b6007818154811061242157600080fd5b60009182526020909120600c9091020180546001820154600283015460038401546004850154600586015460068701546007880154600889015460098a0154600a8b0154600b909b01546001600160a01b03909a169b50979996989597949693959294919390928c565b600080516020614fc38339815191526124a4813361260e565b6124eb5760405162461bcd60e51b815260206004820152601860248201527730b1b1b7bab73a1034b99036b4b9b9b4b733903937b6329760411b6044820152606401610ba0565b611c156142c9565b61251d7fe1518dcd454e34128041da7650fde1a12551e3e90f879a74ba9c344c467163228261260e565b15611c155760405162461bcd60e51b815260206004820152601d60248201527f5468697320706f6f6c20686173206265656e2073757370656e6465642e0000006044820152606401610ba0565b6000600b828154811061258d57634e487b7160e01b600052603260045260246000fd5b9060005260206000209060090201600601549050919050565b600b81815481106125b657600080fd5b60009182526020909120600990910201805460018201546002830154600384015460048501546005860154600687015460078801546008909801546001600160a01b0397881699509690951696939592949193909289565b60009182526002602090815260408084206001600160a01b0393909316845291905290205460ff1690565b6000546001600160a01b031633146126635760405162461bcd60e51b8152600401610ba090614e2a565b600f80546001600160a01b038381166001600160a01b0319831681179093556040805191909216808252602082019390935233917f55f88e1a470467a8151fa2efb5c4a38d5ead3df1c5a84112b8d2b428ac28e7529101610e0b565b6001600160a01b03821660009081526005602090815260408083208484529091528120606091906126ef90613fb5565b67ffffffffffffffff81111561271557634e487b7160e01b600052604160045260246000fd5b60405190808252806020026020018201604052801561273e578160200160208202803683370190505b50905060005b6001600160a01b0385166000908152600560209081526040808320878452909152902061277090613fb5565b8110156127e1576001600160a01b038516600090815260056020908152604080832087845290915290206127a4908261430c565b8282815181106127c457634e487b7160e01b600052603260045260246000fd5b6020908102919091010152806127d981614f58565b915050612744565b509392505050565b333b1515806127f85750323314155b15612873576128277fb08ae0ab489f3db6965ca08713613b335addfe0b316a24a9d9a85fbc99bff5f53361260e565b6128735760405162461bcd60e51b815260206004820152601b60248201527f6e6f742077686974656c69737420766973746f7220616c6c6f772e00000000006044820152606401610ba0565b61287b613e24565b612883613e7e565b3360009081526004602090815260408083208684529091528120600b8054919291869081106128c257634e487b7160e01b600052603260045260246000fd5b60009182526020918290206040805161012081018252600990930290910180546001600160a01b039081168085526001830154909116948401949094526002810154918301919091526003810154606083015260048101546080830152600581015460a0830152600681015460c0830152600781015460e0830152600801546101008201529150612952906124f3565b600f5481516040516304bd838960e41b81526000926001600160a01b031691634bd83890916129979189916004019182526001600160a01b0316602082015260400190565b604080518083038186803b1580156129ae57600080fd5b505afa1580156129c2573d6000803e3d6000fd5b505050506040513d601f19601f820116820180604052508101906129e69190614bdb565b506000878152601760205260409020549091508111612a535760405162461bcd60e51b815260206004820152602360248201527f5468652076616c7565206f6620636f6c6c61746572616c20697320746f6f206c60448201526237bb9760e91b6064820152608401610ba0565b6000612a5e336109c6565b505050509150506000612a806103e86110598486613c4790919063ffffffff16565b905085811015612ade5760405162461bcd60e51b815260206004820152602360248201527f4578636565647320746865206d6178696d756d206c6f616e61626c6520616d6f6044820152621d5b9d60ea1b6064820152608401610ba0565b612aea88876001613fbf565b6007604051806101800160405280336001600160a01b031681526020018a815260200189815260200185815260200160008152602001888152602001600081526020018660a0015181526020014381526020016000815260200160008152602001600181525090806001815401808255809150506001900390600052602060002090600c020160009091909190915060008201518160000160006101000a8154816001600160a01b0302191690836001600160a01b031602179055506020820151816001015560408201518160020155606082015181600301556080820151816004015560a0820151816005015560c0820151816006015560e082015181600701556101008201518160080155610120820151816009015561014082015181600a015561016082015181600b0155505060006001600780549050612c2e9190614eda565b8654909150612c3d9088613e18565b86553360009081526005602090815260408083208c84529091529020612c6290613fb5565b612c8157336000908152600660205260409020612c7f908a614318565b505b3360009081526005602090815260408083208c84529091529020612ca59082614318565b506008546040516323b872dd60e01b81526001600160a01b03909116906323b872dd90612cda90339030908d90600401614cb1565b600060405180830381600087803b158015612cf457600080fd5b505af1158015612d08573d6000803e3d6000fd5b5050600a5460405163545fb83160e11b8152600481018d9052336024820152604481018b90526001600160a01b03909116925063a8bf70629150606401600060405180830381600087803b158015612d5f57600080fd5b505af1158015612d73573d6000803e3d6000fd5b5050336000818152600e60209081526040918290205482518781529182018a90528183018d9052606082018990526001600160a01b031660808201524360a082015290518d94508c93507f0a00f00280e32be58f7700959160aa318c58c4d12ad6d6d83cdf7520d8c107809181900360c00190a4505050505050612df660018055565b505050565b6000546001600160a01b03163314612e255760405162461bcd60e51b8152600401610ba090614e2a565b6001600160a01b038116612e7b5760405162461bcd60e51b815260206004820152601f60248201527f6e657720676f7665726e616e636520746865207a65726f2061646472657373006044820152606401610ba0565b600080546040516001600160a01b03808516939216917f5f56bee8cffbe9a78652a74a60705edede02af10b0bbb888ca44b79a0d42ce8091a3600080546001600160a01b0319166001600160a01b0392909216919091179055565b6000546001600160a01b03163314612f005760405162461bcd60e51b8152600401610ba090614e2a565b6000600b8281548110612f2357634e487b7160e01b600052603260045260246000fd5b60009182526020918290206040805161012081018252600990930290910180546001600160a01b039081168085526001830154909116948401949094526002810154918301919091526003810154606083015260048101546080830152600581015460a0830152600681015460c0830152600781015460e0830152600801546101008201529150612fd5907fe1518dcd454e34128041da7650fde1a12551e3e90f879a74ba9c344c4671632290614324565b604080518381526000602082015233917f8825f3b37c71ed68326b85768a26f08960100ff9ce5a70fea0d194f4d3be9d429101610e0b565b60006114506405d21dba0061303364e8d4a51000611059642e90edd000611f2788611456565b90613e18565b600a546001600160a01b031633146130635760405162461bcd60e51b8152600401610ba090614db6565b611c158161438b565b6001600160a01b03811660009081526006602052604081206060919061309190613fb5565b67ffffffffffffffff8111156130b757634e487b7160e01b600052604160045260246000fd5b6040519080825280602002602001820160405280156130e0578160200160208202803683370190505b50905060005b6001600160a01b038416600090815260066020526040902061310790613fb5565b81101561316d576001600160a01b0384166000908152600660205260409020613130908261430c565b82828151811061315057634e487b7160e01b600052603260045260246000fd5b60209081029190910101528061316581614f58565b9150506130e6565b5092915050565b6000546001600160a01b0316331461319e5760405162461bcd60e51b8152600401610ba090614e2a565b6113188282614324565b600354610100900460ff16158080156131c85750600354600160ff909116105b806131e25750303b1580156131e2575060035460ff166001145b6132455760405162461bcd60e51b815260206004820152602e60248201527f496e697469616c697a61626c653a20636f6e747261637420697320616c72656160448201526d191e481a5b9a5d1a585b1a5e995960921b6064820152608401610ba0565b6003805460ff191660011790558015613268576003805461ff0019166101001790555b6103e883106132895760405162461bcd60e51b8152600401610ba090614de6565b61271082106132aa5760405162461bcd60e51b8152600401610ba090614de6565b600080546001600160a01b031916339081179091556132d890600080516020614fc383398151915290613f34565b600880546001600160a01b03199081166001600160a01b038a811691909117909255600f80548216898416179055600a805482168884161790556009805490911686831617908190556010859055166000908152601160205260409020805460ff191660011790556015829055801561338b576003805461ff0019169055604051600181527f7f26b83ff96e1f2b6a682f133852f6798a09c465da95921460cefb38474024989060200160405180910390a15b50505050505050565b333b1515806133a35750323314155b1561341e576133d27fb08ae0ab489f3db6965ca08713613b335addfe0b316a24a9d9a85fbc99bff5f53361260e565b61341e5760405162461bcd60e51b815260206004820152601b60248201527f6e6f742077686974656c69737420766973746f7220616c6c6f772e00000000006044820152606401610ba0565b613426613e24565b61342e613e7e565b60006007838154811061345157634e487b7160e01b600052603260045260246000fd5b60009182526020909120600c9091020180549091506001600160a01b031633146134a95760405162461bcd60e51b81526020600482015260096024820152683737ba1037bbb732b960b91b6044820152606401610ba0565b6000600b8260010154815481106134d057634e487b7160e01b600052603260045260246000fd5b60009182526020918290206040805161012081018252600990930290910180546001600160a01b039081168085526001830154909116948401949094526002810154918301919091526003810154606083015260048101546080830152600581015460a0830152600681015460c0830152600781015460e0830152600801546101008201529150613560906124f3565b3360009081526004602090815260408083206001860154845290915281209061358886613c5f565b9050808510156135da5760405162461bcd60e51b815260206004820152601d60248201527f4e6f7420656e6f75676820746f20726570617920696e7465726573742e0000006044820152606401610ba0565b60058401546000906135ec9083613e18565b9050808611156135fa578095505b60006136068784613f9d565b85516040516370a0823160e01b81523360048201529192506000916001600160a01b03909116906370a082319060240160206040518083038186803b15801561364e57600080fd5b505afa158015613662573d6000803e3d6000fd5b505050506040513d601f19601f820116820180604052508101906136869190614b6b565b9050878110156136cd5760405162461bcd60e51b81526020600482015260126024820152713737ba1032b737bab3b41030b6b7bab73a1760711b6044820152606401610ba0565b6136dd8760010154836002613fbf565b60006136fa61271061105960155488613c4790919063ffffffff16565b6001890154909150613710906122aa8784613f9d565b855461371c9084613f9d565b8655600588015483141561381f5733600090815260056020908152604080832060018c015484529091529020613752908b613fa9565b5085546137a35733600090815260056020908152604080832060018c01548452909152902061378090613fb5565b6137a35760018801543360009081526006602052604090206137a191613fa9565b505b4360098901556002600b8901819055600854908901546040516323b872dd60e01b81526001600160a01b03909216916323b872dd916137e89130913391600401614cb1565b600060405180830381600087803b15801561380257600080fd5b505af1158015613816573d6000803e3d6000fd5b5050505061383e565b600588015461382e9084613f9d565b600589015560a087015160078901555b600688015461384d9084613e18565b6006890155600a8801546138619086613e18565b600a890155865161387d906001600160a01b031633308c614184565b80156138b65760018801546000908152601660205260409020546138a19082613e18565b60018901546000908152601660205260409020555b600a5487516138d3916001600160a01b03918216911660006141a5565b600a5487516138ef916001600160a01b039182169116856141a5565b600a54600189015460405163ec510b3b60e01b81526001600160a01b039092169163ec510b3b9161392d918790600401918252602082015260400190565b600060405180830381600087803b15801561394757600080fd5b505af115801561395b573d6000803e3d6000fd5b505050600189015460408051918252602082018690528101879052606081018390528b915033907f793324a68db7201628508c33a28fc8107763fee328f5f54783918c1f2844443f9060800160405180910390a3505050505050505061131860018055565b600d602052600090815260409020805481906139db90614f1d565b80601f0160208091040260200160405190810160405280929190818152602001828054613a0790614f1d565b8015613a545780601f10613a2957610100808354040283529160200191613a54565b820191906000526020600020905b815481529060010190602001808311613a3757829003601f168201915b5050505050908060010154905082565b6000546001600160a01b03163314613a8e5760405162461bcd60e51b8152600401610ba090614e2a565b600082815260176020908152604091829020805490849055825185815291820181905291810183905233907f79cf9f96b45472cf1222a9e1ad96a4c1cc372d190c97eb95ce5aa1a72e2d488a90606001611636565b6000806000600b8781548110613b0957634e487b7160e01b600052603260045260246000fd5b60009182526020808320604080516101208101825260099490940290910180546001600160a01b039081168086526001830154821694860194909452600282015485840152600382015460608601526004808301546080870152600583015460a0870152600683015460c0870152600783015460e0870152600890920154610100860152600f5492516304bd838960e41b81529182018c905260248201939093529294501690634bd8389090604401604080518083038186803b158015613bcf57600080fd5b505afa158015613be3573d6000803e3d6000fd5b505050506040513d601f19601f82011682018060405250810190613c079190614bdb565b5090506000613c15866109c6565b50505050915050613c356103e86110598385613c4790919063ffffffff16565b99968a10159850959650505050505050565b60006115378284614ebb565b60006115378284614e9b565b60008060078381548110613c8357634e487b7160e01b600052603260045260246000fd5b600091825260208083206040805161018081018252600c90940290910180546001600160a01b0316845260018101549284018390526002810154918401919091526003810154606084015260048101546080840152600581015460a0840152600681015460c0840152600781015460e084015260088101546101008401526009810154610120840152600a810154610140840152600b908101546101608401528054929450918110613d4557634e487b7160e01b600052603260045260246000fd5b600091825260208083206040805161012081018252600990940290910180546001600160a01b03908116855260018201541692840192909252600282015490830152600381015460608301819052600482015460808401819052600583015460a0850152600683015460c0850152600783015460e0850152600890920154610100840152919350613dd7919043614416565b9050613e0f64e8d4a510006110598560a00151611f278760e00151613e09878960a00151613e1890919063ffffffff16565b90613f9d565b95945050505050565b60006115378284614e83565b60026001541415613e775760405162461bcd60e51b815260206004820152601f60248201527f5265656e7472616e637947756172643a207265656e7472616e742063616c6c006044820152606401610ba0565b6002600155565b613e91600054600160a01b900460ff1690565b15611c4a5760405162461bcd60e51b815260206004820152601060248201526f14185d5cd8589b194e881c185d5cd95960821b6044820152606401610ba0565b6040516001600160a01b038316602482015260448101829052612df690849063a9059cbb60e01b906064015b60408051601f198184030181529190526020810180516001600160e01b03166001600160e01b031990931692909217909152614445565b613f3e828261260e565b6113185760008281526002602090815260408083206001600160a01b0385168085529252808320805460ff1916600117905551339285917f2f8788117e7eff1d82e926ec794901d17c78024a50270940304540a733656f0d9190a45050565b60006115378284614eda565b6000611537838361451a565b6000611450825490565b6000600b8481548110613fe257634e487b7160e01b600052603260045260246000fd5b90600052602060002090600902019050816001141561401457600281015461400a9084613e18565b6002820155614029565b60028101546140239084613f9d565b60028201555b6140328461438b565b50505050565b614040614637565b6000805460ff60a01b191690557f5db9ee0a495bf2e6ff9c91a7834c1ba4fdd244a5e8aa4e537bd38aeae4b073aa335b6040516001600160a01b03909116815260200160405180910390a1565b8015611318576000600b83815481106140b657634e487b7160e01b600052603260045260246000fd5b9060005260206000209060090201905060008160010160009054906101000a90046001600160a01b03166001600160a01b03166318160ddd6040518163ffffffff1660e01b815260040160206040518083038186803b15801561411857600080fd5b505afa15801561412c573d6000803e3d6000fd5b505050506040513d601f19601f820116820180604052508101906141509190614b6b565b905080156140325761417961416e826110598664e8d4a51000613c47565b600684015490613e18565b600683015550505050565b614032846323b872dd60e01b858585604051602401613efd93929190614cb1565b80158061422e5750604051636eb1769f60e11b81523060048201526001600160a01b03838116602483015284169063dd62ed3e9060440160206040518083038186803b1580156141f457600080fd5b505afa158015614208573d6000803e3d6000fd5b505050506040513d601f19601f8201168201806040525081019061422c9190614b6b565b155b6142995760405162461bcd60e51b815260206004820152603660248201527f5361666545524332303a20617070726f76652066726f6d206e6f6e2d7a65726f60448201527520746f206e6f6e2d7a65726f20616c6c6f77616e636560501b6064820152608401610ba0565b6040516001600160a01b038316602482015260448101829052612df690849063095ea7b360e01b90606401613efd565b6142d1613e7e565b6000805460ff60a01b1916600160a01b1790557f62e78cea01bee320cd4e420270b5ea74000d11b0c9f74754ebdbfc544b05a2586140703390565b6000611537838361468d565b600061153783836146c5565b61432e828261260e565b156113185760008281526002602090815260408083206001600160a01b0385168085529252808320805460ff1916905551339285917ff6391f5c32d9c69d2a47ea670b442974b53935d1edc7fd64eb21e047a839171b9190a45050565b6000600b82815481106143ae57634e487b7160e01b600052603260045260246000fd5b90600052602060002090600902019050438160040154106143cf5750611c15565b60006143e48260030154836004015443614416565b43600484015590506143f58361300d565b600383015560058201546144099082613e18565b8260050181905550505050565b600061443d61442961168061016d614ebb565b6110596144368587613f9d565b8790613c47565b949350505050565b600061449a826040518060400160405280602081526020017f5361666545524332303a206c6f772d6c6576656c2063616c6c206661696c6564815250856001600160a01b03166147149092919063ffffffff16565b90508051600014806144bb5750808060200190518101906144bb9190614aae565b612df65760405162461bcd60e51b815260206004820152602a60248201527f5361666545524332303a204552433230206f7065726174696f6e20646964206e6044820152691bdd081cdd58d8d9595960b21b6064820152608401610ba0565b6000818152600183016020526040812054801561462d57600061453e600183614eda565b855490915060009061455290600190614eda565b90508181146145d357600086600001828154811061458057634e487b7160e01b600052603260045260246000fd5b90600052602060002001549050808760000184815481106145b157634e487b7160e01b600052603260045260246000fd5b6000918252602080832090910192909255918252600188019052604090208390555b85548690806145f257634e487b7160e01b600052603160045260246000fd5b600190038181906000526020600020016000905590558560010160008681526020019081526020016000206000905560019350505050611450565b6000915050611450565b61464a600054600160a01b900460ff1690565b611c4a5760405162461bcd60e51b815260206004820152601460248201527314185d5cd8589b194e881b9bdd081c185d5cd95960621b6044820152606401610ba0565b60008260000182815481106146b257634e487b7160e01b600052603260045260246000fd5b9060005260206000200154905092915050565b600081815260018301602052604081205461470c57508154600181810184556000848152602080822090930184905584548482528286019093526040902091909155611450565b506000611450565b606061443d848460008585600080866001600160a01b0316858760405161473b9190614c95565b60006040518083038185875af1925050503d8060008114614778576040519150601f19603f3d011682016040523d82523d6000602084013e61477d565b606091505b509150915061478e87838387614799565b979650505050505050565b606083156148055782516147fe576001600160a01b0385163b6147fe5760405162461bcd60e51b815260206004820152601d60248201527f416464726573733a2063616c6c20746f206e6f6e2d636f6e74726163740000006044820152606401610ba0565b508161443d565b61443d838381511561481a5781518083602001fd5b8060405162461bcd60e51b8152600401610ba09190614d3a565b82805461484090614f1d565b90600052602060002090601f01602090048101928261486257600085556148a8565b82601f1061487b57805160ff19168380011785556148a8565b828001600101855582156148a8579182015b828111156148a857825182559160200191906001019061488d565b506148b49291506148b8565b5090565b5b808211156148b457600081556001016148b9565b6000602082840312156148de578081fd5b813561153781614f9f565b6000602082840312156148fa578081fd5b815161153781614f9f565b60008060408385031215614917578081fd5b823561492281614f9f565b9150602083013561493281614f9f565b809150509250929050565b60008060008060008060c08789031215614955578182fd5b863561496081614f9f565b9550602087013561497081614f9f565b9450604087013561498081614f9f565b9350606087013561499081614f9f565b9598949750929560808101359460a0909101359350915050565b600080604083850312156149bc578182fd5b82356149c781614f9f565b9150602083013561493281614fb4565b600080604083850312156149e9578182fd5b82356149f481614f9f565b946020939093013593505050565b600080600060608486031215614a16578283fd5b8335614a2181614f9f565b92506020848101359250604085013567ffffffffffffffff80821115614a45578384fd5b818701915087601f830112614a58578384fd5b813581811115614a6a57614a6a614f89565b614a7c601f8201601f19168501614e52565b91508082528884828501011115614a91578485fd5b808484018584013784848284010152508093505050509250925092565b600060208284031215614abf578081fd5b815161153781614fb4565b60008060408385031215614adc578182fd5b82359150602083013561493281614f9f565b600060a08284031215614aff578081fd5b614b0960a0614e52565b8251614b1481614f9f565b81526020830151614b2481614f9f565b806020830152506040830151604082015260608301516060820152608083015160808201528091505092915050565b600060208284031215614b64578081fd5b5035919050565b600060208284031215614b7c578081fd5b5051919050565b600080600060608486031215614b97578081fd5b833592506020840135614ba981614f9f565b929592945050506040919091013590565b60008060408385031215614bcc578182fd5b50508035926020909101359150565b60008060408385031215614bed578182fd5b505080516020909101519092909150565b600080600060608486031215614c12578081fd5b505081359360208301359350604090920135919050565b60008060008060808587031215614c3e578182fd5b8435935060208501359250604085013591506060850135614c5e81614f9f565b939692955090935050565b60008151808452614c81816020860160208601614ef1565b601f01601f19169290920160200192915050565b60008251614ca7818460208701614ef1565b9190910192915050565b6001600160a01b039384168152919092166020820152604081019190915260600190565b6001600160a01b039390931683526020830191909152604082015260600190565b6020808252825182820181905260009190848201906040850190845b81811015614d2e57835183529284019291840191600101614d12565b50909695505050505050565b6000602082526115376020830184614c69565b600060408252614d606040830185614c69565b90508260208301529392505050565b600060c08252614d8260c0830189614c69565b602083019790975250604081019490945260608401929092526001600160a01b03166080830152151560a090910152919050565b6020808252601690820152753737ba103632b732103b34b9ba37b91030b63637bb9760511b604082015260600190565b60208082526024908201527f546865206d6178696d756d20726174696f20686173206265656e2065786365656040820152633232b21760e11b606082015260800190565b6020808252600e908201526d6e6f7420676f7665726e616e636560901b604082015260600190565b604051601f8201601f1916810167ffffffffffffffff81118282101715614e7b57614e7b614f89565b604052919050565b60008219821115614e9657614e96614f73565b500190565b600082614eb657634e487b7160e01b81526012600452602481fd5b500490565b6000816000190483118215151615614ed557614ed5614f73565b500290565b600082821015614eec57614eec614f73565b500390565b60005b83811015614f0c578181015183820152602001614ef4565b838111156140325750506000910152565b600281046001821680614f3157607f821691505b60208210811415614f5257634e487b7160e01b600052602260045260246000fd5b50919050565b6000600019821415614f6c57614f6c614f73565b5060010190565b634e487b7160e01b600052601160045260246000fd5b634e487b7160e01b600052604160045260246000fd5b6001600160a01b0381168114611c1557600080fd5b8015158114611c1557600080fdfe65d7a28e3265b37a6474929f336521b332c1681b933f6cb9f3376673440d862aa26469706673582212205381debc9f2bf76c297f1f55676a137f6a3d82c6a8aea12abd71a41b1dd0eaa764736f6c63430008020033",
  "linkReferences": {},
  "deployedLinkReferences": {}
}