{
  "_format": "hh-sol-artifact-1",
  "contractName": "QuadraticBorrowCompound",
  "sourceName": "contracts/lendborrow/QuadraticBorrowCompound.sol",
  "abi": [
    {
      "anonymous": false,
      "inputs": [
        {
          "indexed": true,
          "internalType": "uint256",
          "name": "position",
          "type": "uint256"
        },
        {
          "indexed": false,
          "internalType": "address",
          "name": "sender",
          "type": "address"
        },
        {
          "indexed": false,
          "internalType": "address",
          "name": "token0",
          "type": "address"
        },
        {
          "indexed": false,
          "internalType": "address",
          "name": "token1",
          "type": "address"
        }
      ],
      "name": "AddNftV3WhiteListEvent",
      "type": "event"
    },
    {
      "anonymous": false,
      "inputs": [
        {
          "indexed": true,
          "internalType": "address",
          "name": "sender",
          "type": "address"
        },
        {
          "indexed": false,
          "internalType": "address",
          "name": "apply721Address",
          "type": "address"
        },
        {
          "indexed": false,
          "internalType": "uint256",
          "name": "specialMaxRate",
          "type": "uint256"
        },
        {
          "indexed": false,
          "internalType": "uint256",
          "name": "tokenId",
          "type": "uint256"
        }
      ],
      "name": "ApplyRateEvent",
      "type": "event"
    },
    {
      "anonymous": false,
      "inputs": [
        {
          "indexed": true,
          "internalType": "address",
          "name": "sender",
          "type": "address"
        },
        {
          "indexed": false,
          "internalType": "address",
          "name": "beforeVal",
          "type": "address"
        },
        {
          "indexed": false,
          "internalType": "address",
          "name": "afterVal",
          "type": "address"
        }
      ],
      "name": "ChangeUniswapV3OracleEvent",
      "type": "event"
    },
    {
      "anonymous": false,
      "inputs": [
        {
          "indexed": true,
          "internalType": "address",
          "name": "sender",
          "type": "address"
        },
        {
          "indexed": false,
          "internalType": "uint256",
          "name": "pid",
          "type": "uint256"
        },
        {
          "indexed": false,
          "internalType": "uint256",
          "name": "amount",
          "type": "uint256"
        }
      ],
      "name": "FunderClaimEvent",
      "type": "event"
    },
    {
      "anonymous": false,
      "inputs": [
        {
          "indexed": false,
          "internalType": "uint8",
          "name": "version",
          "type": "uint8"
        }
      ],
      "name": "Initialized",
      "type": "event"
    },
    {
      "anonymous": false,
      "inputs": [
        {
          "indexed": true,
          "internalType": "address",
          "name": "sender",
          "type": "address"
        },
        {
          "indexed": false,
          "internalType": "uint256",
          "name": "pid",
          "type": "uint256"
        },
        {
          "indexed": false,
          "internalType": "uint256",
          "name": "beforeVal",
          "type": "uint256"
        },
        {
          "indexed": false,
          "internalType": "uint256",
          "name": "afterVal",
          "type": "uint256"
        }
      ],
      "name": "MinSettingCollateralEvent",
      "type": "event"
    },
    {
      "anonymous": false,
      "inputs": [
        {
          "indexed": true,
          "internalType": "address",
          "name": "sender",
          "type": "address"
        },
        {
          "indexed": false,
          "internalType": "uint256",
          "name": "pid",
          "type": "uint256"
        },
        {
          "indexed": false,
          "internalType": "bool",
          "name": "flag",
          "type": "bool"
        }
      ],
      "name": "PausePoolEvent",
      "type": "event"
    },
    {
      "anonymous": false,
      "inputs": [
        {
          "indexed": true,
          "internalType": "uint256",
          "name": "pid",
          "type": "uint256"
        },
        {
          "indexed": false,
          "internalType": "address",
          "name": "sender",
          "type": "address"
        },
        {
          "indexed": false,
          "internalType": "uint256",
          "name": "beforeOverdueRate",
          "type": "uint256"
        },
        {
          "indexed": false,
          "internalType": "uint256",
          "name": "afterOverdueRate",
          "type": "uint256"
        }
      ],
      "name": "SetBorrowPoolOverdueRateEvent",
      "type": "event"
    },
    {
      "anonymous": false,
      "inputs": [
        {
          "indexed": true,
          "internalType": "address",
          "name": "sender",
          "type": "address"
        },
        {
          "indexed": false,
          "internalType": "address",
          "name": "beforeVal",
          "type": "address"
        },
        {
          "indexed": false,
          "internalType": "address",
          "name": "afterVal",
          "type": "address"
        }
      ],
      "name": "SetFunderEvent",
      "type": "event"
    },
    {
      "anonymous": false,
      "inputs": [
        {
          "indexed": true,
          "internalType": "address",
          "name": "sender",
          "type": "address"
        },
        {
          "indexed": false,
          "internalType": "uint256",
          "name": "beforeValue",
          "type": "uint256"
        },
        {
          "indexed": false,
          "internalType": "uint256",
          "name": "afterValue",
          "type": "uint256"
        }
      ],
      "name": "SetInterestPlatformRateEvent",
      "type": "event"
    },
    {
      "anonymous": false,
      "inputs": [
        {
          "indexed": true,
          "internalType": "uint256",
          "name": "position",
          "type": "uint256"
        },
        {
          "indexed": false,
          "internalType": "address",
          "name": "sender",
          "type": "address"
        },
        {
          "indexed": false,
          "internalType": "address",
          "name": "beforeToken0",
          "type": "address"
        },
        {
          "indexed": false,
          "internalType": "address",
          "name": "beforeToken1",
          "type": "address"
        },
        {
          "indexed": false,
          "internalType": "address",
          "name": "afterToken0",
          "type": "address"
        },
        {
          "indexed": false,
          "internalType": "address",
          "name": "afterToken1",
          "type": "address"
        }
      ],
      "name": "SetNftV3WhiteListEvent",
      "type": "event"
    },
    {
      "anonymous": false,
      "inputs": [
        {
          "indexed": true,
          "internalType": "address",
          "name": "special72",
          "type": "address"
        },
        {
          "indexed": false,
          "internalType": "address",
          "name": "sender",
          "type": "address"
        },
        {
          "indexed": false,
          "internalType": "uint256",
          "name": "beforeRate",
          "type": "uint256"
        },
        {
          "indexed": false,
          "internalType": "uint256",
          "name": "afterRate",
          "type": "uint256"
        }
      ],
      "name": "SetSpecial721BorrowRateEvent",
      "type": "event"
    },
    {
      "anonymous": false,
      "inputs": [
        {
          "indexed": true,
          "internalType": "uint256",
          "name": "bid",
          "type": "uint256"
        },
        {
          "indexed": false,
          "internalType": "uint256",
          "name": "pid",
          "type": "uint256"
        },
        {
          "indexed": false,
          "internalType": "uint256",
          "name": "amount",
          "type": "uint256"
        },
        {
          "indexed": false,
          "internalType": "uint256",
          "name": "interests",
          "type": "uint256"
        },
        {
          "indexed": false,
          "internalType": "uint256",
          "name": "platFormInterests",
          "type": "uint256"
        }
      ],
      "name": "SettlementBorrowEvent",
      "type": "event"
    },
    {
      "anonymous": false,
      "inputs": [
        {
          "indexed": true,
          "internalType": "address",
          "name": "sender",
          "type": "address"
        },
        {
          "indexed": false,
          "internalType": "uint256",
          "name": "pid",
          "type": "uint256"
        },
        {
          "indexed": false,
          "internalType": "address",
          "name": "toUser",
          "type": "address"
        },
        {
          "indexed": false,
          "internalType": "uint256",
          "name": "interests",
          "type": "uint256"
        }
      ],
      "name": "TransferInterestToLendEvent",
      "type": "event"
    },
    {
      "anonymous": false,
      "inputs": [
        {
          "indexed": true,
          "internalType": "uint256",
          "name": "bid",
          "type": "uint256"
        },
        {
          "indexed": true,
          "internalType": "uint256",
          "name": "tokenId",
          "type": "uint256"
        },
        {
          "indexed": false,
          "internalType": "uint256",
          "name": "pid",
          "type": "uint256"
        }
      ],
      "name": "TransferToAuction",
      "type": "event"
    },
    {
      "anonymous": false,
      "inputs": [
        {
          "indexed": true,
          "internalType": "address",
          "name": "user",
          "type": "address"
        },
        {
          "indexed": true,
          "internalType": "uint256",
          "name": "tokenId",
          "type": "uint256"
        },
        {
          "indexed": true,
          "internalType": "uint256",
          "name": "pid",
          "type": "uint256"
        },
        {
          "indexed": false,
          "internalType": "uint256",
          "name": "bid",
          "type": "uint256"
        },
        {
          "indexed": false,
          "internalType": "uint256",
          "name": "value",
          "type": "uint256"
        },
        {
          "indexed": false,
          "internalType": "uint256",
          "name": "amount",
          "type": "uint256"
        },
        {
          "indexed": false,
          "internalType": "uint256",
          "name": "borrowRate",
          "type": "uint256"
        },
        {
          "indexed": false,
          "internalType": "address",
          "name": "apply721Address",
          "type": "address"
        },
        {
          "indexed": false,
          "internalType": "uint256",
          "name": "startBlock",
          "type": "uint256"
        }
      ],
      "name": "UserBorrow",
      "type": "event"
    },
    {
      "anonymous": false,
      "inputs": [
        {
          "indexed": true,
          "internalType": "address",
          "name": "user",
          "type": "address"
        },
        {
          "indexed": true,
          "internalType": "uint256",
          "name": "bid",
          "type": "uint256"
        },
        {
          "indexed": false,
          "internalType": "uint256",
          "name": "pid",
          "type": "uint256"
        },
        {
          "indexed": false,
          "internalType": "uint256",
          "name": "amount",
          "type": "uint256"
        },
        {
          "indexed": false,
          "internalType": "uint256",
          "name": "interests",
          "type": "uint256"
        },
        {
          "indexed": false,
          "internalType": "uint256",
          "name": "platFormInterests",
          "type": "uint256"
        }
      ],
      "name": "UserReturn",
      "type": "event"
    },
    {
      "anonymous": false,
      "inputs": [
        {
          "indexed": true,
          "internalType": "address",
          "name": "sender",
          "type": "address"
        },
        {
          "indexed": false,
          "internalType": "address",
          "name": "user",
          "type": "address"
        },
        {
          "indexed": false,
          "internalType": "bool",
          "name": "flag",
          "type": "bool"
        }
      ],
      "name": "setSettlementBorrowAuthEvent",
      "type": "event"
    },
    {
      "inputs": [
        {
          "internalType": "address",
          "name": "borrowToken",
          "type": "address"
        },
        {
          "internalType": "address",
          "name": "lendCToken",
          "type": "address"
        }
      ],
      "name": "addBorrowPool",
      "outputs": [],
      "stateMutability": "nonpayable",
      "type": "function"
    },
    {
      "inputs": [
        {
          "internalType": "address",
          "name": "special721",
          "type": "address"
        },
        {
          "internalType": "uint256",
          "name": "tokenId",
          "type": "uint256"
        }
      ],
      "name": "applyRate",
      "outputs": [],
      "stateMutability": "nonpayable",
      "type": "function"
    },
    {
      "inputs": [
        {
          "internalType": "uint256",
          "name": "",
          "type": "uint256"
        }
      ],
      "name": "badDebtInterest",
      "outputs": [
        {
          "internalType": "uint256",
          "name": "",
          "type": "uint256"
        }
      ],
      "stateMutability": "view",
      "type": "function"
    },
    {
      "inputs": [
        {
          "internalType": "uint256",
          "name": "",
          "type": "uint256"
        }
      ],
      "name": "badDebtPrincipal",
      "outputs": [
        {
          "internalType": "uint256",
          "name": "",
          "type": "uint256"
        }
      ],
      "stateMutability": "view",
      "type": "function"
    },
    {
      "inputs": [],
      "name": "blockPerDay",
      "outputs": [
        {
          "internalType": "uint256",
          "name": "",
          "type": "uint256"
        }
      ],
      "stateMutability": "view",
      "type": "function"
    },
    {
      "inputs": [
        {
          "internalType": "uint256",
          "name": "",
          "type": "uint256"
        }
      ],
      "name": "borrowInfo",
      "outputs": [
        {
          "internalType": "address",
          "name": "user",
          "type": "address"
        },
        {
          "internalType": "uint256",
          "name": "pid",
          "type": "uint256"
        },
        {
          "internalType": "uint256",
          "name": "tokenId",
          "type": "uint256"
        },
        {
          "internalType": "uint256",
          "name": "borrowValue",
          "type": "uint256"
        },
        {
          "internalType": "uint256",
          "name": "amount",
          "type": "uint256"
        },
        {
          "internalType": "uint256",
          "name": "repaidAmount",
          "type": "uint256"
        },
        {
          "internalType": "uint256",
          "name": "startBowShare",
          "type": "uint256"
        },
        {
          "internalType": "uint256",
          "name": "startBlock",
          "type": "uint256"
        },
        {
          "internalType": "uint256",
          "name": "returnBlock",
          "type": "uint256"
        },
        {
          "internalType": "uint256",
          "name": "interests",
          "type": "uint256"
        },
        {
          "internalType": "uint256",
          "name": "state",
          "type": "uint256"
        }
      ],
      "stateMutability": "view",
      "type": "function"
    },
    {
      "inputs": [
        {
          "internalType": "uint256",
          "name": "",
          "type": "uint256"
        }
      ],
      "name": "borrowPoolInfo",
      "outputs": [
        {
          "internalType": "address",
          "name": "token",
          "type": "address"
        },
        {
          "internalType": "address",
          "name": "ctoken",
          "type": "address"
        },
        {
          "internalType": "uint256",
          "name": "curBorrow",
          "type": "uint256"
        },
        {
          "internalType": "uint256",
          "name": "curBowRate",
          "type": "uint256"
        },
        {
          "internalType": "uint256",
          "name": "lastShareBlock",
          "type": "uint256"
        },
        {
          "internalType": "uint256",
          "name": "globalBowShare",
          "type": "uint256"
        },
        {
          "internalType": "uint256",
          "name": "globalLendInterestShare",
          "type": "uint256"
        },
        {
          "internalType": "uint256",
          "name": "totalMineInterests",
          "type": "uint256"
        },
        {
          "internalType": "uint256",
          "name": "overdueRate",
          "type": "uint256"
        }
      ],
      "stateMutability": "view",
      "type": "function"
    },
    {
      "inputs": [
        {
          "internalType": "address",
          "name": "",
          "type": "address"
        },
        {
          "internalType": "uint256",
          "name": "",
          "type": "uint256"
        }
      ],
      "name": "borrowUserInfos",
      "outputs": [
        {
          "internalType": "uint256",
          "name": "currTotalBorrow",
          "type": "uint256"
        }
      ],
      "stateMutability": "view",
      "type": "function"
    },
    {
      "inputs": [
        {
          "internalType": "address",
          "name": "_uniswapV3Oracle",
          "type": "address"
        }
      ],
      "name": "changeUniswapV3Oracle",
      "outputs": [],
      "stateMutability": "nonpayable",
      "type": "function"
    },
    {
      "inputs": [
        {
          "internalType": "address",
          "name": "_uniswapV3",
          "type": "address"
        },
        {
          "internalType": "address",
          "name": "_uniswapV3Oracle",
          "type": "address"
        },
        {
          "internalType": "contract IQuadraticLendCompound",
          "name": "_iQuadraticLendCompound",
          "type": "address"
        },
        {
          "internalType": "address",
          "name": "_quadraticAuction",
          "type": "address"
        },
        {
          "internalType": "uint256",
          "name": "_globalDefault",
          "type": "uint256"
        },
        {
          "internalType": "uint256",
          "name": "_interestPlatformRate",
          "type": "uint256"
        }
      ],
      "name": "doInitialize",
      "outputs": [],
      "stateMutability": "nonpayable",
      "type": "function"
    },
    {
      "inputs": [],
      "name": "funder",
      "outputs": [
        {
          "internalType": "address",
          "name": "",
          "type": "address"
        }
      ],
      "stateMutability": "view",
      "type": "function"
    },
    {
      "inputs": [
        {
          "internalType": "uint256",
          "name": "_pid",
          "type": "uint256"
        },
        {
          "internalType": "uint256",
          "name": "_amount",
          "type": "uint256"
        }
      ],
      "name": "funderClaim",
      "outputs": [],
      "stateMutability": "nonpayable",
      "type": "function"
    },
    {
      "inputs": [
        {
          "internalType": "uint256",
          "name": "",
          "type": "uint256"
        }
      ],
      "name": "funderPoolInterest",
      "outputs": [
        {
          "internalType": "uint256",
          "name": "",
          "type": "uint256"
        }
      ],
      "stateMutability": "view",
      "type": "function"
    },
    {
      "inputs": [
        {
          "internalType": "address",
          "name": "owner",
          "type": "address"
        },
        {
          "internalType": "uint256",
          "name": "pid",
          "type": "uint256"
        }
      ],
      "name": "getBorrowIdsOfOwnerAndPoolId",
      "outputs": [
        {
          "internalType": "uint256[]",
          "name": "",
          "type": "uint256[]"
        }
      ],
      "stateMutability": "view",
      "type": "function"
    },
    {
      "inputs": [
        {
          "internalType": "address",
          "name": "owner",
          "type": "address"
        }
      ],
      "name": "getBorrowPoolIdsOfOwner",
      "outputs": [
        {
          "internalType": "uint256[]",
          "name": "",
          "type": "uint256[]"
        }
      ],
      "stateMutability": "view",
      "type": "function"
    },
    {
      "inputs": [
        {
          "internalType": "uint256",
          "name": "pid",
          "type": "uint256"
        }
      ],
      "name": "getBorrowingRate",
      "outputs": [
        {
          "internalType": "uint256",
          "name": "",
          "type": "uint256"
        }
      ],
      "stateMutability": "view",
      "type": "function"
    },
    {
      "inputs": [
        {
          "internalType": "uint256",
          "name": "pid",
          "type": "uint256"
        }
      ],
      "name": "getFundUtilization",
      "outputs": [
        {
          "internalType": "uint256",
          "name": "",
          "type": "uint256"
        }
      ],
      "stateMutability": "view",
      "type": "function"
    },
    {
      "inputs": [
        {
          "internalType": "uint256",
          "name": "pid",
          "type": "uint256"
        }
      ],
      "name": "getGlobalLendInterestShare",
      "outputs": [
        {
          "internalType": "uint256",
          "name": "globalLendInterestShare",
          "type": "uint256"
        }
      ],
      "stateMutability": "view",
      "type": "function"
    },
    {
      "inputs": [
        {
          "internalType": "uint256",
          "name": "pid",
          "type": "uint256"
        }
      ],
      "name": "getLendingRate",
      "outputs": [
        {
          "internalType": "uint256",
          "name": "",
          "type": "uint256"
        }
      ],
      "stateMutability": "view",
      "type": "function"
    },
    {
      "inputs": [],
      "name": "getSpecial721Length",
      "outputs": [
        {
          "internalType": "uint256",
          "name": "",
          "type": "uint256"
        }
      ],
      "stateMutability": "view",
      "type": "function"
    },
    {
      "inputs": [
        {
          "internalType": "address",
          "name": "user",
          "type": "address"
        }
      ],
      "name": "getUserApplyRate",
      "outputs": [
        {
          "internalType": "string",
          "name": "name",
          "type": "string"
        },
        {
          "internalType": "uint256",
          "name": "userMaxRate",
          "type": "uint256"
        },
        {
          "internalType": "uint256",
          "name": "defaultRate",
          "type": "uint256"
        },
        {
          "internalType": "uint256",
          "name": "tokenId",
          "type": "uint256"
        },
        {
          "internalType": "address",
          "name": "apply721Address",
          "type": "address"
        },
        {
          "internalType": "bool",
          "name": "signed",
          "type": "bool"
        }
      ],
      "stateMutability": "view",
      "type": "function"
    },
    {
      "inputs": [
        {
          "internalType": "uint256",
          "name": "pid",
          "type": "uint256"
        },
        {
          "internalType": "uint256",
          "name": "tokenId",
          "type": "uint256"
        },
        {
          "internalType": "uint256",
          "name": "borrowAmount",
          "type": "uint256"
        },
        {
          "internalType": "address",
          "name": "_user",
          "type": "address"
        }
      ],
      "name": "getUserMaxBorrowAmount",
      "outputs": [
        {
          "internalType": "uint256",
          "name": "_maxBorrowAmount",
          "type": "uint256"
        },
        {
          "internalType": "bool",
          "name": "_flag",
          "type": "bool"
        }
      ],
      "stateMutability": "view",
      "type": "function"
    },
    {
      "inputs": [],
      "name": "globalDefault",
      "outputs": [
        {
          "internalType": "uint256",
          "name": "",
          "type": "uint256"
        }
      ],
      "stateMutability": "view",
      "type": "function"
    },
    {
      "inputs": [],
      "name": "interestPlatformRate",
      "outputs": [
        {
          "internalType": "uint256",
          "name": "",
          "type": "uint256"
        }
      ],
      "stateMutability": "view",
      "type": "function"
    },
    {
      "inputs": [
        {
          "internalType": "uint256",
          "name": "bid",
          "type": "uint256"
        }
      ],
      "name": "isBorrowOverdue",
      "outputs": [
        {
          "internalType": "bool",
          "name": "",
          "type": "bool"
        }
      ],
      "stateMutability": "view",
      "type": "function"
    },
    {
      "inputs": [],
      "name": "lendCompound",
      "outputs": [
        {
          "internalType": "contract IQuadraticLendCompound",
          "name": "",
          "type": "address"
        }
      ],
      "stateMutability": "view",
      "type": "function"
    },
    {
      "inputs": [
        {
          "internalType": "uint256",
          "name": "",
          "type": "uint256"
        }
      ],
      "name": "minSettingCollateral",
      "outputs": [
        {
          "internalType": "uint256",
          "name": "",
          "type": "uint256"
        }
      ],
      "stateMutability": "view",
      "type": "function"
    },
    {
      "inputs": [
        {
          "internalType": "uint256",
          "name": "_pid",
          "type": "uint256"
        }
      ],
      "name": "pausePool",
      "outputs": [],
      "stateMutability": "nonpayable",
      "type": "function"
    },
    {
      "inputs": [
        {
          "internalType": "uint256",
          "name": "bid",
          "type": "uint256"
        }
      ],
      "name": "pendingReturnInterests",
      "outputs": [
        {
          "internalType": "uint256",
          "name": "",
          "type": "uint256"
        }
      ],
      "stateMutability": "view",
      "type": "function"
    },
    {
      "inputs": [],
      "name": "quadraticAuction",
      "outputs": [
        {
          "internalType": "address",
          "name": "",
          "type": "address"
        }
      ],
      "stateMutability": "view",
      "type": "function"
    },
    {
      "inputs": [
        {
          "internalType": "uint256",
          "name": "pid",
          "type": "uint256"
        },
        {
          "internalType": "uint256",
          "name": "overdueRate",
          "type": "uint256"
        }
      ],
      "name": "setBorrowPoolOverdueRate",
      "outputs": [],
      "stateMutability": "nonpayable",
      "type": "function"
    },
    {
      "inputs": [
        {
          "internalType": "address",
          "name": "_funder",
          "type": "address"
        }
      ],
      "name": "setFunder",
      "outputs": [],
      "stateMutability": "nonpayable",
      "type": "function"
    },
    {
      "inputs": [
        {
          "internalType": "uint256",
          "name": "_interestPlatformRate",
          "type": "uint256"
        }
      ],
      "name": "setInterestPlatformRate",
      "outputs": [],
      "stateMutability": "nonpayable",
      "type": "function"
    },
    {
      "inputs": [
        {
          "internalType": "uint256",
          "name": "_pid",
          "type": "uint256"
        },
        {
          "internalType": "uint256",
          "name": "_minAmount",
          "type": "uint256"
        }
      ],
      "name": "setMinSettingCollateral",
      "outputs": [],
      "stateMutability": "nonpayable",
      "type": "function"
    },
    {
      "inputs": [
        {
          "internalType": "address",
          "name": "_user",
          "type": "address"
        },
        {
          "internalType": "bool",
          "name": "_flag",
          "type": "bool"
        }
      ],
      "name": "setSettlementBorrowAuth",
      "outputs": [],
      "stateMutability": "nonpayable",
      "type": "function"
    },
    {
      "inputs": [
        {
          "internalType": "address",
          "name": "special721",
          "type": "address"
        },
        {
          "internalType": "uint256",
          "name": "rate",
          "type": "uint256"
        },
        {
          "internalType": "string",
          "name": "name",
          "type": "string"
        }
      ],
      "name": "setSpecial721BorrowRate",
      "outputs": [],
      "stateMutability": "nonpayable",
      "type": "function"
    },
    {
      "inputs": [
        {
          "internalType": "uint256",
          "name": "bid",
          "type": "uint256"
        }
      ],
      "name": "settlementBorrow",
      "outputs": [],
      "stateMutability": "nonpayable",
      "type": "function"
    },
    {
      "inputs": [
        {
          "internalType": "address",
          "name": "",
          "type": "address"
        }
      ],
      "name": "settlementBorrowAuth",
      "outputs": [
        {
          "internalType": "bool",
          "name": "",
          "type": "bool"
        }
      ],
      "stateMutability": "view",
      "type": "function"
    },
    {
      "inputs": [
        {
          "internalType": "address",
          "name": "tokenA",
          "type": "address"
        },
        {
          "internalType": "address",
          "name": "tokenB",
          "type": "address"
        }
      ],
      "name": "sortTokens",
      "outputs": [
        {
          "internalType": "address",
          "name": "token0",
          "type": "address"
        },
        {
          "internalType": "address",
          "name": "token1",
          "type": "address"
        }
      ],
      "stateMutability": "pure",
      "type": "function"
    },
    {
      "inputs": [
        {
          "internalType": "uint256",
          "name": "",
          "type": "uint256"
        }
      ],
      "name": "special721Arr",
      "outputs": [
        {
          "internalType": "address",
          "name": "",
          "type": "address"
        }
      ],
      "stateMutability": "view",
      "type": "function"
    },
    {
      "inputs": [
        {
          "internalType": "address",
          "name": "",
          "type": "address"
        }
      ],
      "name": "special721Info",
      "outputs": [
        {
          "internalType": "string",
          "name": "name",
          "type": "string"
        },
        {
          "internalType": "uint256",
          "name": "rate",
          "type": "uint256"
        }
      ],
      "stateMutability": "view",
      "type": "function"
    },
    {
      "inputs": [
        {
          "internalType": "uint256",
          "name": "pid",
          "type": "uint256"
        },
        {
          "internalType": "address",
          "name": "toUser",
          "type": "address"
        },
        {
          "internalType": "uint256",
          "name": "interests",
          "type": "uint256"
        }
      ],
      "name": "transferInterestToLend",
      "outputs": [],
      "stateMutability": "nonpayable",
      "type": "function"
    },
    {
      "inputs": [
        {
          "internalType": "uint256",
          "name": "bid",
          "type": "uint256"
        }
      ],
      "name": "transferToAuction",
      "outputs": [],
      "stateMutability": "nonpayable",
      "type": "function"
    },
    {
      "inputs": [],
      "name": "uniswapV3",
      "outputs": [
        {
          "internalType": "contract IERC721",
          "name": "",
          "type": "address"
        }
      ],
      "stateMutability": "view",
      "type": "function"
    },
    {
      "inputs": [],
      "name": "uniswapV3Oracle",
      "outputs": [
        {
          "internalType": "contract IUniswapV3Oracle",
          "name": "",
          "type": "address"
        }
      ],
      "stateMutability": "view",
      "type": "function"
    },
    {
      "inputs": [
        {
          "internalType": "uint256",
          "name": "_pid",
          "type": "uint256"
        }
      ],
      "name": "unpausePool",
      "outputs": [],
      "stateMutability": "nonpayable",
      "type": "function"
    },
    {
      "inputs": [
        {
          "internalType": "uint256",
          "name": "pid",
          "type": "uint256"
        }
      ],
      "name": "updateBorrowPool",
      "outputs": [],
      "stateMutability": "nonpayable",
      "type": "function"
    },
    {
      "inputs": [
        {
          "internalType": "address",
          "name": "",
          "type": "address"
        }
      ],
      "name": "userApplyRate",
      "outputs": [
        {
          "internalType": "address",
          "name": "apply721Address",
          "type": "address"
        },
        {
          "internalType": "uint256",
          "name": "specialMaxRate",
          "type": "uint256"
        },
        {
          "internalType": "uint256",
          "name": "tokenId",
          "type": "uint256"
        }
      ],
      "stateMutability": "view",
      "type": "function"
    },
    {
      "inputs": [
        {
          "internalType": "uint256",
          "name": "bid",
          "type": "uint256"
        },
        {
          "internalType": "uint256",
          "name": "repayAmount",
          "type": "uint256"
        }
      ],
      "name": "userReturn",
      "outputs": [],
      "stateMutability": "nonpayable",
      "type": "function"
    },
    {
      "inputs": [
        {
          "internalType": "uint256",
          "name": "pid",
          "type": "uint256"
        },
        {
          "internalType": "uint256",
          "name": "tokenId",
          "type": "uint256"
        },
        {
          "internalType": "uint256",
          "name": "borrowAmount",
          "type": "uint256"
        }
      ],
      "name": "v3NFTBorrow",
      "outputs": [],
      "stateMutability": "nonpayable",
      "type": "function"
    }
  ],
  "bytecode": "0x608060405261028a600d5534801561001657600080fd5b5061453d806100266000396000f3fe608060405234801561001057600080fd5b50600436106102d65760003560e01c806369e9d4c111610182578063ac40ae02116100e9578063de587a27116100a2578063e49352fe1161007c578063e49352fe146107e4578063ee77d32f146107ed578063ee80ac6f14610800578063f807eb1214610820576102d6565b8063de587a271461079d578063e0ced952146107b0578063e3759d15146107c3576102d6565b8063ac40ae021461071d578063b13ae80414610726578063b36cd07f14610739578063c6ce58051461074c578063cf9f79c81461075f578063d9f899f214610772576102d6565b806393e5b1881161013b57806393e5b1881461065c5780639a01a4f71461066f5780639aea17b4146106825780639cf0b430146106a25780639f0950f9146106c2578063a38acccb1461070a576102d6565b806369e9d4c11461053157806372543925146105515780637d3e2a5a146105645780638c742130146105d45780638e7d12bd146105e757806391300db7146105fa576102d6565b806321a043af116102415780633ddb9943116101fa578063544caa56116101d4578063544caa56146104c55780635712cfc6146104f85780635e8ead771461050b578063642738601461051e576102d6565b80633ddb99431461048a5780634ddf73321461049257806351f1a51f146104b2576102d6565b806321a043af1461040857806322be6b1f1461041b57806325c601941461042e5780632e5871ec1461044157806335e41bd51461045457806336311d2814610477576102d6565b80631917abb2116102935780631917abb21461038257806319e4d512146103a55780631e0b8043146103b85780631e8438c4146103cb5780631fe7cacf146103de57806320a1e88a146103f1576102d6565b8063012a472c146102db5780630411f4b714610309578063041ae8801461033457806306f21ab3146103475780630acc8cd11461035c5780631575df931461036f575b600080fd5b6102ee6102e9366004613e64565b610848565b6040516103009695949392919061430c565b60405180910390f35b60055461031c906001600160a01b031681565b6040516001600160a01b039091168152602001610300565b60115461031c906001600160a01b031681565b61035a610355366004613e9c565b6109f8565b005b61035a61036a366004613e64565b610c8c565b61031c61037d3660046140c6565b610cf0565b6103956103903660046140c6565b610d1a565b6040519015158152602001610300565b61035a6103b3366004613f99565b610f78565b61035a6103c6366004613f6e565b6110d2565b61035a6103d9366004613f41565b6111b1565b61035a6103ec3660046140c6565b61120f565b6103fa60125481565b604051908152602001610300565b6103fa6104163660046140c6565b611270565b6103fa6104293660046140c6565b611297565b61035a61043c3660046140f6565b61137f565b61035a61044f36600461412d565b61140e565b610395610462366004613e64565b600e6020526000908152604090205460ff1681565b61035a6104853660046140c6565b611495565b6009546103fa565b6103fa6104a03660046140c6565b600f6020526000908152604090205481565b61035a6104c036600461412d565b61182b565b6104d86104d3366004613e9c565b611995565b604080516001600160a01b03938416815292909116602083015201610300565b6103fa6105063660046140c6565b611a76565b61035a6105193660046140c6565b611a9c565b600c5461031c906001600160a01b031681565b6103fa61053f3660046140c6565b60106020526000908152604090205481565b61035a61055f3660046140c6565b611b77565b6105776105723660046140c6565b611ebe565b604080516001600160a01b03909c168c5260208c019a909a52988a01979097526060890195909552608088019390935260a087019190915260c086015260e085015261010084015261012083015261014082015261016001610300565b6103fa6105e23660046140c6565b611f33565b60065461031c906001600160a01b031681565b61060d6106083660046140c6565b611f6f565b604080516001600160a01b039a8b1681529990981660208a0152968801959095526060870193909352608086019190915260a085015260c084015260e083015261010082015261012001610300565b61035a61066a366004613e64565b611fd7565b60075461031c906001600160a01b031681565b610695610690366004613f6e565b612033565b6040516103009190614269565b6103fa6106b03660046140c6565b60136020526000908152604090205481565b6106fb6106d0366004613e64565b600b602052600090815260409020805460018201546002909201546001600160a01b03909116919083565b60405161030093929190614248565b61035a610718366004614171565b61215d565b6103fa600d5481565b61035a6107343660046140c6565b6127a0565b6103fa6107473660046140c6565b612878565b61035a61075a3660046140c6565b6128a4565b61069561076d366004613e64565b612903565b6103fa610780366004613f6e565b600160209081526000928352604080842090915290825290205481565b61035a6107ab366004613ed4565b612a0b565b61035a6107be36600461412d565b612bc9565b6107d66107d1366004613e64565b61313f565b6040516103009291906142ea565b6103fa61168081565b61035a6107fb36600461412d565b6131e3565b6103fa61080e3660046140c6565b60146020526000908152604090205481565b61083361082e36600461419c565b613238565b60408051928352901515602083015201610300565b600d546001600160a01b038083166000908152600b602052604081205460609391928391168181156109e6576001600160a01b038781166000908152600b60205260408082206002015490516331a9108f60e11b8152600481018290529095509091841690636352211e9060240160206040518083038186803b1580156108ce57600080fd5b505afa1580156108e2573d6000803e3d6000fd5b505050506040513d601f19601f820116820180604052508101906109069190613e80565b9050806001600160a01b0316886001600160a01b031614156109e4576001600160a01b038089166000908152600b602090815260408083206001908101549488168452600a90925290912080549298509093509061096390614462565b80601f016020809104026020016040519081016040528092919081815260200182805461098f90614462565b80156109dc5780601f106109b1576101008083540402835291602001916109dc565b820191906000526020600020905b8154815290600101906020018083116109bf57829003601f168201915b505050505096505b505b846109ef578394505b91939550919395565b610a376040518060400160405280601981526020017f616464426f72726f77506f6f6c20626f72726f77546f6b656e000000000000008152508361339c565b610a766040518060400160405280601881526020017f616464426f72726f77506f6f6c206c656e6443546f6b656e00000000000000008152508261339c565b60408051610120810182526001600160a01b0380851682528381166020808401918252600084860181815260608601828152436080880190815260a0880184815260c0890185815260e08a018681526103206101008c019081526008805460018101825598529a5160099097027ff3f7a9fe364faab93b216da50a3214154f22a0a2b415b23a84c8169e8b636ee381018054988c166001600160a01b0319998a1617905598517ff3f7a9fe364faab93b216da50a3214154f22a0a2b415b23a84c8169e8b636ee48a01805491909b1697169690961790985592517ff3f7a9fe364faab93b216da50a3214154f22a0a2b415b23a84c8169e8b636ee587015590517ff3f7a9fe364faab93b216da50a3214154f22a0a2b415b23a84c8169e8b636ee6860155517ff3f7a9fe364faab93b216da50a3214154f22a0a2b415b23a84c8169e8b636ee7850155517ff3f7a9fe364faab93b216da50a3214154f22a0a2b415b23a84c8169e8b636ee884015592517ff3f7a9fe364faab93b216da50a3214154f22a0a2b415b23a84c8169e8b636ee983015591517ff3f7a9fe364faab93b216da50a3214154f22a0a2b415b23a84c8169e8b636eea82015591517ff3f7a9fe364faab93b216da50a3214154f22a0a2b415b23a84c8169e8b636eeb9092019190915581518083019092526011825270185919109bdc9c9bddd41bdbdb08195b99607a1b90820152610c88906133e1565b5050565b601180546001600160a01b038381166001600160a01b0319831681179093556040805191909216808252602082019390935233917f7bdd8beff7d8411e2b81e553a7f28dd1d15b287f3a02a33f26ac4e4d7a5f866091015b60405180910390a25050565b60098181548110610d0057600080fd5b6000918252602090912001546001600160a01b0316905081565b60008060048381548110610d3e57634e487b7160e01b600052603260045260246000fd5b600091825260208083206040805161016081018252600b90940290910180546001600160a01b0316845260018101549284018390526002810154918401919091526003810154606084015260048101546080840152600581015460a0840152600681015460c0840152600781015460e08401526008808201546101008501526009820154610120850152600a909101546101408401528054929450918110610df657634e487b7160e01b600052603260045260246000fd5b600091825260208083206040805161012081018252600990940290910180546001600160a01b039081168086526001830154821694860194909452600282015485840152600382015460608601526004808301546080870152600583015460a0870152600683015460c0870152600783015460e0870152600890920154610100860152600c548884015193516304bd838960e41b81529597501693634bd8389093610eb693929091019182526001600160a01b0316602082015260400190565b604080518083038186803b158015610ecd57600080fd5b505afa158015610ee1573d6000803e3d6000fd5b505050506040513d601f19601f82011682018060405250810190610f05919061414e565b5090506000610f2e6103e8610f288561010001518561342490919063ffffffff16565b90613430565b90506000610f3b8761343c565b905081610f558660800151836135eb90919063ffffffff16565b1115610f6957600195505050505050610f73565b6000955050505050505b919050565b6103e88210610fa25760405162461bcd60e51b8152600401610f9990614353565b60405180910390fd5b6001600160a01b0383166000908152600a60209081526040909120600181015483519092610fd4929190850190613dcb565b506001600160a01b0384166000908152600a602052604081206001908101859055905b60095481101561106257856001600160a01b03166009828154811061102c57634e487b7160e01b600052603260045260246000fd5b6000918252602090912001546001600160a01b031614156110505760009150611062565b8061105a8161449d565b915050610ff7565b5080156110865760098054869190634e487b7160e01b600052603260045260246000fd5b846001600160a01b03167f012b78c5d21ba97b720997b598236d1931fd00cf38a65f88b51ca53092f6baf53384876040516110c393929190614248565b60405180910390a25050505050565b6001600160a01b0382166000908152600a60205260409020600101548061113b5760405162461bcd60e51b815260206004820152601e60248201527f546869732037323120436f6e7472616374206e6f742073657474696e672e00006044820152606401610f99565b336000818152600b60205260409081902080546001600160a01b0319166001600160a01b03871617815560018101849055600201849055517f1e539acd4750e5a45f933dcf79543f31ff71228f09cdb2073a13800d3fd4d44e906111a490869085908790614248565b60405180910390a2505050565b6001600160a01b0382166000818152600e6020908152604091829020805460ff191685151590811790915582519384529083015233917f3e8a5da8cabc1b490a219f97b787a956fa8fe76312bfe464ecbe6764a27302329101610ce4565b61271081106112305760405162461bcd60e51b8152600401610f9990614353565b6012805490829055604080518281526020810184905233917f948e8b1938d4e599e9ca63988998041e722ffd1f32cca33174001002d80a51c49101610ce4565b600061127b82610d1a565b1561128857506000610f73565b6112918261343c565b92915050565b6007546040516303afb43360e11b81526004810183905260009182916001600160a01b039091169063075f68669060240160a06040518083038186803b1580156112e057600080fd5b505afa1580156112f4573d6000803e3d6000fd5b505050506040513d601f19601f820116820180604052508101906113189190614061565b90506000611337826060015183604001516135eb90919063ffffffff16565b11611346576000915050610f73565b611378611364826060015183604001516135eb90919063ffffffff16565b6060830151610f289064e8d4a51000613424565b9392505050565b6113c68282600886815481106113a557634e487b7160e01b600052603260045260246000fd5b60009182526020909120600990910201546001600160a01b031691906135f7565b604080518481526001600160a01b038416602082015290810182905233907fce170d5650bdcc51636034b3f5b91db7f7ff62151f63e68616f5c4c930521aca906060016111a4565b60006008838154811061143157634e487b7160e01b600052603260045260246000fd5b90600052602060002090600902019050600081600801549050828260080181905550837fb898b12c44cb1aea78e35bcabb7eeeb5d86ef4848d91556dcc1f368af3ba62e633838660405161148793929190614248565b60405180910390a250505050565b61149e81610d1a565b6114e05760405162461bcd60e51b815260206004820152601360248201527263616e206e6f742061756374696f6e206e6f7760681b6044820152606401610f99565b60006004828154811061150357634e487b7160e01b600052603260045260246000fd5b90600052602060002090600b0201905080600a015460011461155d5760405162461bcd60e51b81526020600482015260136024820152723137b93937bb9039ba30ba329032b93937b91760691b6044820152606401610f99565b80546001820154600880546001600160a01b039093169260009290811061159457634e487b7160e01b600052603260045260246000fd5b600091825260208083206001600160a01b038616845260018083526040808620918901548652925292206009600a870181905590910290910191506115d88561343c565b6009850155600484015481546115ed9161365f565b81556001600160a01b0383166000908152600260209081526040808320600188015484529091529020611620908661366b565b506001600160a01b038316600090815260026020908152604080832060018801548452909152902061165190613677565b61167d5760018401546001600160a01b038416600090815260036020526040902061167b9161366b565b505b600484015460018501546000908152600f602052604090205461169f916135eb565b6001850180546000908152600f60209081526040808320949094556009880154925482526010905291909120546116d5916135eb565b6001850180546000908152601060205260409020919091555460048501546116ff91906002613681565b6007546001850154600480870154604051632f50ba4360e11b81526001600160a01b0390941693635ea17486936117429390929101918252602082015260400190565b600060405180830381600087803b15801561175c57600080fd5b505af1158015611770573d6000803e3d6000fd5b505060055460065460028801546040516323b872dd60e01b81526001600160a01b0393841695506323b872dd94506117af933093169190600401614224565b600060405180830381600087803b1580156117c957600080fd5b505af11580156117dd573d6000803e3d6000fd5b505050508360020154857fb23eb9c94498577267929ee3a0dfb5264937ecd77eabac78da59dac1efee11af866001015460405161181c91815260200190565b60405180910390a35050505050565b6000828152601360205260409020548181101561187a5760405162461bcd60e51b815260206004820152600d60248201526c2bb937b7339030b6b7bab73a1760991b6044820152606401610f99565b600083815260136020526040902054611893908361365f565b60008481526013602052604081209190915560088054859081106118c757634e487b7160e01b600052603260045260246000fd5b60009182526020918290206040805161012081018252600990930290910180546001600160a01b0390811680855260018301548216958501959095526002820154928401929092526003810154606084015260048101546080840152600581015460a0840152600681015460c0840152600781015460e08401526008015461010083015260115491935061195d929116856135f7565b604080518581526020810185905233917feb52865751bf5832b7c0bc5d822e259533c31650eff77ad238b0f5152f77fd2c9101611487565b600080826001600160a01b0316846001600160a01b031614156119fa5760405162461bcd60e51b815260206004820152601b60248201527f5633204e46543a204944454e544943414c5f41444452455353455300000000006044820152606401610f99565b826001600160a01b0316846001600160a01b031610611a1a578284611a1d565b83835b90925090506001600160a01b038216611a6f5760405162461bcd60e51b81526020600482015260146024820152735633204e46543a205a45524f5f4144445245535360601b6044820152606401610f99565b9250929050565b600061129164e8d4a51000610f28611a8d85612878565b611a9686611297565b90613424565b600060088281548110611abf57634e487b7160e01b600052603260045260246000fd5b6000918252602091829020604080516101208101825260099390930290910180546001600160a01b039081168452600180830154909116848601526002820154848401526003820154606085015260048201546080850152600582015460a0850152600682015460c0850152600782015460e085015260089091015461010084015281518681529384015290925033917f8825f3b37c71ed68326b85768a26f08960100ff9ce5a70fea0d194f4d3be9d429101610ce4565b336000908152600e602052604090205460ff16611be25760405162461bcd60e51b815260206004820152602360248201527f6e6f7420736574746c656d656e7420626f72726f7720766973746f7220616c6c60448201526237bb9760e91b6064820152608401610f99565b600060048281548110611c0557634e487b7160e01b600052603260045260246000fd5b90600052602060002090600b0201905080600a0154600914611c585760405162461bcd60e51b815260206004820152600c60248201526b6572726f722073746174757360a01b6044820152606401610f99565b60006008826001015481548110611c7f57634e487b7160e01b600052603260045260246000fd5b6000918252602082206008600a860181905543908601556009858101546004870154919093029091019350611cb3916135eb565b600484015460018501546000908152600f6020526040902054919250611cd9919061365f565b6001840180546000908152600f6020908152604080832094909455600987015492548252601090529190912054611d0f9161365f565b60018401546000908152601060205260408120919091556012546009850154611d3f9161271091610f2891613424565b9050611d658460010154611d6083876009015461365f90919063ffffffff16565b6136fa565b8254611d7c906001600160a01b03163330856137f1565b8015611db5576001840154600090815260136020526040902054611da090826135eb565b60018501546000908152601360205260409020555b6007548354611dd2916001600160a01b0391821691166000613812565b60075460048501548454611df4926001600160a01b0391821692911690613812565b600754600185015460048087015460405163cd1fa12f60e01b81526001600160a01b039094169363cd1fa12f93611e379390929101918252602082015260400190565b600060405180830381600087803b158015611e5157600080fd5b505af1158015611e65573d6000803e3d6000fd5b50505060018501546004860154600987015460408051938452602084019290925290820152606081018390528691507fd6279cb4c900712994fa56f896b7c2fc1226a85706c06dd7678198df07419ff0906080016110c3565b60048181548110611ece57600080fd5b60009182526020909120600b9091020180546001820154600283015460038401546004850154600586015460068701546007880154600889015460098a0154600a909a01546001600160a01b039099169a50969895979496939592949193909290918b565b600060088281548110611f5657634e487b7160e01b600052603260045260246000fd5b9060005260206000209060090201600601549050919050565b60088181548110611f7f57600080fd5b60009182526020909120600990910201805460018201546002830154600384015460048501546005860154600687015460078801546008909801546001600160a01b0397881699509690951696939592949193909289565b600c80546001600160a01b038381166001600160a01b0319831681179093556040805191909216808252602082019390935233917f55f88e1a470467a8151fa2efb5c4a38d5ead3df1c5a84112b8d2b428ac28e7529101610ce4565b6001600160a01b038216600090815260026020908152604080832084845290915281206060919061206390613677565b67ffffffffffffffff81111561208957634e487b7160e01b600052604160045260246000fd5b6040519080825280602002602001820160405280156120b2578160200160208202803683370190505b50905060005b6001600160a01b038516600090815260026020908152604080832087845290915290206120e490613677565b811015612155576001600160a01b038516600090815260026020908152604080832087845290915290206121189082613936565b82828151811061213857634e487b7160e01b600052603260045260246000fd5b60209081029190910101528061214d8161449d565b9150506120b8565b509392505050565b3360009081526001602090815260408083208684529091528120600880549192918690811061219c57634e487b7160e01b600052603260045260246000fd5b60009182526020808320604080516101208101825260099490940290910180546001600160a01b039081168086526001830154821694860194909452600282015485840152600382015460608601526004808301546080870152600583015460a0870152600683015460c0870152600783015460e0870152600890920154610100860152600c5492516304bd838960e41b81529182018a905260248201939093529294501690634bd8389090604401604080518083038186803b15801561226257600080fd5b505afa158015612276573d6000803e3d6000fd5b505050506040513d601f19601f8201168201806040525081019061229a919061414e565b5060008781526014602052604090205490915081116123075760405162461bcd60e51b815260206004820152602360248201527f5468652076616c7565206f6620636f6c6c61746572616c20697320746f6f206c60448201526237bb9760e91b6064820152608401610f99565b600061231233610848565b5050505091505060006123346103e8610f28848661342490919063ffffffff16565b9050858110156123925760405162461bcd60e51b815260206004820152602360248201527f4578636565647320746865206d6178696d756d206c6f616e61626c6520616d6f6044820152621d5b9d60ea1b6064820152608401610f99565b61239e88876001613681565b6040805161016081018252338152602081018a815291810189815260608201868152608083018a8152600060a0808601828152908b015160c087019081524360e088019081526101008801848152610120890185815260016101408b01818152600480548084018255818a529c517f8a35acfbc15ff81a39ae7d344fd709f28e8600b4aa8c65c6b64bfe7fe36bd19b600b909e029d8e0180546001600160a01b0319166001600160a01b039092169190911790559c517f8a35acfbc15ff81a39ae7d344fd709f28e8600b4aa8c65c6b64bfe7fe36bd19c8d015599517f8a35acfbc15ff81a39ae7d344fd709f28e8600b4aa8c65c6b64bfe7fe36bd19d8c015597517f8a35acfbc15ff81a39ae7d344fd709f28e8600b4aa8c65c6b64bfe7fe36bd19e8b015595517f8a35acfbc15ff81a39ae7d344fd709f28e8600b4aa8c65c6b64bfe7fe36bd19f8a015592517f8a35acfbc15ff81a39ae7d344fd709f28e8600b4aa8c65c6b64bfe7fe36bd1a089015590517f8a35acfbc15ff81a39ae7d344fd709f28e8600b4aa8c65c6b64bfe7fe36bd1a1880155517f8a35acfbc15ff81a39ae7d344fd709f28e8600b4aa8c65c6b64bfe7fe36bd1a2870155517f8a35acfbc15ff81a39ae7d344fd709f28e8600b4aa8c65c6b64bfe7fe36bd1a386015590517f8a35acfbc15ff81a39ae7d344fd709f28e8600b4aa8c65c6b64bfe7fe36bd1a485015591517f8a35acfbc15ff81a39ae7d344fd709f28e8600b4aa8c65c6b64bfe7fe36bd1a59093019290925591546125dc919061441f565b86549091506125eb90886135eb565b86553360009081526002602090815260408083208c8452909152902061261090613677565b61262f5733600090815260036020526040902061262d908a613942565b505b3360009081526002602090815260408083208c845290915290206126539082613942565b506005546040516323b872dd60e01b81526001600160a01b03909116906323b872dd9061268890339030908d90600401614224565b600060405180830381600087803b1580156126a257600080fd5b505af11580156126b6573d6000803e3d6000fd5b505060075460405163545fb83160e11b8152600481018d9052336024820152604481018b90526001600160a01b03909116925063a8bf70629150606401600060405180830381600087803b15801561270d57600080fd5b505af1158015612721573d6000803e3d6000fd5b5050336000818152600b60209081526040918290205482518781529182018a90528183018d9052606082018990526001600160a01b031660808201524360a082015290518d94508c93507f0a00f00280e32be58f7700959160aa318c58c4d12ad6d6d83cdf7520d8c107809181900360c00190a4505050505050505050565b6000600882815481106127c357634e487b7160e01b600052603260045260246000fd5b60009182526020808320604080516101208101825260099490940290910180546001600160a01b039081168552600182015416848401526002810154848301526003810154606085015260048101546080850152600581015460a0850152600681015460c0850152600781015460e08501526008015461010084015280518681529182019390935290925033917f8825f3b37c71ed68326b85768a26f08960100ff9ce5a70fea0d194f4d3be9d429101610ce4565b60006112916405d21dba0061289e64e8d4a51000610f28642e90edd000611a9688611297565b906135eb565b6007546001600160a01b031633146128f75760405162461bcd60e51b81526020600482015260166024820152753737ba103632b732103b34b9ba37b91030b63637bb9760511b6044820152606401610f99565b6129008161394e565b50565b6001600160a01b03811660009081526003602052604081206060919061292890613677565b67ffffffffffffffff81111561294e57634e487b7160e01b600052604160045260246000fd5b604051908082528060200260200182016040528015612977578160200160208202803683370190505b50905060005b6001600160a01b038416600090815260036020526040902061299e90613677565b811015612a04576001600160a01b03841660009081526003602052604090206129c79082613936565b8282815181106129e757634e487b7160e01b600052603260045260246000fd5b6020908102919091010152806129fc8161449d565b91505061297d565b5092915050565b600054610100900460ff1615808015612a2b5750600054600160ff909116105b80612a455750303b158015612a45575060005460ff166001145b612aa85760405162461bcd60e51b815260206004820152602e60248201527f496e697469616c697a61626c653a20636f6e747261637420697320616c72656160448201526d191e481a5b9a5d1a585b1a5e995960921b6064820152608401610f99565b6000805460ff191660011790558015612acb576000805461ff0019166101001790555b6103e88310612aec5760405162461bcd60e51b8152600401610f9990614353565b6127108210612b0d5760405162461bcd60e51b8152600401610f9990614353565b600580546001600160a01b03199081166001600160a01b038a811691909117909255600c80548216898416179055600780548216888416179055600680549091168683161790819055600d859055166000908152600e60205260409020805460ff1916600117905560128290558015612bc0576000805461ff0019169055604051600181527f7f26b83ff96e1f2b6a682f133852f6798a09c465da95921460cefb38474024989060200160405180910390a15b50505050505050565b600060048381548110612bec57634e487b7160e01b600052603260045260246000fd5b60009182526020909120600b9091020180549091506001600160a01b03163314612c445760405162461bcd60e51b81526020600482015260096024820152683737ba1037bbb732b960b91b6044820152606401610f99565b60006008826001015481548110612c6b57634e487b7160e01b600052603260045260246000fd5b600091825260208083206040805161012081018252600990940290910180546001600160a01b039081168552600180830154909116858501526002820154858401526003820154606086015260048201546080860152600582015460a0860152600682015460c0860152600782015460e0860152600890910154610100850152338552808352818520908701548552909152822090925090612d0c8661343c565b905080851015612d5e5760405162461bcd60e51b815260206004820152601d60248201527f4e6f7420656e6f75676820746f20726570617920696e7465726573742e0000006044820152606401610f99565b6004840154600090612d7090836135eb565b905080861115612d7e578095505b6000612d8a878461365f565b85516040516370a0823160e01b81523360048201529192506000916001600160a01b03909116906370a082319060240160206040518083038186803b158015612dd257600080fd5b505afa158015612de6573d6000803e3d6000fd5b505050506040513d601f19601f82011682018060405250810190612e0a91906140de565b905087811015612e515760405162461bcd60e51b81526020600482015260126024820152713737ba1032b737bab3b41030b6b7bab73a1760711b6044820152606401610f99565b612e618760010154836002613681565b6000612e7e612710610f286012548861342490919063ffffffff16565b6001890154909150612e9490611d60878461365f565b8554612ea0908461365f565b86556004880154831415612fa35733600090815260026020908152604080832060018c015484529091529020612ed6908b61366b565b508554612f275733600090815260026020908152604080832060018c015484529091529020612f0490613677565b612f27576001880154336000908152600360205260409020612f259161366b565b505b4360088901556002600a8901819055600554908901546040516323b872dd60e01b81526001600160a01b03909216916323b872dd91612f6c9130913391600401614224565b600060405180830381600087803b158015612f8657600080fd5b505af1158015612f9a573d6000803e3d6000fd5b50505050612fc2565b6004880154612fb2908461365f565b600489015560a087015160068901555b6005880154612fd190846135eb565b60058901556009880154612fe590866135eb565b60098901558651613001906001600160a01b031633308c6137f1565b801561303a57600188015460009081526013602052604090205461302590826135eb565b60018901546000908152601360205260409020555b6007548751613057916001600160a01b0391821691166000613812565b6007548751613073916001600160a01b03918216911685613812565b600754600189015460405163ec510b3b60e01b81526001600160a01b039092169163ec510b3b916130b1918790600401918252602082015260400190565b600060405180830381600087803b1580156130cb57600080fd5b505af11580156130df573d6000803e3d6000fd5b505050600189015460408051918252602082018690528101879052606081018390528b915033907f793324a68db7201628508c33a28fc8107763fee328f5f54783918c1f2844443f9060800160405180910390a350505050505050505050565b600a6020526000908152604090208054819061315a90614462565b80601f016020809104026020016040519081016040528092919081815260200182805461318690614462565b80156131d35780601f106131a8576101008083540402835291602001916131d3565b820191906000526020600020905b8154815290600101906020018083116131b657829003601f168201915b5050505050908060010154905082565b600082815260146020908152604091829020805490849055825185815291820181905291810183905233907f79cf9f96b45472cf1222a9e1ad96a4c1cc372d190c97eb95ce5aa1a72e2d488a906060016111a4565b60008060006008878154811061325e57634e487b7160e01b600052603260045260246000fd5b60009182526020808320604080516101208101825260099490940290910180546001600160a01b039081168086526001830154821694860194909452600282015485840152600382015460608601526004808301546080870152600583015460a0870152600683015460c0870152600783015460e0870152600890920154610100860152600c5492516304bd838960e41b81529182018c905260248201939093529294501690634bd8389090604401604080518083038186803b15801561332457600080fd5b505afa158015613338573d6000803e3d6000fd5b505050506040513d601f19601f8201168201806040525081019061335c919061414e565b509050600061336a86610848565b5050505091505061338a6103e8610f28838561342490919063ffffffff16565b99968a10159850959650505050505050565b610c8882826040516024016133b29291906142c0565b60408051601f198184030181529190526020810180516001600160e01b031663319af33360e01b1790526139d9565b612900816040516024016133f591906142ad565b60408051601f198184030181529190526020810180516001600160e01b031663104c13eb60e21b1790526139d9565b60006113788284614400565b600061137882846143e0565b6000806004838154811061346057634e487b7160e01b600052603260045260246000fd5b600091825260208083206040805161016081018252600b90940290910180546001600160a01b0316845260018101549284018390526002810154918401919091526003810154606084015260048101546080840152600581015460a0840152600681015460c0840152600781015460e08401526008808201546101008501526009820154610120850152600a90910154610140840152805492945091811061351857634e487b7160e01b600052603260045260246000fd5b600091825260208083206040805161012081018252600990940290910180546001600160a01b03908116855260018201541692840192909252600282015490830152600381015460608301819052600482015460808401819052600583015460a0850152600683015460c0850152600783015460e08501526008909201546101008401529193506135aa9190436139e2565b90506135e264e8d4a51000610f288560800151611a968760c001516135dc878960a001516135eb90919063ffffffff16565b9061365f565b95945050505050565b600061137882846143c8565b6040516001600160a01b03831660248201526044810182905261365a90849063a9059cbb60e01b906064015b60408051601f198184030181529190526020810180516001600160e01b03166001600160e01b031990931692909217909152613a11565b505050565b6000611378828461441f565b60006113788383613ae6565b6000611291825490565b6000600884815481106136a457634e487b7160e01b600052603260045260246000fd5b9060005260206000209060090201905081600114156136d65760028101546136cc90846135eb565b60028201556136eb565b60028101546136e5908461365f565b60028201555b6136f48461394e565b50505050565b8015610c885760006008838154811061372357634e487b7160e01b600052603260045260246000fd5b9060005260206000209060090201905060008160010160009054906101000a90046001600160a01b03166001600160a01b03166318160ddd6040518163ffffffff1660e01b815260040160206040518083038186803b15801561378557600080fd5b505afa158015613799573d6000803e3d6000fd5b505050506040513d601f19601f820116820180604052508101906137bd91906140de565b905080156136f4576137e66137db82610f288664e8d4a51000613424565b6006840154906135eb565b600683015550505050565b6136f4846323b872dd60e01b85858560405160240161362393929190614224565b80158061389b5750604051636eb1769f60e11b81523060048201526001600160a01b03838116602483015284169063dd62ed3e9060440160206040518083038186803b15801561386157600080fd5b505afa158015613875573d6000803e3d6000fd5b505050506040513d601f19601f8201168201806040525081019061389991906140de565b155b6139065760405162461bcd60e51b815260206004820152603660248201527f5361666545524332303a20617070726f76652066726f6d206e6f6e2d7a65726f60448201527520746f206e6f6e2d7a65726f20616c6c6f77616e636560501b6064820152608401610f99565b6040516001600160a01b03831660248201526044810182905261365a90849063095ea7b360e01b90606401613623565b60006113788383613c03565b60006113788383613c3b565b60006008828154811061397157634e487b7160e01b600052603260045260246000fd5b90600052602060002090600902019050438160040154106139925750612900565b60006139a782600301548360040154436139e2565b43600484015590506139b883612878565b600383015560058201546139cc90826135eb565b8260050181905550505050565b61290081613c8a565b6000613a096139f561168061016d614400565b610f28613a02858761365f565b8790613424565b949350505050565b6000613a66826040518060400160405280602081526020017f5361666545524332303a206c6f772d6c6576656c2063616c6c206661696c6564815250856001600160a01b0316613cab9092919063ffffffff16565b9050805160001480613a87575080806020019051810190613a879190614045565b61365a5760405162461bcd60e51b815260206004820152602a60248201527f5361666545524332303a204552433230206f7065726174696f6e20646964206e6044820152691bdd081cdd58d8d9595960b21b6064820152608401610f99565b60008181526001830160205260408120548015613bf9576000613b0a60018361441f565b8554909150600090613b1e9060019061441f565b9050818114613b9f576000866000018281548110613b4c57634e487b7160e01b600052603260045260246000fd5b9060005260206000200154905080876000018481548110613b7d57634e487b7160e01b600052603260045260246000fd5b6000918252602080832090910192909255918252600188019052604090208390555b8554869080613bbe57634e487b7160e01b600052603160045260246000fd5b600190038181906000526020600020016000905590558560010160008681526020019081526020016000206000905560019350505050611291565b6000915050611291565b6000826000018281548110613c2857634e487b7160e01b600052603260045260246000fd5b9060005260206000200154905092915050565b6000818152600183016020526040812054613c8257508154600181810184556000848152602080822090930184905584548482528286019093526040902091909155611291565b506000611291565b60006a636f6e736f6c652e6c6f679050600080835160208501845afa505050565b6060613a09848460008585600080866001600160a01b03168587604051613cd29190614208565b60006040518083038185875af1925050503d8060008114613d0f576040519150601f19603f3d011682016040523d82523d6000602084013e613d14565b606091505b5091509150613d2587838387613d30565b979650505050505050565b60608315613d9c578251613d95576001600160a01b0385163b613d955760405162461bcd60e51b815260206004820152601d60248201527f416464726573733a2063616c6c20746f206e6f6e2d636f6e74726163740000006044820152606401610f99565b5081613a09565b613a098383815115613db15781518083602001fd5b8060405162461bcd60e51b8152600401610f9991906142ad565b828054613dd790614462565b90600052602060002090601f016020900481019282613df95760008555613e3f565b82601f10613e1257805160ff1916838001178555613e3f565b82800160010185558215613e3f579182015b82811115613e3f578251825591602001919060010190613e24565b50613e4b929150613e4f565b5090565b5b80821115613e4b5760008155600101613e50565b600060208284031215613e75578081fd5b8135611378816144e4565b600060208284031215613e91578081fd5b8151611378816144e4565b60008060408385031215613eae578081fd5b8235613eb9816144e4565b91506020830135613ec9816144e4565b809150509250929050565b60008060008060008060c08789031215613eec578182fd5b8635613ef7816144e4565b95506020870135613f07816144e4565b94506040870135613f17816144e4565b93506060870135613f27816144e4565b9598949750929560808101359460a0909101359350915050565b60008060408385031215613f53578182fd5b8235613f5e816144e4565b91506020830135613ec9816144f9565b60008060408385031215613f80578182fd5b8235613f8b816144e4565b946020939093013593505050565b600080600060608486031215613fad578283fd5b8335613fb8816144e4565b92506020848101359250604085013567ffffffffffffffff80821115613fdc578384fd5b818701915087601f830112613fef578384fd5b813581811115614001576140016144ce565b614013601f8201601f19168501614397565b91508082528884828501011115614028578485fd5b808484018584013784848284010152508093505050509250925092565b600060208284031215614056578081fd5b8151611378816144f9565b600060a08284031215614072578081fd5b61407c60a0614397565b8251614087816144e4565b81526020830151614097816144e4565b806020830152506040830151604082015260608301516060820152608083015160808201528091505092915050565b6000602082840312156140d7578081fd5b5035919050565b6000602082840312156140ef578081fd5b5051919050565b60008060006060848603121561410a578283fd5b83359250602084013561411c816144e4565b929592945050506040919091013590565b6000806040838503121561413f578182fd5b50508035926020909101359150565b60008060408385031215614160578182fd5b505080516020909101519092909150565b600080600060608486031215614185578081fd5b505081359360208301359350604090920135919050565b600080600080608085870312156141b1578182fd5b84359350602085013592506040850135915060608501356141d1816144e4565b939692955090935050565b600081518084526141f4816020860160208601614436565b601f01601f19169290920160200192915050565b6000825161421a818460208701614436565b9190910192915050565b6001600160a01b039384168152919092166020820152604081019190915260600190565b6001600160a01b039390931683526020830191909152604082015260600190565b6020808252825182820181905260009190848201906040850190845b818110156142a157835183529284019291840191600101614285565b50909695505050505050565b60006020825261137860208301846141dc565b6000604082526142d360408301856141dc565b905060018060a01b03831660208301529392505050565b6000604082526142fd60408301856141dc565b90508260208301529392505050565b600060c0825261431f60c08301896141dc565b602083019790975250604081019490945260608401929092526001600160a01b03166080830152151560a090910152919050565b60208082526024908201527f546865206d6178696d756d20726174696f20686173206265656e2065786365656040820152633232b21760e11b606082015260800190565b604051601f8201601f1916810167ffffffffffffffff811182821017156143c0576143c06144ce565b604052919050565b600082198211156143db576143db6144b8565b500190565b6000826143fb57634e487b7160e01b81526012600452602481fd5b500490565b600081600019048311821515161561441a5761441a6144b8565b500290565b600082821015614431576144316144b8565b500390565b60005b83811015614451578181015183820152602001614439565b838111156136f45750506000910152565b60028104600182168061447657607f821691505b6020821081141561449757634e487b7160e01b600052602260045260246000fd5b50919050565b60006000198214156144b1576144b16144b8565b5060010190565b634e487b7160e01b600052601160045260246000fd5b634e487b7160e01b600052604160045260246000fd5b6001600160a01b038116811461290057600080fd5b801515811461290057600080fdfea26469706673582212206ac67d9b05738ac7a94472ea2355e741d4bbf8c4612fe2f575163913a70e7a7564736f6c63430008020033",
  "linkReferences": {},
  "deployedLinkReferences": {}
}