{
  "_format": "hh-sol-artifact-1",
  "contractName": "QuadraticBorrowCompound",
  "sourceName": "contracts/lendborrow/QuadraticBorrowCompound.sol",
  "abi": [
    {
      "anonymous": false,
      "inputs": [
        {
          "indexed": true,
          "internalType": "uint256",
          "name": "position",
          "type": "uint256"
        },
        {
          "indexed": false,
          "internalType": "address",
          "name": "sender",
          "type": "address"
        },
        {
          "indexed": false,
          "internalType": "address",
          "name": "token0",
          "type": "address"
        },
        {
          "indexed": false,
          "internalType": "address",
          "name": "token1",
          "type": "address"
        }
      ],
      "name": "AddNftV3WhiteListEvent",
      "type": "event"
    },
    {
      "anonymous": false,
      "inputs": [
        {
          "indexed": true,
          "internalType": "address",
          "name": "sender",
          "type": "address"
        },
        {
          "indexed": false,
          "internalType": "address",
          "name": "apply721Address",
          "type": "address"
        },
        {
          "indexed": false,
          "internalType": "uint256",
          "name": "specialMaxRate",
          "type": "uint256"
        },
        {
          "indexed": false,
          "internalType": "uint256",
          "name": "tokenId",
          "type": "uint256"
        }
      ],
      "name": "ApplyRateEvent",
      "type": "event"
    },
    {
      "anonymous": false,
      "inputs": [
        {
          "indexed": true,
          "internalType": "address",
          "name": "sender",
          "type": "address"
        },
        {
          "indexed": false,
          "internalType": "address",
          "name": "beforeVal",
          "type": "address"
        },
        {
          "indexed": false,
          "internalType": "address",
          "name": "afterVal",
          "type": "address"
        }
      ],
      "name": "ChangeUniswapV3OracleEvent",
      "type": "event"
    },
    {
      "anonymous": false,
      "inputs": [
        {
          "indexed": true,
          "internalType": "address",
          "name": "sender",
          "type": "address"
        },
        {
          "indexed": false,
          "internalType": "uint256",
          "name": "pid",
          "type": "uint256"
        },
        {
          "indexed": false,
          "internalType": "uint256",
          "name": "amount",
          "type": "uint256"
        }
      ],
      "name": "FunderClaimEvent",
      "type": "event"
    },
    {
      "anonymous": false,
      "inputs": [
        {
          "indexed": false,
          "internalType": "uint8",
          "name": "version",
          "type": "uint8"
        }
      ],
      "name": "Initialized",
      "type": "event"
    },
    {
      "anonymous": false,
      "inputs": [
        {
          "indexed": true,
          "internalType": "address",
          "name": "sender",
          "type": "address"
        },
        {
          "indexed": false,
          "internalType": "uint256",
          "name": "pid",
          "type": "uint256"
        },
        {
          "indexed": false,
          "internalType": "uint256",
          "name": "beforeVal",
          "type": "uint256"
        },
        {
          "indexed": false,
          "internalType": "uint256",
          "name": "afterVal",
          "type": "uint256"
        }
      ],
      "name": "MinSettingCollateralEvent",
      "type": "event"
    },
    {
      "anonymous": false,
      "inputs": [
        {
          "indexed": true,
          "internalType": "address",
          "name": "sender",
          "type": "address"
        },
        {
          "indexed": false,
          "internalType": "uint256",
          "name": "pid",
          "type": "uint256"
        },
        {
          "indexed": false,
          "internalType": "bool",
          "name": "flag",
          "type": "bool"
        }
      ],
      "name": "PausePoolEvent",
      "type": "event"
    },
    {
      "anonymous": false,
      "inputs": [
        {
          "indexed": true,
          "internalType": "uint256",
          "name": "pid",
          "type": "uint256"
        },
        {
          "indexed": false,
          "internalType": "address",
          "name": "sender",
          "type": "address"
        },
        {
          "indexed": false,
          "internalType": "uint256",
          "name": "beforeOverdueRate",
          "type": "uint256"
        },
        {
          "indexed": false,
          "internalType": "uint256",
          "name": "afterOverdueRate",
          "type": "uint256"
        }
      ],
      "name": "SetBorrowPoolOverdueRateEvent",
      "type": "event"
    },
    {
      "anonymous": false,
      "inputs": [
        {
          "indexed": true,
          "internalType": "address",
          "name": "sender",
          "type": "address"
        },
        {
          "indexed": false,
          "internalType": "address",
          "name": "beforeVal",
          "type": "address"
        },
        {
          "indexed": false,
          "internalType": "address",
          "name": "afterVal",
          "type": "address"
        }
      ],
      "name": "SetFunderEvent",
      "type": "event"
    },
    {
      "anonymous": false,
      "inputs": [
        {
          "indexed": true,
          "internalType": "address",
          "name": "sender",
          "type": "address"
        },
        {
          "indexed": false,
          "internalType": "uint256",
          "name": "beforeValue",
          "type": "uint256"
        },
        {
          "indexed": false,
          "internalType": "uint256",
          "name": "afterValue",
          "type": "uint256"
        }
      ],
      "name": "SetInterestPlatformRateEvent",
      "type": "event"
    },
    {
      "anonymous": false,
      "inputs": [
        {
          "indexed": true,
          "internalType": "uint256",
          "name": "position",
          "type": "uint256"
        },
        {
          "indexed": false,
          "internalType": "address",
          "name": "sender",
          "type": "address"
        },
        {
          "indexed": false,
          "internalType": "address",
          "name": "beforeToken0",
          "type": "address"
        },
        {
          "indexed": false,
          "internalType": "address",
          "name": "beforeToken1",
          "type": "address"
        },
        {
          "indexed": false,
          "internalType": "address",
          "name": "afterToken0",
          "type": "address"
        },
        {
          "indexed": false,
          "internalType": "address",
          "name": "afterToken1",
          "type": "address"
        }
      ],
      "name": "SetNftV3WhiteListEvent",
      "type": "event"
    },
    {
      "anonymous": false,
      "inputs": [
        {
          "indexed": true,
          "internalType": "address",
          "name": "special72",
          "type": "address"
        },
        {
          "indexed": false,
          "internalType": "address",
          "name": "sender",
          "type": "address"
        },
        {
          "indexed": false,
          "internalType": "uint256",
          "name": "beforeRate",
          "type": "uint256"
        },
        {
          "indexed": false,
          "internalType": "uint256",
          "name": "afterRate",
          "type": "uint256"
        }
      ],
      "name": "SetSpecial721BorrowRateEvent",
      "type": "event"
    },
    {
      "anonymous": false,
      "inputs": [
        {
          "indexed": true,
          "internalType": "uint256",
          "name": "bid",
          "type": "uint256"
        },
        {
          "indexed": false,
          "internalType": "uint256",
          "name": "pid",
          "type": "uint256"
        },
        {
          "indexed": false,
          "internalType": "uint256",
          "name": "amount",
          "type": "uint256"
        },
        {
          "indexed": false,
          "internalType": "uint256",
          "name": "interests",
          "type": "uint256"
        },
        {
          "indexed": false,
          "internalType": "uint256",
          "name": "platFormInterests",
          "type": "uint256"
        }
      ],
      "name": "SettlementBorrowEvent",
      "type": "event"
    },
    {
      "anonymous": false,
      "inputs": [
        {
          "indexed": true,
          "internalType": "address",
          "name": "sender",
          "type": "address"
        },
        {
          "indexed": false,
          "internalType": "uint256",
          "name": "pid",
          "type": "uint256"
        },
        {
          "indexed": false,
          "internalType": "address",
          "name": "toUser",
          "type": "address"
        },
        {
          "indexed": false,
          "internalType": "uint256",
          "name": "interests",
          "type": "uint256"
        }
      ],
      "name": "TransferInterestToLendEvent",
      "type": "event"
    },
    {
      "anonymous": false,
      "inputs": [
        {
          "indexed": true,
          "internalType": "uint256",
          "name": "bid",
          "type": "uint256"
        },
        {
          "indexed": true,
          "internalType": "uint256",
          "name": "tokenId",
          "type": "uint256"
        },
        {
          "indexed": false,
          "internalType": "uint256",
          "name": "pid",
          "type": "uint256"
        }
      ],
      "name": "TransferToAuction",
      "type": "event"
    },
    {
      "anonymous": false,
      "inputs": [
        {
          "indexed": true,
          "internalType": "address",
          "name": "user",
          "type": "address"
        },
        {
          "indexed": true,
          "internalType": "uint256",
          "name": "tokenId",
          "type": "uint256"
        },
        {
          "indexed": true,
          "internalType": "uint256",
          "name": "pid",
          "type": "uint256"
        },
        {
          "indexed": false,
          "internalType": "uint256",
          "name": "bid",
          "type": "uint256"
        },
        {
          "indexed": false,
          "internalType": "uint256",
          "name": "value",
          "type": "uint256"
        },
        {
          "indexed": false,
          "internalType": "uint256",
          "name": "amount",
          "type": "uint256"
        },
        {
          "indexed": false,
          "internalType": "uint256",
          "name": "borrowRate",
          "type": "uint256"
        },
        {
          "indexed": false,
          "internalType": "address",
          "name": "apply721Address",
          "type": "address"
        },
        {
          "indexed": false,
          "internalType": "uint256",
          "name": "startBlock",
          "type": "uint256"
        }
      ],
      "name": "UserBorrow",
      "type": "event"
    },
    {
      "anonymous": false,
      "inputs": [
        {
          "indexed": true,
          "internalType": "address",
          "name": "user",
          "type": "address"
        },
        {
          "indexed": true,
          "internalType": "uint256",
          "name": "bid",
          "type": "uint256"
        },
        {
          "indexed": false,
          "internalType": "uint256",
          "name": "pid",
          "type": "uint256"
        },
        {
          "indexed": false,
          "internalType": "uint256",
          "name": "amount",
          "type": "uint256"
        },
        {
          "indexed": false,
          "internalType": "uint256",
          "name": "interests",
          "type": "uint256"
        },
        {
          "indexed": false,
          "internalType": "uint256",
          "name": "platFormInterests",
          "type": "uint256"
        }
      ],
      "name": "UserReturn",
      "type": "event"
    },
    {
      "anonymous": false,
      "inputs": [
        {
          "indexed": true,
          "internalType": "address",
          "name": "sender",
          "type": "address"
        },
        {
          "indexed": false,
          "internalType": "address",
          "name": "user",
          "type": "address"
        },
        {
          "indexed": false,
          "internalType": "bool",
          "name": "flag",
          "type": "bool"
        }
      ],
      "name": "setSettlementBorrowAuthEvent",
      "type": "event"
    },
    {
      "inputs": [
        {
          "internalType": "address",
          "name": "borrowToken",
          "type": "address"
        },
        {
          "internalType": "address",
          "name": "lendCToken",
          "type": "address"
        }
      ],
      "name": "addBorrowPool",
      "outputs": [],
      "stateMutability": "nonpayable",
      "type": "function"
    },
    {
      "inputs": [
        {
          "internalType": "address",
          "name": "special721",
          "type": "address"
        },
        {
          "internalType": "uint256",
          "name": "tokenId",
          "type": "uint256"
        }
      ],
      "name": "applyRate",
      "outputs": [],
      "stateMutability": "nonpayable",
      "type": "function"
    },
    {
      "inputs": [
        {
          "internalType": "uint256",
          "name": "",
          "type": "uint256"
        }
      ],
      "name": "badDebtInterest",
      "outputs": [
        {
          "internalType": "uint256",
          "name": "",
          "type": "uint256"
        }
      ],
      "stateMutability": "view",
      "type": "function"
    },
    {
      "inputs": [
        {
          "internalType": "uint256",
          "name": "",
          "type": "uint256"
        }
      ],
      "name": "badDebtPrincipal",
      "outputs": [
        {
          "internalType": "uint256",
          "name": "",
          "type": "uint256"
        }
      ],
      "stateMutability": "view",
      "type": "function"
    },
    {
      "inputs": [],
      "name": "blockPerDay",
      "outputs": [
        {
          "internalType": "uint256",
          "name": "",
          "type": "uint256"
        }
      ],
      "stateMutability": "view",
      "type": "function"
    },
    {
      "inputs": [
        {
          "internalType": "uint256",
          "name": "",
          "type": "uint256"
        }
      ],
      "name": "borrowInfo",
      "outputs": [
        {
          "internalType": "address",
          "name": "user",
          "type": "address"
        },
        {
          "internalType": "uint256",
          "name": "pid",
          "type": "uint256"
        },
        {
          "internalType": "uint256",
          "name": "tokenId",
          "type": "uint256"
        },
        {
          "internalType": "uint256",
          "name": "borrowValue",
          "type": "uint256"
        },
        {
          "internalType": "uint256",
          "name": "amount",
          "type": "uint256"
        },
        {
          "internalType": "uint256",
          "name": "repaidAmount",
          "type": "uint256"
        },
        {
          "internalType": "uint256",
          "name": "startBowShare",
          "type": "uint256"
        },
        {
          "internalType": "uint256",
          "name": "startBlock",
          "type": "uint256"
        },
        {
          "internalType": "uint256",
          "name": "returnBlock",
          "type": "uint256"
        },
        {
          "internalType": "uint256",
          "name": "interests",
          "type": "uint256"
        },
        {
          "internalType": "uint256",
          "name": "state",
          "type": "uint256"
        }
      ],
      "stateMutability": "view",
      "type": "function"
    },
    {
      "inputs": [
        {
          "internalType": "uint256",
          "name": "",
          "type": "uint256"
        }
      ],
      "name": "borrowPoolInfo",
      "outputs": [
        {
          "internalType": "address",
          "name": "token",
          "type": "address"
        },
        {
          "internalType": "address",
          "name": "ctoken",
          "type": "address"
        },
        {
          "internalType": "uint256",
          "name": "curBorrow",
          "type": "uint256"
        },
        {
          "internalType": "uint256",
          "name": "curBowRate",
          "type": "uint256"
        },
        {
          "internalType": "uint256",
          "name": "lastShareBlock",
          "type": "uint256"
        },
        {
          "internalType": "uint256",
          "name": "globalBowShare",
          "type": "uint256"
        },
        {
          "internalType": "uint256",
          "name": "globalLendInterestShare",
          "type": "uint256"
        },
        {
          "internalType": "uint256",
          "name": "totalMineInterests",
          "type": "uint256"
        },
        {
          "internalType": "uint256",
          "name": "overdueRate",
          "type": "uint256"
        }
      ],
      "stateMutability": "view",
      "type": "function"
    },
    {
      "inputs": [
        {
          "internalType": "address",
          "name": "",
          "type": "address"
        },
        {
          "internalType": "uint256",
          "name": "",
          "type": "uint256"
        }
      ],
      "name": "borrowUserInfos",
      "outputs": [
        {
          "internalType": "uint256",
          "name": "currTotalBorrow",
          "type": "uint256"
        }
      ],
      "stateMutability": "view",
      "type": "function"
    },
    {
      "inputs": [
        {
          "internalType": "address",
          "name": "_uniswapV3Oracle",
          "type": "address"
        }
      ],
      "name": "changeUniswapV3Oracle",
      "outputs": [],
      "stateMutability": "nonpayable",
      "type": "function"
    },
    {
      "inputs": [
        {
          "internalType": "address",
          "name": "_uniswapV3",
          "type": "address"
        },
        {
          "internalType": "address",
          "name": "_uniswapV3Oracle",
          "type": "address"
        },
        {
          "internalType": "contract IQuadraticLendCompound",
          "name": "_iQuadraticLendCompound",
          "type": "address"
        },
        {
          "internalType": "address",
          "name": "_quadraticAuction",
          "type": "address"
        },
        {
          "internalType": "uint256",
          "name": "_globalDefault",
          "type": "uint256"
        },
        {
          "internalType": "uint256",
          "name": "_interestPlatformRate",
          "type": "uint256"
        }
      ],
      "name": "doInitialize",
      "outputs": [],
      "stateMutability": "nonpayable",
      "type": "function"
    },
    {
      "inputs": [],
      "name": "funder",
      "outputs": [
        {
          "internalType": "address",
          "name": "",
          "type": "address"
        }
      ],
      "stateMutability": "view",
      "type": "function"
    },
    {
      "inputs": [
        {
          "internalType": "uint256",
          "name": "_pid",
          "type": "uint256"
        },
        {
          "internalType": "uint256",
          "name": "_amount",
          "type": "uint256"
        }
      ],
      "name": "funderClaim",
      "outputs": [],
      "stateMutability": "nonpayable",
      "type": "function"
    },
    {
      "inputs": [
        {
          "internalType": "uint256",
          "name": "",
          "type": "uint256"
        }
      ],
      "name": "funderPoolInterest",
      "outputs": [
        {
          "internalType": "uint256",
          "name": "",
          "type": "uint256"
        }
      ],
      "stateMutability": "view",
      "type": "function"
    },
    {
      "inputs": [
        {
          "internalType": "address",
          "name": "owner",
          "type": "address"
        },
        {
          "internalType": "uint256",
          "name": "pid",
          "type": "uint256"
        }
      ],
      "name": "getBorrowIdsOfOwnerAndPoolId",
      "outputs": [
        {
          "internalType": "uint256[]",
          "name": "",
          "type": "uint256[]"
        }
      ],
      "stateMutability": "view",
      "type": "function"
    },
    {
      "inputs": [
        {
          "internalType": "address",
          "name": "owner",
          "type": "address"
        }
      ],
      "name": "getBorrowPoolIdsOfOwner",
      "outputs": [
        {
          "internalType": "uint256[]",
          "name": "",
          "type": "uint256[]"
        }
      ],
      "stateMutability": "view",
      "type": "function"
    },
    {
      "inputs": [
        {
          "internalType": "uint256",
          "name": "pid",
          "type": "uint256"
        }
      ],
      "name": "getBorrowingRate",
      "outputs": [
        {
          "internalType": "uint256",
          "name": "",
          "type": "uint256"
        }
      ],
      "stateMutability": "view",
      "type": "function"
    },
    {
      "inputs": [
        {
          "internalType": "uint256",
          "name": "pid",
          "type": "uint256"
        }
      ],
      "name": "getFundUtilization",
      "outputs": [
        {
          "internalType": "uint256",
          "name": "",
          "type": "uint256"
        }
      ],
      "stateMutability": "view",
      "type": "function"
    },
    {
      "inputs": [
        {
          "internalType": "uint256",
          "name": "pid",
          "type": "uint256"
        }
      ],
      "name": "getGlobalLendInterestShare",
      "outputs": [
        {
          "internalType": "uint256",
          "name": "globalLendInterestShare",
          "type": "uint256"
        }
      ],
      "stateMutability": "view",
      "type": "function"
    },
    {
      "inputs": [
        {
          "internalType": "uint256",
          "name": "pid",
          "type": "uint256"
        }
      ],
      "name": "getLendingRate",
      "outputs": [
        {
          "internalType": "uint256",
          "name": "",
          "type": "uint256"
        }
      ],
      "stateMutability": "view",
      "type": "function"
    },
    {
      "inputs": [],
      "name": "getSpecial721Length",
      "outputs": [
        {
          "internalType": "uint256",
          "name": "",
          "type": "uint256"
        }
      ],
      "stateMutability": "view",
      "type": "function"
    },
    {
      "inputs": [
        {
          "internalType": "address",
          "name": "user",
          "type": "address"
        }
      ],
      "name": "getUserApplyRate",
      "outputs": [
        {
          "internalType": "string",
          "name": "name",
          "type": "string"
        },
        {
          "internalType": "uint256",
          "name": "userMaxRate",
          "type": "uint256"
        },
        {
          "internalType": "uint256",
          "name": "defaultRate",
          "type": "uint256"
        },
        {
          "internalType": "uint256",
          "name": "tokenId",
          "type": "uint256"
        },
        {
          "internalType": "address",
          "name": "apply721Address",
          "type": "address"
        },
        {
          "internalType": "bool",
          "name": "signed",
          "type": "bool"
        }
      ],
      "stateMutability": "view",
      "type": "function"
    },
    {
      "inputs": [
        {
          "internalType": "uint256",
          "name": "pid",
          "type": "uint256"
        },
        {
          "internalType": "uint256",
          "name": "tokenId",
          "type": "uint256"
        },
        {
          "internalType": "uint256",
          "name": "borrowAmount",
          "type": "uint256"
        },
        {
          "internalType": "address",
          "name": "_user",
          "type": "address"
        }
      ],
      "name": "getUserMaxBorrowAmount",
      "outputs": [
        {
          "internalType": "uint256",
          "name": "_maxBorrowAmount",
          "type": "uint256"
        },
        {
          "internalType": "bool",
          "name": "_flag",
          "type": "bool"
        }
      ],
      "stateMutability": "view",
      "type": "function"
    },
    {
      "inputs": [],
      "name": "globalDefault",
      "outputs": [
        {
          "internalType": "uint256",
          "name": "",
          "type": "uint256"
        }
      ],
      "stateMutability": "view",
      "type": "function"
    },
    {
      "inputs": [],
      "name": "interestPlatformRate",
      "outputs": [
        {
          "internalType": "uint256",
          "name": "",
          "type": "uint256"
        }
      ],
      "stateMutability": "view",
      "type": "function"
    },
    {
      "inputs": [
        {
          "internalType": "uint256",
          "name": "bid",
          "type": "uint256"
        }
      ],
      "name": "isBorrowOverdue",
      "outputs": [
        {
          "internalType": "bool",
          "name": "",
          "type": "bool"
        }
      ],
      "stateMutability": "view",
      "type": "function"
    },
    {
      "inputs": [],
      "name": "lendCompound",
      "outputs": [
        {
          "internalType": "contract IQuadraticLendCompound",
          "name": "",
          "type": "address"
        }
      ],
      "stateMutability": "view",
      "type": "function"
    },
    {
      "inputs": [
        {
          "internalType": "uint256",
          "name": "",
          "type": "uint256"
        }
      ],
      "name": "minSettingCollateral",
      "outputs": [
        {
          "internalType": "uint256",
          "name": "",
          "type": "uint256"
        }
      ],
      "stateMutability": "view",
      "type": "function"
    },
    {
      "inputs": [
        {
          "internalType": "uint256",
          "name": "_pid",
          "type": "uint256"
        }
      ],
      "name": "pausePool",
      "outputs": [],
      "stateMutability": "nonpayable",
      "type": "function"
    },
    {
      "inputs": [
        {
          "internalType": "uint256",
          "name": "bid",
          "type": "uint256"
        }
      ],
      "name": "pendingReturnInterests",
      "outputs": [
        {
          "internalType": "uint256",
          "name": "",
          "type": "uint256"
        }
      ],
      "stateMutability": "view",
      "type": "function"
    },
    {
      "inputs": [],
      "name": "quadraticAuction",
      "outputs": [
        {
          "internalType": "address",
          "name": "",
          "type": "address"
        }
      ],
      "stateMutability": "view",
      "type": "function"
    },
    {
      "inputs": [
        {
          "internalType": "uint256",
          "name": "pid",
          "type": "uint256"
        },
        {
          "internalType": "uint256",
          "name": "overdueRate",
          "type": "uint256"
        }
      ],
      "name": "setBorrowPoolOverdueRate",
      "outputs": [],
      "stateMutability": "nonpayable",
      "type": "function"
    },
    {
      "inputs": [
        {
          "internalType": "address",
          "name": "_funder",
          "type": "address"
        }
      ],
      "name": "setFunder",
      "outputs": [],
      "stateMutability": "nonpayable",
      "type": "function"
    },
    {
      "inputs": [
        {
          "internalType": "uint256",
          "name": "_interestPlatformRate",
          "type": "uint256"
        }
      ],
      "name": "setInterestPlatformRate",
      "outputs": [],
      "stateMutability": "nonpayable",
      "type": "function"
    },
    {
      "inputs": [
        {
          "internalType": "uint256",
          "name": "_pid",
          "type": "uint256"
        },
        {
          "internalType": "uint256",
          "name": "_minAmount",
          "type": "uint256"
        }
      ],
      "name": "setMinSettingCollateral",
      "outputs": [],
      "stateMutability": "nonpayable",
      "type": "function"
    },
    {
      "inputs": [
        {
          "internalType": "address",
          "name": "_user",
          "type": "address"
        },
        {
          "internalType": "bool",
          "name": "_flag",
          "type": "bool"
        }
      ],
      "name": "setSettlementBorrowAuth",
      "outputs": [],
      "stateMutability": "nonpayable",
      "type": "function"
    },
    {
      "inputs": [
        {
          "internalType": "address",
          "name": "special721",
          "type": "address"
        },
        {
          "internalType": "uint256",
          "name": "rate",
          "type": "uint256"
        },
        {
          "internalType": "string",
          "name": "name",
          "type": "string"
        }
      ],
      "name": "setSpecial721BorrowRate",
      "outputs": [],
      "stateMutability": "nonpayable",
      "type": "function"
    },
    {
      "inputs": [
        {
          "internalType": "uint256",
          "name": "bid",
          "type": "uint256"
        }
      ],
      "name": "settlementBorrow",
      "outputs": [],
      "stateMutability": "nonpayable",
      "type": "function"
    },
    {
      "inputs": [
        {
          "internalType": "address",
          "name": "",
          "type": "address"
        }
      ],
      "name": "settlementBorrowAuth",
      "outputs": [
        {
          "internalType": "bool",
          "name": "",
          "type": "bool"
        }
      ],
      "stateMutability": "view",
      "type": "function"
    },
    {
      "inputs": [
        {
          "internalType": "address",
          "name": "tokenA",
          "type": "address"
        },
        {
          "internalType": "address",
          "name": "tokenB",
          "type": "address"
        }
      ],
      "name": "sortTokens",
      "outputs": [
        {
          "internalType": "address",
          "name": "token0",
          "type": "address"
        },
        {
          "internalType": "address",
          "name": "token1",
          "type": "address"
        }
      ],
      "stateMutability": "pure",
      "type": "function"
    },
    {
      "inputs": [
        {
          "internalType": "uint256",
          "name": "",
          "type": "uint256"
        }
      ],
      "name": "special721Arr",
      "outputs": [
        {
          "internalType": "address",
          "name": "",
          "type": "address"
        }
      ],
      "stateMutability": "view",
      "type": "function"
    },
    {
      "inputs": [
        {
          "internalType": "address",
          "name": "",
          "type": "address"
        }
      ],
      "name": "special721Info",
      "outputs": [
        {
          "internalType": "string",
          "name": "name",
          "type": "string"
        },
        {
          "internalType": "uint256",
          "name": "rate",
          "type": "uint256"
        }
      ],
      "stateMutability": "view",
      "type": "function"
    },
    {
      "inputs": [
        {
          "internalType": "uint256",
          "name": "pid",
          "type": "uint256"
        },
        {
          "internalType": "address",
          "name": "toUser",
          "type": "address"
        },
        {
          "internalType": "uint256",
          "name": "interests",
          "type": "uint256"
        }
      ],
      "name": "transferInterestToLend",
      "outputs": [],
      "stateMutability": "nonpayable",
      "type": "function"
    },
    {
      "inputs": [
        {
          "internalType": "uint256",
          "name": "bid",
          "type": "uint256"
        }
      ],
      "name": "transferToAuction",
      "outputs": [],
      "stateMutability": "nonpayable",
      "type": "function"
    },
    {
      "inputs": [],
      "name": "uniswapV3",
      "outputs": [
        {
          "internalType": "contract IERC721",
          "name": "",
          "type": "address"
        }
      ],
      "stateMutability": "view",
      "type": "function"
    },
    {
      "inputs": [],
      "name": "uniswapV3Oracle",
      "outputs": [
        {
          "internalType": "contract IUniswapV3Oracle",
          "name": "",
          "type": "address"
        }
      ],
      "stateMutability": "view",
      "type": "function"
    },
    {
      "inputs": [
        {
          "internalType": "uint256",
          "name": "_pid",
          "type": "uint256"
        }
      ],
      "name": "unpausePool",
      "outputs": [],
      "stateMutability": "nonpayable",
      "type": "function"
    },
    {
      "inputs": [
        {
          "internalType": "uint256",
          "name": "pid",
          "type": "uint256"
        }
      ],
      "name": "updateBorrowPool",
      "outputs": [],
      "stateMutability": "nonpayable",
      "type": "function"
    },
    {
      "inputs": [
        {
          "internalType": "address",
          "name": "",
          "type": "address"
        }
      ],
      "name": "userApplyRate",
      "outputs": [
        {
          "internalType": "address",
          "name": "apply721Address",
          "type": "address"
        },
        {
          "internalType": "uint256",
          "name": "specialMaxRate",
          "type": "uint256"
        },
        {
          "internalType": "uint256",
          "name": "tokenId",
          "type": "uint256"
        }
      ],
      "stateMutability": "view",
      "type": "function"
    },
    {
      "inputs": [
        {
          "internalType": "uint256",
          "name": "bid",
          "type": "uint256"
        },
        {
          "internalType": "uint256",
          "name": "repayAmount",
          "type": "uint256"
        }
      ],
      "name": "userReturn",
      "outputs": [],
      "stateMutability": "nonpayable",
      "type": "function"
    },
    {
      "inputs": [
        {
          "internalType": "uint256",
          "name": "pid",
          "type": "uint256"
        },
        {
          "internalType": "uint256",
          "name": "tokenId",
          "type": "uint256"
        },
        {
          "internalType": "uint256",
          "name": "borrowAmount",
          "type": "uint256"
        }
      ],
      "name": "v3NFTBorrow",
      "outputs": [],
      "stateMutability": "nonpayable",
      "type": "function"
    }
  ],
  "bytecode": "0x608060405261028a600d5534801561001657600080fd5b506143fd806100266000396000f3fe608060405234801561001057600080fd5b50600436106102d65760003560e01c806369e9d4c111610182578063ac40ae02116100e9578063de587a27116100a2578063e49352fe1161007c578063e49352fe146107e4578063ee77d32f146107ed578063ee80ac6f14610800578063f807eb1214610820576102d6565b8063de587a271461079d578063e0ced952146107b0578063e3759d15146107c3576102d6565b8063ac40ae021461071d578063b13ae80414610726578063b36cd07f14610739578063c6ce58051461074c578063cf9f79c81461075f578063d9f899f214610772576102d6565b806393e5b1881161013b57806393e5b1881461065c5780639a01a4f71461066f5780639aea17b4146106825780639cf0b430146106a25780639f0950f9146106c2578063a38acccb1461070a576102d6565b806369e9d4c11461053157806372543925146105515780637d3e2a5a146105645780638c742130146105d45780638e7d12bd146105e757806391300db7146105fa576102d6565b806321a043af116102415780633ddb9943116101fa578063544caa56116101d4578063544caa56146104c55780635712cfc6146104f85780635e8ead771461050b578063642738601461051e576102d6565b80633ddb99431461048a5780634ddf73321461049257806351f1a51f146104b2576102d6565b806321a043af1461040857806322be6b1f1461041b57806325c601941461042e5780632e5871ec1461044157806335e41bd51461045457806336311d2814610477576102d6565b80631917abb2116102935780631917abb21461038257806319e4d512146103a55780631e0b8043146103b85780631e8438c4146103cb5780631fe7cacf146103de57806320a1e88a146103f1576102d6565b8063012a472c146102db5780630411f4b714610309578063041ae8801461033457806306f21ab3146103475780630acc8cd11461035c5780631575df931461036f575b600080fd5b6102ee6102e9366004613d4e565b610848565b604051610300969594939291906141cc565b60405180910390f35b60055461031c906001600160a01b031681565b6040516001600160a01b039091168152602001610300565b60115461031c906001600160a01b031681565b61035a610355366004613d86565b6109f8565b005b61035a61036a366004613d4e565b610c30565b61031c61037d366004613fb0565b610c94565b610395610390366004613fb0565b610cbe565b6040519015158152602001610300565b61035a6103b3366004613e83565b610f1c565b61035a6103c6366004613e58565b61106d565b61035a6103d9366004613e2b565b61114c565b61035a6103ec366004613fb0565b6111aa565b6103fa60125481565b604051908152602001610300565b6103fa610416366004613fb0565b61120b565b6103fa610429366004613fb0565b611232565b61035a61043c366004613fe0565b61131a565b61035a61044f366004614017565b6113a9565b610395610462366004613d4e565b600e6020526000908152604090205460ff1681565b61035a610485366004613fb0565b611430565b6009546103fa565b6103fa6104a0366004613fb0565b600f6020526000908152604090205481565b61035a6104c0366004614017565b6117c6565b6104d86104d3366004613d86565b611930565b604080516001600160a01b03938416815292909116602083015201610300565b6103fa610506366004613fb0565b611a11565b61035a610519366004613fb0565b611a37565b600c5461031c906001600160a01b031681565b6103fa61053f366004613fb0565b60106020526000908152604090205481565b61035a61055f366004613fb0565b611b12565b610577610572366004613fb0565b611e59565b604080516001600160a01b03909c168c5260208c019a909a52988a01979097526060890195909552608088019390935260a087019190915260c086015260e085015261010084015261012083015261014082015261016001610300565b6103fa6105e2366004613fb0565b611ece565b60065461031c906001600160a01b031681565b61060d610608366004613fb0565b611f0a565b604080516001600160a01b039a8b1681529990981660208a0152968801959095526060870193909352608086019190915260a085015260c084015260e083015261010082015261012001610300565b61035a61066a366004613d4e565b611f72565b60075461031c906001600160a01b031681565b610695610690366004613e58565b611fce565b6040516103009190614153565b6103fa6106b0366004613fb0565b60136020526000908152604090205481565b6106fb6106d0366004613d4e565b600b602052600090815260409020805460018201546002909201546001600160a01b03909116919083565b60405161030093929190614132565b61035a61071836600461405b565b6120f8565b6103fa600d5481565b61035a610734366004613fb0565b61273b565b6103fa610747366004613fb0565b612813565b61035a61075a366004613fb0565b61283f565b61069561076d366004613d4e565b61289e565b6103fa610780366004613e58565b600160209081526000928352604080842090915290825290205481565b61035a6107ab366004613dbe565b6129a6565b61035a6107be366004614017565b612b64565b6107d66107d1366004613d4e565b6130da565b6040516103009291906141aa565b6103fa61168081565b61035a6107fb366004614017565b61317e565b6103fa61080e366004613fb0565b60146020526000908152604090205481565b61083361082e366004614086565b6131d3565b60408051928352901515602083015201610300565b600d546001600160a01b038083166000908152600b602052604081205460609391928391168181156109e6576001600160a01b038781166000908152600b60205260408082206002015490516331a9108f60e11b8152600481018290529095509091841690636352211e9060240160206040518083038186803b1580156108ce57600080fd5b505afa1580156108e2573d6000803e3d6000fd5b505050506040513d601f19601f820116820180604052508101906109069190613d6a565b9050806001600160a01b0316886001600160a01b031614156109e4576001600160a01b038089166000908152600b602090815260408083206001908101549488168452600a90925290912080549298509093509061096390614322565b80601f016020809104026020016040519081016040528092919081815260200182805461098f90614322565b80156109dc5780601f106109b1576101008083540402835291602001916109dc565b820191906000526020600020905b8154815290600101906020018083116109bf57829003601f168201915b505050505096505b505b846109ef578394505b91939550919395565b6007546001600160a01b03163314610a505760405162461bcd60e51b81526020600482015260166024820152753737ba103632b732103b34b9ba37b91030b63637bb9760511b60448201526064015b60405180910390fd5b60408051610120810182526001600160a01b03938416815291831660208301908152600091830182815260608401838152436080860190815260a0860185815260c0870186815260e088018781526103206101008a01908152600880546001810182559952985160099098027ff3f7a9fe364faab93b216da50a3214154f22a0a2b415b23a84c8169e8b636ee381018054998c166001600160a01b03199a8b1617905596517ff3f7a9fe364faab93b216da50a3214154f22a0a2b415b23a84c8169e8b636ee48801805491909b1698169790971790985592517ff3f7a9fe364faab93b216da50a3214154f22a0a2b415b23a84c8169e8b636ee585015590517ff3f7a9fe364faab93b216da50a3214154f22a0a2b415b23a84c8169e8b636ee6840155517ff3f7a9fe364faab93b216da50a3214154f22a0a2b415b23a84c8169e8b636ee7830155517ff3f7a9fe364faab93b216da50a3214154f22a0a2b415b23a84c8169e8b636ee882015592517ff3f7a9fe364faab93b216da50a3214154f22a0a2b415b23a84c8169e8b636ee9840155517ff3f7a9fe364faab93b216da50a3214154f22a0a2b415b23a84c8169e8b636eea830155517ff3f7a9fe364faab93b216da50a3214154f22a0a2b415b23a84c8169e8b636eeb90910155565b601180546001600160a01b038381166001600160a01b0319831681179093556040805191909216808252602082019390935233917f7bdd8beff7d8411e2b81e553a7f28dd1d15b287f3a02a33f26ac4e4d7a5f866091015b60405180910390a25050565b60098181548110610ca457600080fd5b6000918252602090912001546001600160a01b0316905081565b60008060048381548110610ce257634e487b7160e01b600052603260045260246000fd5b600091825260208083206040805161016081018252600b90940290910180546001600160a01b0316845260018101549284018390526002810154918401919091526003810154606084015260048101546080840152600581015460a0840152600681015460c0840152600781015460e08401526008808201546101008501526009820154610120850152600a909101546101408401528054929450918110610d9a57634e487b7160e01b600052603260045260246000fd5b600091825260208083206040805161012081018252600990940290910180546001600160a01b039081168086526001830154821694860194909452600282015485840152600382015460608601526004808301546080870152600583015460a0870152600683015460c0870152600783015460e0870152600890920154610100860152600c548884015193516304bd838960e41b81529597501693634bd8389093610e5a93929091019182526001600160a01b0316602082015260400190565b604080518083038186803b158015610e7157600080fd5b505afa158015610e85573d6000803e3d6000fd5b505050506040513d601f19601f82011682018060405250810190610ea99190614038565b5090506000610ed26103e8610ecc8561010001518561333790919063ffffffff16565b90613343565b90506000610edf8761334f565b905081610ef98660800151836134fe90919063ffffffff16565b1115610f0d57600195505050505050610f17565b6000955050505050505b919050565b6103e88210610f3d5760405162461bcd60e51b8152600401610a4790614213565b6001600160a01b0383166000908152600a60209081526040909120600181015483519092610f6f929190850190613cb5565b506001600160a01b0384166000908152600a602052604081206001908101859055905b600954811015610ffd57856001600160a01b031660098281548110610fc757634e487b7160e01b600052603260045260246000fd5b6000918252602090912001546001600160a01b03161415610feb5760009150610ffd565b80610ff58161435d565b915050610f92565b5080156110215760098054869190634e487b7160e01b600052603260045260246000fd5b846001600160a01b03167f012b78c5d21ba97b720997b598236d1931fd00cf38a65f88b51ca53092f6baf533848760405161105e93929190614132565b60405180910390a25050505050565b6001600160a01b0382166000908152600a6020526040902060010154806110d65760405162461bcd60e51b815260206004820152601e60248201527f546869732037323120436f6e7472616374206e6f742073657474696e672e00006044820152606401610a47565b336000818152600b60205260409081902080546001600160a01b0319166001600160a01b03871617815560018101849055600201849055517f1e539acd4750e5a45f933dcf79543f31ff71228f09cdb2073a13800d3fd4d44e9061113f90869085908790614132565b60405180910390a2505050565b6001600160a01b0382166000818152600e6020908152604091829020805460ff191685151590811790915582519384529083015233917f3e8a5da8cabc1b490a219f97b787a956fa8fe76312bfe464ecbe6764a27302329101610c88565b61271081106111cb5760405162461bcd60e51b8152600401610a4790614213565b6012805490829055604080518281526020810184905233917f948e8b1938d4e599e9ca63988998041e722ffd1f32cca33174001002d80a51c49101610c88565b600061121682610cbe565b1561122357506000610f17565b61122c8261334f565b92915050565b6007546040516303afb43360e11b81526004810183905260009182916001600160a01b039091169063075f68669060240160a06040518083038186803b15801561127b57600080fd5b505afa15801561128f573d6000803e3d6000fd5b505050506040513d601f19601f820116820180604052508101906112b39190613f4b565b905060006112d2826060015183604001516134fe90919063ffffffff16565b116112e1576000915050610f17565b6113136112ff826060015183604001516134fe90919063ffffffff16565b6060830151610ecc9064e8d4a51000613337565b9392505050565b61136182826008868154811061134057634e487b7160e01b600052603260045260246000fd5b60009182526020909120600990910201546001600160a01b0316919061350a565b604080518481526001600160a01b038416602082015290810182905233907fce170d5650bdcc51636034b3f5b91db7f7ff62151f63e68616f5c4c930521aca9060600161113f565b6000600883815481106113cc57634e487b7160e01b600052603260045260246000fd5b90600052602060002090600902019050600081600801549050828260080181905550837fb898b12c44cb1aea78e35bcabb7eeeb5d86ef4848d91556dcc1f368af3ba62e633838660405161142293929190614132565b60405180910390a250505050565b61143981610cbe565b61147b5760405162461bcd60e51b815260206004820152601360248201527263616e206e6f742061756374696f6e206e6f7760681b6044820152606401610a47565b60006004828154811061149e57634e487b7160e01b600052603260045260246000fd5b90600052602060002090600b0201905080600a01546001146114f85760405162461bcd60e51b81526020600482015260136024820152723137b93937bb9039ba30ba329032b93937b91760691b6044820152606401610a47565b80546001820154600880546001600160a01b039093169260009290811061152f57634e487b7160e01b600052603260045260246000fd5b600091825260208083206001600160a01b038616845260018083526040808620918901548652925292206009600a870181905590910290910191506115738561334f565b60098501556004840154815461158891613572565b81556001600160a01b03831660009081526002602090815260408083206001880154845290915290206115bb908661357e565b506001600160a01b03831660009081526002602090815260408083206001880154845290915290206115ec9061358a565b6116185760018401546001600160a01b03841660009081526003602052604090206116169161357e565b505b600484015460018501546000908152600f602052604090205461163a916134fe565b6001850180546000908152600f6020908152604080832094909455600988015492548252601090529190912054611670916134fe565b60018501805460009081526010602052604090209190915554600485015461169a91906002613594565b6007546001850154600480870154604051632f50ba4360e11b81526001600160a01b0390941693635ea17486936116dd9390929101918252602082015260400190565b600060405180830381600087803b1580156116f757600080fd5b505af115801561170b573d6000803e3d6000fd5b505060055460065460028801546040516323b872dd60e01b81526001600160a01b0393841695506323b872dd945061174a93309316919060040161410e565b600060405180830381600087803b15801561176457600080fd5b505af1158015611778573d6000803e3d6000fd5b505050508360020154857fb23eb9c94498577267929ee3a0dfb5264937ecd77eabac78da59dac1efee11af86600101546040516117b791815260200190565b60405180910390a35050505050565b600082815260136020526040902054818110156118155760405162461bcd60e51b815260206004820152600d60248201526c2bb937b7339030b6b7bab73a1760991b6044820152606401610a47565b60008381526013602052604090205461182e9083613572565b600084815260136020526040812091909155600880548590811061186257634e487b7160e01b600052603260045260246000fd5b60009182526020918290206040805161012081018252600990930290910180546001600160a01b0390811680855260018301548216958501959095526002820154928401929092526003810154606084015260048101546080840152600581015460a0840152600681015460c0840152600781015460e0840152600801546101008301526011549193506118f89291168561350a565b604080518581526020810185905233917feb52865751bf5832b7c0bc5d822e259533c31650eff77ad238b0f5152f77fd2c9101611422565b600080826001600160a01b0316846001600160a01b031614156119955760405162461bcd60e51b815260206004820152601b60248201527f5633204e46543a204944454e544943414c5f41444452455353455300000000006044820152606401610a47565b826001600160a01b0316846001600160a01b0316106119b55782846119b8565b83835b90925090506001600160a01b038216611a0a5760405162461bcd60e51b81526020600482015260146024820152735633204e46543a205a45524f5f4144445245535360601b6044820152606401610a47565b9250929050565b600061122c64e8d4a51000610ecc611a2885612813565b611a3186611232565b90613337565b600060088281548110611a5a57634e487b7160e01b600052603260045260246000fd5b6000918252602091829020604080516101208101825260099390930290910180546001600160a01b039081168452600180830154909116848601526002820154848401526003820154606085015260048201546080850152600582015460a0850152600682015460c0850152600782015460e085015260089091015461010084015281518681529384015290925033917f8825f3b37c71ed68326b85768a26f08960100ff9ce5a70fea0d194f4d3be9d429101610c88565b336000908152600e602052604090205460ff16611b7d5760405162461bcd60e51b815260206004820152602360248201527f6e6f7420736574746c656d656e7420626f72726f7720766973746f7220616c6c60448201526237bb9760e91b6064820152608401610a47565b600060048281548110611ba057634e487b7160e01b600052603260045260246000fd5b90600052602060002090600b0201905080600a0154600914611bf35760405162461bcd60e51b815260206004820152600c60248201526b6572726f722073746174757360a01b6044820152606401610a47565b60006008826001015481548110611c1a57634e487b7160e01b600052603260045260246000fd5b6000918252602082206008600a860181905543908601556009858101546004870154919093029091019350611c4e916134fe565b600484015460018501546000908152600f6020526040902054919250611c749190613572565b6001840180546000908152600f6020908152604080832094909455600987015492548252601090529190912054611caa91613572565b60018401546000908152601060205260408120919091556012546009850154611cda9161271091610ecc91613337565b9050611d008460010154611cfb83876009015461357290919063ffffffff16565b61360d565b8254611d17906001600160a01b0316333085613705565b8015611d50576001840154600090815260136020526040902054611d3b90826134fe565b60018501546000908152601360205260409020555b6007548354611d6d916001600160a01b0391821691166000613726565b60075460048501548454611d8f926001600160a01b0391821692911690613726565b600754600185015460048087015460405163cd1fa12f60e01b81526001600160a01b039094169363cd1fa12f93611dd29390929101918252602082015260400190565b600060405180830381600087803b158015611dec57600080fd5b505af1158015611e00573d6000803e3d6000fd5b50505060018501546004860154600987015460408051938452602084019290925290820152606081018390528691507fd6279cb4c900712994fa56f896b7c2fc1226a85706c06dd7678198df07419ff09060800161105e565b60048181548110611e6957600080fd5b60009182526020909120600b9091020180546001820154600283015460038401546004850154600586015460068701546007880154600889015460098a0154600a909a01546001600160a01b039099169a50969895979496939592949193909290918b565b600060088281548110611ef157634e487b7160e01b600052603260045260246000fd5b9060005260206000209060090201600601549050919050565b60088181548110611f1a57600080fd5b60009182526020909120600990910201805460018201546002830154600384015460048501546005860154600687015460078801546008909801546001600160a01b0397881699509690951696939592949193909289565b600c80546001600160a01b038381166001600160a01b0319831681179093556040805191909216808252602082019390935233917f55f88e1a470467a8151fa2efb5c4a38d5ead3df1c5a84112b8d2b428ac28e7529101610c88565b6001600160a01b0382166000908152600260209081526040808320848452909152812060609190611ffe9061358a565b67ffffffffffffffff81111561202457634e487b7160e01b600052604160045260246000fd5b60405190808252806020026020018201604052801561204d578160200160208202803683370190505b50905060005b6001600160a01b0385166000908152600260209081526040808320878452909152902061207f9061358a565b8110156120f0576001600160a01b038516600090815260026020908152604080832087845290915290206120b3908261384a565b8282815181106120d357634e487b7160e01b600052603260045260246000fd5b6020908102919091010152806120e88161435d565b915050612053565b509392505050565b3360009081526001602090815260408083208684529091528120600880549192918690811061213757634e487b7160e01b600052603260045260246000fd5b60009182526020808320604080516101208101825260099490940290910180546001600160a01b039081168086526001830154821694860194909452600282015485840152600382015460608601526004808301546080870152600583015460a0870152600683015460c0870152600783015460e0870152600890920154610100860152600c5492516304bd838960e41b81529182018a905260248201939093529294501690634bd8389090604401604080518083038186803b1580156121fd57600080fd5b505afa158015612211573d6000803e3d6000fd5b505050506040513d601f19601f820116820180604052508101906122359190614038565b5060008781526014602052604090205490915081116122a25760405162461bcd60e51b815260206004820152602360248201527f5468652076616c7565206f6620636f6c6c61746572616c20697320746f6f206c60448201526237bb9760e91b6064820152608401610a47565b60006122ad33610848565b5050505091505060006122cf6103e8610ecc848661333790919063ffffffff16565b90508581101561232d5760405162461bcd60e51b815260206004820152602360248201527f4578636565647320746865206d6178696d756d206c6f616e61626c6520616d6f6044820152621d5b9d60ea1b6064820152608401610a47565b61233988876001613594565b6040805161016081018252338152602081018a815291810189815260608201868152608083018a8152600060a0808601828152908b015160c087019081524360e088019081526101008801848152610120890185815260016101408b01818152600480548084018255818a529c517f8a35acfbc15ff81a39ae7d344fd709f28e8600b4aa8c65c6b64bfe7fe36bd19b600b909e029d8e0180546001600160a01b0319166001600160a01b039092169190911790559c517f8a35acfbc15ff81a39ae7d344fd709f28e8600b4aa8c65c6b64bfe7fe36bd19c8d015599517f8a35acfbc15ff81a39ae7d344fd709f28e8600b4aa8c65c6b64bfe7fe36bd19d8c015597517f8a35acfbc15ff81a39ae7d344fd709f28e8600b4aa8c65c6b64bfe7fe36bd19e8b015595517f8a35acfbc15ff81a39ae7d344fd709f28e8600b4aa8c65c6b64bfe7fe36bd19f8a015592517f8a35acfbc15ff81a39ae7d344fd709f28e8600b4aa8c65c6b64bfe7fe36bd1a089015590517f8a35acfbc15ff81a39ae7d344fd709f28e8600b4aa8c65c6b64bfe7fe36bd1a1880155517f8a35acfbc15ff81a39ae7d344fd709f28e8600b4aa8c65c6b64bfe7fe36bd1a2870155517f8a35acfbc15ff81a39ae7d344fd709f28e8600b4aa8c65c6b64bfe7fe36bd1a386015590517f8a35acfbc15ff81a39ae7d344fd709f28e8600b4aa8c65c6b64bfe7fe36bd1a485015591517f8a35acfbc15ff81a39ae7d344fd709f28e8600b4aa8c65c6b64bfe7fe36bd1a590930192909255915461257791906142df565b865490915061258690886134fe565b86553360009081526002602090815260408083208c845290915290206125ab9061358a565b6125ca573360009081526003602052604090206125c8908a613856565b505b3360009081526002602090815260408083208c845290915290206125ee9082613856565b506005546040516323b872dd60e01b81526001600160a01b03909116906323b872dd9061262390339030908d9060040161410e565b600060405180830381600087803b15801561263d57600080fd5b505af1158015612651573d6000803e3d6000fd5b505060075460405163545fb83160e11b8152600481018d9052336024820152604481018b90526001600160a01b03909116925063a8bf70629150606401600060405180830381600087803b1580156126a857600080fd5b505af11580156126bc573d6000803e3d6000fd5b5050336000818152600b60209081526040918290205482518781529182018a90528183018d9052606082018990526001600160a01b031660808201524360a082015290518d94508c93507f0a00f00280e32be58f7700959160aa318c58c4d12ad6d6d83cdf7520d8c107809181900360c00190a4505050505050505050565b60006008828154811061275e57634e487b7160e01b600052603260045260246000fd5b60009182526020808320604080516101208101825260099490940290910180546001600160a01b039081168552600182015416848401526002810154848301526003810154606085015260048101546080850152600581015460a0850152600681015460c0850152600781015460e08501526008015461010084015280518681529182019390935290925033917f8825f3b37c71ed68326b85768a26f08960100ff9ce5a70fea0d194f4d3be9d429101610c88565b600061122c6405d21dba0061283964e8d4a51000610ecc642e90edd000611a3188611232565b906134fe565b6007546001600160a01b031633146128925760405162461bcd60e51b81526020600482015260166024820152753737ba103632b732103b34b9ba37b91030b63637bb9760511b6044820152606401610a47565b61289b81613862565b50565b6001600160a01b0381166000908152600360205260408120606091906128c39061358a565b67ffffffffffffffff8111156128e957634e487b7160e01b600052604160045260246000fd5b604051908082528060200260200182016040528015612912578160200160208202803683370190505b50905060005b6001600160a01b03841660009081526003602052604090206129399061358a565b81101561299f576001600160a01b0384166000908152600360205260409020612962908261384a565b82828151811061298257634e487b7160e01b600052603260045260246000fd5b6020908102919091010152806129978161435d565b915050612918565b5092915050565b600054610100900460ff16158080156129c65750600054600160ff909116105b806129e05750303b1580156129e0575060005460ff166001145b612a435760405162461bcd60e51b815260206004820152602e60248201527f496e697469616c697a61626c653a20636f6e747261637420697320616c72656160448201526d191e481a5b9a5d1a585b1a5e995960921b6064820152608401610a47565b6000805460ff191660011790558015612a66576000805461ff0019166101001790555b6103e88310612a875760405162461bcd60e51b8152600401610a4790614213565b6127108210612aa85760405162461bcd60e51b8152600401610a4790614213565b600580546001600160a01b03199081166001600160a01b038a811691909117909255600c80548216898416179055600780548216888416179055600680549091168683161790819055600d859055166000908152600e60205260409020805460ff1916600117905560128290558015612b5b576000805461ff0019169055604051600181527f7f26b83ff96e1f2b6a682f133852f6798a09c465da95921460cefb38474024989060200160405180910390a15b50505050505050565b600060048381548110612b8757634e487b7160e01b600052603260045260246000fd5b60009182526020909120600b9091020180549091506001600160a01b03163314612bdf5760405162461bcd60e51b81526020600482015260096024820152683737ba1037bbb732b960b91b6044820152606401610a47565b60006008826001015481548110612c0657634e487b7160e01b600052603260045260246000fd5b600091825260208083206040805161012081018252600990940290910180546001600160a01b039081168552600180830154909116858501526002820154858401526003820154606086015260048201546080860152600582015460a0860152600682015460c0860152600782015460e0860152600890910154610100850152338552808352818520908701548552909152822090925090612ca78661334f565b905080851015612cf95760405162461bcd60e51b815260206004820152601d60248201527f4e6f7420656e6f75676820746f20726570617920696e7465726573742e0000006044820152606401610a47565b6004840154600090612d0b90836134fe565b905080861115612d19578095505b6000612d258784613572565b85516040516370a0823160e01b81523360048201529192506000916001600160a01b03909116906370a082319060240160206040518083038186803b158015612d6d57600080fd5b505afa158015612d81573d6000803e3d6000fd5b505050506040513d601f19601f82011682018060405250810190612da59190613fc8565b905087811015612dec5760405162461bcd60e51b81526020600482015260126024820152713737ba1032b737bab3b41030b6b7bab73a1760711b6044820152606401610a47565b612dfc8760010154836002613594565b6000612e19612710610ecc6012548861333790919063ffffffff16565b6001890154909150612e2f90611cfb8784613572565b8554612e3b9084613572565b86556004880154831415612f3e5733600090815260026020908152604080832060018c015484529091529020612e71908b61357e565b508554612ec25733600090815260026020908152604080832060018c015484529091529020612e9f9061358a565b612ec2576001880154336000908152600360205260409020612ec09161357e565b505b4360088901556002600a8901819055600554908901546040516323b872dd60e01b81526001600160a01b03909216916323b872dd91612f07913091339160040161410e565b600060405180830381600087803b158015612f2157600080fd5b505af1158015612f35573d6000803e3d6000fd5b50505050612f5d565b6004880154612f4d9084613572565b600489015560a087015160068901555b6005880154612f6c90846134fe565b60058901556009880154612f8090866134fe565b60098901558651612f9c906001600160a01b031633308c613705565b8015612fd5576001880154600090815260136020526040902054612fc090826134fe565b60018901546000908152601360205260409020555b6007548751612ff2916001600160a01b0391821691166000613726565b600754875161300e916001600160a01b03918216911685613726565b600754600189015460405163ec510b3b60e01b81526001600160a01b039092169163ec510b3b9161304c918790600401918252602082015260400190565b600060405180830381600087803b15801561306657600080fd5b505af115801561307a573d6000803e3d6000fd5b505050600189015460408051918252602082018690528101879052606081018390528b915033907f793324a68db7201628508c33a28fc8107763fee328f5f54783918c1f2844443f9060800160405180910390a350505050505050505050565b600a602052600090815260409020805481906130f590614322565b80601f016020809104026020016040519081016040528092919081815260200182805461312190614322565b801561316e5780601f106131435761010080835404028352916020019161316e565b820191906000526020600020905b81548152906001019060200180831161315157829003601f168201915b5050505050908060010154905082565b600082815260146020908152604091829020805490849055825185815291820181905291810183905233907f79cf9f96b45472cf1222a9e1ad96a4c1cc372d190c97eb95ce5aa1a72e2d488a9060600161113f565b6000806000600887815481106131f957634e487b7160e01b600052603260045260246000fd5b60009182526020808320604080516101208101825260099490940290910180546001600160a01b039081168086526001830154821694860194909452600282015485840152600382015460608601526004808301546080870152600583015460a0870152600683015460c0870152600783015460e0870152600890920154610100860152600c5492516304bd838960e41b81529182018c905260248201939093529294501690634bd8389090604401604080518083038186803b1580156132bf57600080fd5b505afa1580156132d3573d6000803e3d6000fd5b505050506040513d601f19601f820116820180604052508101906132f79190614038565b509050600061330586610848565b505050509150506133256103e8610ecc838561333790919063ffffffff16565b99968a10159850959650505050505050565b600061131382846142c0565b600061131382846142a0565b6000806004838154811061337357634e487b7160e01b600052603260045260246000fd5b600091825260208083206040805161016081018252600b90940290910180546001600160a01b0316845260018101549284018390526002810154918401919091526003810154606084015260048101546080840152600581015460a0840152600681015460c0840152600781015460e08401526008808201546101008501526009820154610120850152600a90910154610140840152805492945091811061342b57634e487b7160e01b600052603260045260246000fd5b600091825260208083206040805161012081018252600990940290910180546001600160a01b03908116855260018201541692840192909252600282015490830152600381015460608301819052600482015460808401819052600583015460a0850152600683015460c0850152600783015460e08501526008909201546101008401529193506134bd9190436138ed565b90506134f564e8d4a51000610ecc8560800151611a318760c001516134ef878960a001516134fe90919063ffffffff16565b90613572565b95945050505050565b60006113138284614288565b6040516001600160a01b03831660248201526044810182905261356d90849063a9059cbb60e01b906064015b60408051601f198184030181529190526020810180516001600160e01b03166001600160e01b03199093169290921790915261391c565b505050565b600061131382846142df565b600061131383836139f1565b600061122c825490565b6000600884815481106135b757634e487b7160e01b600052603260045260246000fd5b9060005260206000209060090201905081600114156135e95760028101546135df90846134fe565b60028201556135fe565b60028101546135f89084613572565b60028201555b61360784613862565b50505050565b80156137015760006008838154811061363657634e487b7160e01b600052603260045260246000fd5b9060005260206000209060090201905060008160010160009054906101000a90046001600160a01b03166001600160a01b03166318160ddd6040518163ffffffff1660e01b815260040160206040518083038186803b15801561369857600080fd5b505afa1580156136ac573d6000803e3d6000fd5b505050506040513d601f19601f820116820180604052508101906136d09190613fc8565b90508015613607576136f96136ee82610ecc8664e8d4a51000613337565b6006840154906134fe565b600683015550505b5050565b613607846323b872dd60e01b8585856040516024016135369392919061410e565b8015806137af5750604051636eb1769f60e11b81523060048201526001600160a01b03838116602483015284169063dd62ed3e9060440160206040518083038186803b15801561377557600080fd5b505afa158015613789573d6000803e3d6000fd5b505050506040513d601f19601f820116820180604052508101906137ad9190613fc8565b155b61381a5760405162461bcd60e51b815260206004820152603660248201527f5361666545524332303a20617070726f76652066726f6d206e6f6e2d7a65726f60448201527520746f206e6f6e2d7a65726f20616c6c6f77616e636560501b6064820152608401610a47565b6040516001600160a01b03831660248201526044810182905261356d90849063095ea7b360e01b90606401613536565b60006113138383613b0e565b60006113138383613b46565b60006008828154811061388557634e487b7160e01b600052603260045260246000fd5b90600052602060002090600902019050438160040154106138a6575061289b565b60006138bb82600301548360040154436138ed565b43600484015590506138cc83612813565b600383015560058201546138e090826134fe565b8260050181905550505050565b600061391461390061168061016d6142c0565b610ecc61390d8587613572565b8790613337565b949350505050565b6000613971826040518060400160405280602081526020017f5361666545524332303a206c6f772d6c6576656c2063616c6c206661696c6564815250856001600160a01b0316613b959092919063ffffffff16565b90508051600014806139925750808060200190518101906139929190613f2f565b61356d5760405162461bcd60e51b815260206004820152602a60248201527f5361666545524332303a204552433230206f7065726174696f6e20646964206e6044820152691bdd081cdd58d8d9595960b21b6064820152608401610a47565b60008181526001830160205260408120548015613b04576000613a156001836142df565b8554909150600090613a29906001906142df565b9050818114613aaa576000866000018281548110613a5757634e487b7160e01b600052603260045260246000fd5b9060005260206000200154905080876000018481548110613a8857634e487b7160e01b600052603260045260246000fd5b6000918252602080832090910192909255918252600188019052604090208390555b8554869080613ac957634e487b7160e01b600052603160045260246000fd5b60019003818190600052602060002001600090559055856001016000868152602001908152602001600020600090556001935050505061122c565b600091505061122c565b6000826000018281548110613b3357634e487b7160e01b600052603260045260246000fd5b9060005260206000200154905092915050565b6000818152600183016020526040812054613b8d5750815460018181018455600084815260208082209093018490558454848252828601909352604090209190915561122c565b50600061122c565b6060613914848460008585600080866001600160a01b03168587604051613bbc91906140f2565b60006040518083038185875af1925050503d8060008114613bf9576040519150601f19603f3d011682016040523d82523d6000602084013e613bfe565b606091505b5091509150613c0f87838387613c1a565b979650505050505050565b60608315613c86578251613c7f576001600160a01b0385163b613c7f5760405162461bcd60e51b815260206004820152601d60248201527f416464726573733a2063616c6c20746f206e6f6e2d636f6e74726163740000006044820152606401610a47565b5081613914565b6139148383815115613c9b5781518083602001fd5b8060405162461bcd60e51b8152600401610a479190614197565b828054613cc190614322565b90600052602060002090601f016020900481019282613ce35760008555613d29565b82601f10613cfc57805160ff1916838001178555613d29565b82800160010185558215613d29579182015b82811115613d29578251825591602001919060010190613d0e565b50613d35929150613d39565b5090565b5b80821115613d355760008155600101613d3a565b600060208284031215613d5f578081fd5b8135611313816143a4565b600060208284031215613d7b578081fd5b8151611313816143a4565b60008060408385031215613d98578081fd5b8235613da3816143a4565b91506020830135613db3816143a4565b809150509250929050565b60008060008060008060c08789031215613dd6578182fd5b8635613de1816143a4565b95506020870135613df1816143a4565b94506040870135613e01816143a4565b93506060870135613e11816143a4565b9598949750929560808101359460a0909101359350915050565b60008060408385031215613e3d578182fd5b8235613e48816143a4565b91506020830135613db3816143b9565b60008060408385031215613e6a578182fd5b8235613e75816143a4565b946020939093013593505050565b600080600060608486031215613e97578283fd5b8335613ea2816143a4565b92506020848101359250604085013567ffffffffffffffff80821115613ec6578384fd5b818701915087601f830112613ed9578384fd5b813581811115613eeb57613eeb61438e565b613efd601f8201601f19168501614257565b91508082528884828501011115613f12578485fd5b808484018584013784848284010152508093505050509250925092565b600060208284031215613f40578081fd5b8151611313816143b9565b600060a08284031215613f5c578081fd5b613f6660a0614257565b8251613f71816143a4565b81526020830151613f81816143a4565b806020830152506040830151604082015260608301516060820152608083015160808201528091505092915050565b600060208284031215613fc1578081fd5b5035919050565b600060208284031215613fd9578081fd5b5051919050565b600080600060608486031215613ff4578283fd5b833592506020840135614006816143a4565b929592945050506040919091013590565b60008060408385031215614029578182fd5b50508035926020909101359150565b6000806040838503121561404a578182fd5b505080516020909101519092909150565b60008060006060848603121561406f578081fd5b505081359360208301359350604090920135919050565b6000806000806080858703121561409b578182fd5b84359350602085013592506040850135915060608501356140bb816143a4565b939692955090935050565b600081518084526140de8160208601602086016142f6565b601f01601f19169290920160200192915050565b600082516141048184602087016142f6565b9190910192915050565b6001600160a01b039384168152919092166020820152604081019190915260600190565b6001600160a01b039390931683526020830191909152604082015260600190565b6020808252825182820181905260009190848201906040850190845b8181101561418b5783518352928401929184019160010161416f565b50909695505050505050565b60006020825261131360208301846140c6565b6000604082526141bd60408301856140c6565b90508260208301529392505050565b600060c082526141df60c08301896140c6565b602083019790975250604081019490945260608401929092526001600160a01b03166080830152151560a090910152919050565b60208082526024908201527f546865206d6178696d756d20726174696f20686173206265656e2065786365656040820152633232b21760e11b606082015260800190565b604051601f8201601f1916810167ffffffffffffffff811182821017156142805761428061438e565b604052919050565b6000821982111561429b5761429b614378565b500190565b6000826142bb57634e487b7160e01b81526012600452602481fd5b500490565b60008160001904831182151516156142da576142da614378565b500290565b6000828210156142f1576142f1614378565b500390565b60005b838110156143115781810151838201526020016142f9565b838111156136075750506000910152565b60028104600182168061433657607f821691505b6020821081141561435757634e487b7160e01b600052602260045260246000fd5b50919050565b600060001982141561437157614371614378565b5060010190565b634e487b7160e01b600052601160045260246000fd5b634e487b7160e01b600052604160045260246000fd5b6001600160a01b038116811461289b57600080fd5b801515811461289b57600080fdfea26469706673582212206f73b5a42037235cee59e43f62f5fbe86bcf706d1865fbd03fac8fbfd187c28b64736f6c63430008020033",
  "linkReferences": {},
  "deployedLinkReferences": {}
}